:100000000C942A030C9481270C9447030C94470307
:100010000C9447030C9447030C9447030C94470338
:100020000C9447030C9447030C9468220C944703E8
:100030000C9460230C9447030C9447030C944703DF
:100040000C9447030C94BC260C9447030C94470370
:100050000C9447030C943C230C9447030C944703E3
:100060000C9447030C9447030C9447030C944703E8
:100070000C9447030C9447030C9447030C944703D8
:100080000C9447030C9447030C9447030C944703C8
:100090000C9447030C9447030C9447030C944703B8
:1000A0000C9447030C9447030C94470329001E004B
:1000B0001F00200021002200000000002B0014007F
:1000C0001A0008001500170000000000E0000400FE
:1000D0001600070009000A0000000000E1001D00F2
:1000E0001B00060019000500000000002252E3007A
:1000F000E200307E2C0000000000000023002400FD
:100100002500260027002D002E0035001C001800B9
:100110000C00120013002F0030002A000B000D000D
:100120000E000F00330034002800310011001000D1
:10013000360037003800E4005200E5002C00317E24
:100140000000E6002252500051004F002900007EBE
:10015000017E027E037E047E000000002B000D7EE7
:100160000E7E0F7E107E117E00000000E000197EE2
:100170001A7E1B7E1C7E1D7E00000000E100247E96
:10018000257E267E277E287E000000002252E30086
:10019000E20001002E7E000000000000057E067EC9
:1001A000077E087E097E0A7E0B7E3500127E137E56
:1001B000147E157E167E177E187E2A001E7E1F7EF8
:1001C000207E217E227E237E28000C7E297E2A7EB0
:1001D0002B7E2C7E2D7EE0005200E5002F7E01005C
:1001E00000000100225201000100010035003A0028
:1001F0003B003C003D003E0000000000010001000B
:10020000010001002D782078000000000100337803
:100210002E7801002B7832780000000001004C0598
:100220003178010001002C7800000000225201000A
:1002300001002C00307E0000000000003F00400064
:100240004100420043004400450001004A004E00C6
:100250004B004D004600010048004C00500051008A
:1002600052004F0049004C00280001002F78010087
:1002700001000100010001004B000100317E2C0053
:100280000000010022524A004E004D0000047F3F52
:100290001F643214643214783C1E1E140A050001D7
:1002A0000101010101010101020202020202020236
:1002B0000203030303030303030404040404040408
:1002C00005050505050606060606070707070708CC
:1002D000080808090909090A0A0A0B0B0B0C0C0C7F
:1002E0000D0D0D0E0E0E0F0F0F1010111111121219
:1002F00013131414151516161717181819191A1A96
:100300001B1B1C1D1D1E1E1F2020212222232424F6
:10031000252626272829292A2B2C2D2D2E2F303132
:100320003232333435363738393A3B3C3D3E3F4044
:100330004142434445464748494A4C4D4E4F50512F
:100340005354555658595A5B5D5E5F6162646566E9
:1003500068696B6C6D6F7072737577787A7B7D7E70
:100360008082838587888A8C8E8F91939596989AC0
:100370009C9EA0A2A3A5A7A9ABADAFB1B3B5B7BAD8
:10038000BCBEC0C2C4C6C9CBCDCFD1D4D6D8DBDDAC
:10039000DFE2E4E7E9EBEEF0F3F5F8FAFDFFFFAAA0
:1003A0007F55402223252628292A2C2D2F30323311
:1003B0003536383A3B3D3E4042434547494A4C4E2C
:1003C0005051535557595A5C5E6062646668696B58
:1003D0006D6F71737577797B7D7F81838587898A5E
:1003E0008C8E90929496989A9C9E9FA1A3A5A7A864
:1003F000AAACAEAFB1B3B4B6B8B9BBBCBEBFC1C294
:10040000C3C5C6C7C9CACBCCCDCED0D1D2D2D3D426
:10041000D5D6D7D7D8D9D9DADADBDBDBDCDCDCDC44
:10042000DCDDDDDDDDDCDCDCDCDCDBDBDBDADAD912
:10043000D9D8D7D7D6D5D4D3D2D2D1D0CECDCCCB94
:10044000CAC9C7C6C5C3C2C1BFBEBCBBB9B8B6B4B2
:10045000B3B1AFAEACAAA8A7A5A3A19F9E9C9A9842
:10046000969492908E8C8A89878583817F7D7B7913
:10047000777573716F6D6B6968666462605E5C5AF4
:100480005957555351504E4C4A4947454342403EB7
:100490003D3B3A3836353332302F2D2C2A29282649
:1004A00025232200000000000000000000000000E2
:1004B000000000000000000000000000000000003C
:1004C000000000000000007E0F00D4FFFFFFC70007
:1004D00000007800000000000000002A2B28000027
:1004E00000000000000000000000000000002900E3
:1004F0000000002C1E3420212224342627252E36ED
:100500002D3738271E1F202122232425263333365A
:100510002E37381F0405060708090A0B0C0D0E0FAD
:10052000101112131415161718191A1B1C1D2F3130
:1005300030232D350405060708090A0B0C0D0E0F94
:10054000101112131415161718191A1B1C1D2F3110
:1005500030354C05010906A1018506050719E0297A
:10056000E715002501950875018102050719002985
:10057000EF1500250195F075018102050819012983
:1005800005950575019102950175039101C005015D
:100590000906A101050719E029E7150025019508BD
:1005A000750181029501750881010507190029FF70
:1005B000150026FF00950675088100050819012918
:1005C00005950575019102950175039101C0090218
:1005D0003B00020100A0C809040000010301010062
:1005E00009211101000122400007058103080001D3
:1005F000090401000103000000092111010001228A
:100600003B000705820320000112010002000000E8
:1006100008D804DDE600010102000110036700753F
:1006200000690064006500360038000000200353B4
:100630000061006C006900630079006C0069006370
:10064000002D0061006300690064003300000004B5
:100650000309040011241FBECFEFDAE0DEBFCDBFD7
:1006600013E0A0E0B1E0ECE6F5E502C005900D92E4
:10067000AC30B107D9F724E0ACE0B3E001C01D9283
:10068000A939B207E1F70E9487230C94DA290C9468
:100690000000FC01AC014B5F5F4F8FEF91E32191B4
:1006A000822728E030E087FF09C0880F8927215082
:1006B0003109C9F7E417F50791F70895880FF7CFC7
:1006C000E8EDF0E080818E7F80831092E20010924E
:1006D000DA001092E100A0EEB0E08C9181608C9382
:1006E00080818F77808319BCA7EDB0E08C918E7FDD
:1006F0008C9380818F7E808310926704089520916F
:10070000E4003091E50095E6A9012091EC00822FEC
:10071000817020FF06C08091E80080FF06C080E065
:1007200008952091E80022FD1AC080919504882345
:1007300089F0853089F08091EB0085FD0FC0209114
:10074000E4003091E50042175307F9F29150E1F6C9
:1007500084E0089582E0089583E0089581E008959B
:1007600080918D0487FF13C08091E80082FF06C04E
:100770008091E8008B778093E80004C08091950415
:100780008111F2CF0895809195048823D9F3809147
:10079000E80080FFF8CF8091E8008E77ECCF982FAB
:1007A0009093E900242F762F50E0891731F0709153
:1007B000EC002091ED005091F00021FD07C09F5FFB
:1007C000973071F78093E90081E008953091EB0054
:1007D0003E7F3093EB003091ED003D7F3093ED0094
:1007E0003091EB0031603093EB007093EC0020937C
:1007F000ED005093F0002091EE0027FDE0CF80E067
:100800000895B0E0A0E0E7E0F4E00C94A728C8ED7C
:10081000D0E088818F7E8883E7EDF0E08081816081
:10082000808384E082BF81E08093670488818E7F2B
:10083000888302EE10E0F80110821092DA0081EE57
:10084000C82ED12CF601108288818F778883888109
:100850008068888388818F7D888319BC1092950475
:1008600010928C0410928B0410928A0490EEE92E60
:10087000F12CF70180818B7F808388818160888360
:1008800042E060E080E00E94CF03F60180818E7F2D
:100890008083F8018081816080838081886080838B
:1008A000F70180818E7F8083888180618883CDB7C6
:1008B000DEB7E8E00C94C328FC018091930490918A
:1008C000940486179707A0F06115710529F490919B
:1008D000E8009E779093E80090E06115710551F46F
:1008E000911108C08091E80082FF34C080E0089533
:1008F000BC01F2CF809195048823C1F18530C1F10C
:100900008091E80083FD30C08091E80082FDEACF4D
:100910008091E80080FFE1CF8091F3002091F20008
:10092000382F6115710519F02830310558F091E024
:100930002830310509F090E02091E8002E772093CF
:10094000E800CBCF81918093F100615071092F5F56
:100950003F4FE7CF80919504882341F0853041F0E7
:100960008091E80083FFBECF81E0089582E0089582
:1009700083E0089508950895089580916904089585
:1009800087E797E7909301088093000888E19AE051
:100990000FB6F894A895809360000FBE9093600006
:1009A000FFCF9C014FB7F89480916104909162044D
:1009B000A0916304B09164044FBF821B930B089510
:1009C0002FB7F89460916104709162048091630480
:1009D000909164042FBF08952FB7F894809161041B
:1009E00090916204A0916304B09164042FBF0895B4
:1009F000FA01811101C0FB0109950895EEE2F4E0CE
:100A00001182828184608283089580915904982F95
:100A10009E7F61F4817082608093590480915C04B0
:100A2000853B18F084EB80935C0408958A34B0F31E
:100A300081708864F1CFAF92BF92DF92EF92FF9204
:100A40000F931F93CF93DF93182F062FE901453B98
:100A500008F044EBE42FF0E0E256FD4F011110C026
:100A6000E4915E2F4E2F4983E8835A83DF91CF9123
:100A70001F910F91FF90EF90DF90BF90AF9008957E
:100A8000202F30E04491D42EE42EF12C56E0159F17
:100A9000C0011124EFEFF0E0BF010E94E228812F96
:100AA00090E0880F991F55E5569FD001579FB00DD4
:100AB00011248A1B9B0B982F990F890F5F01A21A93
:100AC000B30AAE9CD001AF9CB00DBE9CB00D1124FA
:100AD0005B2F089F80011124012F11275F01A01AAD
:100AE000B10AAE9C8001AF9C100DBE9C100D11246C
:100AF0005F01A81AB108A29EC001A39E900DB29EEC
:100B0000900D1124892F9927E81BF90BEE9DC00148
:100B1000EF9D900DFE9D900D1124E92F623071051F
:100B2000A1F050F46115710509F49DCF6130710594
:100B300081F0EB2F512F97CF6430710569F080F071
:100B40006630710509F48FCFF4CFE42F4B2F592F66
:100B50008ACFE42F412F87CFEB2F542F492F83CFFC
:100B60004B2F5D2DE12F7FCF80E00895F894E82F83
:100B7000E295EF70F0E031A1282F2F7081E090E036
:100B800001C0880F2A95EAF7982F9095932391A397
:100B900092A1892B82A3789408959091650492FF85
:100BA00006C0282F28712830F9F4877F846093FFCE
:100BB00006C0282F28712831F1F4877E84612091A6
:100BC000660420FF06C0382F38713830D9F4877F8B
:100BD000816021FF06C0282F28712831D1F4877E3B
:100BE000816194FD877E0895282F24712430F9F6C1
:100BF0008B7F8860DCCF282F2471243101F78B7E16
:100C00008861DDCF382F3171313019F78E7F8860E0
:100C1000E0CF282F2171213121F78E7E8861E1CF2D
:100C20007A30C8F46830B8F48330A8F4E72FF0E0E5
:100C30009AE0899FE00DF11D112483E0EE0FFF1F64
:100C40008A95E1F7E60FF11DEE0FFF1FE455FF4F08
:100C500085919491089580E090E00895CF93DF937B
:100C6000EC018238910579F1D0F58133910509F4D1
:100C700097C018F58932910509F487C08A9709F45D
:100C800096C0C11522E5D20708F0B0C0C11530E505
:100C9000D30708F02CC1C83ED10508F097C0C13E6B
:100CA000D10558F5C53AD10508F088C0C430D10542
:100CB00020F5C130D10509F145C08533910509F40E
:100CC0005FC0C997F1F680916504837009F02DC16A
:100CD0008091660483FF11C0C9E2D0E00EC0833E5C
:100CE000910599F170F4803E910501F1823E9105E4
:100CF00041F68091650482FD21C0CE01DF91CF9144
:100D00000895863E910561F1873E910571F1843E1B
:100D1000910509F0B6CF8091660481FFEECF8091F6
:100D20006504C7EED0E084FD0DC0E7CF8091650477
:100D300080FD33C09091660490FFDFCFC3EED0E01A
:100D400084FFDBCFD0E0C0E0D8CF8091650482FD86
:100D5000E9C09091660490FDE8C084FFCECFF2CF49
:100D60008091650483FDDDCFC8CF8091650483FD4C
:100D7000DFC09091660491FFF0CFC4EED0E0BDCF0C
:100D80008091650485FFB9CFA7CF8091650485FD6B
:100D9000D2C08091660483FFB0CFC9E3D0E0ADCF6D
:100DA0008091650486FFA9CFCAE2D0E0A6CF8091EA
:100DB000650486FFA2CFC1E3D0E09FCFCE018D5C5A
:100DC0009109D065439708F498CFBCCFC11540E492
:100DD000D40708F044C0C11580E2D80708F095C0D8
:100DE000C11591E0D90708F088CFACCFC03822E513
:100DF000D207A8F4C03632E5D30708F05CC0C0348F
:100E000042E5D40708F042C0C03282E5D80750F16D
:100E1000CF71D0E0DC2FCC27C16FD06A6ECFC03C41
:100E200092E5D90780F48C2F8F71C03AD24508F42F
:100E300057C00E94CD05C82FD0E0DC2FCC27CC278F
:100E4000DF71D0625ACFC03E32E5D30708F07ACFC7
:100E5000DC2FCC27CC27DF71C06FD06A4ECFDF707C
:100E6000D06A4BCF2C2F2695269540E2249F9001E7
:100E700011248C2F8370C1E0D0E002C0CC0FDD1FA5
:100E80008A95E2F7C22BD32BDD6837CF2C2F26951E
:100E90002695277080E2289F900111248C2F837063
:100EA000C1E0D0E002C0CC0FDD1F8A95E2F7C22B73
:100EB000D32BDC6822CF2C2F26952695277090E225
:100EC000299F900111248C2F8370C1E0D0E002C0D3
:100ED000CC0FDD1F8A95E2F7C22BD32BDA680DCF3A
:100EE000C82FD0E0DC2FCC27C46FD06A06CF8C2F60
:100EF0008F710E94CD0535E0D695C7953A95E1F7FB
:100F0000CF709C2FEC01D069F8CE8D2F8F710E948D
:100F1000CD0590E0982F882788279F719C012C2B66
:100F2000E9018FCFC2EED0E0E8CEC0EED0E0E5CE52
:100F3000C6EED0E0E2CEC5E3D0E0DFCE8091BD03C7
:100F400081111092BD03089580959091BC03982360
:100F50009093BC03089590913C019923D1F0909116
:100F6000650497FF16C0E82FE695E695E695EE3105
:100F7000E0F4F0E0E25FFC4F282F277081E090E082
:100F800001C0880F2A95EAF7809592818923828390
:100F90000895E0E1F3E09191891303C0DF01119717
:100FA0001C9293E0E631F907B1F7089590913C0166
:100FB0009923C1F09091650497FF14C0E82FE6953E
:100FC000E695E695EE31F8F4F0E0E25FFC4F8770CD
:100FD00021E030E001C0220F8A95EAF78281822B5E
:100FE00082830895A0E1B3E0EFEF90E02D918217A6
:100FF00051F0EF3F19F4211101C0E92F9F5F9630A6
:10100000A9F7EF3F09F408950E2E000CFF0BE25FE5
:10101000FC4FE6CF8091990390916803981301C02B
:1010200008958F5F8770FACFB0E0A0E0EAE1F8E0C2
:101030000C94A6287C010091020410910304809175
:10104000BE039091BF03082B192BCFE0D0E0CC2436
:10105000C394D12CBC2EC6010C2E02C0880F991F40
:101060000A94E2F780239123892B49F4219790F782
:10107000B12C8B2DCDB7DEB7E9E00C94C228B701B7
:101080008C2F0E9410060E942E06019779F3F1CF53
:10109000CF93DF93EC010E941408BE010E9410065A
:1010A0000E942E06DF91CF9108959A3070F5883016
:1010B00060F528E0929FF0011124E80FF11D6E2FDA
:1010C000677083E0F695E7958A95E1F7EE0FFF1FCD
:1010D000EE0FFF1FE65CFC4F50E040E080E0219106
:1010E00030E0062E02C0369527950A94E2F721706B
:1010F0003327042E01C0220F0A94EAF7822B4F5F98
:101100005F4F4430510559F7089580E008959A30B3
:1011100090F5883080F528E0929FF0011124E80FC7
:10112000F11D2E2F277041E001C0440F2A95EAF7E8
:1011300083E0F695E7958A95E1F7EE0FFF1FEE0F36
:10114000FF1FE65CFC4F30E020E070E05191DF01D2
:101150001197CB01022E02C0969587950A94E2F76B
:10116000817081958527842385278C932F5F3F4F3E
:101170002430310559F708959093030480930204B5
:10118000089521E030E002C0220F331F8A95E2F774
:10119000209530958091020490910304822393233B
:1011A0000E94BC08089590919A03809589238093AA
:1011B0009A03282F277091F4282F082E000C330B48
:1011C0009217130659F09091660492FF07C0859517
:1011D000859585950E94C10810929A03089521E093
:1011E00030E002C0220F331F8A95E2F7809102049B
:1011F00090910304822B932B0E94BC080895909336
:10120000BF038093BE030895FC0183819481892BE1
:1012100029F08081918189238F3F51F480E00895E6
:10122000843FE1F717C0883EA8F0813FB9F712C0AC
:10123000808191810E94480892959F70963099F321
:1012400058F4925F9F70923048F7803F19F040F752
:10125000883E20F781E008959A5FF4CF9C013A958B
:1012600021153F4150F5FC01EE27F170BC016627C6
:101270007270AC01442754709C012227387094FF8F
:101280000EC080E1EF2B09F480E0672B09F080624B
:10129000452B09F08064232B89F08068089581E054
:1012A000EF2B09F480E0672B09F08260452B09F0F1
:1012B0008460232B19F08860089580E00895E7E8A2
:1012C000F2E030E020E0408151814817590751F4A5
:1012D000220F331F220F331FF901E957FD4F82817F
:1012E000938108952F5F3F4F34962431310559F78C
:1012F0008FEF9FEF0895B0E0A0E0E1E8F9E00C94F3
:10130000A5287C015B016A018091EF0301E010E0F8
:101310008A3010F40AE010E0C1E0D0E0B501C70166
:10132000F6010995811104C021960C171D072CF4B4
:10133000CDB7DEB7EAE00C94C128CC9F9001CD9FD9
:10134000300D300D112490E080E045E34A95F1F72F
:101350000000019682179307C1F7E0CF8091CA037E
:10136000811110C08091D80080618093D8008AE1FB
:101370008A95F1F700C08091D90080FF0AC081E012
:101380008093CA0381E09091CA03913009F080E014
:10139000089582E08093CA030E946003109295042E
:1013A000F1CF0E94AE09882359F0E0915E04F091DC
:1013B0005F04309729F00190F081E02D09950895A0
:1013C00080E008950F931F930E94AE09882329F0AF
:1013D0000E94E0041F910F9108950E94E004009183
:1013E000F0031091F1032091F2033091F303600FA9
:1013F000711F821F931FEECF0E94AE09882319F040
:101400000E94EC0408950E94E209CB0108956091C6
:101410005904669570E04BE050E089E291E00E944B
:101420006F29892B19F481E080932F040E94FC0915
:1014300090932904809328048091300484608093E1
:1014400030040895609138018091590480FF20C0D4
:101450008091370143E0849FC00111248B5C9B4F36
:10146000539A2BB1277F3BB138605FB7F894FC01EA
:10147000649FE00DF11D1124BF0168177907D1F4B5
:101480005FBF8FE594E00197F1F700C00000089579
:101490008091390190913A0123E0829FF00111245B
:1014A000EB5CFB4F8917A0F61182108212828F5FCE
:1014B0003396F8CFFC014191CF01E8E03BB9000041
:1014C00000C047FF2BB9440F000000C000C000C09F
:1014D0002BB900C0EA9591F7D0CF0F931F93CF930C
:1014E000DF93EC0110E000E090913B0190171106B2
:1014F00009F06CF40E94220A8C8190E001968170C0
:1015000099278C83DF91CF911F910F91089520919E
:101510003901A801420F511D9A01220F331F240FD8
:10152000351F2B5C3B4F4C8160915B0480915A04CA
:1015300096959017110651F04CF0442349F04091D4
:101540005C040E941B050F5F1F4FCECF4423B9F3ED
:1015500040E0F7CFB0E0A0E0E0EBFAE00C94A32885
:10156000EC014C81042F10E09801D8010E943A2927
:101570009B01AC010E9450294B015C01E0E2F0E0CC
:10158000E01BF10BA5E5B0E0AC019B010E945029E6
:101590006B017C019F01DF010E9432299B01AC019C
:1015A0000E945B299B01AC01280D391D4A1D5B1D62
:1015B000C701B6010E940A29F22E822F90E039E27B
:1015C0003F1520F143E0249F900111243595279584
:1015D000122F109500E085E5E82EEF1880913B0171
:1015E000081718F10E94220A9C8181E0992319F0C2
:1015F000903219F48FEF8093360180913601890F74
:101600008C83CDB7DEB7ECE00C94BF2825E530E045
:10161000B901681B790B9B01220F331F260F371F5F
:1016200037FFD4CF2F5F3F4FD1CF8E2D01FD8F2DB0
:1016300020913901622F600F7727771F9B01220FBE
:10164000331F260F371F2B5C3B4F412F60915B04EC
:101650000E941B050F5FC2CFEF92FF920F931F9363
:10166000CF93DF93EC018C81811109C081E08C83E1
:101670001092330492E0909335018093340180916D
:10168000390190913A0123E0829FF0011124EB5C33
:10169000FB4F891758F110E003E060913B011617EA
:1016A00058F10E94220A8091340120913304280FBE
:1016B0002093330490913501980F909335011916BA
:1016C00054F4022E000C330B40913B014150550B5A
:1016D0002417350734F0819580933401813009F463
:1016E0001C82CDB7DEB7E6E00C94C52811821082CB
:1016F00012828F5F3396CDCFE12EF12C70E0C701BF
:101700000E94F62820913901820F482F50E0209145
:101710003304022E000C330BE216F306BCF02091CA
:101720003501022E000C330B2E153F057CF0809FF7
:10173000900111242B5C3B4F40915C0460915B0451
:1017400080915A040E941B051F5FA7CFFA01EE0F7C
:10175000FF1FE40FF51FEB5CFB4F1182108212821A
:10176000F3CFB0E0A0E0E7EBFBE00C94A328EC01A2
:101770008A81BB24BA9480FD02C0BB24B394A0909C
:101780003B018C81811109C081E0B81220C08FEF2C
:101790008A0D8093320481E08C83F12CE12C4CE0A3
:1017A000942EEA14B8F00E94220A8091320491E04B
:1017B000B91257C0811150C080913B018150809374
:1017C00032041C82CDB7DEB7ECE00C94BF28109237
:1017D0003204E1CF009139010E0D1F2D111DC801FA
:1017E000880F991F080F191F0B5C1B4FF8011182FE
:1017F0001082128234E0C32ED12C812C80913204CD
:10180000880D8D302CF1692D0E94D428892F082E47
:10181000000C990B8E159F0591F480915C048C9DB2
:10182000A0018D9D500D11245595479555954795CF
:10183000980160915B0480915A040E941B058B0CF7
:10184000F1E0CF1AD108D1F68FEFE81AF80AA9CF44
:1018500087FFDDCF8A0DDBCF815080933204BC82BD
:10186000B1CF90E0019660913B0170E00E94F628B4
:10187000809332048C83A6CFEF92FF921F93CF9375
:10188000DF93EC0110E0EE24EA94F12C60913B012F
:10189000161770F00E94220A9A818C8190FF27C04F
:1018A0008F5F8C83DF91CF911F91FF90EF90089510
:1018B00020913901422F410F5527551FCA019A0126
:1018C000220F331F280F391F2B5C3B4F70E0C701DD
:1018D0000E94F628962F8C8140915C0460915B04F5
:1018E000199F800D11240E941B051F5FCFCF8150CF
:1018F000D8CF9091590490FF0EC09091390120915A
:101900003A0133E0939FF0011124EB5CFB4F9217F7
:1019100018F00E94220A08958183608342839F5FAA
:101920003396F5CFA3E0B0E0E8E9FCE00C94AB28F7
:101930008C018091340481110AC09E012F5F3F4FBA
:1019400044EB6FEF0E941B058A8180933404F801F9
:101950006481613069F08091340440E0662361F075
:1019600040E0623011F44091340480E060E004C053
:101970006091340440E080E00E94790CF801848199
:1019800090E0019663E070E00E94F628848323963D
:10199000E4E00C94C728A3E0B0E0E1EDFCE00C9497
:1019A000AD289091590490FF0AC09E012F5F3F4FD0
:1019B0000E941B054B8169818A810E94790C2396C4
:1019C000E2E00C94C928CF93DF93EC01E9E5F4E061
:1019D000438162818C810E94CB0C8C818F5F8C83D0
:1019E000DF91CF910895CF93DF93EC01EC81F0E08C
:1019F000ED55FC4F4491E9E5F4E0628181810E945C
:101A0000CB0C8C818F5F8C83DF91CF910895E9E5BA
:101A1000F4E080818E7F80830E94FE04EEE2F4E099
:101A20008281816082830E94220A0895CF92DF9290
:101A3000EF92FF926B017C010E940505B701A601A0
:101A400088E090E00E94B829FF90EF90DF90CF905F
:101A50000895A3E0B0E0EFE2FDE00C94A628082F83
:101A6000D62EF42EC22E9091590490FF3CC02091A6
:101A70005A04281308C080915B04861304C0809127
:101A80005C04841729F080913004826080933004D4
:101A9000E92FE695AE2FB0E0AA51BD4F8C9180930F
:101AA0002E049E7F923019F59E012F5F3F4F4F2DE0
:101AB0006D2D802F0E941B054B8169818A810E94B8
:101AC000790C00935A04D0925B04F0925C04CC2011
:101AD00051F06091590470915A0480915B04909187
:101AE0005C040E94160D2396E9E00C94C228823013
:101AF00019F4F0905C04E5CF8630A1F1893091F1C2
:101B00008931F9F6E9516E2F6170B62EE695F0E055
:101B1000E256FC4F1491E12C60913B01E61618F05F
:101B20000E94220ACECFE19EC001112470E00E94E3
:101B3000E228802FB11014C0860F20913901622F46
:101B40006E0D7727771F9B01220F331F260F371F3C
:101B50002B5C3B4F4F2D6D2D0E941B05E394DCCF7A
:101B6000861BEBCF022FADCFE9E5F4E0438121E105
:101B7000421B08F440E021E0628181810E94290D2E
:101B80000895E9E5F4E0438121E1420F08F44FEFC5
:101B900021E0628181810E94290D0895E9E5F4E048
:101BA000628121E1621B08F460E021E043818181D0
:101BB0000E94290D0895E9E5F4E0628121E1620FB8
:101BC00008F46FEF21E0438181810E94290D08957F
:101BD000E9E5F4E0818121E043816281895A0E9434
:101BE000290D0895E9E5F4E0818121E043816281D6
:101BF00087550E94290D089580915D04882319F06E
:101C0000815080935D046091590470915A048091D1
:101C10005B0490915C040E94160D089580915D0410
:101C2000833018F48F5F80935D0460915904709144
:101C30005A0480915B0490915C040E94160D0895F3
:101C40009091590490FF31C0917081112FC0926022
:101C5000909359048091300481608093300466230E
:101C600051F06091590470915A0480915B049091F5
:101C70005C040E94160D60915904669570E04BE07B
:101C800050E089E291E00E946F29892BB1F00E9417
:101C9000FE0481E080932B0420E040915C0460917D
:101CA0005B0480915A040E94290D0895853210F03A
:101CB0009864CECF880F982BCBCF0E94070AE9CF2C
:101CC000809159048695815009F484E261E00E9474
:101CD000200E08958091590486958F5F853208F013
:101CE00081E061E00E94200E08959091590490FFD8
:101CF00008C09695981728F0961718F40E946A0E57
:101D0000089561E00E94200E0895E9E5F4E083E083
:101D1000808311828FEF828384EB83831482AEE20F
:101D2000B4E012968C911297836012968C93608126
:101D30007181828193810E94160D089590916604AD
:101D400092FB222720F9281779F080FB92F99093D3
:101D50006604609165047091660484E090E00E94DE
:101D6000C42982E00E94D3080895A4E0B0E0EBEB20
:101D7000FEE00C94AC284091D4035091D5036091BF
:101D8000D6037091D7032FB7F89480916104909196
:101D90006204A0916304B09164042FBF841B950B6F
:101DA000A60BB70B11E084369105A105B10570F1C2
:101DB0000E94E2096E5F7F4F8F4F9F4F69837A8346
:101DC0008B839C83809111019091120188529C4FCA
:101DD0004091100150E04530510510F044E050E0D2
:101DE000BE016F5F7F4F0E94892982E090E00E94D0
:101DF0002728182F882351F00E94E0046093D40311
:101E00007093D5038093D6039093D703812F2496A4
:101E1000E3E00C94C828A9E0B0E0E1E1FFE00C9415
:101E2000AD2885E0E9E5F4E0DE01119601900D9220
:101E30008A95E1F780912E0490912F04A0913004AF
:101E4000B09131048E839F83A887B98728854091FC
:101E5000EB035091EC036091ED037091EE033FB7FB
:101E6000F8948091610490916204A0916304B09110
:101E700064043FBF841B950BA60BB70B84369105FA
:101E8000A105B10510F4222319F180911901909157
:101E90001A0188529C4F4091180150E04A30510578
:101EA00010F049E050E0BE016F5F7F4F0E9489292A
:101EB00083E090E00E942728882369F00E94E004D4
:101EC0006093EB037093EC038093ED039093EE0328
:101ED0001092300481E02996E2E00C94C928EF9238
:101EE000FF921F93CF93DF9300D000D000D0CDB7E7
:101EF000DEB77B0190E080E00E942728182F88231E
:101F000009F480C04091030150E04115510511F0E2
:101F100041E050E0609104017091050168527C4FEE
:101F2000CE0106960E9489294091D0035091D10399
:101F30006091D2037091D3032FB7F894809161041C
:101F400090916204A0916304B09164042FBF841B3C
:101F5000950BA60BB70B84369105A105B10540F48E
:101F600089ED93E00E9449039E81891709F44AC0D4
:101F700081E090E00E942728811116C010E085E0E2
:101F8000EBECF3E0D70101900D928A95E1F7812FF8
:101F900026960FB6F894DEBF0FBECDBFDF91CF916E
:101FA0001F91FF90EF90089540910B0150E0463053
:101FB000510510F045E050E060910C0170910D0169
:101FC00068527C4FCE0101960E94892989ED93E0E9
:101FD0000E9449039E818913D1CF0E94E00460933F
:101FE000D0037093D1038093D2039093D30385E001
:101FF000FE013196ABECB3E001900D928A95E1F7CA
:1020000011E0BDCF85E0E9EDF3E0DE01119601902E
:102010000D928A95E1F71111EACFB1CFA3E1B0E0BB
:10202000E4E1F0E10C94A2288E010F5F1F4F8AE0DB
:10203000D8011D928A95E9F789EDC82E82E0D82E45
:10204000F12CE12CAA24A394B12C26EE822E22E0BE
:10205000922EF60181916F018F3F09F442C0F894EE
:10206000E82FE295EF70F0E021A18F70A50102C08A
:10207000440F551F8A95E2F7CA01922F982B91A31E
:1020800092A18095892382A3789400C0EEEDF2E0BE
:10209000712C31E021912F3F09F46BC0A22FA29542
:1020A000AF70B0E090968C9190E02F7002C0959543
:1020B00087952A95E2F780FD5CC0832F782A330F3D
:1020C0008E169F0639F7F601319780818F3F11F008
:1020D0000E94B60550EA5A95F1F7F801EE0DFF1D82
:1020E00070828FEFE81AF80AA5E0EA16F10409F009
:1020F000B0CF4AE050E0B80186EF93E00E947C291F
:10210000009741F02AE0F801A6EFB3E001900D92AC
:102110002A95E1F700910104892B69F181E0809310
:10212000C2030E94EC049093C1038093C00380918A
:10213000C0039091C1030E94D104059700F110E003
:10214000025F1B4F45E050E066EF73E0C8010E945C
:102150007C29D12C892B51F085E0E6EFF3E0D80102
:1021600001900D928A95E1F7DD24D3941092C20379
:1021700007C080E0A3CF8091C2038111D8CFD12CBA
:102180000E94AE09C82EE0910104882309F475C0AD
:102190007E01BBE0EB0EF11C85E0D7011D928A9514
:1021A000E9F70E2F10E0025F1B4F8091EF038A309A
:1021B00090F54FE65FE0B701C8010E947B098823D4
:1021C00009F44AC045EB5EE0B701C8010E947B09F3
:1021D000882309F441C04BE05FE0B701C8010E94C9
:1021E0007B098823C9F11092EF038091000490E0ED
:1021F00045E050E0B701825F9B4F0E947C2921E0BF
:102200002093C903892BD9F4C12C8C2D8D29639679
:10221000EDE00C94BE288091C3039091C4030E940A
:10222000D104843F914028F68091C903882361F34B
:1022300085E0F70111928A95E9F71092C903A09100
:102240000004B0E0A25FBB4F85E0FE013B96019029
:102250000D928A95E1F7D9CF8091EF038F3F31F04E
:102260008F5F8093EF038A3008F4BFCF0E94EC04A5
:102270009093C4038093C303D7CFF0E0E25FFB4F9A
:1022800085E0A9EDB3E001900D928A95E1F789ED23
:1022900093E00E9449038093D8038090DE039090DE
:1022A000DF03A090E003B090E1038091C50390911B
:1022B000C603A091C703B091C80388169906AA0661
:1022C000BB06D1F08092C5039092C603A092C703CB
:1022D000B092C8030E94AE0981110EC00E94E004B2
:1022E000861A970AA80AB90A8092F0039092F1031D
:1022F000A092F203B092F30389E0E2EEF3E0DE0194
:102300001B9601900D928A95E1F78091E2038695E4
:10231000F090E303E090E403B090E5030091E8035C
:102320001091E9039091EA031092E903112309F453
:102330006CCF14FD9093310410FF0BC09B8590FF70
:102340001CC09091590491609093590460E00E94E0
:10235000200E11FF06C020E04B2D6E2D8F2D0E9408
:10236000290D12FF04C0002359F00E94070A13FF31
:102370004CCF81E080932B0448CF0E94070DE9CF1A
:102380000E94FE04F4CF8091BC039091BB03892B83
:1023900080930E039091BD039923A1F0892B809324
:1023A0000E0380913C018823E1F18091650487FF51
:1023B00038C08EE1E0E1F3E090E08150A0F59111AA
:1023C0000E949E0740E250E06BE973E08EE093E0EC
:1023D0000E947C29892B21F180E2EEE0F3E0ABE959
:1023E000B3E001900D928A95E1F7E0915E04F091DF
:1023F0005F043097A9F080913C01882359F08091C7
:10240000650487FF07C080910E0380930F0386E069
:1024100080930E030280F381E02D8EE093E0099516
:10242000089586E0C7CF2191222339F29F5FC5CF5F
:102430001092BC0380913C01E0E1F3E0882371F04D
:102440008091650487FF0AC08EE1DF011D928A95A5
:10245000E9F71092BB030E94C311089586E0F5CFFF
:10246000AAE2B0E0E6E3F2E10C94AB288091950497
:10247000882309F4BAC21091E9001F709091EC0012
:10248000892F817090FD80E8182B1092E9008091CF
:10249000E80083FFA7C28DE894E02091F100FC01E1
:1024A0002193CF01F4E085399F07B9F780918E041D
:1024B000833009F470C0B8F4813009F447C0823029
:1024C00009F4B1C08091E80083FF7EC280918D0441
:1024D00090918E049A3008F077C2E92FF0E0E45230
:1024E000F64D0C942C298A3009F48CC08B3009F4F9
:1024F0006FC0893039F780918D04813219F780914E
:102500009104909192040297E8F68091E800877F09
:102510008093E8008091E80082FF38C09091F3003A
:102520008091F200029731F48091F100813011F036
:10253000863021F48091F100809369048091E80055
:102540008B778093E8000E94B003BCCF80918D040C
:10255000813A09F0B7CF8091E800877F8093E80047
:102560008091910490919204892B61F460E28AE653
:1025700094E070E00E945C048091E8008B77809387
:10258000E800A0CF60E090E080E0F3CF8091950478
:102590008111C0CF97CF80918D04813A09F092CFFD
:1025A0008091910490919204892B09F08BCF8091B6
:1025B000E800877F8093E8008091E80080FFFCCFEF
:1025C00080913C018093F1008091E8008E77B9CF33
:1025D00080918D04813209F075CF809191049091A2
:1025E0009204892B09F06ECF8091E800877F809359
:1025F000E8000E94B00380918F0480933C010E9408
:10260000181260CF80918D04813209F05BCF8091E8
:10261000E800877F8093E8000E94B00380919004D7
:10262000809368044FCF80918D04813A09F04ACF9E
:102630008091E800877F8093E8008091E80080FF28
:10264000FCCF80916804BECF803899F0823809F0C1
:10265000BBC1809191048F70873008F0B5C1809321
:10266000E9008091EB0085FB882780F91092E90052
:1026700006C080918A0490918B04911182609091A0
:10268000E800977F9093E8008093F1001092F100AA
:102690008091E8008E7794C1882309F482C182304A
:1026A00009F092C180918F04811185C180919104BC
:1026B0008F702FEF280F263008F086C18093E90035
:1026C0002091EB0020FF77C1933031F48091EB0033
:1026D00080628093EB006FC19091EB0090619093CA
:1026E000EB0021E030E001C0220F8A95EAF7209349
:1026F000EA001092EA008091EB008860EACF811135
:1027000063C100918F040F778091E3008078802B64
:102710008093E3008091E800877F8093E8000E9427
:10272000B0038091E80080FFFCCF8091E3008068D7
:102730008093E30082E0011183E08093950444C11B
:102740008058823008F040C180918F0490919004AD
:102750008C3D23E09207A1F583E08A838AE2898396
:102760004FB7F894DE01139620E03EE051E2E32FEC
:10277000F0E050935700E49120FF03C0E295EF7022
:102780003F5FEF708E2F90E0EA30C0F0C7968D93D8
:102790009D932F5F243159F74FBF8091E800877FC9
:1027A0008093E8006AE270E0CE0101960E945C042A
:1027B0008091E8008B778093E80006C1C096E7CF50
:1027C0004091910450919204292F332723303105F1
:1027D00009F444C078F52130310509F46FC08BE36A
:1027E00090E0EEECF5E02230310509F0EDC02091EB
:1027F000E800277F2093E80020919304309194040F
:102800008217930708F49C0140E02115310509F077
:1028100064C0411162C08091E80082FDC9CF8091FF
:102820009504882329F2853019F28091E80083FF0E
:10283000F2CFBECF21323105A9F12232310509F0A4
:10284000C3C04115510509F443C04130510509F099
:10285000BBC08BE390E0E3E5F5E0C9CF9927813079
:102860009105C1F0009759F0029709F0ADC0EBE176
:10287000F6E0E4918E2F90E0EBE1F6E007C0EFE4A4
:10288000F6E0E4918E2F90E0EFE4F6E0009709F493
:102890009BC0ADCFEDE2F6E0E4918E2F90E0EDE24B
:1028A000F6E0F4CF4115510571F04130510509F0C2
:1028B0008BC089E090E0E9EFF5E099CF82E190E00C
:1028C000E9E0F6E094CF89E090E0E0EEF5E08FCF2C
:1028D00080E490E0EEE8F5E08ACF809195048823CB
:1028E00009F466CF853009F463CF8091E80083FD59
:1028F0005FCF8091E80082FD8ECF8091E80080FF5D
:1029000084CF9091F3008091F2002115310519F0E8
:102910008830910550F041E0089709F040E080913F
:10292000E8008E778093E80070CF44914093F100E7
:102930003196215031090196E8CF803809F044C022
:102940008091E800877F8093E80080918C048093D9
:10295000F1009ECE811138C000918F040230A0F5A5
:102960008091E800877F8093E80000938C040E94A8
:10297000B003002311F084E005C08091E30087FDDF
:10298000FACF81E08093950442E061EC81E00E94FF
:10299000CF0342E261EC82E00E94CF038091950474
:1029A00013C080918F04813079F481E0933009F075
:1029B00080E080938B041092E9008091E800877F8B
:1029C0008093E8000E94B0038091E80083FF0AC072
:1029D0008091E800877F8093E8008091EB0080621F
:1029E0008093EB001F701093E900AA96E4E00C942A
:1029F000C7280F931F93CF93DF938B01EA01909128
:102A00009504943071F58093E9008FEF9091E80080
:102A1000815095FD06C095ED9A95F1F70000811162
:102A2000F5CF8091E80085FF1CC00E947F038111D3
:102A300013C08091E80085FD08C08091E8008E7782
:102A40008093E8000E943012F0CFF80181918F014D
:102A50008093F100219769F78091E8008E77809349
:102A6000E800DF91CF911F910F910895CF93DF93ED
:102A7000EC0180913C01811111C048E050E0BE01A1
:102A800081E00E94F91480E2FE01AAE6B4E0019020
:102A90000D928A95E1F7DF91CF91089580916504B9
:102AA00087FF05C040E282E050E0BE01EACF48E087
:102AB00081E0FACF0E9418122FEF84E39CE02150AE
:102AC00080409040E1F700C0000088E19AE00FB636
:102AD000F894A895809360000FBE90936000FFCF9C
:102AE000882341F080959091BB0389238093BB0399
:102AF0000E94C3110895882339F09091BB03982B4D
:102B00009093BB030E94C3110895882321F00E9473
:102B1000A4070E94C3110895882339F09091BC0343
:102B2000982B9093BC030E94C3110895882381F0D1
:102B3000823879F40E94D10981FF0AC089E30E949A
:102B4000D6070E94C31189E30E94AB070E94C311FC
:102B50000895833859F40E94D10980FFF9CF83E5A5
:102B60000E94D6070E94C31183E5EECF843859F442
:102B70000E94D10982FFECCF87E40E94D6070E9411
:102B8000C31187E4E1CF9CEF980F913AE8F290E20D
:102B9000980F9830E8F6877091E001C0990F8A95F8
:102BA000EAF7892F0E94A407D1CFCF93DF93EC01DE
:102BB0000E949615CE010E942E099E01205E3109C9
:102BC0002830310510F0CD2B29F40E948515DF91B6
:102BD000CF9108950E947015FACFCF93C82F882304
:102BE000C9F08238C9F40E94D10981FD13C089E37C
:102BF0000E94D6070E94C3112FEF87EE93E0215069
:102C000080409040E1F700C0000089E30E94AB07DC
:102C10000E94C311CF9108958338A1F40E94D10975
:102C200080FDF8CF83E50E94D6070E94C3112FEFE5
:102C300081EE94E0215080409040E1F700C0000018
:102C400083E5E4CF8438A1F40E94D10982FDE2CF6C
:102C500087E40E94D6070E94C3112FEF81EE94E013
:102C6000215080409040E1F700C0000087E4CECFC3
:102C70008CEF8C0F813A88F580913C01882301F11B
:102C80008091650487FF1CC0EC2FE695E695E695DC
:102C9000F0E0E25FFC4F828190E04C2F477021E032
:102CA00030E002C0220F331F4A95E2F782239323BC
:102CB000892B79F08C2F0E94AB070E94C31109C0A9
:102CC000E0E1F3E08191C817A9F323E0E631F207D0
:102CD000C9F78C2F0E94D6079BCF80E28C0F8830DB
:102CE00008F098CFC77021E030E001C0220FCA95EC
:102CF000EAF78091BC03822B8093BC0389CF1F939A
:102D0000CF93DF93182FD0E0C0E0893311F4C0E5F2
:102D1000D0E0812F0E94ED15209739F4812F0E9479
:102D20009615DF91CF911F9108958FE99FE001974C
:102D3000F1F700C000002197EFCF0F931F93CF93BF
:102D4000DF93C62FD42F022FFC0182818823A9F0A4
:102D5000609398040E94EC049093970480939604E7
:102D6000C77081E001C0880FCA95EAF70E948C15F0
:102D7000DF91CF911F910F9108958091980468136E
:102D800032C080919604909197040E94D104883CAF
:102D9000910548F510E21D0FCD17B9F080E28C0FB8
:102DA000883040F4C77081E001C0880FCA95EAF707
:102DB0000E948515183048F481E09D2F977001C05E
:102DC000880F9A95EAF70E948C15802F0E947F1633
:102DD000183070F6D77081E001C0880FDA95EAF7F5
:102DE0000E948515C5CFC77081E001C0880FCA95C4
:102DF000EAF7F6CFB0E0A0E0E0E0F7E10C94A52818
:102E0000EC018AE0A82E2881222309F48FC021300A
:102E1000C9F599818A81913021F422960E947F160A
:102E200005C0923029F422960E94ED152196EBCF31
:102E3000933021F422960E949615F8CF943011F029
:102E40002196F4CF229630E020E0AE014F5F5F4F35
:102E50008053990B8A30910550F02150310930F39D
:102E60008FE99FE00197F1F700C00000F6CFA29E26
:102E7000B001A39E700D11249C01260F371F89817C
:102E8000EA01E3CFE22FF0E0ED52FB4FB490822F46
:102E900086958695869590E0FC01ED53FB4FE49076
:102EA0002770F12C022E02C0F594E7940A94E2F701
:102EB00031E0E322FF24FC01ED54FB4FC490D12C00
:102EC000022E02C0D594C7940A94E2F731E0C322DF
:102ED000DD24FC01ED55FB4F049110E002C0159577
:102EE00007952A95E2F701701127E114F10419F012
:102EF00081EE0E94ED15C114D10419F086EE0E94F6
:102F0000ED158B2D0E947F16C114D10419F086EEA9
:102F10000E949615E114F10419F081EE0E949615B5
:102F20000115110509F482CF8CE278CFCDB7DEB759
:102F3000EAE00C94C12880912F03909130038E32E7
:102F40002EE7920709F086C0E0913103F091320339
:102F5000FE57ED32F10540F4EA51F64D0C942C2960
:102F60008DE391E00E94FA1608958FE391E0FACF85
:102F700081E491E0F7CF83E491E0F4CF85E491E040
:102F8000F1CF89E491E0EECF81E591E0EBCF8BE5E5
:102F900091E0E8CF85E691E0E5CF87E691E0E2CFEA
:102FA00089E691E0DFCF83E791E0DCCF8BE791E02A
:102FB000D9CF8CE092E0D6CF8EE791E0D3CF81E8F5
:102FC00091E0D0CF85E891E0CDCF88E891E0CACFFD
:102FD0008BE891E0C7CF8EE891E0C4CF81E991E022
:102FE000C1CF84E991E0BECF87E991E0BBCF85EA0C
:102FF00091E0B8CF8AE991E0B5CF8DE991E0B2CF09
:1030000081EA91E0AFCF84EA91E0ACCF87EA91E02A
:10301000A9CF8AEA91E0A6CF8DEA91E0A3CF80EB19
:1030200091E0A0CF83EB91E09DCF85EB91E09ACF2B
:1030300082E891E097CF88EB91E094CF8BEB91E021
:1030400091CF8EEB91E08ECF81EC91E08BCF84EC31
:1030500091E088CF8F329E4709F086CFE09131030F
:10306000F0913203E350FE47EB32F10508F07CCFDC
:10307000ED5EF54D0C942C2987EC91E073CF89EC33
:1030800091E070CF8CEC91E06DCF8FEC91E06ACF46
:1030900082ED91E067CF89EF91E064CF85ED91E01B
:1030A00061CF88ED91E05ECF8BED91E05BCF8EED4F
:1030B00091E058CF81EE91E055CF83EE91E052CF71
:1030C00086EE91E04FCF89EE91E04CCF8CEE91E00F
:1030D00049CF8FEE91E046CF82EF91E043CF85EC70
:1030E00091E040CF85EF91E03DCF88EF91E03ACF7E
:1030F0008CEF91E037CF80E092E034CF82E092E035
:1031000031CF85E092E02ECF88E092E02BCF8BE0AC
:1031100092E028CF8EE092E025CF8EE991E022CF99
:1031200081E192E01FCF84E192E01CCF87E192E041
:1031300019CF80912F0390913003892B21F08AE1E0
:1031400092E00E94FA160895E0913103F091320363
:10315000FE57EE32F10540F4E25CF54D0C942C295B
:103160008CE192E00E94FA16089587E491E0FACF8C
:103170008EE192E0F7CF80E292E0F4CF81E892E036
:10318000F1CF82E292E0EECF84E292E0EBCF86E2F2
:1031900092E0E8CF88E292E0E5CF8AE292E0E2CFE7
:1031A00083EB91E0DFCF8CE292E0DCCF84E392E02E
:1031B000D9CF86E392E0D6CF89E392E0D3CF8CE3F8
:1031C00092E0D0CF8FE392E0CDCF82E492E0CACFFD
:1031D00085E492E0C7CF88E492E0C4CF8DEF91E020
:1031E000C1CF8BE492E0BECF8DE492E0BBCF8AE208
:1031F0000E947F16089589E092E0B4CF8FE492E0B8
:10320000B1CF82E592E0AECF85E592E0ABCF88E525
:1032100092E0A8CF8BE592E0A5CF8EE592E0A2CF19
:1032200081E692E09FCF83E092E09CCF84E692E03B
:1032300099CF87E692E096CF8AE692E093CF8DE62B
:1032400092E090CF80E792E08DCF83E792E08ACF43
:1032500086E792E087CF89E792E084CF8CE792E01F
:1032600081CF8FE391E07ECF809105049091060499
:10327000892B49F480910704823071F028F4813061
:1032800041F01092070408958530D8F70E949B17EB
:10329000F8CF0E94A418F5CF0E949918F2CFCF93CF
:1032A000DF93EC010E942E099E01205E3109283037
:1032B000310510F0209741F40E948C158C2F0E944C
:1032C000ED15DF91CF9108950E947B15F7CF67EE42
:1032D0007EEF90E080E00E94C42960E082E090E010
:1032E0000E94A62960E083E090E00E94A629109247
:1032F000BF031092BE0360E074E184E090E00E949E
:10330000C42960E086E090E00E94A6296FEF87E084
:1033100090E00E94A62940E050E0BA0188E090E0E9
:103320000E94B82960E08DE090E00E94A62940E06C
:1033300050E0BA0188E190E00E94B82960E087E19E
:1033400090E00E94A62940E050E0BA018CE190E0B4
:103350000E94B82970E060E080E290E00E94C429F9
:1033600040E050E0BA0188E190E00E94B82940E0D6
:1033700050E0BA018FE090E00E94B82940E050E0B0
:10338000BA0183E190E00E94B8290895A5E0B0E079
:10339000ECECF9E10C94A3287C01FC01838194817D
:1033A000892B31F08081918189238F3F09F003C6F9
:1033B0002596ECE00C94BF280E941408182F682F63
:1033C00089819A810E94870869817A81812F0E9470
:1033D00010068C018033FEE79F0709F45BC0813340
:1033E0009E4709F494C080910904882309F42DC1F3
:1033F000C801805E9109089780F4D0902E03F701F0
:103400008281882309F4B0C0D11004C080910804DF
:103410000E94C108D394D0922E0381E090E0909353
:103420000604809305040E94EC046C0198013E5749
:10343000F7018281882309F444C1809107042E3268
:10344000310508F0BEC0823009F4B7C008F096C05C
:10345000882309F49AC0813009F499C0109332038B
:1034600000933103D0923403C0923303F894109246
:1034700085001092840080E699E090938900809303
:10348000880082E080936F00789410920604109276
:1034900005042BC0F7018281882339F18FE792E080
:1034A0000E94FA1610920904109207041092060462
:1034B00010920504809108040E94C10805E314E0FD
:1034C00069E5C62E64E0D62E70E4B72E80915904CB
:1034D00080FF06C0F80111821082B2820E94220A87
:1034E0000D5F1F4FC016D10689F780919A03877030
:1034F00009F45ECFF7018281882309F459CF8091C6
:10350000660482FF55CF82E00E94D30851CFF701B5
:103510008281882351F383E892E00E94FA1681E0C9
:103520008093090410920704109206041092050477
:10353000809108040E94EF0805E314E049E5C42ED9
:1035400044E0D42E50E4B52E8091590480FF06C08B
:10355000F8011182B08212820E94220A0D5F1F4F71
:10356000C016D10689F7C1CFDA94D0922E03D110BC
:1035700054CF809108040E94EF084FCF833051F060
:10358000843009F06BCF0E949B1781E017C00E9426
:10359000A41864CF809135039091360320913303B2
:1035A00030913403AC01421B530BF601E81BF90BBD
:1035B0004E175F0740F30E94A41884E0809307042D
:1035C0004DCF98012E523E472230310590F5823082
:1035D00049F168F4882311F1813049F110933003E7
:1035E00000932F03D0923603C09235033FCF833030
:1035F00099F0843099F780913303909134032091AE
:10360000350330913603AC01421B530BF601E81B26
:10361000F90B4E175F0748F40E949B1782E08093D6
:103620000704DCCF0E949918D9CF0E94991883E033
:10363000F6CF823009F442C0C8F58130E1F1109232
:1036400007041092060410920504D090BC03F70101
:10365000C280CC2009F4B1C05801BB248D2D812B30
:10366000827211F06894B1F8C5010E945F094C01A3
:10367000019609F4D2C480913703909138030097E2
:1036800021F00E945F090E94D515B0923803A092E4
:1036900037038D2D827209F48CC082E20E94A40748
:1036A000C4010E944F19D092BC031FCF853038F659
:1036B0000E949B17C4CF0E94A418C1CF0E949918E2
:1036C000BECF2033310508F0BCCF80910704823093
:1036D000A9F180F4813009F0D8CE80913103909126
:1036E00032030817190709F0D0CE0E94A4181092CF
:1036F0000704CBCE833069F1843009F0C6CE8091C7
:103700002F03909130030817190709F04DC08091DD
:10371000330390913403C81AD90A209135033091AC
:103720003603821B930B8C159D05D8F124E1C2163C
:10373000D104B8F50E94991881E028C080912F0328
:10374000909130030817190709F09FCE0E9499182D
:10375000CECF809131039091320308171907C9F435
:103760008091350390913603C81AD90A209133030A
:1037700030913403821B930B8C159D0590F0F4E17E
:10378000CF16D10470F40E94A41882E0809307043D
:103790007CCE80912F03909130030817190709F010
:1037A00074CE0E949B17A3CF809131039091320376
:1037B000F4CFC4010E944F1998CE809137039091A5
:1037C000380308130AC0802F0E945F090E94D51594
:1037D000109238031092370388CEF801E851FC4765
:1037E000E730F10508F00CC4E459F54D0C942C2990
:1037F00026E241EE61EEC7010E949D1676CE27E2D9
:1038000045EE65EEF8CF26E241EE60EEF4CF27E21A
:1038100045EE64EEF0CF26E241EE62EEECCF27E219
:1038200045EE66EEE8CF28E241E0EBCF80916504FB
:1038300081608093650495C0809166048860809360
:1038400066048FC0809165048260F3CF8091650427
:103850008460EFCF809165048860EBCF809166042F
:103860008160EDCF809166048260E9CF809165042C
:103870008061DFCF809165048062DBCF8091650439
:103880008064D7CF0E941812809165048068D1CFE0
:10389000809165048C60CDCF809166048360CFCF2A
:1038A000809165048E7FC5CF80916604877FC7CFE6
:1038B000809165048D7FBDCF809165048B7FB9CFEA
:1038C00080916504877FB5CF809166048E7FB7CFE6
:1038D000809166048D7FB3CF809165048F7EA9CFE0
:1038E000809165048F7DA5CF809165048F7BA1CFEA
:1038F0000E941812809165048F779BCF8091650498
:10390000837F97CF809166048C7F99CF80916504E7
:1039100082FB992790F921E0922790FB82F990FB96
:1039200083F987CF80916604982F909591708E7F50
:10393000892B90FB81F983CF90916504892F8F7B30
:1039400096FF806476CF0E94181290916504892FAB
:1039500097FB87F980586DCF61E08EE090E00E9480
:10396000A629609165047091660484E090E00E944D
:10397000C4290E941812B9CD60E0EFCF9091650480
:10398000892F8F7E94FF806154CF90916504892F99
:103990008E7F90FF81604DCF90916604892F877F45
:1039A00093FF88604CCF85E326C385E333C3C11002
:1039B00081C08D2D8272F801E052F847E531F105A2
:1039C00008F088C0ED58F54D0C942C2980915904CD
:1039D00080FF17C08E7F80935904609159047091C5
:1039E0005A0480915B0490915C040E94160D0E9421
:1039F000FE04809130048160809330040E94220A8A
:103A000074CD81608093590461E086950E94200EF8
:103A10006CCD40E65EE06AE67EE00E94F80465CD8B
:103A20004AE65EE060E67EE0F8CF48EE5DE062EFF9
:103A30007DE0F3CF42EF5DE068EE7DE0EECF4EEC4F
:103A40005DE06BED7DE0E9CF4BED5DE06EEC7DE0A0
:103A5000E4CF44EB5DE061EC7DE0DFCF41EC5DE085
:103A600064EB7DE0DACF4CEF5DE06EE07EE0D5CF39
:103A70004EE05EE06CEF7DE0D0CF61E081E0C6CF4C
:103A800065E082E00E94750E30CD68E086E0FACFF6
:103A90006EE089E0F7CF64E18FE0F4CF67E185E184
:103AA000F1CF61E088E1B2CF62E289E1EBCF61E082
:103AB00083E2ACCF03302CE7120709F46EC008F0A4
:103AC00051C001154CE7140709F45AC001301C47D6
:103AD00009F469C0F701828100811181882309F40A
:103AE00070C0C8010E941408D82E682FC8010E9417
:103AF0008708B8018D2D0E9410060E942E068C01A9
:103B0000882EF701A280958092943FE093228091C5
:103B10009A038770C1F0CA2CAA20B1F0812F807F50
:103B2000803421F080E2800F883068F08091660454
:103B300082FF09C082E00E94D30880919A038770B7
:103B4000CC24C3948111C12CB12EB2942FE0B222A7
:103B5000FBE0FB1508F4A1C0EB2DF0E0E857F54DB4
:103B60000C942C290B358CE7180749F10C359CE790
:103B70001907D9F00A351C4709F0ACCF81E01CC009
:103B80000E941812FFEF24E33CE0F1502040304047
:103B9000E1F700C000000E94C0046FEF7FEF90E0EB
:103BA00080E00E94C4290E945A158091660482FB1D
:103BB000882780F991E089270E949E0E8BCF80E0B4
:103BC000FBCFC8010E945508D82E93CF212F2F700C
:103BD000D22E107F19F0D29490EFD922AA20B9F0FA
:103BE000DD2069F080E2800F883010F0811009C07C
:103BF0008091BC03D82AD092BC030E94C311802FAD
:103C00004AC08091BB03D82AD092BB03F6CF802F45
:103C10000E949615DD2009F440C0005E083010F0C7
:103C2000811004C08D2D0E94A40706C0D0948091FD
:103C3000BB03D822D092BB030E94C3112EC0312FE8
:103C40003F70D32E107F103219F0D29480EFD8221B
:103C5000882089F041E0841609F47DC0AA2009F487
:103C600087C0992009F47DC0F701858180FFC7CF07
:103C70008F70858376C02091660422FD44C0AA20FF
:103C8000E1F1DD2039F08091BC03D82AD092BC0349
:103C90000E94C31180E00E94ED152B2D2850330B9C
:103CA0002430310510F40E94D109CC20A9F0809174
:103CB0009A0380FD11C0F70112828595859585953F
:103CC0000E94EF08C7010E94C61980919A0385954A
:103CD000859585950E94C10885E0F701DE01119662
:103CE00001900D928A95E1F709811A81C8010E941D
:103CF0005508B8010E9410065BCB80E00E94961523
:103D0000DD2059F28FCFAA20A1F09091BD038D2D17
:103D1000892B911003C00E948C15BFCF51E09512E2
:103D2000FACF22FFBACF891709F4B7CF8093BD032A
:103D3000B4CF911006C00E949E078D2D0E9485155C
:103D4000ACCF81E0981609F4A8CF8D2D0E9485157F
:103D50000E949E07A2CFAA2031F095E0991508F4A1
:103D60009CCF8D2DD8CFE4E0E91508F496CFE5CFB0
:103D7000992019F3F9E38F1209C02FEF37EE43E0D2
:103D8000215030404040E1F700C00000802F0E94E9
:103D9000961583CF812F837009F03FC0A1107DCF8E
:103DA000402F429546954770440F440F802F8F70E7
:103DB00090E0042E02C0880F991F0A94E2F730E0C9
:103DC00020E004FF09C02FE030E002C0220F331FC3
:103DD0004A95E2F720953095169516951370123096
:103DE00099F078F44091BE035091BF03113039F03F
:103DF000822B932B842395230E94FF084ECF842B84
:103E0000952B822B932BF8CF822B932B2091BE03E3
:103E10003091BF0382279327EFCF8695AA2011F018
:103E2000812F8170882309F438CF402F4295469521
:103E30004770440F440F802F8F7090E0042E02C013
:103E4000880F991F0A94E2F730E020E004FF09C0D0
:103E50002FE030E002C0220F331F4A95E2F7209591
:103E60003095169516951370123099F078F44091AC
:103E7000020450910304113039F0822B932B8423D8
:103E800095230E94BC0809CF842B952B822B932B62
:103E9000F8CF822B932B20910204309103048227C8
:103EA0009327EFCF1F70AA2029F0812F0E94EF08DF
:103EB000802F31CF802F0E948515812F0E94C1084D
:103EC000ECCE802F52EF851699F1581570F090EFD7
:103ED0008916D1F0E1EF8E1691F0AA2009F45BC0AB
:103EE00091108DCE812F8F7127C0F3EF8F1639F18E
:103EF00024EF8212F2CF8091660482FD2EC0812FC2
:103F00008F71AA20D9F218C0AA2069F034E03915BF
:103F100008F4C3CE1F7181E090E002C0880F991FA2
:103F20001A95E2F7B8CF45E0491508F4B6CEF2CFBE
:103F3000812F8F71A110C2CF0E94EF08AECE90E00A
:103F400080E0AA2009F49DCF1F7181E090E002C0BB
:103F5000880F991F1A95E2F794CFAA2089F01F7154
:103F6000812F0E94EF088091660482FF07C058E00D
:103F7000159FC0011124836080939A03812FDCCFA9
:103F800081E00E94D30881E0891508F086CE82E0A6
:103F90000E94D30882CE992059F0893309F0F6CED9
:103FA0009FEFE7EEF3E09150E040F040E1F7ECCE18
:103FB000812F8F7183CF85E0DE01119601900D92E4
:103FC0008A95E1F7F701228189819A812111F4C94B
:103FD0000E945508182FF8C90631FCE71F0709F0A1
:103FE000E6CC8D2D8A7A91E009F490E09093390324
:103FF0008111D9CC89E20E94D6070E94C31175CAEB
:1040000006312CE7120709F0D4CC809139038111D5
:10401000CCCC89E20E94AB07F0CFF801E851FC4715
:10402000E730F10508F4E0CB10929804C8019057EE
:10403000839790F684E090E00E94A0299093660414
:1040400080936504F801E150F047E232F10508F091
:10405000EDCBEC56F54D0C942C291F93CF93DF93A9
:1040600080916703807F09F049C0809164038823B1
:1040700009F444C080919903D09168036091620370
:1040800070916303A0916503B0916603C62FC723A7
:1040900016E0D81799F190E0109711F0CF3F19F47E
:1040A00001968770F6CF189F9001199F300D11244B
:1040B000F901E759FC4F41814713F2CF4081461384
:1040C000EFCF42814111ECCF438154814A1B5B0BFE
:1040D000483C510528F7809167038F708061809379
:1040E0006703F901E259FC4F80818F708061808302
:1040F00082E693E00E94C6190E940A08DF91CF91E0
:104100001F910895A1E1B0E0E8E8F0E20C94A52841
:104110008C0185E0F801DE011D9601900D928A95D3
:10412000E1F7F801E28082E6A82E83E0B82E6091E4
:104130006503709166036115710509F426C19091BC
:10414000620340916303892F84238F3F09F41DC1CB
:1041500020813181C380D480F0906403F601E61B96
:10416000F70BFF2009F4DCC080916703582F507FC4
:10417000E83CF10508F09FC051116BC0FE2C4313C1
:1041800014C0921312C0E11010C08F708061809330
:104190006703C5010E94C61980916703F8018583F2
:1041A0008F2D6196EAE00C94C128C114D10429F046
:1041B000822F83238F3F09F003C180E0F82FF17035
:1041C000DF2E80FF3CC0809199034091680356E048
:1041D000841315C02D873E878D859E850E944808D3
:1041E000292F22952F702230F0F0243018F59F707F
:1041F000F1F0F8019581907FD1F4D12C1EC090E0B0
:10420000589FF001599FF00D1124E759FC4F61812F
:10421000361306C06081261303C06281E6120FC008
:1042200001968770D5CF9F7011F0882331F3805E9F
:10423000883018F3C8010E94C619FD2CB1CFEE20BA
:1042400009F4AECF80916703816080936703F12CFE
:10425000A7CF431306C0921304C0F801EE2009F45F
:1042600079C0C8010E940409882309F1EE20F9F001
:1042700080916703803270F0209162033091630374
:1042800038872F831986DB86CA868C87CE010796EE
:104290000E94C61986E0F801A2E6B3E001900D92F3
:1042A0008A95E1F70E942D20FF24F39479CFC8016D
:1042B0000E94C619F9CF51110AC082E693E00E940C
:1042C000C61986E0F50111928A95E9F7C0CF43132C
:1042D0000FC092130DC0E1100BC0F8018583C80117
:1042E0000E94C61986E0F50111928A95E9F758CF28
:1042F000C8010E9404098823D1F2EE20C1F2809106
:104300006703803238F220916203309163033A836D
:1043100029831B82DD82CC828E83CE010196B8CFA9
:10432000E83CF105F8F6FE2CEE2009F243131FC01D
:1043300092131DC08091670380FD10C0982F907F5D
:1043400069F0F8018583903F31F0982F907F905F5E
:104350008F70892B8583C8010E94C61986E0F801F9
:10436000A2E6B3E001900D928A95E1F719CFC8015A
:104370000E94040981118ECF809167038160809330
:104380006703C8010E94C6190BCFEE2009F48FCF36
:10439000C8010E940409F82E882309F488CF86E01A
:1043A000F801A2E6B3E001900D928A95E1F78091C1
:1043B0006203909163030E9448080E942D20F0CE72
:1043C00081E08E25FBCEA7E1B0E0E9EEF1E20C94AE
:1043D000AC284B8B5C8B6D8B7E8B8F8B611110921D
:1043E000BB031A8A198A85E0FE017396DE011D96C9
:1043F00001900D928A95E1F786E0FE013D96DE017F
:10440000179601900D928A95E1F7CE0107960E94CA
:104410008220882359F016E08091990390916803D7
:10442000891343C06796E3E00C94C82886E0FE0138
:104430003796DE01119601900D928A95E1F78A85F3
:104440009B85892B41F38F81988589238F3F19F3B1
:104450002091680330E0C901019687709927409147
:1044600099034817190671F40E94181210926803F4
:104470001092990386E0E2E6F3E0DF011D928A954F
:10448000E9F7C9CF96E0929FD001939FB00D112418
:10449000A759BC4FFE01319601900D929A95E1F714
:1044A000809368030E940A08B6CF819FC00111243F
:1044B00087599C4F0E948220882309F4B3CF8091B2
:1044C000990390E001968770992780939903A4CF70
:1044D0001F920F920FB60F9211242F933F934F9379
:1044E0005F936F937F938F939F93AF93BF93EF935C
:1044F000FF938091E10082FF09C08091E20082FF7A
:1045000005C08091E1008B7F8093E1008091DA000B
:1045100080FF24C08091D80080FF20C08091DA0005
:104520008E7F8093DA008091D90080FF98C080E16F
:1045300089BD82E189BD09B400FEFDCF81E0809391
:10454000950480916704811109C00E9460030E9454
:1045500001048091E20084608093E2008091E10098
:1045600080FF17C08091E20080FF13C08091E200BD
:104570008E7F8093E2008091E20080618093E20070
:104580008091D80080628093D80019BC85E0809328
:1045900095048091E10084FF2BC08091E20084FFAC
:1045A00027C080E189BD82E189BD89B5982F9170CE
:1045B00080FFFBCF8091D8008F7D8093D8008091C1
:1045C000E1008F7E8093E1008091E2008F7E8093F6
:1045D000E2008091E20081608093E20080918C048F
:1045E000882309F442C084E0809395048091950467
:1045F0008091E10083FF22C08091E20083FF1EC012
:104600008091E100877F8093E10082E080939504B0
:1046100010928C048091E1008E7F8093E100809164
:10462000E2008E7F8093E2008091E20080618093BF
:10463000E20042E060E080E00E94CF03FF91EF9152
:10464000BF91AF919F918F917F916F915F914F91AA
:104650003F912F910F900FBE0F901F90189519BC8E
:10466000109295041092670479CF8091E30087FD42
:1046700093E090939504BACF78941F921FB61F923F
:1046800011248F939F93AF93BF9380916104909176
:104690006204A0916304B09164040196A11DB11D50
:1046A0008093610490936204A0936304B0936404C4
:1046B000BF91AF919F918F911F901FBE1F90189532
:1046C0001F921FB61F9211248F939F93AF93BF9396
:1046D00080916004811113C0809161049091620403
:1046E000A0916304B09164044196A11DB11D809313
:1046F000610490936204A0936304B0936404BF9137
:10470000AF919F918F911F901FBE1F901895CDB7AD
:10471000DEB72A970FB6F894DEBF0FBECDBF85B7C0
:10472000806885BF85B7806885BF84B7877F84BF71
:104730000FB6F894A895809160008861809360001E
:10474000109260000FBE80E890E00FB6F89480935E
:104750006100909361000FBE84EB95E090930D0390
:1047600080930C030E9460030E9401048091E20088
:1047700084608093E20078940E94301282E084BDCD
:1047800093E095BD9AEF97BD80936E001092F00371
:104790001092F1031092F2031092F30326982E98D0
:1047A0008FE891E00197F1F700C0000083B186FB2C
:1047B000882780F98093200180912001882309F4C3
:1047C00088C01092370186E0809338010E94AE09BC
:1047D00081110E943B27809120018091200195E06A
:1047E000811190E09093010485E0891B809300047F
:1047F00009ED12E0D8018D918D018F3F11F00E94DB
:10480000B605B2E00E3D1B07A9F70EED12E0F80168
:1048100081918F018F3F11F00E94B605F2E0063EB4
:104820001F07A9F78AE0EEE0F4E0DF01282F1D92D0
:104830002A95E9F7E6EFF3E0DF011D928A95E9F7A3
:1048400081E080930804F89484E399E19093F50360
:104850008093F4031092800085E080938100109291
:10486000820010928500109284008FEF9FEF90934A
:10487000890080938800789490E080E00E94A029CD
:10488000873E9E4F11F00E94671982E090E00E94DF
:1048900092298093180484E090E00E94A0299093CC
:1048A0006604809365040E940E10EFE3FCE93197E3
:1048B000F1F700C000000E940E1080910E0480FFEE
:1048C0000CC06FEF7FEF90E080E00E94C4290E944F
:1048D000C00486E08093370177CF83E090E00E94A8
:1048E000922990E00E94FF088091040481113BC04E
:1048F00090E080E00E94A029873E9E4F21F00E9418
:1049000067190E94850E88E090E00E949A296093C2
:10491000590470935A0480935B0490935C048091D3
:1049200030048360809330046E7F71F40E94850EA2
:1049300088E090E00E949A296093590470935A0489
:1049400080935B0490935C040E9405050E94FE0422
:104950008091590480FF04C060E086950E94200E7B
:1049600081E0809304040E94AE09811102C00E947C
:104970003E2705E314E089E5E82E84E0F82E9BE26B
:10498000D92ECC24CA9428E2B22E8091590480FFFB
:1049900009C0D8011196DC921197CC921296BC9264
:1049A0000E94220A0D5F1F4FE016F10671F7109268
:1049B00009041092070410920604109205048091D5
:1049C00008040E94C10881E291E090935F04809303
:1049D0005E04A8E1EA2EF12CB0E46B2E77247394E8
:1049E00018E1C12E14E0D12E8091950400E112E16E
:1049F000853009F48FC00E940E1009E114E0FEE03A
:104A0000AF2EF4E0BF2E23E234E0D501F8019191FE
:104A10008D912E173F0709F498C09817C1F30E9493
:104A2000AE09282E912CF50181905F01D8013D90AF
:104A30008D01381429F13824512C44244394832DBA
:104A40008421B1F02220A1F05E829F8291E0882D26
:104A5000842109F490E098870E94EC048160782F0B
:104A60009A8789874E815F8168858A850E94E321C4
:104A70005394440CB8E05B12E2CFF8013197808286
:104A80009394EAE09E12CFCF0E94E0047EC0809112
:104A90009504843009F430C00E94FE0480910B0418
:104AA000811109C070920B04809159048170809328
:104AB0000A040E94070D109260040FB6F894A8959E
:104AC000E09260000FBE6092600083B7817F8460D7
:104AD00083BF83B7816083BF7894889583B78E7FC7
:104AE00083BF0FB6F894A895809160008861809389
:104AF0006000109260000FBE80918B04882351F0FB
:104B00000E940E10EEE0F4E0819181111FC1CE16DB
:104B1000DF06D1F780919504853009F4B8CF0E9463
:104B200018120E94D10910920B0480910A04882364
:104B300049F08091590481608093590460E0869522
:104B40000E94200E0E94070A56CF981368CF0E9439
:104B5000EC048C0180910C0490910D040817190746
:104B6000A1F08FEF89838A831B820E94EC0481600D
:104B7000782F9D838C8349815A816B818D810E941E
:104B8000E32110930D0400930C040E94AE09809160
:104B90002F04882309F463C080912E04E091590406
:104BA000E695E81BE0932A04823009F075C0F0E036
:104BB000E656FD4FE4910E2F10E0E3EFAE2EECE051
:104BC000BE2E80912B04882361F010922B040E944A
:104BD000FC09909329048093280410922D041092CC
:104BE0002C040E94FC09E0912804F09129049C0106
:104BF0002E1B3F0B2F3F3F4790F520912604222389
:104C0000B1F0109226042091240430912504821BD7
:104C1000930B8F3F9F4758F4205D3A48309325040B
:104C20002093240480913004886080933004809025
:104C30002C0490902D04E00FF11FF0932904E093D1
:104C4000280488E294E0F501099580912C04909164
:104C50002D04892B21F4892811F07092260480916B
:104C60002304882361F01092230480912F04811182
:104C700006C08091590460E086950E94200E0E9433
:104C8000D10990912704891721F0809327040E946D
:104C9000E0040E943012A8CE863059F4F0E0E956C4
:104CA000FD4FE4910E2F10E073EEA72E7CE0B72E9F
:104CB00088CF893061F4E695F0E0EC56FD4FE49141
:104CC0000E2F10E06CE3A62E6CE0B62E7ACF8F305C
:104CD00061F4E695F0E0EF56FD4FE4910E2F10E001
:104CE00051EBA52E5BE0B52E6CCF853159F4F0E089
:104CF000E257FD4FE4910E2F10E04CE2A42E4BE062
:104D0000B42E5FCF08E210E09AEAA92E9AE0B92EFD
:104D1000883109F456CF833249F4ECE8F2E005918A
:104D2000149132E9A32E3CE0B32E4BCF04EF11E0F7
:104D30002DE6A22E2AE0B22E843209F442CF00EDF5
:104D400017E08AEBA82E84E0B82E3BCF09BD19BD31
:104D500009B400FEFDCF8091D8008F7D8093D800EC
:104D60008091E00082608093E0008091E00081FD0E
:104D7000FCCF0E941812CECE1F920F920FB60F9248
:104D800011242F933F934F935F936F937F938F9350
:104D90009F93AF93BF93EF93FF93E091F403F09150
:104DA000F5030995FF91EF91BF91AF919F918F917D
:104DB0007F916F915F914F913F912F910F900FBE17
:104DC0000F901F9018958EE1489B02C08150E1F72B
:104DD000489BFECF0895589880E28A95F1F7589A3B
:104DE0000895FC013BE03A95F1F798E020E080E07F
:104DF00031E040E14A95F1F7880F489B02C081609D
:104E0000232742E04A95F1F7000040E14A95F1F787
:104E1000915079F790E19A95F1F799B132E03A958E
:104E2000F1F7000040E14A95F1F791709227208157
:104E3000920F90830895A1E0B0E0E1E2F7E20C94D4
:104E4000A92819828C017C01E60EF11C0E151F05A4
:104E500041F481E09981911180E02196E6E00C9483
:104E6000C5280E94E326CE0101960E94F126F80192
:104E700081938F01EBCF509A589A08955098589A81
:104E8000E89AE9E6F0E080818C7F808308956150A4
:104E9000770B91E001C0990F6A95EAF720E031E0C5
:104EA000911108C0222391F0589A80E28A95F1F777
:104EB00058980895492F482339F0589A232740E2FB
:104EC0004A95F1F79695ECCF5898F9CF5898EDCFD1
:104ED000FF920F931F93CF93DF93EC018C01060F8A
:104EE000111DC017D10729F4CDB7DEB7E5E00C944A
:104EF000C628F9900E94EB2668E08F2D0E94472774
:104F0000F0CF1F920F920FB60F9211240F931F93A1
:104F10002F933F934F935F936F937F938F939F93C1
:104F2000AF93BF93EF93FF93CF93DF930F92CDB7E0
:104F3000DEB719820E94E326CE0101960E94F12677
:104F4000082F069506950695282F22952570902FF7
:104F50009570290F922F937026952695920F98277A
:104F600097708981982B09F05CC0053008F059C012
:104F700080E18A95F1F7589A509A82E08A95F1F784
:104F800000C0589888E0089F80011124D801A050E3
:104F9000BF4F1696ED91FC9117973097A9F060914D
:104FA000D7027091D80214962D913C911597260F37
:104FB000371F11968D919C911297680F791F139648
:104FC0004C9113978C910995F801E050FF4F638144
:104FD000662351F02091D7023091D80284819581C7
:104FE000820F931F0E9468270E94EB2680E18A951A
:104FF000F1F758985098589A80E18A95F1F7F8019E
:10500000E050FF4F6081662351F02091D70230912C
:10501000D80281819281820F931F0E941B270E94D8
:10502000E3260F90DF91CF91FF91EF91BF91AF9168
:105030009F918F917F916F915F914F913F912F91B0
:105040001F910F910F900FBE0F901F9018950F9307
:105050001F93CF93DF93EC0105970CF04CC0F894AD
:10506000509A589885E08A95F1F700009C2F969504
:1050700095708C2F8570980F892F837096959695D3
:1050800023E0CC0FDD1F2A95E1F7980F8E01092B45
:105090000E94EB2600C068E0802F0E94472780E135
:1050A0008A95F1F75098589A489B1EC087E090E087
:1050B00048991CC0FE01E050FF4F63816623F9F060
:1050C0002091D7023091D80284819581820F931F5D
:1050D0000E941B27811113C0509A589A7894DF912F
:1050E000CF911F910F91089500C0DECF019729F451
:1050F000509A589A789480E0F2CF00C0D9CF0E949D
:10510000E32680E28A95F1F75898509A80E18A95D3
:10511000F1F7C050DF4F6881662351F02091D7022C
:105120003091D80289819A81820F931F0E9468274B
:105130000E94EB26789481E0D2CF2F923F924F923B
:105140005F926F927F928F929F92AF92BF92CF9217
:10515000DF92EF92FF920F931F93CF93DF93CDB720
:10516000DEB7CA1BDB0B0FB6F894DEBF0FBECDBF98
:1051700009942A88398848885F846E847D848C8469
:105180009B84AA84B984C884DF80EE80FD800C8172
:105190001B81AA81B981CE0FD11D0FB6F894DEBF55
:1051A0000FBECDBFED01089587FB082E062687FDB3
:1051B000819567FD61950E9463290EF4919507FC26
:1051C00081950895AA1BBB1B51E107C0AA1FBB1FF5
:1051D000A617B70710F0A61BB70B881F991F5A9583
:1051E000A9F780959095BC01CD01089597FB072EF6
:1051F00016F4009407D077FD09D00E94E22807FC3E
:1052000005D03EF4909581959F4F089570956195D6
:105210007F4F0895A1E21A2EAA1BBB1BFD010DC0F2
:10522000AA1FBB1FEE1FFF1FA217B307E407F50756
:1052300020F0A21BB30BE40BF50B661F771F881F32
:10524000991F1A9469F760957095809590959B01C8
:10525000AC01BD01CF010895EE0FFF1F0590F49141
:10526000E02D09940E943A29332312F48A1B9B0BE8
:105270000C944B29A29FB001B39FC001A39F700D56
:10528000811D1124911DB29F700D811D1124911D4E
:1052900008950E943A29B7FF0895821B930B089541
:1052A0000E943A29A59F900DB49F900DA49F800D58
:1052B000911D11240895B7FF0C9450290E94502984
:1052C000821B930B0895991B79E004C0991F9617D0
:1052D00008F0961B881F7A95C9F780950895FC0100
:1052E0004150504030F001900616D1F73197CF0170
:1052F0000895882799270895FB01DC0104C08D914A
:105300000190801921F441505040C8F7881B990B37
:105310000895FB01DC0102C001900D924150504004
:10532000D8F70895F999FECF92BD81BDF89A9927D3
:1053300080B50895A6E1B0E044E050E00C94CC299B
:10534000A8E1B0E042E050E00C94CC29262FF99976
:10535000FECF92BD81BDF89A019700B4021639F0D4
:105360001FBA20BD0FB6F894FA9AF99A0FBE0895A5
:105370000396272F0E94A7290E94A629252F0E9465
:10538000A729242F0C94A7290196272F0E94A7292B
:105390000C94A629DC01CB01FC01F999FECF06C0D3
:1053A000F2BDE1BDF89A319600B40D9241505040E3
:1053B000B8F70895F894FFCF24134C13E4144C135A
:1053C000E4147F13A013E4149D14AA14B017B517A6
:1053D000B817BB17BE17C117C417C717CA17CD1701
:1053E000D017D317B417D617D917DC17DF17E21762
:1053F000E517E817EB17EE17F117BB17BE17F417F1
:10540000F717FA17FD1700180318061809180C18D3
:10541000B417B4170F181218151818181B181E18DF
:10542000211824182718BB17BE17C117C417C71790
:10543000CA17CD173C18D317CA17B4173F1842180C
:10544000451848184B184E185118541857185A1820
:10545000BB175D1860186318661869186C186F1808
:105460007218751878187B18B4177E18811884186C
:1054700087188A188D18901893189618B018B518B0
:10548000B818BB18BE18C118C418C718CA18CD1848
:10549000D018D318B418D618D918DC18DF18E218A9
:1054A000E518E818EB18EE18F118F118F418FB18C5
:1054B000FE180119041907190A190D1910191319E1
:1054C0001619F718D61819191C191F192219251998
:1054D00028192B192E193119031C071CF81BFF1B47
:1054E0000B1C0F1C131CE61C091D101D151D1A1D7D
:1054F0001F1D241D291D2E1D331D381D3D1D401D42
:10550000451D481D4B1D4E1D511D541D571D751A1F
:10551000E61DE61D1F1E1F1E4D1E4D1E4D1E4D1E5F
:10552000CA1E521F611F611F501CC51C581C221C23
:10553000261C5C1C2A1C601C6C1C361CBE1C3A1CE5
:10554000701C3E1C741C9C1C421C781CA31C481C18
:105550007E1C861C2E1C641C321C681C4C1C821C6D
:0C556000921CAC1CBC1C1C1C541CCC1C61
:10556C000000000100000000000000050100000028
:10557C000406000000000000090A00000000000002
:10558C0001BD043615BC04BB0401191A1B1C1D1EDD
:10559C001F202122010201000C000C0C013F002FE6
:1055AC00007E005D00010132000102E15D0103E1BA
:1055BC00000102E10101320103E1000102E10101FC
:1055CC00340103E1002A0028000102E101018701F6
:1055DC0003E1000102E13B0103E100786100726923
:1055EC00007879610072650070610064690067750C
:1055FC0000647500706900776F006E6100787975D2
:10560C00006D6F00626100646F00676900706F006D
:10561C007875002D00726F007869007075007A6FD4
:10562C0000706500626F005F006761006461006775
:10563C006F007A61006E69007275006D61007865AB
:10564C00005B007675007A69006465006765007A16
:10565C0065006D69006E6F0078796F007874750065
:10566C0027006269007A75006275006265006E75CC
:10567C00006D7500776100786F00200031003300F9
:10568C003400360037003800390030000102E12DBB
:10569C000103E1002E006B61007461006B6F0073FD
:1056AC0061007261007469006B75002C003B007323
:1056BC0069007465006B6500736500686100746F48
:1056CC00006B69006E6E0068690073750068750088
:1056DC006865006D6500736F006E6500686F000192
:1056EC0001350001018A002E002D022F00300031FF
:1056FC00008900300032003400240235002F0227CC
:10570C000226021F022F0023022E00240223022550
:10571C00023402260225022E0233022D0287022FAA
:10572C000230023102890230023202330234003478
:10573C00021F0235022E02D803946697C634F4F584
:10574C00F6F7313332350001020202020606060971
:10575C0009090909090F0F0F0F0F0F151515181946
:0C576C0019191919191919191923240009
:00000001FF
