:100000000C9418030C945F030C945F030C945F032F
:100010000C945F030C945F030C945F030C945F03D8
:100020000C945F030C945F030C9462280C945F03A0
:100030000C94C9230C945F030C945F030C945F032E
:100040000C945F030C9420070C945F030C945F03E3
:100050000C945F030C9420240C945F030C945F03B6
:100060000C945F030C945F030C945F030C945F0388
:100070000C945F030C945F030C945F030C945F0378
:100080000C945F030C945F030C945F030C945F0368
:100090000C945F030C945F030C945F030C945F0358
:1000A0000C945F030C945F030C945F0329001E0003
:1000B0001F0020002100220023002400250026002C
:1000C00027002D002E002A002B0014001A00080023
:1000D000150017001C0018000C00120013002F0060
:1000E00030003100E00004001600070009000A009B
:1000F0000B000D000E000F0033003400000028003C
:10010000E10000001D001B000600190005001100A1
:100110001000360037003800E50052000251E300BD
:10012000E200000000002C002C00E0005000000065
:10013000E600025151004F002900A65DA75DA85DB1
:10014000A95DAA5DAB5DAC5DAD5DAE5DAF5DB05D63
:10015000B15D2A002B00B35DB45DB55DB65DB75DE2
:10016000B85DB95DBA5DBB5DBC5DBD5DBE5DB25DD8
:10017000E000BF5DC05DC15DC25DC35DC45DC55DC6
:10018000C65DC75DC85DC95D00002800E1000000D4
:10019000CA5DCB5DCC5DCD5DCE5DCF5DD05DD15D0B
:1001A000D25DD35DE50052000251E300E2000000A1
:1001B0000000D55DD45DE0000100000001000251A7
:1001C0000100010035003A003B003C003D003E00CC
:1001D0003F004000410042004300440045004C0005
:1001E000010001005E5D0100D05CC35C4A004E006E
:1001F0004B004D0046000100480001000100D65CA4
:10020000D15C0100CE5CD55C5000510052004F0023
:1002100049004C0000002800E10000004C05D45CBF
:1002200001000100CF5CD25CD35C01000100010041
:1002300001004B0002510100010000000000D75DE9
:10024000D65D01004A000000010002514E004D0041
:1002500000000000000000002A2B28000000000021
:100260000000000000000000000000290000000065
:100270002C1E3420212224342627252E362D3738D3
:10028000271E1F202122232425263333362E3738DC
:100290001F0405060708090A0B0C0D0E0F1011129A
:1002A000131415161718191A1B1C1D2F3130232D66
:1002B000350405060708090A0B0C0D0E0F10111264
:1002C000131415161718191A1B1C1D2F3130354C15
:1002D000000000000000000000000000000000001E
:1002E000000000000000000000000000000000000E
:1002F000000000007E0F00D4FFFFFFC70000007861
:1003000000047F3F1F643214643214783C1E1E14B4
:100310000A052223252628292A2C2D2F3032333571
:1003200036383A3B3D3E4042434547494A4C4E50A1
:1003300051535557595A5C5E6062646668696B6DCB
:100340006F71737577797B7D7F81838587898A8CCF
:100350008E90929496989A9C9E9FA1A3A5A7A8AAD6
:10036000ACAEAFB1B3B4B6B8B9BBBCBEBFC1C2C30B
:10037000C5C6C7C9CACBCCCDCED0D1D2D2D3D4D5A5
:10038000D6D7D7D8D9D9DADADBDBDBDCDCDCDCDCCE
:10039000DDDDDDDDDCDCDCDCDCDBDBDBDADAD9D9A6
:1003A000D8D7D7D6D5D4D3D2D2D1D0CECDCCCBCA34
:1003B000C9C7C6C5C3C2C1BFBEBCBBB9B8B6B4B35A
:1003C000B1AFAEACAAA8A7A5A3A19F9E9C9A9896F0
:1003D0009492908E8C8A89878583817F7D7B7977C3
:1003E0007573716F6D6B6968666462605E5C5A59A3
:1003F00057555351504E4C4A4947454342403E3D64
:100400003B3A3836353332302F2D2C2A29282625F1
:100410002322FFAA7F5540000101010101010101D2
:1004200001020202020202020202030303030303A7
:100430000303040404040404040505050505060675
:100440000606060707070707080808080909090933
:100450000A0A0A0B0B0B0C0C0C0D0D0D0E0E0E0FD9
:100460000F0F101011111112121313141415151669
:10047000161717181819191A1A1B1B1C1D1D1E1EDA
:100480001F2020212222232424252626272829292B
:100490002A2B2C2D2D2E2F30313232333435363756
:1004A00038393A3B3C3D3E3F404142434445464754
:1004B00048494A4C4D4E4F50515354555658595A2D
:1004C0005B5D5E5F616264656668696B6C6D6F70D1
:1004D00072737577787A7B7D7E8082838587888A40
:1004E0008C8E8F91939596989A9C9EA0A2A3A5A777
:1004F000A9ABADAFB1B3B5B7BABCBEC0C2C4C6C973
:10050000CBCDCFD1D4D6D8DBDDDFE2E4E7E9EBEE2B
:10051000F0F3F5F8FAFDFF3C0358004400360030D4
:1005200000200033002E00300020004E0049004320
:10053000004F004C00410020004F0079006100791D
:1005400000750062006900200053006800690066C1
:1005500000740000000C0358004900550044004995
:100560000000000403090409023B00020100A0FA94
:100570000904000001030101000921110100012209
:1005800040000705810308000A0904010001030077
:100590000000092111010001223B00070582032010
:1005A000000A1201000200000008447863630100A1
:1005B0000102000105010906A1018506050719E0F0
:1005C00029E7150025019508750181020507190025
:1005D00029EF1500250195F0750181020508190123
:1005E0002905950575019102950175039101C005D5
:1005F000010906A101050719E029E7150025019564
:100600000875018102950175088101050719002906
:10061000FF150026FF0095067508810005081901E1
:100620002905950575019102950175039101C00099
:1006300011241FBECFEFDAE0DEBFCDBF04B603FE4C
:1006400027C080918C0490918D04A0918E04B0916C
:100650008F048730904BA740B04BD1F410928C049C
:1006600010928D0410928E0410928F0414BE84B7E1
:10067000877F84BF0FB6F894A89580916000886149
:1006800080936000109260000FBEE0E0F8E30995EF
:1006900013E0A0E0B1E0E0EAF8E502C005900D92B9
:1006A000A434B107D9F724E0A4E4B3E001C01D925B
:1006B000AC38B207E1F70E94FD180C949C2B0C9407
:1006C0000000E4E2F1E030E020E040815181481791
:1006D000590751F4220F331F220F331FF901EC5D2C
:1006E000FE4F8281938108952F5F3F4F34962431CE
:1006F000310559F78FEF9FEF0895EF92FF920F9317
:100700001F93CF93DF937C018B010E94ED12D82FB2
:10071000F801C281CC2399F1870111278F298272B8
:1007200009F01260C8010E9461037C010196D9F0B2
:100730008091460390914703009721F00E94610346
:100740000E940F0810934703009346038D2F827277
:1007500091F082E20E94F612C7010E94F8078D2FE5
:100760000E94FD12C0E08C2FDF91CF911F910F915D
:10077000FF90EF900895C7010E94F807F3CF809192
:100780004603909147038E1109C00E9461030E94A5
:100790000F081092470310924603E5CFC1E0E3CF64
:1007A0008093540383EC95E00C94FA0680915503F2
:1007B000089510925203109249031092480308952D
:1007C00081E0809355030E94D903809154030C94D7
:1007D000220E109255030E94D903809154030C9469
:1007E000430E209155032223F9F0805E910908976A
:1007F000D8F480915303FB019281992361F0811118
:1008000004C0809154030E94430E809153038F5F74
:10081000809353030895815080935303811104C042
:10082000809154030C94220E0895E0915003F091AE
:100830005103E65AFD45EE32F10508F08FC0E2564D
:10084000F44D0C94F72A84E791E00C94C10985E1FA
:1008500092E0FBCF86E791E0F8CF88E791E0F5CF13
:100860008AE791E0F2CF8CE791E0EFCF8EE791E05D
:10087000ECCF80E891E0E9CF8DEA91E0E6CF82E825
:1008800091E0E3CF84E891E0E0CF86E891E0DDCF2E
:100890008EE891E0DACF80E991E0D7CF83E991E06B
:1008A000D4CF86E991E0D1CF89E991E0CECF8CE930
:1008B00091E0CBCF8FE991E0C8CF82EA91E0C5CF3C
:1008C0008FED92E0C2CF85EA91E0BFCF8FEA91E051
:1008D000BCCF81EB91E0B9CF83EB91E0B6CF8BEE4B
:1008E00092E0B3CF8DEB91E0B0CF80EC91E0ADCF53
:1008F00083EC91E0AACF86EC91E0A7CF89EC91E060
:10090000A4CF8CEC91E0A1CF8FEC91E09ECF85EE4F
:1009100092E09BCF82ED91E098CF85ED91E095CF6D
:1009200089ED91E092CF83EE91E08FCF86EE91E05A
:100930008CCF89EE91E089CF8CEE91E086CF8FEE5F
:1009400091E083CF82EF91E080CF85EF91E07DCF82
:1009500088EF91E07ACF8BEF91E077CF0895809187
:100960004E0390914F03892B21F08DEF91E00C9471
:10097000C109089580914E0390914F03843D2DE568
:10098000920709F08DC0E0915003F0915103E65AAF
:10099000FD45EE32F10508F0F5C0E453F44D0C943A
:1009A000F72A8FEF91E00C94C1098BEF91E0FBCF18
:1009B00081E092E0F8CF81E192E0F5CF83E192E02F
:1009C000F2CF87E192E0EFCF8FE192E0ECCF89E2C6
:1009D00092E0E9CF87ED91E0E6CF83E392E0E3CFC9
:1009E00085E392E0E0CF8FE392E0DDCF87E492E011
:1009F000DACF8EEE92E0D7CF8AE492E0D4CF8DE4C6
:100A000092E0D1CF81E592E0CECF84E592E0CBCFEA
:100A100087E592E0C8CF8AE592E0C5CF8DE592E008
:100A2000C2CF80E692E0BFCF83EB91E0BCCF83E6FC
:100A300092E0B9CF81E792E0B6CF86E692E0B3CFFD
:100A400089E692E0B0CF8DE692E0ADCF80E792E00C
:100A5000AACF83E792E0A7CF86E792E0A4CF89E709
:100A600092E0A1CF85ED91E09ECF8CE792E09BCF05
:100A700084E891E098CF8FE792E095CF8EE492E002
:100A800092CF82E892E08FCF85E892E08CCF88E821
:100A900092E089CF8BE892E086CF8EE892E083CF18
:100AA000853D9D4509F06EC0E0915003F0915103E2
:100AB000E65AFD45EE32F10508F064C0E650F44D0B
:100AC0000C94F72A81E992E06ECF81EA92E06BCF35
:100AD0008BEA92E068CF8EEA92E065CF81EB92E0FC
:100AE00062CF84EB92E05FCF8BED92E05CCF87EB3F
:100AF00092E059CF8AEB92E056CF8DEB92E053CF44
:100B000080EC92E050CF83EC92E04DCF85EC92E008
:100B10004ACF88EC92E047CF8BEC92E044CF8EEC4A
:100B200092E041CF81ED92E03ECF84ED92E03BCF69
:100B30008FE892E038CF87ED92E035CF8AED92E0F2
:100B400032CF8EED92E02FCF82EE92E02CCF84EE6A
:100B500092E029CF87EE92E026CF8AEE92E023CF73
:100B60008DEE92E020CF80EF92E01DCF8AE692E0FA
:100B70001ACF83EF92E017CF86EF92E014CF89EF80
:100B800092E011CF08958091480390914903892BF9
:100B900049F480915203823071F028F4813041F0A1
:100BA0001092520308958530D8F70E94BA04F8CF06
:100BB0000E941504F5CF0E94AF04F2CFEF92FF928E
:100BC0000F931F93CF93DF938C017B0181E090E023
:100BD00090934903809348030E94F923EC01F701A5
:100BE000F2809801265A3D45FF2009F48EC080917D
:100BF00052032E32310508F042C08230E1F1E8F4B0
:100C0000882309F1813009F11093510300935003B7
:100C1000D0934D03C0934C0380E699E00E941207E5
:100C2000F12C10924903109248038F2DDF91CF9140
:100C30001F910F91FF90EF900895833049F0843019
:100C400019F70E94BA0481E017C00E941504DCCF96
:100C500080914A0390914B0320914C0330914D03B6
:100C6000AC01421B530BFE01E81BF90B4E175F074B
:100C700040F30E94150484E080935203C5CF98018D
:100C8000245D3D452230310590F5823049F168F40C
:100C9000882311F1813049F110934F0300934E03E3
:100CA000D0934B03C0934A03B7CF833099F084307D
:100CB00099F780914C0390914D0320914A03309114
:100CC0004B03AC01421B530BFE01E81BF90B4E1703
:100CD0005F0748F40E94BA0482E080935203DCCF9D
:100CE0000E94AF04D9CF0E94AF0483E0F6CF8230D8
:100CF00009F44CC028F48130E1F01092520391CFF6
:100D00008530D8F70E94BA04F8CF2033310508F0B7
:100D10006EC080915203823089F170F4813009F005
:100D200080CF80915003909151038017910709F073
:100D300078CF0E941504E1CF833059F1843009F057
:100D400070CF80914E0390914F038017910709F067
:100D500049C080914C0390914D03C81BD90B209141
:100D60004A0330914B03821B930B8C179D0750F263
:100D7000649740F60E94AF0481E028C080914E0342
:100D800090914F038017910709F04BCF0E94AF0459
:100D9000B4CF809150039091510380179107C9F40B
:100DA00080914A0390914B03C81BD90B20914C03AF
:100DB00030914D03821B930B8C179D0708F4A2CF33
:100DC000649708F09FCF0E94150482E0809352033D
:100DD00028CF80914E0390914F038017910709F01F
:100DE00020CF90CF8091500390915103F6CFFF24F4
:100DF000F39417CFF894909357038093560310926F
:100E0000800085E08093810010928200109285001E
:100E1000109284008FEF9FEF909389008093880059
:100E200078940895F894109285001092840090931D
:100E300089008093880082E080936F007894089501
:100E40001F920F920FB60F9211242F933F934F933F
:100E50005F936F937F938F939F93AF93BF93EF9322
:100E6000FF93E0915603F09157030995FF91EF919D
:100E7000BF91AF919F918F917F916F915F914F91B2
:100E80003F912F910F900FBE0F901F901895229AAF
:100E90002A98089522982A980895CF93C82F81FF01
:100EA00006C00E9447078C2FCF910C94C4090E9462
:100EB0004A07F9CF81E00C94D003CF93C0E02C2FE8
:100EC00040E060E080E80E94C31BCF5FCC30B9F700
:100ED000CF910C94E9030F931F93CF93DF93EC0111
:100EE0008B01C63D8DE5D80781F0C73DEDE5DE07F6
:100EF00051F10E94D60381113FC0B801CE01DF91AC
:100F0000CF911F910F910C947D03FB018281882367
:100F1000A1F08CEF92E00E94C10980E093E00E9472
:100F2000C1090E94E903C0E02C2F40E860E080E0A6
:100F30000E94C31BCF5FCC30B9F780E0DF91CF9127
:100F40001F910F910895FB0182818823B1F384E002
:100F500093E00E94C10988E093E00E94C1090E94C9
:100F6000E003C0E02C2F40E06EE780E00E94C31B4E
:100F7000CF5FCC30B9F7E1CFB801CE010E94F103C9
:100F8000B801CE010E94DE058111B7CFD6CF9C01FA
:100F90003A9521153F4150F5FC01EE27F170BC0157
:100FA00066277270AC01442754709C012227387068
:100FB00094FF0EC080E1EF2B09F480E0672B09F06D
:100FC0008062452B09F08064232B89F080680895A6
:100FD00081E0EF2B09F480E0672B09F08260452B5C
:100FE00009F08460232B19F08860089580E008954B
:100FF000CF93DF93EC010E94C7079E01205E310969
:101000002830310510F0209739F40E94F30A8C2F14
:10101000DF91CF910C94150A0E944F0DF8CFCF931A
:10102000DF93EC010E94850ACE010E94C7079E0152
:10103000205E31092830310510F0CD2B21F4DF91ED
:10104000CF910C94FA0ADF91CF910C94560D81E068
:1010500008950C946B0708950C942B081F93CF935D
:10106000DF9300D000D00F92CDB7DEB749835A830B
:101070006B833091580389819A8131111DC0662399
:10108000B9F02223A9F00E94120F182F682F89812E
:101090009A810E94BE0E69817A81812F0F900F90F4
:1010A0000F900F900F90DF91CF911F910C947515B9
:1010B0000E94EA0E182FEFCF0E94120F69817A81E9
:1010C000EDCFFC01262F40815181628173818481A3
:1010D0000C942E0881E00895CF93DF93EC0160E03B
:1010E0000E946108BE01DF91CF910C942C080E94F0
:1010F0007A170E94C9090C949E170C94A11780E0DE
:101100000C94CA09089508950E94670D0E948308EF
:101110002FEF84E39CE0215080409040E1F700C035
:1011200000000C9444240F931F93CF93DF938C0102
:1011300061E00E946108EC01B8010E94290888233F
:10114000D9F1B801CE010E94FE218823A9F1B8018E
:10115000CE010E943E20882379F1B801CE010E9481
:101160006821882349F1B801CE010E94471F8823D6
:1011700019F1F8018281882361F0CB35FDE5DF07A5
:1011800021F170F4C115ECE5DE07A1F0CF3DDC459F
:10119000C9F0C801DF91CF911F910F910C942708DE
:1011A000CC358DE5D807A1F0CD35DD4591F70E940E
:1011B000C213EFCF0E94840880E0DF91CF911F918E
:1011C0000F9108950E947C14F7CF0E94CB13E1CFBA
:1011D0000E94CE13DECF0C9482080E945A220E94F5
:1011E000CA090C94EB08DF92EF92FF920F931F93C2
:1011F000CF93DF93E82FF0E0E05BFD4FD490282FF2
:1012000026952695269530E0F901E051FD4F049191
:10121000877010E0082E02C0159507950A94E2F732
:1012200001701127F901E052FD4FE490F12C082ED6
:1012300002C0F594E7940A94E2F791E0E922FF24D2
:10124000F901E053FD4FC491D0E002C0D595C79598
:101250008A95E2F7C170DD270115110519F081EEBD
:101260000E94150AE114F10419F086EE0E94150A95
:101270008D2D0E94EB0AEF2819F086EE0E94850A58
:10128000012B19F081EE0E94850ACD2B51F08CE2E2
:10129000DF91CF911F910F91FF90EF90DF900C9411
:1012A000EB0ADF91CF911F910F91FF90EF90DF90AC
:1012B0000895EF92FF920F931F93CF93DF93EC016A
:1012C000162F0AE08881882309F454C0813009F080
:1012D0004EC08981813099F47E0122E0E20EF11C3A
:1012E0008A810E94EB0AE7012196812F815050F3F9
:1012F000EFE9FFE03197F1F700C00000F7CF82304F
:1013000041F47E0182E0E80EF11C8A810E94150AF8
:10131000EACF833041F47E01E2E0EE0EF11C8A81D7
:101320000E94850AE0CF843011F02196DDCF2A811A
:10133000229690E080E0AE014F5F5F4F2053330B69
:101340002A30310548F0019778F2EFE9FFE0319754
:10135000F1F700C00000F7CF089FB001099F700DA2
:101360001124C901860F971F2981EA01E4CF0E9449
:10137000F308BACFDF91CF911F910F91FF90EF90BB
:10138000089560E00C945909089581E008950C9443
:10139000C5090895CF93C82F0E944D078C2FCF9178
:1013A0000C94C709CF93DF93CDB7DEB72B970FB659
:1013B000F894DEBF0FBECDBF4F83588769877A8709
:1013C0008B8761110E9410131E821D8285E0FE0131
:1013D0003796DE01119601900D928A95E1F78C8186
:1013E0009D81892B89F449815A816B817C818D8112
:1013F0009E810E942E122B960FB6F894DEBF0FBE70
:10140000CDBFDF91CF91089589819A8189238F3F44
:1014100051F3CE0101960E946A088111E4CFEBCF0F
:10142000FC01808191810C94540FCF93C82F8823A5
:1014300009F469C08238C1F40E945A2281FD63C058
:1014400089E30E94C8120E9440132FEF81EE94E0BE
:10145000215080409040E1F700C0000089E30E94E5
:10146000CF12CF910C9440138338A1F40E945A22DA
:1014700080FD49C083E50E94C8120E9440132FEFEF
:1014800081EE94E0215080409040E1F700C00000E0
:1014900083E5E5CF8438A1F40E945A2282FD33C04F
:1014A00087E40E94C8120E9440132FEF81EE94E05F
:1014B000215080409040E1F700C0000087E4CFCF8A
:1014C0008CEF8C0F813A90F46C2F809102019091F7
:1014D00003010E94C022882329F08C2F0E94CF1282
:1014E0000E9440138C2F0E94C812BBCF80E28C0F49
:1014F000883048F4C77081E001C0880FCA95EAF7C8
:101500000E94F012AECFCF910895882309F44BC00A
:10151000823871F40E945A2281FF45C089E30E94FB
:10152000C8120E94401389E30E94CF120C9440130A
:10153000833859F40E945A2280FF35C083E50E9407
:10154000C8120E94401383E5EFCF843859F40E94FB
:101550005A2282FF28C087E40E94C8120E944013CA
:1015600087E4E2CF9CEF980F913AF0F290E2980F67
:10157000983050F4877091E001C0990F8A95EAF78E
:10158000892F0E94F612D2CF9BE5980F933020F45A
:1015900090E080E00C948022885A873120F490E01B
:1015A00080E00C94962208951F93CF93DF93182F19
:1015B000EB010E94150A209731F4812FDF91CF9122
:1015C0001F910C94850A8FE99FE00197F1F700C005
:1015D00000002197F0CF70E060E0893311F460E5FE
:1015E00070E00C94D40A882321F00E94F0120C942D
:1015F00040130895882321F00E94F6120C944013A2
:101600000895BF92CF92DF92EF92FF920F931F93B4
:10161000CF93DF936C01D62FC72FFC011281F58089
:10162000F2949FE0F9220E94E612E82E8823B9F096
:10163000E12E1123A1F08C2F807F803421F080E2F5
:101640008D0F8830B0F080913D0482FD12C082E0A1
:101650000E9491130E94E61291E0E82EE926BC2E2A
:10166000B2948FE0B822EB2DF0E0E85DF34D0C94DE
:10167000F72AE12CF4CF0C2F0F70C07F11F00295E8
:10168000007F112399F0002359F080E28D0F8830FC
:1016900010F0D11107C0802F0E94F0120E94401359
:1016A0008D2F41C0802F0E940313F8CF8D2F0E94F1
:1016B000850A002309F43FC080E28D0F883010F0C6
:1016C000D11104C0802F0E94F61203C0802F0E9407
:1016D00009130E9440132FC00C2F0F70C07FC0321F
:1016E00011F00295007FDD2381F0D13009F469C04B
:1016F000112309F473C0FF2009F469C0F601858144
:1017000080FFCECF8F70858362C080913D0482FFC1
:1017100038C0112359F0002329F0802F0E94F012C5
:101720000E94401380E00E94150A05C080E00E94DC
:10173000850A0111C7CFEB2DE850FF0B349720F439
:101740000E945A220E94CA09EE2009F45BC10E943D
:10175000E21280FD57C1F60112820E94DC120E9443
:10176000220EC6010E94230D0E94DC12DF91CF9150
:101770001F910F91FF90EF90DF90CF90BF900C944E
:10178000430E112389F0F11006C00E942313802B11
:101790000E94F30AD0CFF1E0FF12F7CF0E9423138B
:1017A000802B0E942913C7CFF11006C00E94361368
:1017B000802F0E94FA0ABFCF21E0F21609F4BBCFB6
:1017C000F5CF112331F035E03F1508F4B4CF802F69
:1017D000DFCF84E08F1508F4AECFEACFFF2041F3CE
:1017E000D93349F4FFEF27EE33E0F1502040304089
:1017F000E1F700C000008D2F0E94850A9CCF8C2F3E
:10180000837009F041C0111196CF4D2F4295469536
:101810004770440F440F0D2F0F7010E030E020E0B0
:10182000042E04C0000F111F221F331F0A94D2F789
:1018300060E070E0CB01D4FF0FC06FE070E080E0AB
:1018400090E004C0660F771F881F991F4A95D2F752
:101850006095709580959095C695C695C370602BE0
:10186000712B822B932BC23049F058F4C13019F000
:101870000E94D40D60CF0E94C20D5DCF0E94E60D84
:101880005ACF0E94C00D57CF8695112311F08C2F8F
:101890008170882309F44FCF4D2F429546954770AC
:1018A000440F440F0D2F0F7010E030E020E0042EA5
:1018B00004C0000F111F221F331F0A94D2F760E0EB
:1018C00070E0CB01D4FF0FC06FE070E080E090E0EB
:1018D00004C0660F771F881F991F4A95D2F760953D
:1018E000709580959095C695C695C370602B712BA9
:1018F000822B932BC23049F058F4C13019F00E946A
:10190000990E19CF0E94870E16CF0E94AB0E13CFEF
:101910000E94FC0D10CFCF70112329F08C2F0E9454
:10192000220E8D2F35CF8D2F0E94FA0A8C2F0E9408
:10193000430E01CFD23F51F160F4D03FB9F0D13F17
:1019400081F0112309F449C0F110AACE8C2F8F71B8
:1019500021C0D33F11F1D43FA1F780913D0482FF14
:1019600026C08C2F8F71112311F314C0112349F05D
:1019700084E08F1508F4DFCE8C2F8F710E94660EE5
:10198000DACE95E09F1508F4D6CEF6CF8C2F8F7166
:101990001111CDCF0E94220ECECE112329F08C2F13
:1019A0008F710E940D0EC7CE0E94080EC4CE112367
:1019B00049F0CF718C2F0E94220E63E08C2F0E9481
:1019C0007613B9CE81E00E949113E1E0EF1508F0A3
:1019D000B2CE82E00E949113AECEF11001CF8C2FD7
:1019E0008F71A5CF4C2F4F706D2FC6010E947115BE
:1019F0000E94820FA0CE4C2F4F706D2FC6010E9407
:101A0000741599CEDF91CF911F910F91FF90EF90B8
:101A1000DF90CF90BF9008950F931F93CF93DF93E4
:101A2000EC01688179818A810E945E0F8C010E949D
:101A3000BD0E0E94BF0DB801CE01DF91CF911F9165
:101A40000F910C94010BCF93DF93EC018B819C8160
:101A5000892B29F08881998189238F3F59F4DF915F
:101A6000CF910895CE010E940C0DCE01DF91CF9150
:101A70000C946C08CE010E9493088111F3CF0E9450
:101A8000E612882361F38A81882349F380913D041B
:101A900082FDE5CF82E0DF91CF910C9491138823F2
:101AA00021F00E9403130C9440130895882321F021
:101AB0000E9409130C94401308950E9410130E9471
:101AC00020130C9440130E94D6120C945D0D0E94BA
:101AD00000130C94630DE92FE295EF70E250EE30A5
:101AE00070F4F0E0E85CF34D0C94F72A803F19F0B5
:101AF00020F4883E20F481E00895843FE1F380E003
:101B00000895883EC0F3813FD1F7F5CF93FB882736
:101B100080F90895FC01808191810E94540F0C94FA
:101B20006B0DCF93DF9300D000D00F92CDB7DEB70F
:101B30000F900F900F900F900F90DF91CF9108951D
:101B4000CF93DF9300D000D000D0CDB7DEB726967C
:101B50000FB6F894DEBF0FBECDBFDF91CF910895D1
:101B600008950C94B00D0E94B10D60938A03709398
:101B70008B0380938C0390938D030C945D0D0895DB
:101B80000C94B30D0F931F9300918A0310918B0354
:101B900020918C0330918D03602B712B822B932B22
:101BA0001F910F910C94B30D0F931F9300918A0313
:101BB00010918B0320918C0330918D03602371234E
:101BC000822393231F910F910C94B30D0F931F93B6
:101BD00000918A0310918B0320918C0330918D0327
:101BE00060277127822793271F910F910C94B30DC3
:101BF0000C94B00D0C94F80D0E94FA0D60938603BE
:101C00007093870380938803909389030C945D0DF0
:101C100060E070E0CB010C94FC0D0F931F9341E04A
:101C200050E060E070E08A019B0104C0000F111FCA
:101C3000221F331F8A95D2F7C901B8011F910F9156
:101C40000C94FC0D0F931F9341E050E060E070E0B6
:101C500004C0440F551F661F771F8A95D2F78091E5
:101C6000860390918703A0918803B09189038A012C
:101C70009B01082B192B2A2B3B2BC901B8011F9163
:101C80000F910C94FC0D0F931F9341E050E060E026
:101C900070E004C0440F551F661F771F8A95D2F766
:101CA000CB01BA016095709580959095009186035F
:101CB0001091870320918803309189036023712359
:101CC000822393231F910F910C94FC0D0F931F936C
:101CD00041E050E060E070E004C0440F551F661F13
:101CE000771F8A95D2F78091860390918703A09100
:101CF0008803B09189038A019B01082719272A27A5
:101D00003B27C901B8011F910F910C94FC0D0F9353
:101D10001F930091860310918703209188033091CF
:101D20008903602B712B822B932B1F910F910C94A5
:101D3000FC0D0F931F930091860310918703209150
:101D400088033091890360237123822393231F9199
:101D50000F910C94FC0D0F931F930091860310912B
:101D60008703209188033091890360277127822798
:101D700093271F910F910C94FC0D08952EE0929FD4
:101D8000800D1124982F977041E001C0440F9A955F
:101D9000EAF786958695869595E0899FF00111244E
:101DA000E75AFC4F90E080E070E05191DF0111971D
:101DB0009B01082E02C0369527950A94E2F7217000
:101DC00021952527242325272C93019685309105DD
:101DD00061F708952EE0929F800D1124982F97703F
:101DE00086958695869525E0829FF0011124E75A15
:101DF000FC4F50E040E080E0219130E0092E02C02D
:101E0000369527950A94E2F721703327042E01C0F6
:101E1000220F0A94EAF7822B4F5F5F4F453051053E
:101E200059F70895BF92CF92DF92EF92FF920F93EE
:101E30001F93CF93DF938C01C0908603D0908703CC
:101E4000E0908803F090890380918A0390918B033E
:101E5000A0918C03B0918D03C82AD92AEA2AFB2AC3
:101E6000CFE1D0E0BC2ED701C6010C2E04C0B69540
:101E7000A795979587950A94D2F780FD0EC0219774
:101E800088F7B12C8B2DDF91CF911F910F91FF908F
:101E9000EF90DF90CF90BF900895B8018C2F0E94F3
:101EA0008216019761F3EECFCF93DF93EC010E948E
:101EB000120FBE01DF91CF910C9482161F93CF9326
:101EC000DF93EB0190915803992331F0CB01DF911F
:101ED000CF911F910C94540F882379F0CB010E946D
:101EE000120F182F682FCE010E94BE0EBE01812F47
:101EF000DF91CF911F910C948216CB010E94EA0EC4
:101F0000182FF4CFEF92FF920F931F93CF93DF938D
:101F10008C01892B81F0F12CEE24E394E8012196C9
:101F2000F8018491843770F4843008F05FC0813008
:101F3000B1F08230A1F1DF91CF911F910F91FF900D
:101F4000EF900895853709F44CC008F43DC09CE734
:101F5000980F903780F78F770E94850A49C00E5FEF
:101F60001F4FFE01849190E2980F983060F48770C3
:101F7000FE2D01C0FF0F8A95EAF78F2F0E941313E1
:101F80000E94401302C00E94150A8F2D815030F22A
:101F9000EFE9FFE03197F1F700C00000F7CF0E5FE7
:101FA0001F4FFE01849190E2980F983050F4877093
:101FB000FE2D01C0FF0F8A95EAF78F2F0E9419139B
:101FC000DFCF0E94850AE1CF0E5F1F4FFE01C49153
:101FD000C150D8F28FE99FE00197F1F700C00000EF
:101FE000F7CF0E5F1F4FFE01F490CFCF0E94150A6E
:101FF0008E01CBCF1F93CF93DF93C0918E0316E05A
:1020000080918F038C1304C0DF91CF911F910895AD
:10201000D0E01C9FF0011D9FF00D1124E057FC4FF4
:102020004081518162817381848195810E94A00DDC
:102030002196C770E5CF4091C0035091C1036091D4
:10204000C2037091C3038091C4039091C5030C94A3
:10205000A00DFF920F931F93CF93DF938091C50341
:10206000807FD1F48091C2038823B1F080918E03E8
:1020700010918F036091C0037091C103A091C303BD
:10208000B091C403062F0723C0910001D091010134
:1020900096E0F92E181306C0DF91CF911F910F9192
:1020A000FF90089590E0109711F00F3F19F40196FA
:1020B0008770F0CFF89E9001F99E300D1124F90140
:1020C000E057FC4F41814713F2CF40814613EFCFD9
:1020D00042814111ECCF438154814A1B5B0B4C1769
:1020E0005D0728F78091C5038F7080618093C503D9
:1020F000F901EB56FC4F80818F708061808380EC0A
:1021000093E00E94230DDF91CF911F910F91FF90DB
:102110000C94FA0FAF92BF92CF92DF92EF92FF92A0
:102120000F931F93CF93DF93CDB7DEB761970FB6B1
:10213000F894DEBF0FBECDBF8C0185E0F801DE0153
:102140001D9601900D928A95E1F7F801E28080ECEE
:10215000C82E83E0D82E6091C3037091C40361152B
:10216000710509F45FC19091C0032091C103892FCB
:1021700082238F3F09F456C140815181A380B480EE
:10218000F090C203F501E61BF70BBF01E0910001DF
:10219000F0910101FF2009F4F6C08091C503382FAA
:1021A000307F6E177F0708F0AFC0311179C0FE2C69
:1021B000251323C0941321C0E1101FC08F708061CC
:1021C0008093C5030E941B10C6010E94230D8091BD
:1021D000C503F80185838F2D61960FB6F894DEBF95
:1021E0000FBECDBFDF91CF911F910F91FF90EF9068
:1021F000DF90CF90BF90AF900895AB2829F0842F47
:1022000085238F3F09F027C180E0F82FF170DF2E82
:1022100080FF3CC080918E0320918F0336E08213B3
:1022200015C04D875E878D859E850E94540F292F8E
:1022300022952F702230F0F0243018F59F70F1F0C5
:10224000F8019581907FD1F4D12C1EC090E0389F89
:10225000F001399FF00D1124E057FC4F61816513A7
:1022600006C06081641303C062816E110FC00196C5
:102270008770D5CF9F7011F0882331F3805E88304E
:1022800018F3C8010E94230DFD2CA5CFEE2009F400
:10229000A2CF8091C50381608093C503F12C9BCFB1
:1022A000251306C0941304C0F801EE2009F487C07A
:1022B000C8010E948A0D882319F1EE2009F180914E
:1022C000C503803270F02091C0033091C10338877C
:1022D0002F831986BB86AA868C87CE0107960E941B
:1022E000230D86E0F801A0ECB3E001900D928A95F1
:1022F000E1F70E9429100E941B10FF24F3946BCF7A
:10230000C8010E94230DF9CF311113C07A2DB98A6B
:10231000A88A6E2D89890E94910D80EC93E00E941D
:10232000230D86E0F60111928A95E9F70E941B10B1
:10233000B5CF25130FC094130DC0E1100BC0F801E9
:102340008583C8010E94230D86E0F60111928A95CB
:10235000E9F741CFC8010E948A0D882389F2EE2057
:1023600079F28091C503803208F4BBCF2091C0037D
:102370003091C1033A8329831B82BD82AC828E8354
:10238000CE010196ACCF6E177F0708F03EC0FE2C41
:10239000EE2009F4B5CF25132AC0941328C08091EC
:1023A000C50380FD1BC0982F907FC1F0F801858385
:1023B000903F31F0982F907F905F8F70892B8583AD
:1023C000C8010E94230D86E0F801A0ECB3E0019063
:1023D0000D928A95E1F70E941B10FDCE86E0F80170
:1023E000A0ECB3E001900D928A95E1F7F4CEC8011C
:1023F0000E948A0D811175CF8091C5038160809301
:10240000C503C8010E94230DE6CE7A2DB98AA88A99
:102410006E2D89890E94910D86E0F60111928A95B0
:10242000E9F7D9CFEE2009F46BCFC8010E948A0DDD
:10243000F82E882309F464CF86E0F801A0ECB3E01D
:1024400001900D928A95E1F780EC93E00E94100ACA
:102450000E942910C0CF81E08E25D7CE1F93CF9345
:10246000DF93CDB7DEB72C970FB6F894DEBF0FBE63
:10247000CDBF4F83588769877A878B879C87CE012A
:1024800007960E948A10882369F08A859B85892B8C
:1024900039F04F815885842F85238F3F09F071C013
:1024A00016E05FC086E0FE013796DE0111960190CE
:1024B0000D928A95E1F78A859B85892B89F38F8117
:1024C000988589238F3F61F320918F0330E0C90104
:1024D00001968770992740918E034817190671F469
:1024E0000E94670D10928F0310928E0386E0E0EC3D
:1024F000F3E0DF011D928A95E9F7D2CF96E0929F33
:10250000D001939FB00D1124A057BC4FFE0131960E
:1025100001900D929A95E1F780938F030E94FA0F34
:10252000BFCF819FC001112480579C4F0E948A1009
:102530008823E9F0E0918E031E9FF0011124E057FB
:10254000FC4F4081518162817381848195810E9419
:10255000A00D80918E0390E001968770992780935B
:102560008E0380918E0390918F038913DACF2C967E
:102570000FB6F894DEBF0FBECDBFDF91CF911F9194
:10258000089569857A858B859C850E94A00D88CFEA
:10259000682F80910201909103010C944023682FD1
:1025A00080910201909103010C944B2380910201D0
:1025B000909103010C9456238091C60385958595CF
:1025C000859508958091C603877008959091C603FC
:1025D000977081E009F480E008958091EA030895FE
:1025E0009091EA03892B8093EA0308958095909156
:1025F000EA0398239093EA0308958093EA030895E9
:102600001092EA0308959091E903892B8093E903DE
:10261000089580959091E90398239093E903089594
:102620001092E90308959091E803892B8093E803C1
:10263000089580959091E80398239093E803089576
:102640001092E80308958091C703089508950C94AB
:10265000261390913D0492FD08C09091C7039817EE
:1026600021F08093C7030C94271308958091C7032A
:10267000882329F01092C70380E00C942713089553
:10268000E0910201F09103018091EA038083E091DF
:102690000201F091030180819091E903892B8083ED
:1026A000E0910201F091030180819091E803892B70
:1026B00080839091C703992381F0E0910201F0910A
:1026C00003018081892B8083809102019091030115
:1026D0000E94AC2281110E943613809102019091D8
:1026E00003010C94662208950C94731390913D0499
:1026F00092FD10C098E0899F90011124622B609395
:10270000C6030E94220E8091C60385958595859506
:102710000C9474130C94220E1092C60380E00C9457
:1027200074139091C603809589238093C603282F44
:10273000277091F4282F082E000C330B92171306E4
:1027400059F090913D0492FD07C08595859585953A
:102750000E94430E0C948C13089590913D0492FBBB
:10276000222720F9281769F080FB92F990933D0405
:1027700080913C0490913D040E94F81382E00C94F7
:102780009113089580913D0482FB882780F991E0A0
:1027900089270C94AD1381E00C94AD1380E00C9468
:1027A000AD136FEF7FEF90E080E00C94862B90E00C
:1027B00080E00E94622B21E0893E9E4F09F020E0DC
:1027C000822F089582E090E00C94542B83E090E0F7
:1027D0000C94542BCF9384E090E00E94542BC82F8C
:1027E00082E290E00E94542B982F8C2FCF91089575
:1027F000CF93C92F682F84E090E00E94682B6C2F44
:1028000082E290E0CF910C94682BAB01BC018FE089
:1028100090E00C947A2BAB01BC0183E190E00C9426
:102820007A2B60E070E0CB010C940B1460E070E058
:10283000CB010E9405140C94111469EE7EEF90E018
:1028400080E00E94862B60E082E090E00E94682B8E
:1028500060E083E090E00E94682B10928A0310925F
:102860008B0310928C0310928D0360E084E090E063
:102870000E94682B60E082E290E00E94682B60E09A
:1028800085E090E00E94682B60E086E090E00E9486
:10289000682B6FEF87E090E00E94682B40E050E0EB
:1028A000BA0188E090E00E947A2B60E08DE090E031
:1028B0000E94682B40E050E0BA0188E190E00E945D
:1028C0007A2B60E087E190E00E94682B40E050E0C6
:1028D000BA018CE190E00E947A2B70E060E080E227
:1028E00090E00E94862B40E050E0BA0188E190E041
:1028F0000E947A2B0C9416140C941D14682F8EE0F1
:1029000090E00C94682B0E9405246093FA03709366
:10291000FB038093FC039093FD036093F603709395
:10292000F7038093F8039093F903089585B78068BF
:1029300085BF85B7806885BF0895089508950C9474
:102940009D140C945D070E94961480E697E10E9406
:1029500050220E949E140C949F1481E008950C94C0
:10296000AD14089508950E94B1140C94B2140E94FD
:10297000F0230E9457180E94661E0C94A1148F9297
:102980009F92AF92BF92CF92DF92EF92FF920F93FE
:102990001F93CF93DF93CDB7DEB72A970FB6F89486
:1029A000DEBF0FBECDBF0E946C1881110E94831440
:1029B0005CEE852E53E0952E10E000E0A02E802FD7
:1029C0000E94A3176C01F401E190F1904F01E81609
:1029D000F90609F45CC08091FE0381FD0E94AC17EA
:1029E000C7018C259D25B12CEE24E394F12C9C018C
:1029F0002E213F21232B09F444C00E94AF148823C9
:102A0000A9F0BE82AF82CE20DF2081E0CD2809F47C
:102A100080E088870E94F9238160782F9A878987D0
:102A20004E815F8168858A850E94D209000F111F3F
:102A3000F801E451FC4F80819181E826F926F1826A
:102A4000E0820E94991E0E945A229091EB038917FE
:102A5000A9F10E945A228093EB032A960FB6F894AC
:102A6000DEBF0FBECDBFDF91CF911F910F91FF90C1
:102A7000EF90DF90CF90BF90AF909F908F900C948D
:102A8000CA09B394EE0CFF1CFEE0BF12B0CF0F5F7B
:102A90001F4F0530110509F091CF8FEF89838A838D
:102AA0001B820E94F9238160782F9D838C8349814A
:102AB0005A816B818D810E94D209C3CF2A960FB6AD
:102AC000F894DEBF0FBECDBFDF91CF911F910F9164
:102AD000FF90EF90DF90CF90BF90AF909F908F903E
:102AE000089590E080E008950895972F70E02EE01B
:102AF000929F600D711D1124FB0196E4899FE00DEA
:102B0000F11D1124EE0FFF1FE455FF4F85919491A5
:102B10000895FC01EE0FFF1FE050FD4F8591949149
:102B20000895CF93DF930E948616EC01811521E56D
:102B30009207D0F5811530E5930708F096C081150E
:102B40009042F8F4C11581E0D807B8F4C03ED10531
:102B500088F4C03CD10508F07BC0C130D10569F0D4
:102B6000209759F0CE010497813A910530F0D0E0DA
:102B7000C0E003C0C83ED105D0F7CE01DF91CF91B0
:102B80000895C11590E4D90708F06CC0CE019F707C
:102B9000C11520E3D20708F45EC0CE019927D3FF08
:102BA0005EC0EC01D86CE9CF811535E5930700F5DF
:102BB000811544E5940708F08DC0C11583E5D80759
:102BC00008F074C0C11592E5D90708F46AC0CE01B7
:102BD0008370992721E030E002C0220F331F8A95CD
:102BE000E2F7C695C69580E2C89FE001112455C062
:102BF000811529E59207A0F4811538E5930708F0BF
:102C00006EC0811546E5940708F0B1CF0E941D17EC
:102C1000C82FD0E0DC2FCC27CC27DF71D062ADCF1E
:102C2000C1158AE5D80708F45FC0CE01905681151A
:102C3000904208F09CCF8D2F8F710E941D1790E05D
:102C4000982F882788279F719C012C2BE901E6CFBC
:102C5000CE01805C91090E948915EC018ECFEC01B8
:102C6000D06C8BCFDF70D06A88CFE4E096958795E3
:102C7000EA95E1F783702C2F26952695237040E284
:102C8000249F90011124382B8C2F8370C1E0D0E059
:102C900002C0CC0FDD1F8A95E2F7C22BD32BDC6874
:102CA0006CCFDC2FCC27C16FD06A67CFCE01837089
:102CB000992721E030E002C0220F331F8A95E2F706
:102CC000C695C69590E2C99FE0011124C22BD32B73
:102CD000DA6853CFD82FCC27C46FD06A4ECFD82F05
:102CE000CC27C06FD06A49CF8C2F8F700E941D17E0
:102CF00034E0D695C7953A95E1F7CF709C2FEC015B
:102D0000D0693BCF0E9475150C94911582389105BE
:102D1000B1F1B0F48133910509F475C048F48932FA
:102D2000910509F469C08A32910509F473C00895C8
:102D30008533910509F459C08933910501F108954E
:102D4000833E9105A9F138F4803E9105F9F0823E69
:102D5000910549F10895863E9105A9F1873E9105B7
:102D6000C9F1843E910519F520913D0421FF1FC052
:102D700080913C0484FD14C087EE90E0089520917A
:102D80003C042370A1F080EE90E0089520913C0473
:102D900020FD47C030913D0430FF09C024FF44C0EE
:102DA00090E080E004C020913C0422FDF7CF08951C
:102DB00020913C0422FD3BC030913D0430FDE3CF27
:102DC00024FFF5CFEDCF20913C0423FFF0CF24FD6D
:102DD000E7CFD2CF20913C0423FD2CC030913D049D
:102DE00031FFEECF84EE90E0089520913C0425FF62
:102DF000DECF89E290E0089520913C0425FFD7CFF3
:102E000085E390E0089520913C0426FFD0CF8AE22C
:102E100090E0089520913C0426FFC9CF81E390E023
:102E2000089589E390E0089583EE90E0089582EE9E
:102E300090E0089586EE90E0089590913C0492FF12
:102E400006C0282F28712830F9F4877F846093FF0B
:102E500006C0282F28712831F1F4877E84612091E3
:102E60003D0420FF06C0382F38713830D9F4877FF1
:102E7000816021FF06C0282F28712831D1F4877E78
:102E8000816194FD877E0895282F24712430F9F6FE
:102E90008B7F8860DCCF282F2471243101F78B7E53
:102EA0008861DDCF382F3171313019F78E7F88601E
:102EB000E0CF282F2171213121F78E7E8861E1CF6B
:102EC00080E008950C94D1130E946C188FE39CE964
:102ED0000197F1F700C000000E946C1880E00E948A
:102EE000A31780FF04C00E9462170C944424089525
:102EF0000C9464170E94D713811102C00E947C14A5
:102F00000E94E2138093FE030E94EA1390933D0413
:102F100080933C040E9478170E94E613682F70E0AB
:102F200090E080E00E94C00D60918603709187035D
:102F300080918803909189030C94FA0D0C945A07A0
:102F400008950C94A017E82FF0E0EE0FFF1FE85B48
:102F5000FB4F808191810895089580EA8A95F1F769
:102F6000089500C008950C94AD17F894E82FE295E9
:102F7000EF70F0E031A1282F2F7081E090E001C0C8
:102F8000880F2A95EAF7982F9095932391A392A101
:102F9000892B82A378940895CF93DF93CAE1D3E07D
:102FA00089918F3F11F00E94B51783E0CF31D80788
:102FB000B9F7CCE0D3E089918F3F11F00E94B517AB
:102FC00083E0CA31D807B9F7DF91CF910895AF9266
:102FD000BF92DF92EF92FF920F931F93CF93DF93F5
:102FE0008C01D62EC62FD0E0CE01865E9C4F7C0190
:102FF000FC0120812F3F09F44DC0F894E22FE295A7
:10300000EF70F0E031A12F7081E090E001C0880FF7
:103010002A95EAF7932F982B91A392A18095892363
:1030200082A378940E94B117ECE0F3E04AE153E008
:1030300021E030E0B12CA12C61916F3FA9F1A62FC6
:10304000A295AF70B0E090968C9190E06F7002C046
:10305000959587956A95E2F780FD26C0C901A82A53
:10306000B92A220F331F4E175F0731F7F70180810E
:103070008F3F11F00E94B51761E0A114B10409F46B
:1030800060E08D2D0E94B317CC0FDD1FC00FD11F44
:10309000B982A882DF91CF911F910F91FF90EF909D
:1030A000DF90BF90AF90089590E080E0D8CF0E946D
:1030B000CC178AE0E8E4F4E0DF01982F1D929A959E
:1030C000E9F7EEE3F4E0DF011D928A95E9F785E088
:1030D0000E94B7180C947708FF920F931F93CF9319
:1030E000DF93CDB7DEB72A970FB6F894DEBF0FBED9
:1030F000CDBF8E010F5F1F4F8AE0F80111928A95B4
:10310000E9F7F12C6F2DC8010E94E717F394F5E061
:10311000FF12F8CF4AE050E0B8018EE394E00E943D
:10312000472BFF24F394009709F4F12C892B41F0ED
:103130008AE0F801AEE3B4E001900D928A95E1F7E0
:103140002F2D45E068E474E08EE394E00E94B81807
:103150000E947D088F2D2A960FB6F894DEBF0FBE11
:10316000CDBFDF91CF911F910F91FF9008950895EA
:10317000FF920F931F93CF93DF93F82E092F162FF3
:10318000D72FC42F222349F081E0809301040E94AD
:10319000F923909300048093FF0380910104882316
:1031A000A1F08091FF03909100040E9411240597E3
:1031B00060F0EF2DF02FA12FBD2F90E080E0D0E048
:1031C0008C179D0744F010920104DF91CF911F915D
:1031D0000F91FF900895219131912D933D93019688
:1031E000EFCF0E94B9250E94B7140C94C5250E9408
:1031F000C9250E94BF140C94E3250E9482230E94DB
:10320000A0250E94A3140E94F1180E94F7180E94A2
:10321000B314FBCFEF92FF920F931F93CF93DF93E3
:10322000EB01E82FD11110C0442321F0F0E0E95E5A
:10323000FB4FE4916E2F7E2F8E2FDF91CF911F9148
:103240000F91FF90EF9008950D2F10E0282F30E0A0
:10325000442329F0295E3B4FF901249130E0F6E048
:10326000CF9FC0011124EFEFF0E0BF010E94AD2A13
:10327000AB018C2F90E0880F991FA5E5A49FB001AA
:10328000A59F700D1124861B970B982F990F980FEF
:10329000BF01601B710B629FD001639FB00D729FD5
:1032A000B00D11248B2F9D9FB0011124672F77271C
:1032B000EF01C61BD70BBE01629FE001639FD00DDB
:1032C000729FD00D11247F01E91AF108E09EB00130
:1032D000E19E700DF09E700D1124672F7727E61B7D
:1032E000F70BE29F8001E39F100DF29F100D112458
:1032F000E12F722F4230510599F048F441155105E4
:1033000069F04130510581F0EB2F8D2F07C044301B
:10331000510569F080F046305105B1F76E2F8DCF21
:10332000E22F7B2F812FFACFE22F7D2FF7CFEB2FCC
:10333000822F712FF3CF7B2F822FED2FEFCF41E024
:103340000C940A1908950C949F19CF93DF93762F4C
:10335000E901682F842F0E94A319798368838A83E7
:10336000DF91CF91089580915204982F9E7F29F488
:10337000817082608093520408958A34E8F38170EA
:103380008864F8CF88E090E00C945C2BCF92DF92B9
:10339000EF92FF926B017C010E94B319B701A60165
:1033A00088E090E0FF90EF90DF90CF900C947A2B24
:1033B000E2E5F4E083E0808311828FEF82838383F0
:1033C000148260817181828193810C94C6198091ED
:1033D000520480FF02C08695089580E00895909180
:1033E0005604933018F49F5F90935604882351F04D
:1033F000609152047091530480915404909155044B
:103400000C94C619089581E00C94EF19909156041C
:10341000992319F0915090935604882351F06091AC
:1034200052047091530480915404909155040C946B
:10343000C619089581E00C94061A70E00C941220CD
:10344000609108018091520480FF0AC080910701B9
:1034500023E0829FC0011124895A9B4F0C941D1AAE
:103460008091090190910A0123E0829FF0011124CB
:10347000E95AFB4F891750F71182108212828F5F31
:103480003396F8CF9091520490FF14C090910901A7
:1034900020910A0133E0939FF0011124E95AFB4F78
:1034A000921710F00C94201A8183608342839F5FEF
:1034B0003396F6CF0895CF93DF9300D00F92CDB718
:1034C000DEB79091520490FF0AC09E012F5F3F4FDC
:1034D0000E94A5194B8169818A810E94421A0F902E
:1034E0000F900F90DF91CF910895CF93DF93EC0170
:1034F000EC81F0E0EE5EFC4F4491E2E5F4E06281A5
:1035000081810E945B1A8C818F5F8C83DF91CF91C8
:103510000895CF93DF93EC01E2E5F4E0438162810B
:103520008C810E945B1A8C818F5F8C83DF91CF919D
:1035300008950F931F93CF93DF9300D00F92CDB7D1
:10354000DEB78C018091020481110AC09E012F5FB9
:103550003F4F4FEF6FEF0E94A5198A8180930204BD
:10356000F8016481613069F08091020440E06623D3
:1035700061F040E0623011F44091020480E060E0CC
:1035800004C06091020440E080E00E94421AF80109
:10359000848190E0019663E070E00E94C12A8483F8
:1035A0000F900F900F90DF91CF911F910F91089581
:1035B000AF92BF92CF92DF92EF92FF920F931F9341
:1035C000CF93DF9300D00F92CDB7DEB7182FF62E32
:1035D000042FE22E9091520490FF29C0E92FE69526
:1035E000AE2FB0E0A15EBC4F8C9180930C049E7F07
:1035F000923059F59E012F5F3F4F812F0E94A519F0
:103600004B8169818A810E94421A10935304F0927F
:10361000540400935504EE2051F0609152047091CF
:10362000530480915404909155040E94C6190F9040
:103630000F900F90DF91CF911F910F91FF90EF901E
:10364000DF90CF90BF90AF900895823019F4009131
:103650005504DBCF863019F410915304D6CF89304E
:10366000D9F3893191F6E9518E2F8170D82EE695E4
:10367000F0E0EE5EFB4FA590B490C12CBB246091AE
:103680000B01C61618F00E94201ABFCF2C2D30E077
:10369000A29EC001A39E900DB29E900D112470E0D9
:1036A0000E94AD2A812FD11013C0860F40910901CD
:1036B000420F532F511D9A01220F331F240F351F24
:1036C000295A3B4F402F6F2D0E94A519C394D7CF85
:1036D000861BECCFE2E5F4E09181282F43816281E3
:1036E0008AE0890F0C94D81A81E00C946A1BE2E5F9
:1036F000F4E09181282F4381628186EF890F0C9439
:10370000D81A81E00C94771BE2E5F4E0628121E1B4
:10371000620F08F46FEF282F438181810C94D81A2F
:1037200081E00C94841BE2E5F4E0628121E1621BFC
:1037300008F460E0282F438181810C94D81A81E03D
:103740000C94931BE2E5F4E0438121E1420F08F47D
:103750004FEF282F628181810C94D81A81E00C945C
:10376000A21BE2E5F4E0438121E1421B08F440E0C2
:10377000282F628181810C94D81A81E00C94B11BAE
:1037800020E00C94D81A9091520490FF0FC02C3076
:1037900068F430E0F901EE0FFF1FE20FF31FE95A62
:1037A000FB4F8183608342830C94201A0895EF922B
:1037B000FF921F93CF93DF93EC0110E0EE24EA9485
:1037C000F12C60910B01161770F00E94201A9A815B
:1037D0008C8190FF27C08F5F8C83DF91CF911F91E9
:1037E000FF90EF90089520910901422F410F552736
:1037F000551FCA019A01220F331F280F391F295A5A
:103800003B4F70E0C7010E94C12A962F8C814091E6
:10381000550460915404199F800D11240E94A5192C
:103820001F5FCFCF8150D8CFAF92BF92CF92DF92A0
:10383000EF92FF920F931F93CF93DF93FC0182814E
:103840000FEF80FF01E010E04CE0A42E80910B010F
:103850001817C8F00E94201A80910404013009F062
:1038600055C0811102C080910B01815080930404E6
:10387000DF91CF911F910F91FF90EF90DF90CF904C
:10388000BF90AF900895C0910901C12ED12CCC0DED
:10389000DD2DD11DCE01880F991FC80FD91FC95A20
:1038A000DB4F198218821A8234E0E32EF12CB12CFE
:1038B000809104048B0D8D301CF16A2D0E949F2A8B
:1038C000892F082E000C990BC816D90691F4809107
:1038D00055048E9DA0018F9D500D1124559547953F
:1038E000559547959E0160915404809153040E9420
:1038F000A519B00EF1E0EF1AF108D1F61F5FA6CFBF
:1039000087FFDFCF90910B01890FDBCF90E001960D
:1039100060910B0170E00E94C12AA8CF0F931F9302
:10392000CF93DF938091090190910A0123E0829F58
:10393000F0011124E95AFB4F891740F1C0E0D3E0B0
:1039400060910B01C61740F10E94201A20910501D9
:1039500080910304820F8093030490910601920FDB
:1039600090930601191654F4082E000C990B4091FF
:103970000B014150550B841795071CF0219520939E
:103980000501DF91CF911F910F910895118210824F
:1039900012828F5F3396D0CF0C2F10E070E0C801F9
:1039A0000E94C12A20910901820F482F50E02091E6
:1039B0000304022E000C330B02171307BCF02091F6
:1039C0000601022E000C330B201731077CF08D9F6F
:1039D00090011124295A3B4F4091550460915404A1
:1039E000809153040E94A519CF5FAACFFA01EE0F70
:1039F000FF1FE40FF51FE95AFB4F1182108212825C
:103A0000F3CF8F929F92AF92BF92CF92DF92EF92BD
:103A1000FF920F931F93CF93DF93EC014C81042F00
:103A200010E09801D8010E94052B9B01AC010E9477
:103A30001B2B4B015C01E0E2F0E0E01BF10BA5E584
:103A4000B0E0AC019B010E941B2B6B017C019F012C
:103A5000DF010E94FD2A9B01AC010E94262B9B01E5
:103A6000AC01280D391D4A1D5B1DC701B6010E941E
:103A7000D52AF22E822F90E039E23F1560F143E023
:103A8000249F9001112435952795122F109500E061
:103A900085E5E82EEF1880910B01081758F10E9478
:103AA000201A9C8181E0992319F0903219F48FEF4C
:103AB0008093040180910401890F8C83DF91CF9161
:103AC0001F910F91FF90EF90DF90CF90BF90AF903C
:103AD0009F908F90089525E530E0B901681B790B20
:103AE0009B01220F331F260F371F37FFCCCF2F5FCD
:103AF0003F4FC9CF8E2D01FD8F2D20910901622FDF
:103B0000600F7727771F9B01220F331F260F371F68
:103B1000295A3B4F412F609154040E94A5190F5F11
:103B2000BACF0F931F93CF93DF93EC0110E000E027
:103B300090910B019017110609F06CF40E94201A65
:103B40008C8190E00196817099278C83DF91CF91D1
:103B50001F910F91089520910901A801420F511D55
:103B60009A01220F331F240F351F295A3B4F4C81D6
:103B7000609154048091530496959017110651F06A
:103B80004CF0442349F0409155040E94A5190F5F61
:103B90001F4FCECF4423B9F340E0F7CFE2E5F4E086
:103BA00080818E7F808360817181828193810E9478
:103BB000C61910920D042FEF80E792E0215080404B
:103BC0009040E1F700C000000C94201A609152046C
:103BD000669570E04BE050E08CE091E00E943A2B5B
:103BE000892B19F481E080930D040E94F9239093AE
:103BF00006048093050408959091520490FF35C007
:103C00009170811128C0926090935204662351F004
:103C10006091520470915304809154049091550422
:103C20000E94C61960915204669570E04BE050E026
:103C30008CE091E00E943A2B892BA1F010920D04A8
:103C400081E0809308044091550460915404809170
:103C500053040C94C01B853210F09864D5CF880FA4
:103C6000982BD2CF0E94E61DEBCF0895682F90913C
:103C70005204969581E0890F853208F081E00C941A
:103C8000FC1D81E00C94361E682F9091520496958D
:103C90008FEF890F09F484E20C94FC1D81E00C94F1
:103CA000441E61E00C94FC1DE2E5F4E0808181603B
:103CB000808386950C94511E8091520480FD0C9453
:103CC000CE1D0C94541E60E00C94FC1D80910B04DE
:103CD00081112EC00E94D713811104C00E947C1450
:103CE0000E94D8190E94C219609352047093530421
:103CF00080935404909355046E7F61F40E94D81908
:103D00000E94C21960935204709353048093540428
:103D1000909355040E94B31910920D04809152049F
:103D200080FF03C086950E94631E81E080930B0490
:103D300008950F931F93CF93DF9380910D048823F1
:103D400009F486C080910C04E0915204E695E81BCA
:103D5000E0930704823091F5F0E0E25FFC4FE491DC
:103D6000CE2FD0E005E71AE180910804882361F0A6
:103D7000109208040E94F92390930604809305048E
:103D800010920A04109209040E94F923E09105049C
:103D9000F09106048E1B9F0B8F3F9F4708F058C081
:103DA000EC0FFD1FF0930604E093050485E094E01A
:103DB000F801DF91CF911F910F910994863049F45A
:103DC000F0E0E55FFC4FE491CE2FD0E009E81AE186
:103DD000CBCF893051F4E695F0E0E85FFC4FE491F9
:103DE000CE2FD0E007ED1BE1BFCF8F3051F4E69529
:103DF000F0E0EB5FFC4FE491CE2FD0E004E11CE15A
:103E0000B3CF853149F4F0E0EE5FFC4FE491CE2F63
:103E1000D0E00EE81CE1A8CFC8E2D0E001E01DE14F
:103E2000883109F4A1CF833239F4E0E0F3E0C591A1
:103E3000D49109E91AE198CFC4EFD1E001E91DE17D
:103E4000843209F491CFC0EDD7E002EA19E18CCFBA
:103E5000DF91CF911F910F910895FA01811101C057
:103E6000FB010994CF93DF93C82FD62F0E94E71947
:103E70008C1740F00E94E7198D1720F4DF91CF9145
:103E80000C94411E8C2FDF91CF910C94511E1F93E7
:103E9000CF93DF93EC01FB011281112309F4C0C021
:103EA0000E94ED128272CD3CFCE5DF0709F49CC054
:103EB00008F044C0C73CECE5DE0709F481C0F0F42B
:103EC000C43C9CE5D90709F471C048F4C33CDC4507
:103ED00009F469C0812FDF91CF911F910895C53CEE
:103EE0009CE5D90709F467C041E85BE164E77BE141
:103EF000C63CDC4579F70E942D1F53C0CA3CFCE547
:103F0000DF0709F467C068F4C83CECE5DE0709F494
:103F10005CC040E95BE16FE97BE1C93CDC4559F3FA
:103F2000D9CFCB3C9CE5D90709F459C04AE15AE105
:103F300063E07AE1CC3CDC45F1F2CCCFC23DFCE55C
:103F4000DF0709F462C098F4CF3C9CE5D90709F477
:103F500054C008F44EC0C03DFCE5DF0709F452C070
:103F6000C13DDC4509F0B6CF6EE089E048C0C53DF3
:103F70009CE5D90709F44FC058F4C33DFCE5DF07C1
:103F800009F446C0C43DDC4509F0A4CF88E132C045
:103F9000C63D9CE5D90709F441C0CE35DD4509F0A1
:103FA00099CF10E097CF0E945C1EFBCF4EE45EE1FC
:103FB00061E47EE1A0CF41E45EE16EE47EE19BCF6F
:103FC00044E75BE161E87BE196CF4FE95BE160E9C3
:103FD0007BE191CF4DEB5BE16EEA7BE18CCF4EEA6A
:103FE0005BE16DEB7BE187CF43E05AE16AE17AE187
:103FF00082CF81E00E94511ED4CF65E082E00E9412
:10400000321FCFCF68E086E0FACF64E18FE0F7CFD0
:1040100067E185E1F4CF62E289E1F1CF83E2EACFA3
:1040200011E058CF869A41B34F7B51B35064EFB73C
:10403000F8949B01220F331F260F371F280F391FBB
:104040002817390741F4EFBF8FE594E00197F1F7A6
:1040500000C000000895DC016D91CD0178E051BBF6
:10406000000000C067FF41BB660F000000C000C039
:1040700000C041BB00C07A9591F7E2CFCF93DF93A8
:10408000EC01FB018281882309F420C1C430FDE5E5
:10409000DF07C8F5CB3F9CE5D90730F49E012250DD
:1040A0003C452431310598F50E94EA1390933D0474
:1040B00080933C04C031FCE5DF0709F4E0C008F060
:1040C00061C0C8309CE5D90709F4CBC088F5C4307D
:1040D000FCE5DF0709F4B3C0E8F4C2309CE5D9077A
:1040E00009F4A7C080913C048260C330DC4509F428
:1040F000A3C080913C0490913D040E94F8130E945B
:10410000670D80E004C0C236EDE5DE0769F2DF919D
:10411000CF91089580913C048061C630FCE5DF07B3
:1041200009F48AC008F48FC080913C04806284C086
:1041300080913C048D7FCC309CE5D90709F47CC08C
:1041400070F480913C048C60CA30FCE5DF0709F410
:1041500073C008F48AC080913C048E7F6DC080914A
:104160003C04877FCE309CE5D90709F465C0809177
:104170003C048B7FCF30DC4508F45EC080913C046A
:104180008F7E5AC0CD3FFCE5DF0709F474C040F5CF
:10419000C4319CE5D90709F48AC058F4C231FCE562
:1041A000DF0709F474C008F46EC080913C04837F7B
:1041B00043C0CB3F9CE5D90709F449C008F04DC086
:1041C000C531DC4509F095CF80913C0482FB9927ED
:1041D00090F921E0922790FB82F990FB83F92CC0A3
:1041E000C1308DE5D80709F458C088F480913D04AA
:1041F0008360CF3FECE5DE0769F180913D048D7F60
:10420000C115DD4538F180913D048C7F23C0C3305A
:104210008DE5D80709F458C008F452C0C236DD4510
:1042200009F067CF90913C04892F8F7E94FF8061C5
:1042300003C080913C04816080933C045ACF8091FC
:104240003C048460F9CF80913C048860F5CF809174
:104250003D04816080933D044CCF80913D04826099
:10426000F9CF80913C048064E7CF0E94670D809174
:104270003C048068E1CF80913D048E7FEBCF80913C
:104280003C048F7DD9CF80913C048F7BD5CF0E9499
:10429000670D80913C048F77CFCF80913D04982F9C
:1042A000909591708E7F892B90FB81F9D3CF0E94DE
:1042B000670D90913C04892F97FB87F98058BCCFFC
:1042C00081E00E947E1415CF80E0FBCF81E01FCFFC
:1042D000CF93DF93EB0186319C4511F50E94ED12DF
:1042E0009A81992399F08A7A91E009F490E0909369
:1042F0000E04811109C089E20E94C8120E94401375
:1043000080E0DF91CF91089585E3F6CF80910E0490
:10431000811104C089E20E94CF12F0CF85E3FBCF68
:1043200081E0EFCF0F931F93CF93DF93C42FD22F52
:10433000FC0182818823C9F0409311040E94F92373
:104340009093100480930F0480E28C0F883008F063
:1043500050C0C77081E001C0880FCA95EAF7DF91AD
:10436000CF911F910F910C94F30A10911104141323
:1043700035C080910F04909110040E941124883C54
:10438000910560F5C0E2CD0F1D17B9F080E2810FF5
:10439000883040F4177081E001C0880F1A95EAF761
:1043A0000E94FA0AC83048F481E09D2F977001C03E
:1043B000880F9A95EAF70E94F30A802F0E94EB0A71
:1043C000C830B8F4D77081E001C0880FDA95EAF7F9
:1043D000DF91CF911F910F910C94FA0A80E28C0F1C
:1043E000883038F4C77081E001C0880FCA95EAF7B9
:1043F000EFCFDF91CF911F910F9108950F939C0103
:10440000CB01243F4CE5340759F1A8F4293DFCE5E4
:104410003F0701F12A3D4CE53407D1F1283D3C45E9
:1044200091F406E221EE41EE68ED7CE50E949221D6
:1044300080E00F910895263FFCE53F07E9F0B0F0DA
:10444000273F3C45F9F0FC018281882339F1109225
:104450001104EFCF07E225EE45EE69ED7CE5E6CFEE
:1044600006E221EE40EE64EF7CE5E0CF07E225EEC8
:1044700044EE65EF7CE5DACF06E221EE42EE66EF30
:104480007CE5D4CF07E225EE46EE67EF7CE5CECFA4
:1044900008E221E045EE6AED7CE5C8CF81E0C9CFB6
:1044A0009093450380934403089590931704809359
:1044B00016040895E0911604F0911704309721F046
:1044C0000190F081E02D099480E00895E0911604B8
:1044D000F0911704309799F020912301222359F08D
:1044E00020913C0427FF07C0DC012C9111962C93EE
:1044F000119726E02C930280F381E02D0994089512
:1045000020911404309115042817390771F0909305
:10451000150480931404E0911604F0911704309769
:1045200021F00680F781E02D09940895209112046E
:10453000309113042817390771F090931304809376
:104540001204E0911604F0911704309721F00084D2
:10455000F185E02D09940895FC01329680912301A4
:10456000882321F080913C049EE187FF96E080E063
:10457000915008F4089521912223D1F38F5FF8CF51
:10458000662301F1209123012223F1F020913C04C4
:1045900027FF1AC0462F4695469546954E3190F412
:1045A000677021E030E002C0220F331F6A95E2F706
:1045B000840F911DFC01828190E02823392381E042
:1045C000232B69F480E00895FC013296089621912E
:1045D000261721F0E817F907D1F7F4CF81E0089505
:1045E0009C01FC0132969FEF80E04191461751F00B
:1045F0009F3F19F4411101C0982F8F5F8630A9F7B2
:104600009F3F09F40895290F311D97FD3A95F9014F
:1046100062830895FC01329608962191261303C007
:10462000DF0111971C92E817F907B9F70895E62FF3
:10463000E695E695E695EE3168F4E80FF92FF11D61
:10464000677021E030E001C0220F6A95EAF78281AD
:10465000822B82830895E62FE695E695E695EE3166
:1046600070F4E80FF92FF11D677021E030E001C010
:10467000220F6A95EAF720958281282322830895E4
:1046800020912301222329F020913C0427FD0C9442
:1046900017230C94F02220912301222329F020914A
:1046A0003C0427FD0C942B230C940A23FC01329626
:1046B00080912301882351F080913C0487FF06C03C
:1046C0008EE1DF011D928A95E9F7089586E0F9CF22
:1046D00008950C946823811105C081E0809318042B
:1046E0000C94692382E0FACF83E0809318040C9441
:1046F00069230C946B2381E0809318040C94692344
:104700000C947B23089580918304843031F10E94BE
:104710007F081092190488E190E020E40FB6F89425
:10472000A895809360000FBE2093600083B7817FBF
:10473000846083BF83B7816083BF7894889583B793
:104740008E7F83BF0FB6F894A89580916000886132
:1047500080936000109260000FBE08950895089540
:10476000CF930E94AE230E946C180E94AF23C0E03A
:104770008C2F0E94A317892B31F4CF5FC530C1F76E
:1047800080E0CF91089581E0FCCF0E94670D0C94EA
:10479000ED081F921FB61F9211248F939F93AF9322
:1047A000BF9380911904811113C080917B04909173
:1047B0007C04A0917D04B0917E044196A11DB11DA1
:1047C00080937B0490937C04A0937D04B0937E043B
:1047D000BF91AF919F918F911F901FBE1F90189511
:1047E00082E084BD93E095BD9AEF97BD80936E0003
:1047F00008952FB7F89480917B0490917C04A09148
:104800007D04B0917E042FBF08952FB7F894609176
:104810007B0470917C0480917D0490917E042FBF75
:1048200008959C014FB7F89480917B0490917C048B
:10483000A0917D04B0917E044FBF821B930B08951D
:1048400078941F921FB61F9211248F939F93AF935A
:10485000BF9380917B0490917C04A0917D04B091E2
:104860007E040196A11DB11D80937B0490937C046E
:10487000A0937D04B0937E04BF91AF919F918F91DF
:104880001F901FBE1F90189581E08093E00080E28A
:104890008093D8001092C9008FE19EE40197F1F750
:1048A00000C0000087E090EBDC0180938C049093C3
:1048B0008D04A0938E04B0938F0488E19CE00FB622
:1048C000F894A895809360000FBE90936000FFCF8E
:1048D00080913A04089508950895CF93DF93EC01F1
:1048E000809123018823B1F180913C0487FF32C07D
:1048F00060E282E08093E9008FEF9091E8008150C0
:1049000095FD06C095ED9A95F1F700008111F5CF60
:104910008091E80085FF1BC08091230170E050E08A
:1049200040E0811104C050E040E068E070E0CE015A
:104930000E9455268091E8008E778093E80080E2FF
:10494000FE01AAE1B4E001900D928A95E1F7DF91B2
:10495000CF91089568E081E0CDCF089508958091CA
:104960008204811109C00E94E7270E944428809197
:10497000E20084608093E20008951092820408951A
:104980000C947B2360917F0481E0611101C080E081
:104990000C9474239091830481E0943009F080E0BA
:1049A00060917F040C94792342E061EC81E00E94E5
:1049B000632742E261EC82E00E94632790918304C6
:1049C00081E0943009F080E060917F040C946B23C7
:1049D00080918504833009F460C030F48130C9F1DE
:1049E000823009F49CC008958A3009F488C08B3065
:1049F00009F46EC0893009F04FC08091840481327F
:104A000009F04AC08091880490918904029708F0C7
:104A100043C08091E800877F8093E8008091E800A0
:104A200082FF36C09091F3008091F200029731F43A
:104A30008091F100813011F0863021F48091F100F5
:104A400080933A048091E8008B778093E8000C947F
:104A5000972780918404813AF9F48091E800877F58
:104A60008093E8008091880490918904892B61F4F7
:104A700060E28AE194E070E00E94A6268091E8005E
:104A80008B778093E800089560E090E080E0F3CFBA
:104A9000809183048111C2CF089580918404813A6A
:104AA000D9F78091880490918904892BA9F7809186
:104AB000E800877F8093E8008091E80080FFFCCFCA
:104AC000809123018093F1008091E8008E77BDCF23
:104AD00080918404813201F7809188049091890447
:104AE000892BD1F68091E800877F8093E8000E94AF
:104AF000972780918604809323010C94670D809101
:104B00008404813249F68091E800877F8093E80031
:104B10000E9497278091870480933B040895809199
:104B20008404813A09F0B8CF8091E800877F8093B0
:104B3000E8008091E80080FFFCCF80913B04C2CF69
:104B400084B7877F84BF0FB6F894A89580916000E2
:104B5000886180936000109260000FBE80E890E052
:104B60000FB6F89480936100909361000FBE0C948F
:104B700080230E94E7270E944428E2EEF0E0808133
:104B80008460808378940C94842A87E191E00C946B
:104B90005522809183048530A9F480918304853067
:104BA00011F00C94C5230E948323809181048823F3
:104BB000A1F30E94B023882381F30E943F260E9424
:104BC000670DEBCF08950C94842A0C94E725292FC8
:104BD00033272330310519F168F42130310509F408
:104BE00044C02230310509F445C090E080E030E057
:104BF00020E025C02132310549F122323105A9F7E3
:104C000080E490E02FEE35E061157105C1F08BE393
:104C100090E024EB35E06130710589F0E6CF99270B
:104C20008130910581F0009729F00297F1F6E7E1D4
:104C3000F5E002C0E3E6F5E0849190E09F01FA011F
:104C4000318320830895E5E5F5E0F6CF89E090E033
:104C500029E735E06115710591F389E090E022E9DB
:104C600035E06130710559F3C0CF82E190E022EA6E
:104C700035E0E5CF8BE390E027E635E0E0CF80E15B
:104C800089BD82E189BD09B400FEFDCF8091D800C5
:104C90008F7D8093D8008091E00082608093E00057
:104CA0008091E00081FDFCCF0895AF92BF92CF923A
:104CB000DF92FF920F931F93CF93DF936C01EB0171
:104CC0008A010E94B627F82E811125C00115110511
:104CD00039F0F80180819181C81BD90BC80ED91E0B
:104CE000B12CA12C2097B9F08091E80085FD24C05B
:104CF0008091E8008E778093E8000E94842A011555
:104D00001105A1F0F80180819181A80EB91EB18230
:104D1000A08285E0F82E8F2DDF91CF911F910F910A
:104D2000FF90DF90CF90BF90AF9008950E94B6277C
:104D30008823C1F2F82EEFCFF60181916F018093A5
:104D4000F1002197FFEFAF1ABF0ACCCFFC01809191
:104D50008A0490918B0486179707A0F0611571055E
:104D600029F49091E8009E779093E80090E0611517
:104D7000710551F4911108C08091E80082FF34C0A0
:104D800080E00895BC01F2CF809183048823C1F1B3
:104D90008530C1F18091E80083FD30C08091E8004A
:104DA00082FDEACF8091E80080FFE1CF8091F3009F
:104DB0002091F200382F6115710519F02830310566
:104DC00058F091E02830310509F090E02091E8009A
:104DD0002E772093E800CBCF81918093F100615032
:104DE00071092F5F3F4FE7CF80918304882341F003
:104DF000853041F08091E80083FFBECF81E00895C7
:104E000082E0089583E00895FC0180918A049091E6
:104E10008B0486179707A0F06115710529F480911E
:104E2000E8008E778093E80090E06115710551F4F9
:104E3000911108C08091E80082FF35C080E008959C
:104E4000BC01F2CF809183048823C9F18530C9F178
:104E50008091E80083FD31C08091E80082FDEACFB7
:104E60008091E80080FFE1CF8091F3002091F20073
:104E7000382F6115710519F02830310558F091E08F
:104E80002830310509F090E08091E8008E7780931A
:104E9000E800CBCF84918093F10031966150710985
:104EA0002F5F3F4FE6CF80918304882341F0853008
:104EB00041F08091E80083FFBDCF81E0089582E05A
:104EC000089583E00895982F973028F08F7080938D
:104ED000E90081E008959093E900242F762F50E0B7
:104EE000981731F07091EC002091ED005091F00096
:104EF00021FD02C09F5FE8CF3091EB003E7F3093F1
:104F0000EB003091ED003D7F3093ED003091EB00F0
:104F100031603093EB007093EC002093ED005093E0
:104F2000F0002091EE0027FDE5CF80E0089580910C
:104F3000840487FF13C08091E80082FF06C080913F
:104F4000E8008B778093E80004C08091830481118E
:104F5000F2CF0895809183048823D9F38091E800EB
:104F600080FFF8CF8091E8008E77ECCF2091E400AD
:104F70003091E50095E6A9012091EC00822F817027
:104F800020FF06C08091E80080FF06C080E0089501
:104F90002091E80022FD1AC080918304882389F0C3
:104FA000853089F08091EB0085FD0FC02091E400F1
:104FB0003091E50042175307F9F29150E1F684E091
:104FC000089582E0089583E0089581E008950E94A5
:104FD00055280E945D28E0EEF0E0808181608083AA
:104FE000E8EDF0E080818F77808319BCA7EDB0E019
:104FF0008C918E7F8C9380818F7E8083109282042F
:1050000008950F931F93CF93DF930E9455280E941A
:105010005D28C8EDD0E088818F778883888180689B
:10502000888388818F7D888319BC109283041092B5
:105030007F04109281041092800400EE10E0F801C9
:1050400080818B7F808388818160888342E060E0FB
:1050500080E00E946327E1EEF0E080818E7F808314
:10506000E2EEF0E0808181608083808188608083CF
:10507000F80180818E7F8083888180618883DF91C1
:10508000CF911F910F910895E8EDF0E080818F7E20
:105090008083E7EDF0E080818160808384E082BFDF
:1050A00081E0809382040C940128E8EDF0E0808197
:1050B0008E7F80831092E20008951092DA001092A1
:1050C000E10008951F920F920FB60F9211242F93B3
:1050D0003F934F935F936F937F938F939F93AF9380
:1050E000BF93EF93FF938091E10082FF0BC080910B
:1050F000E20082FF07C08091E1008B7F8093E10096
:105100000E94832A8091DA0080FF19C08091D80024
:1051100080FF15C08091DA008E7F8093DA00809145
:10512000D90080FF91C080E189BD82E189BD09B4C9
:1051300000FEFDCF81E0809383040E94AF24809124
:10514000E10080FF19C08091E20080FF15C08091CE
:10515000E2008E7F8093E2008091E2008061809384
:10516000E2008091D80080628093D80019BC85E06D
:10517000809383040E94C2248091E10084FF2BC0AD
:105180008091E20084FF27C080E189BD82E189BD72
:1051900089B5982F917080FFFBCF8091D8008F7DCB
:1051A0008093D8008091E1008F7E8093E100809110
:1051B000E2008F7E8093E2008091E2008160809324
:1051C000E20080917F04882309F444C084E0809346
:1051D00083040E94CA248091E10083FF24C080914F
:1051E000E20083FF20C08091E100877F8093E1008F
:1051F00082E08093830410927F048091E1008E7F8F
:105200008093E1008091E2008E7F8093E2008091A4
:10521000E20080618093E20042E060E080E00E9472
:1052200063270E94C024FF91EF91BF91AF919F919E
:105230008F917F916F915F914F913F912F910F903F
:105240000FBE0F901F90189519BC109283040E94F6
:10525000BD2475CF8091E30087FD93E09093830494
:10526000B8CF1F93CF93DF93CDB7DEB7AA970FB612
:10527000F894DEBF0FBECDBF84E894E02091F1002A
:10528000FC012193CF01F4E08C389F07B9F70E940D
:10529000E8248091E80083FF1EC1809184049091EE
:1052A00085049A3008F017C1E92FF0E0EA5BF34D6E
:1052B0000C94F72A803899F0823809F00CC180915B
:1052C00088048F70873008F006C18093E9008091D0
:1052D000EB0085FB882780F91092E90006C08091D9
:1052E000800490918104911182609091E800977FF1
:1052F0009093E8008093F1001092F1008091E80013
:105300008E77E5C0882309F4D3C0823009F0E3C06A
:10531000809186048111D6C0809188048F702FEF10
:10532000280F263008F0D7C08093E9002091EB00C9
:1053300020FFC8C0933031F48091EB0080628093ED
:10534000EB00C0C09091EB0090619093EB0021E0E6
:1053500030E001C0220F8A95EAF72093EA0010920C
:10536000EA008091EB008860EACF8111B4C010910F
:1053700086041F778091E3008078812B8093E3007F
:105380008091E800877F8093E8000E9497278091B2
:10539000E80080FFFCCF8091E30080688093E30009
:1053A00082E0111183E08093830495C0805882309D
:1053B00008F091C080918604909187048C3D23E091
:1053C0009207A1F583E08A838AE289834FB7F89434
:1053D000DE01139620E03EE051E2E32FF0E050932F
:1053E0005700E49120FF03C0E295EF703F5FEF703C
:1053F0008E2F90E0EA30C0F0C7968D939D932F5F7B
:10540000243159F74FBF8091E800877F8093E800EF
:105410006AE270E0CE0101960E94A6268091E80023
:105420008B778093E80057C0C096E7CF60918804DF
:1054300070918904AE014F5F5F4F0E94E525BC016A
:10544000892B09F448C09091E800977F9093E80079
:1054500089819A810E940427E1CF8038E1F580910B
:10546000E800877F8093E80080917F048093F100BB
:1054700045CF811130C090918604923060F58091C3
:10548000E800877F8093E80090937F040E9497272D
:1054900080917F04882311F084E005C08091E300AF
:1054A00087FDFACF81E0809383040E94D42413C047
:1054B00080918604813079F481E0933009F080E0B6
:1054C000809381041092E9008091E800877F8093A7
:1054D000E8000E9497278091E80083FF0AC080912E
:1054E000E800877F8093E8008091EB0080628093E2
:1054F000EB00AA960FB6F894DEBF0FBECDBFDF91CA
:10550000CF911F9108950895CF93809183048823AC
:10551000A1F0C091E900CF709091EC00892F8170CB
:1055200090FD80E8C82B1092E9008091E80083FD8F
:105530000E943129CF70C093E900CF91089587FB75
:10554000082E062687FD819567FD61950E942E2B0A
:105550000EF4919507FC81950895AA1BBB1B51E1A0
:1055600007C0AA1FBB1FA617B70710F0A61BB70BD3
:10557000881F991F5A95A9F780959095BC01CD0178
:10558000089597FB072E16F4009407D077FD09D0F5
:105590000E94AD2A07FC05D03EF4909581959F4F5F
:1055A0000895709561957F4F0895A1E21A2EAA1B68
:1055B000BB1BFD010DC0AA1FBB1FEE1FFF1FA217C3
:1055C000B307E407F50720F0A21BB30BE40BF50BC0
:1055D000661F771F881F991F1A9469F76095709549
:1055E000809590959B01AC01BD01CF010895EE0F10
:1055F000FF1F0590F491E02D09940E94052B3323A1
:1056000012F48A1B9B0B0C94162BA29FB001B39F24
:10561000C001A39F700D811D1124911DB29F700DBB
:10562000811D1124911D08950E94052BB7FF089537
:10563000821B930B08950E94052BA59F900DB49F8C
:10564000900DA49F800D911D11240895B7FF0C9417
:105650001B2B0E941B2B821B930B0895991B79E037
:1056600004C0991F961708F0961B881F7A95C9F7F2
:1056700080950895FC014150504030F0019006168D
:10568000D1F73197CF010895882799270895FB0115
:10569000DC0104C08D910190801921F441505040EB
:1056A000C8F7881B990B0895F999FECF92BD81BD6B
:1056B000F89A992780B50895A6E1B0E044E050E05B
:1056C0000C948E2BA8E1B0E042E050E00C948E2BBD
:1056D000262FF999FECF92BD81BDF89A019700B4AB
:1056E000021639F01FBA20BD0FB6F894FA9AF99A4B
:1056F0000FBE08950396272F0E94692B0E94682BE6
:10570000252F0E94692B242F0C94692B0196272F9B
:105710000E94692B0C94682BDC01CB01FC01F999E8
:10572000FECF06C0F2BDE1BDF89A319600B40D92ED
:1057300041505040B8F70895F894FFCF2304270450
:105740002A042D0430043304360439043C043F0495
:10575000420445046C0448044B044E0451045404B0
:1057600057045A045D0460046304660469046F040A
:105770007204750478047B047E0481048404870425
:105780008A048D0490049304960499049C049F0455
:10579000A204A504A804AB04D104D504D804DB04F6
:1057A000DE04E104E404E704EA04ED04F004F30495
:1057B0001405F604F904FC04FF04020505050805B8
:1057C0000B050E051105DB04DE0417051A051D0582
:1057D00020052305260529052C052F05C2053205C0
:1057E000350538053B053E054105440547054A0595
:1057F0004D05D10462056505D804DB04DE04E1042F
:10580000E404E704EA04ED04F004F3041405C2051B
:1058100068056B056E057105740577057A057D05CC
:1058200080058305DB04860589058C058F059205B7
:10583000950598059B059E05A105A405C205A7052C
:10584000AA05AD05B005B305B605B905BC05BF058C
:105850003B0B3B0B6C0B6C0B9B0B9B0B9B0B9B0B36
:10586000FF0B8B0C9A0C9A0CF20C9B0B9B0BFB0CFA
:10587000760D760D7F0D7F0D810D7F0D7F0D7F0DD8
:10588000760D760D860D7F0D7F0D860D5A298229A6
:105890006B2A82296B2AB529D6296B2A2D2A392A07
:1058A000C800C803010102000C000C0C01191A1BEE
:1058B0001C1D1E1F20212268246D24AD246B24AEE4
:1058C000246C24012E002D022F00300031008900AD
:1058D000300032003400240235002F022702260255
:1058E0001F022F0023022E0024022302250234026D
:1058F000260225022E0233022D0287022F023002D9
:1059000031028902300232023302340034021F02B3
:1059100035022E02310033003400350036003700E6
:10592000380030002D000102E12D0103E1002E00BE
:105930006B61007461006B6F0073610072610074D1
:1059400069006B7500010139010136010139002C34
:10595000003B000101390101870101390073690031
:105960007465006B6500736500686100746F006B9F
:1059700069006E6E0001012A000101390101370141
:105980000139006869007375006875006865006D0D
:105990006500736F006E6500686F002F0020003F88
:1059A000000101390102E101012E0103E101013988
:1059B000005D00010132000102E15D0103E100012F
:1059C00002E10101320103E1000102E101013401C0
:1059D00003E10028000102E10101870103E1000168
:1059E00002E13B0103E100786100726900787961AE
:1059F000007265007061006469006775006475007D
:105A0000706900776F006E6100787975006D6F00C6
:105A1000626100646F00676900706F0078750072E2
:105A20006F007869007075007A6F00706500626FB2
:105A3000000101390102E10101380103E1010139ED
:105A40000001013901013801013900676100646119
:105A500000676F007A61006E69007275006D610009
:105A60007865005B007675007A690064650067659B
:105A7000007A65006D69006E6F0078796F00787448
:105A8000750027006269007A750062750062650022
:105A90006E75006D7500776100786F0001018B00F5
:105AA0000101910001018A0001019000F0F1C66737
:105AB00066369431373534979633909192939500AA
:105AC00001020202020606060909090909090F0F67
:105AD0000F0F0F0F1515151819191919191919196B
:045AE0001919232449
