:100000000C9469030C946B280C9486030C9486035F
:100010000C9486030C9486030C9486030C9486033C
:100020000C9486030C9486030C9423300C94860362
:100030000C94282B0C9486030C9486030C94860352
:100040000C9486030C94C3060C9486030C948603CC
:100050000C9486030C94CB2B0C9486030C9486038F
:100060000C9486030C9486030C9486030C948603EC
:100070000C9486030C9486030C9486030C948603DC
:100080000C9486030C9486030C9486030C948603CC
:100090000C9486030C9486030C9486030C948603BC
:1000A0000C9486030C9486030C94860329001E008E
:1000B0001F00200021002200000000002B0014007F
:1000C0001A0008001500170000000000E0000400FE
:1000D0001600070009000A0000000000E1001D00F2
:1000E0001B00060019000500000000002252E3007A
:1000F000E200307E2C0000000000000023002400FD
:100100002500260027002D002E0035001C001800B9
:100110000C00120013002F0030002A000B000D000D
:100120000E000F00330034002800310011001000D1
:10013000360037003800E4005200E5002C00317E24
:100140000000E6002252500051004F002900007EBE
:10015000017E027E037E047E000000002B000D7EE7
:100160000E7E0F7E107E117E00000000E000197EE2
:100170001A7E1B7E1C7E1D7E00000000E100247E96
:10018000257E267E277E287E000000002252E30086
:10019000E20001002E7E000000000000057E067EC9
:1001A000077E087E097E0A7E0B7E3500127E137E56
:1001B000147E157E167E177E187E2A001E7E1F7EF8
:1001C000207E217E227E237E28000C7E297E2A7EB0
:1001D0002B7E2C7E2D7EE0005200E5002F7E01005C
:1001E00000000100225201000100010035003A0028
:1001F0003B003C003D003E0000000000010001000B
:10020000347801002D782078000000000100337858
:100210002E7801002B7832780000000001004C0598
:100220003178010001002C7800000000225201000A
:1002300001002C00307E0000000000003F00400064
:100240004100420043004400450001004A004E00C6
:100250004B004D004600010048004C00500051008A
:1002600052004F0049004C00280001002F78010087
:1002700001000100010001004B000100317E2C0053
:100280000000010022524A004E004D001E0F0500E2
:10029000047F3F1F643214643214783C1E1E140A1B
:1002A000052223252628292A2C2D2F3032333536B6
:1002B000383A3B3D3E4042434547494A4C4E5051F7
:1002C000535557595A5C5E6062646668696B6D6F1E
:1002D00071737577797B7D7F81838587898A8C8E21
:1002E00090929496989A9C9E9FA1A3A5A7A8AAAC29
:1002F000AEAFB1B3B4B6B8B9BBBCBEBFC1C2C3C563
:10030000C6C7C9CACBCCCDCED0D1D2D2D3D4D5D604
:10031000D7D7D8D9D9DADADBDBDBDCDCDCDCDCDD37
:10032000DDDDDDDCDCDCDCDCDBDBDBDADAD9D9D81B
:10033000D7D7D6D5D4D3D2D2D1D0CECDCCCBCAC9B3
:10034000C7C6C5C3C2C1BFBEBCBBB9B8B6B4B3B1E2
:10035000AFAEACAAA8A7A5A3A19F9E9C9A9896947D
:1003600092908E8C8A89878583817F7D7B79777552
:1003700073716F6D6B6968666462605E5C5A595731
:10038000555351504E4C4A4947454342403E3D3BF0
:100390003A3836353332302F2D2C2A29282625237A
:1003A00022FFAA7F55400001010101010101010165
:1003B0000202020202020202020303030303030316
:1003C00003040404040404040505050505060606E3
:1003D0000606070707070708080808090909090AA0
:1003E0000A0A0B0B0B0C0C0C0D0D0D0E0E0E0F0F45
:1003F0000F101011111112121313141415151616D3
:100400001717181819191A1A1B1B1C1D1D1E1E1F41
:100410002020212222232424252626272829292A90
:100420002B2C2D2D2E2F30313232333435363738B8
:10043000393A3B3C3D3E3F404142434445464748B4
:10044000494A4C4D4E4F50515354555658595A5B8A
:100450005D5E5F616264656668696B6C6D6F70722A
:10046000737577787A7B7D7E8082838587888A8C96
:100470008E8F91939596989A9C9EA0A2A3A5A7A9CA
:10048000ABADAFB1B3B5B7BABCBEC0C2C4C6C9CBC1
:10049000CDCFD1D4D6D8DBDDDFE2E4E7E9EBEEF077
:1004A000F3F5F8FAFDFF00000000000000002A2B21
:1004B0002800000000000000000000000000000014
:1004C0000029000000002C1E34202122243426277D
:1004D000252E362D3738271E1F202122232425269E
:1004E0003333362E37381F0405060708090A0B0C6C
:1004F0000D0E0F101112131415161718191A1B1CB4
:100500001D2F3130232D350405060708090A0B0C71
:100510000D0E0F101112131415161718191A1B1C93
:100520001D2F3130354C000000000000000000009D
:1005300000000000000000000000000000000000BB
:10054000000000000000000000007E0F00D4FFFF4C
:10055000FFC70000007810036700750069006400A1
:1005600065003600380000002003530061006C0075
:100570006900630079006C00690063002D00610070
:1005800063006900640033000000040309040902E9
:100590003B00020100A0C8090400000103010100A2
:1005A0000921110100012240000705810308000113
:1005B00009040100010300000009211101000122CA
:1005C000B6000705820320000112010002000000AE
:1005D00008D804DDE600010102000105010902A1BD
:1005E0000185020901A10005091901290815002545
:1005F0000195087501810205010930093115812530
:100600007F95027508810609381581257F9501754A
:10061000088106050C0A38021581257F95017508A9
:100620008106C0C005010980A101850319012AB70F
:1006300000150126B700950175108100C0050C0951
:1006400001A101850419012AA002150126A0029525
:100650000175108100C005010906A1018506050785
:1006600019E029E7150025019508750181020507A4
:10067000190029EF1500250195F075018102050883
:1006800019012905950575019102950175039101DF
:10069000C005010906A101050719E029E715002594
:1006A00001950875018102950175088101050719F9
:1006B0000029FF150026FF00950675088100050832
:1006C000190129059505750191029501750391019F
:1006D000C00011241FBECFEFDAE0DEBFCDBF13E0B4
:1006E000A0E0B1E0E8E0FAE602C005900D92AA337E
:1006F000B107D9F725E0AAE3B3E001C01D92A33208
:10070000B207E1F70E9479190C9428340C94000088
:100710008093480389E695E00E949D0608958091A4
:10072000490308951092460310923D0310923C0332
:10073000089581E0809349030E94920380914803C9
:100740000E94C10C0895109249030E949203809167
:1007500048030E94D10C0895209149032223F9F007
:10076000805E91090897D8F480914703FB0192813C
:10077000992361F0811104C0809148030E94D10C3B
:10078000809147038F5F8093470308958150809342
:100790004703811104C0809148030E94C10C089551
:1007A000E0914403F0914503FE57EE32F10540F429
:1007B000E65DFB4C0C94CB328BE491E00E94F72673
:1007C00008958CEB91E0FACF8DE491E0F7CF8FE4C0
:1007D00091E0F4CF8FE892E0F1CF81E591E0EECFA8
:1007E00083E591E0EBCF85E591E0E8CF87E591E007
:1007F000E5CF89E591E0E2CF8BE591E0DFCF8DE5B4
:1008000091E0DCCF85E691E0D9CF87E691E0D6CFC5
:100810008AE691E0D3CF8DE691E0D0CF80E791E0FA
:10082000CDCF83E791E0CACF86E791E0C7CF89E7D4
:1008300091E0C4CF80E792E0C1CF8CE791E0BECFDA
:100840008EE791E0BBCF8AE20E94CC0908958CE745
:1008500092E0B4CF80E891E0B1CF83E891E0AECFF1
:1008600086E891E0ABCF89E891E0A8CF8CE891E0F1
:10087000A5CF8FE891E0A2CF82E991E09FCF86E7F4
:1008800092E09CCF85E991E099CF88E991E096CFFD
:100890008BE991E093CF8EE991E090CF81EA91E0EE
:1008A0008DCF84EA91E08ACF87EA91E087CF8AEA08
:1008B00091E084CF8DEA91E081CF80EB91E07ECF13
:1008C0008091420390914303892B21F082EB91E0C8
:1008D0000E94F726089580914203909143038E323F
:1008E0002EE7920709F086C0E0914403F09145039A
:1008F000FE57ED32F10540F4E85AFB4C0C94CB3234
:1009000084EB91E00E94F726089580EB91E0FACF06
:1009100086EB91E0F7CF88EB91E0F4CF8AEB91E0A2
:10092000F1CF8EEB91E0EECF86EC91E0EBCF80ED56
:1009300091E0E8CF8AED91E0E5CF8CED91E0E2CF58
:100940008EED91E0DFCF88EE91E0DCCF80EF91E09B
:10095000D9CF8FE792E0D6CF83EF91E0D3CF86EF68
:1009600091E0D0CF8AEF91E0CDCF8DEF91E0CACF6B
:1009700080E092E0C7CF83E092E0C4CF86E092E0CF
:10098000C1CF89E092E0BECF8CE092E0BBCF8AE19C
:1009900092E0B8CF8FE092E0B5CF82E192E0B2CFA3
:1009A00086E192E0AFCF89E192E0ACCF8CE192E0BA
:1009B000A9CF8FE192E0A6CF82E292E0A3CF85E2B9
:1009C00092E0A0CF8BE591E09DCF88E292E09ACFB4
:1009D00087EF91E097CF8BE292E094CF8EE292E0A6
:1009E00091CF81E392E08ECF84E392E08BCF87E3D7
:1009F00092E088CF8F329E4709F086CFE091440382
:100A0000F0914503E350FE47EB32F10508F07CCF4F
:100A1000EB57FB4C0C94CB328AE392E073CF8CE320
:100A200092E070CF8FE392E06DCF82E492E06ACFE4
:100A300085E492E067CF8CE692E064CF88E492E0B0
:100A400061CF8BE492E05ECF8EE492E05BCF81E5F4
:100A500092E058CF84E592E055CF86E592E052CF00
:100A600089E592E04FCF8CE592E04CCF8FE592E0A4
:100A700049CF82E692E046CF85E692E043CF88E315
:100A800092E040CF88E692E03DCF8BE692E03ACF0D
:100A90008FE692E037CF83E792E034CF85E792E0AC
:100AA00031CF88E792E02ECF8BE792E02BCF8EE715
:100AB00092E028CF81E892E025CF83E192E022CF37
:100AC00084E892E01FCF87E892E01CCF8AE892E0AA
:100AD00019CF80913C0390913D03892B49F480917B
:100AE0004603823071F028F4813041F010924603C1
:100AF00008958530D8F70E946B04F8CF0E94D00388
:100B0000F5CF0E946004F2CFEF92FF920F931F93F4
:100B1000CF93DF938C017B0181E090E090933D03C4
:100B200080933C030E94882BEC01F701F28098012E
:100B30003E57FF2009F48CC0809146032E323105C8
:100B400008F040C08230D1F1D8F48823F9F0813028
:100B5000F9F01093450300934403D0934103C093ED
:100B6000400380E699E00E94B506F12C10923D0307
:100B700010923C038F2DCDB7DEB7E6E00C942A33FC
:100B8000833049F0843029F70E946B0481E017C05C
:100B90000E94D003DECF80913E0390913F032091CD
:100BA000400330914103AC01421B530BFE01E81B93
:100BB000F90B4E175F0740F30E94D00384E0809347
:100BC0004603C7CF98012E523E472230310590F59B
:100BD000823049F168F4882311F1813049F1109392
:100BE000430300934203D0933F03C0933E03B9CF26
:100BF000833099F0843099F78091400390914103BC
:100C000020913E0330913F03AC01421B530BFE0188
:100C1000E81BF90B4E175F0748F40E946B0482E053
:100C200080934603DCCF0E946004D9CF0E94600409
:100C300083E0F6CF823009F44CC028F48130E1F033
:100C40001092460393CF8530D8F70E946B04F8CFFB
:100C50002033310508F06EC080914603823089F15F
:100C600070F4813009F082CF809144039091450364
:100C70008017910709F07ACF0E94D003E1CF83302B
:100C800059F1843009F072CF80914203909143036F
:100C90008017910709F049C080914003909141036A
:100CA000C81BD90B20913E0330913F03821B930B4D
:100CB0008C179D0750F2649740F60E94600481E013
:100CC00028C080914203909143038017910709F057
:100CD0004DCF0E946004B4CF8091440390914503AE
:100CE00080179107C9F480913E0390913F03C81B80
:100CF000D90B2091400330914103821B930B8C1739
:100D00009D0708F4A2CF649708F09FCF0E94D003FC
:100D100082E0809346032ACF80914203909143035F
:100D20008017910709F022CF90CF809144039091D2
:100D30004503F6CFFF24F39419CFF89490934B0317
:100D400080934A031092800085E080938100109286
:100D5000820010928500109284008FEF9FEF909395
:100D600089008093880078940895F8941092850003
:100D700010928400909389008093880082E0809391
:100D80006F00789408951F920F920FB60F9211245E
:100D90002F933F934F935F936F937F938F939F9383
:100DA000AF93BF93EF93FF93E0914A03F0914B030E
:100DB0000995FF91EF91BF91AF919F918F917F9195
:100DC0006F915F914F913F912F910F900FBE0F90B8
:100DD0001F90189581E00E9488030895CF93C0E08A
:100DE0002C2F48E26FEF8BE20E94511FCF5FCC3077
:100DF000B9F70E94A303CF9108950F931F93CF9348
:100E0000DF93EC018B01C0338EE7D80789F0C13343
:100E1000EEE7DE0741F10E948F038823C9F1B80194
:100E2000CE010E94AC03B801CE010E94840505C02A
:100E3000FB018281811106C080E0DF91CF911F917B
:100E40000F9108958DE892E00E94F7260E94A30377
:100E5000C0E02C2F40E460E080E00E94511FCF5F93
:100E6000CC30B9F7E9CFFB018281882329F381E9EE
:100E700092E00E94F7260E949903C0E02C2F40E0E8
:100E800060E480E00E94511FCF5FCC30B9F7D4CF2F
:100E900081E0D3CF8330C8F46A30B8F44830A8F486
:100EA000E62FF0E09AE0899FE00DF11D112483E028
:100EB000EE0FFF1F8A95E1F7E40FF11DEE0FFF1F04
:100EC000E455FF4F85919491089580E090E0089556
:100ED0000E944A07089581E008950E94FD06089542
:100EE00008950E9470070895A5E0B0E0EAE7F7E0F2
:100EF0000C94113349835A833091510389819A812B
:100F0000311119C0662399F0222389F00E94860DC1
:100F1000182F682F89819A810E94630D69817A81D7
:100F2000812F0E94E6132596E3E00C942D330E9456
:100F3000740D182FF3CF0E94860D69817A81F1CF4D
:100F4000FC01262F408151816281738184810E943E
:100F50007407089581E00895CF93DF93EC0160E07A
:100F60000E94A007BE010E947107DF91CF910895F2
:100F70000E94611508950E946515089508950E94C4
:100F8000320C0E94BE072FEF84E39CE0215080408A
:100F90009040E1F700C0000008950E94BF070E9442
:100FA000EF2B08950E94BF070E94002C08950F9315
:100FB0001F93CF93DF938C0161E00E94A007EC01A7
:100FC000B8010E946D07811106C080E0DF91CF91CA
:100FD0001F910F910895B801CE010E94892788239F
:100FE000A1F3B801CE010E945825882371F3B801FE
:100FF000CE010E94FB26882341F3B801CE010E9456
:10100000A224882311F3F8018281882361F0C33080
:10101000FCE7DF07E9F058F4C115ECE7DE07A9F0BB
:10102000C130DC47B9F0C8010E946B07CFCFCB3588
:101030008CE7D807A9F0CC35ECE7DE0771F0CA35AC
:10104000DC4789F70E948811EECF0E94CD07BDCF03
:101050000E9490110E94D207B8CF0E947E11E3CF68
:101060000E948C11E0CF0E94052B0E9461080E9413
:101070006B2208950E9465080E9466230E940A2B35
:10108000089508950E944108089581E00895089503
:10109000CF93DF93D82F0E944508C82F882319F0DB
:1010A0008D2F0E9447088C2FDF91CF9108950895CE
:1010B000CF93C82F0E9442088C2F0E944808CF91DE
:1010C000089580E00E94580808950E9491290E9486
:1010D00058080895CF930E949129C82F80914C03FE
:1010E0008C1779F0C0934C030E94942B60934D03AE
:1010F00070934E0380934F03909350038C2F0E9464
:101100005808CF910895ABE0B0E0E9E8F8E00C941E
:1011100012334F83588769877A878B8761110E94C2
:10112000C9101E821D8285E0FE013796DE011196F0
:1011300001900D928A95E1F78C819D81892B61F454
:1011400049815A816B817C818D819E810E94F20F41
:101150002B96E2E00C942E3389819A8189238F3F6C
:1011600079F3CE0101960E94AA078111E9CFF0CF51
:10117000FC01808191810E94B80D0895662329F0B9
:101180000E94FD190E94D01A08950E94571AFACFA2
:10119000CF93C82F8823C9F08238C9F40E949129BF
:1011A00081FD13C089E30E9481100E94EA102FEF95
:1011B00087EE93E0215080409040E1F700C00000AE
:1011C00089E30E9489100E94EA10CF910895833824
:1011D000A1F40E94912980FDF8CF83E50E9481103F
:1011E0000E94EA102FEF81EE94E021508040904061
:1011F000E1F700C0000083E5E4CF8438A1F40E9449
:10120000912982FDE2CF87E40E9481100E94EA10BA
:101210002FEF81EE94E0215080409040E1F700C034
:10122000000087E4CECF8CEF8C0F813A90F46C2FC6
:1012300080910401909105010E942B2A882329F0B6
:101240008C2F0E9489100E94EA108C2F0E9481101E
:10125000BACF80E28C0F883048F4C77081E001C0BB
:10126000880FCA95EAF70E94AC10ADCFEBE5EC0F02
:10127000E33040F4F0E0E953FD4F808190E00E94BC
:10128000CD29A3CFE8E5EC0FE93150F4F0E0EE0F03
:10129000FF1FEB56FD4F808191810E94F22995CF6F
:1012A00083E38C0F833108F090CF61E08C2F0E9494
:1012B000BE088BCF882309F456C0823879F40E9487
:1012C000912981FF50C089E30E9481100E94EA1099
:1012D00089E30E9489100E94EA100895833859F426
:1012E0000E94912980FF3FC083E50E9481100E94E7
:1012F000EA1083E5EECF843859F40E94912982FFE9
:1013000032C087E40E9481100E94EA1087E4E1CF96
:101310009CEF980F913AE8F290E2980F983050F4D1
:10132000877091E001C0990F8A95EAF7892F0E9492
:10133000B210D1CF9BE5980F933028F490E080E075
:101340000E94CD29089598E5980F993128F490E0EE
:1013500080E00E94F229089593E3980F933118F4E6
:1013600060E00E94BE0808951F93CF93DF93182F6B
:10137000EB010E94C808209739F4812F0E945A0976
:10138000DF91CF911F9108958FE99FE00197F1F7C9
:1013900000C000002197EFCF70E060E0893311F4C6
:1013A00060E570E00E94B4090895882321F00E944E
:1013B000AC100E94EA100895882321F00E94B21018
:1013C0000E94EA100895B0E0A0E0E9EEF9E00C9484
:1013D0000B336C01D62FC72FFC011281F580F294DC
:1013E0009FE0F9220E94A210E82E8823B9F0E12E96
:1013F0001123A1F08C2F807F803421F080E28D0FAB
:101400008830D0F08091D20482FF16C082E00E9422
:101410004D110E94A21091E0E82EE926BC2EB29454
:101420008FE0B822FBE0FB1508F468C0EB2DF0E07C
:10143000E055FB4C0C94CB32E12CF0CF0C2F0F700D
:10144000C07F11F00295007F112399F0002359F01D
:1014500080E28D0F883010F0D11107C0802F0E94DC
:10146000AC100E94EA108D2F41C0802F0E94BC104A
:10147000F8CF8D2F0E945A09002309F43FC080E263
:101480008D0F883010F0D11104C0802F0E94B2104F
:1014900003C0802F0E94C2100E94EA102FC00C2FA0
:1014A0000F70C07FC03211F00295007FDD2381F004
:1014B000D13009F468C0112309F472C0FF2009F487
:1014C00068C0F601858180FFCECF8F70858361C0B3
:1014D0008091D20482FD33C0112359F0002329F0FA
:1014E000802F0E94AC100E94EA1080E00E94C80881
:1014F00005C080E00E945A090111C7CFEB2DE850CA
:10150000FF0B349720F40E9491290E945808EE2086
:1015100089F00E949E1080FD0DC0F60112820E948B
:1015200098100E94C10CC6010E94F20B0E949810F4
:101530000E94D10CCDB7DEB7E9E00C94273311231C
:1015400089F0F11006C00E94CC10802B0E94D509B2
:10155000D5CF21E0F212F7CF0E94CC10802B0E9451
:10156000D310CCCFF11006C00E94E010802F0E9453
:10157000DC09C4CF31E0F31609F2802F0E94DC09A8
:101580000E94E010BBCF112331F085E08F1508F4E5
:10159000B5CF802FDBCF94E09F1508F4AFCFE6CF17
:1015A000FF2021F3D93349F4FFEF27EE33E0F15068
:1015B00020403040E1F700C000008D2F0E945A0902
:1015C0009DCF8C2F86958695837069F0813009F0C8
:1015D00095CF8D2F9C2F9370111102C080E090E069
:1015E0000E94F2298BCF8D2F9C2F9370111102C076
:1015F00080E090E00E94CD2981CF612F8D2F0E9445
:10160000BE087CCF8C2F8370A1F5111177CF4D2FA1
:10161000429546954770440F440F2D2F2F7030E0B0
:10162000042E02C0220F331F0A94E2F790E080E0FC
:10163000D4FF09C08FE090E002C0880F991F4A953F
:10164000E2F780959095C695C695C370822B932B33
:10165000C23049F058F4C13019F00E94910C4ECFBD
:101660000E94880C4BCF0E949A0C48CF0E94850C98
:1016700045CF8695112311F08C2F8170882309F4B2
:101680003DCF4D2F429546954770440F440F2D2F67
:101690002F7030E0042E02C0220F331F0A94E2F7AD
:1016A00090E080E0D4FF09C08FE090E002C0880F96
:1016B000991F4A95E2F780959095C695C695C37097
:1016C000822B932BC23049F058F4C13019F00E949C
:1016D000FC0C14CF0E94F30C11CF0E94050D0ECF0D
:1016E0000E94A90C0BCFCF70112329F08C2F0E94E0
:1016F000C10C8D2F2BCF8D2F0E94DC098C2F0E94C7
:10170000D10CFCCED23F51F160F4D03FB9F0D13FC3
:1017100081F0112309F449C0F110A5CE8C2F8F71EF
:1017200021C0D33F11F1D43FA1F78091D20482FDB3
:1017300026C08C2F8F71112311F314C0112349F08F
:1017400084E08F1508F4DACE8C2F8F710E94E30CA1
:10175000D5CE95E09F1508F4D1CEF6CF8C2F8F71A2
:101760001111CDCF0E94C10CC9CE112329F08C2FAD
:101770008F710E94B50CC2CE0E94B00CBFCE112357
:1017800049F0CF718C2F0E94C10C63E08C2F0E9416
:101790002F11B4CE81E00E944D11E1E0EF1508F069
:1017A000ADCE82E00E944D11A9CEF110FBCE8C2F60
:1017B0008F71A5CF0F931F93CF93DF93EC016881B7
:1017C00079818A810E94C30D8C010E940E0D0E94B6
:1017D000840CB801CE010E94E309DF91CF911F91E3
:1017E0000F910895CF93DF93EC018B819C81892B1E
:1017F00029F08881998189238F3F51F4DF91CF911E
:101800000895CE010E94DA0BCE010E94AC07F6CFFC
:10181000CE010E94D7078111F4CF0E94A210882325
:1018200069F38A81882351F38091D20482FFE6CF45
:1018300082E00E944D11E2CF90E080E00E94CD292D
:1018400090E080E00E94F2290E94C9100E94EA10F4
:101850000E94EC1A0E94D01A08950E9491100E94D2
:101860001C0C08950E94B9100E942D0C08959295A9
:101870009F70963091F058F4925F9F70923058F4B8
:10188000803F19F030F4883E30F481E008959A5F8B
:10189000F4CF843FD1F380E00895883EB0F3813FD8
:1018A000D1F7F3CFFC0183819481892B29F08081CA
:1018B000918189238F3F11F480E008958081918187
:1018C0000E94B80D0E94370C0895A5E0B0E0EBE649
:1018D000FCE00C9412332596E2E00C942E33A6E043
:1018E000B0E0E5E7FCE00C9412332696E2E00C94BD
:1018F0002E3308950E94790C08950E947A0C9093DB
:101900007D0380937C03089508950E947D0C0895C3
:1019100020917C0330917D03822B932B0E947D0CC0
:10192000089520917C0330917D03822393230E94AC
:101930007D0C089520917C0330917D0382279327AD
:101940000E947D0C08950E94790C08950E94A30CBA
:1019500008950E94A60C90937B0380937A030895C8
:1019600090E080E00E94A90C089521E030E0A901F8
:1019700002C0440F551F8A95E2F7CA010E94A90CC4
:10198000089521E030E002C0220F331F8A95E2F76C
:1019900080917A0390917B03822B932B0E94A90C58
:1019A000089521E030E002C0220F331F8A95E2F74C
:1019B0002095309580917A0390917B038223932325
:1019C0000E94A90C089521E030E002C0220F331FCD
:1019D0008A95E2F780917A0390917B03822793277F
:1019E0000E94A90C089520917A0330917B03822BE9
:1019F000932B0E94A90C089520917A0330917B03C8
:101A0000822393230E94A90C089520917A03309198
:101A10007B03822793270E94A90C08950895262FFF
:101A2000277091E001C0990F2A95EAF723E0769597
:101A300067952A95E1F7660F771F660F771FFA0102
:101A4000E60FF71F50E040E0682F70E08191DF0162
:101A500011979B01042E02C0369527950A94E2F750
:101A6000217021952827292328272C934F5F5F4F2A
:101A70004430510559F70895A82FA77023E0969593
:101A800087952A95E1F7880F991F880F991FFB0109
:101A9000E80FF91F50E040E080E0219130E00A2E8D
:101AA00002C0369527950A94E2F721703327042E59
:101AB00001C0220F0A94EAF7822B4F5F5F4F443038
:101AC000510559F70895262F9A3068F4883058F454
:101AD00038E0939FB0011124680F711D42E553E077
:101AE000822F0E940F0D08959A3070F4883060F4B0
:101AF00048E0949F9001112462E573E0820F932FD8
:101B0000911D0E943C0D089580E00895B0E0A0E092
:101B1000ECE8FDE00C940B337C0100917A0310910A
:101B20007B0380917C0390917D03082B192BCFE0E0
:101B3000D0E0CC24C394D12CBC2EC6010C2E02C004
:101B4000880F991F0A94E2F780239123892B49F487
:101B5000219790F7B12C8B2DCDB7DEB7E9E00C942F
:101B60002733B7018C2F0E94F213019789F3F3CF2B
:101B7000CF93DF93EC010E94860DBE010E94F21309
:101B8000DF91CF9108951F93CF93DF93EB01909155
:101B90005103992339F0CB010E94B80DDF91CF9109
:101BA0001F910895882369F0CB010E94860D182F9C
:101BB000682FCE010E94630DBE01812F0E94F21397
:101BC000EDCFCB010E94740D182FF6CF1F93CF934A
:101BD000DF93C0917E0316E080917F038C1304C0D5
:101BE000DF91CF911F910895D0E01C9FF0011D9FC0
:101BF000F00D1124E058FC4F4081518162817381C6
:101C0000848195810E946F0C2196C770E5CF409129
:101C1000B0035091B1036091B2037091B30380910E
:101C2000B4039091B5030E946F0C08951F93CF9356
:101C3000DF938091B503807F09F049C08091B203A2
:101C4000882309F444C080917E03C0917F03609192
:101C5000B0037091B103A091B303B091B403D62F38
:101C6000D72316E0C81799F190E0109711F0DF3FE5
:101C700019F401968770F6CF189F9001199F300DC7
:101C80001124F901E058FC4F41814713F2CF408104
:101C90004613EFCF42814111ECCF438154814A1B5F
:101CA0005B0B483C510528F78091B5038F7080612C
:101CB0008093B503F901EB57FC4F80818F708061F1
:101CC000808380EB93E00E94F20B0E94E60DDF918F
:101CD000CF911F910895A1E1B0E0E1E7FEE00C94FF
:101CE0000A338C0185E0F801DE011D9601900D920A
:101CF0008A95E1F7F801E28080EBC82E83E0D82EC8
:101D00006091B3037091B4036115710509F44EC17C
:101D10009091B0032091B103892F82238F3F09F462
:101D200045C140815181A380B480F090B203F50198
:101D3000E61BF70BFF2009F4EAC08091B503382FAA
:101D4000307FE83CF10508F0A3C031116DC0FE2CD6
:101D5000251316C0941314C0E11012C08F70806157
:101D60008093B5030E94070EC6010E94F20B80917A
:101D7000B503F80185838F2D6196EAE00C94263334
:101D8000A114B10429F0842F85238F3F09F027C1C6
:101D900080E0F82FF170DF2E80FF3CC080917E0341
:101DA00020917F0336E0821315C04D875E878D85B5
:101DB0009E850E94B80D292F22952F702230F0F0B9
:101DC000243018F59F70F1F0F8019581907FD1F4DF
:101DD000D12C1EC090E0389FF001399FF00D1124E6
:101DE000E058FC4F6181651306C06081641303C035
:101DF0006281E6120FC001968770D5CF9F7011F0F7
:101E0000882331F3805E883018F3C8010E94F20BFA
:101E1000FD2CB1CFEE2009F4AECF8091B5038160E7
:101E20008093B503F12CA7CF251306C0941304C0EB
:101E3000F801EE2009F487C0C8010E94520C8823E3
:101E400019F1EE2009F18091B503803270F02091F4
:101E5000B0033091B10338872F831986BB86AA86D9
:101E60008C87CE0107960E94F20B86E0F801A0EB6A
:101E7000B3E001900D928A95E1F70E94160E0E9440
:101E8000070EFF24F39477CFC8010E94F20BF9CF1D
:101E9000311113C07A2DB98AA88A6E2D89890E94C2
:101EA000650C80EB93E00E94F20B86E0F601119244
:101EB0008A95E9F70E94070EB5CF25130FC094133A
:101EC0000DC0E1100BC0F8018583C8010E94F20B20
:101ED00086E0F60111928A95E9F74DCFC8010E947C
:101EE000520C882389F2EE2079F28091B50380327A
:101EF00008F4BBCF2091B0033091B1033A8329831A
:101F00001B82BD82AC828E83CE010196ACCFE83CB1
:101F1000F10508F03EC0FE2CEE2009F4B5CF2513E4
:101F20002AC0941328C08091B50380FD1BC0982F50
:101F3000907FC1F0F8018583903F31F0982F907F1A
:101F4000905F8F70892B8583C8010E94F20B86E019
:101F5000F801A0EBB3E001900D928A95E1F70E94A1
:101F6000070E09CF86E0F801A0EBB3E001900D92D7
:101F70008A95E1F700CFC8010E94520C811175CFFC
:101F80008091B50381608093B503C8010E94F20B74
:101F9000F2CE7A2DB98AA88A6E2D89890E94650CA5
:101FA00086E0F60111928A95E9F7D9CFEE2009F47F
:101FB0006BCFC8010E94520CF82E882309F464CF1D
:101FC00086E0F801A0EBB3E001900D928A95E1F76D
:101FD00080EB93E00E94B8080E94160EC0CF81E00B
:101FE0008E25D7CEACE0B0E0E8EFFFE00C941133E3
:101FF0004F83588769877A878B879C87CE0107969E
:102000000E946B0E882369F08A859B85892B39F0A5
:102010004F815885842F85238F3F09F06BC016E0D0
:102020005FC086E0FE013796DE01119601900D92A9
:102030008A95E1F78A859B85892B89F38F8198851D
:1020400089238F3F61F320917F0330E0C90101961E
:102050008770992740917E034817190671F40E94F2
:10206000320C10927F0310927E0386E0E0EBF3E0E7
:10207000DF011D928A95E9F7D2CF96E0929FD001B9
:10208000939FB00D1124A058BC4FFE0131960190D2
:102090000D929A95E1F780937F030E94E60DBFCFE2
:1020A000819FC001112480589C4F0E946B0E882391
:1020B000E9F0E0917E031E9FF0011124E058FC4FEF
:1020C0004081518162817381848195810E946F0C6E
:1020D00080917E0390E001968770992780937E031C
:1020E00080917E0390917F038913DACF2C96E3E0F1
:1020F0000C942D3369857A858B859C850E946F0CA5
:102100008ECF682F80910401909105010E94AB2A27
:102110000895682F80910401909105010E94B92AC9
:10212000089580910401909105010E94C72A0895A5
:102130008091D60385958595859508958091D603E0
:10214000877008959091D603977081E009F480E03C
:1021500008958091F90308959091F903892B809354
:10216000F903089580959091F90398239093F903CA
:1021700008951092F90308959091F803892B8093A4
:10218000F803089580959091F80398239093F803AD
:1021900008951092F80308958091D7030895089543
:1021A0000E94CF1008959091D20492FF08C09091A0
:1021B000D703981721F08093D7030E94D010089579
:1021C0008091D703882329F01092D70380E00E94E2
:1021D000D0100895CF93DF93E0910401F0910501B1
:1021E0008091F9038083E0910401F09105018081E1
:1021F0009091F803892B80839091D703992381F0E4
:10220000E0910401F09105018081892B8083809108
:102210000401909105010E94172A81110E94E0108B
:10222000C0910401D091050140E250E066EB73E0FB
:10223000CE010E94AB33892B59F080E2FE01A6EB60
:10224000B3E001900D928A95E1F7CE010E94A52995
:10225000DF91CF91089508950E942B1108959091D8
:10226000D20492FF11C098E0899F90011124622B43
:102270006093D6030E94C10C8091D6038595859505
:1022800085950E942C1108950E94C10C089510920A
:10229000D60380E00E942C1108959091D60380957A
:1022A00089238093D603282F277091F4282F082E96
:1022B000000C330B9217130659F09091D20492FF41
:1022C00007C08595859585950E94D10C0E94471180
:1022D00008959091D20492FB222720F9281769F0E3
:1022E00080FB92F99093D2048091D1049091D20412
:1022F0000E94B11182E00E944D1108958091D20494
:1023000082FB882780F991E089270E94691108954E
:1023100081E00E946911089580E00E94691108958A
:102320006FEF7FEF90E080E00E94F333089590E03C
:1023300080E00E94CF3321E0873E9E4F09F020E0ED
:10234000822F089582E090E00E94C133089583E0D7
:1023500090E00E94C133089584E090E00E94CF3362
:102360000895BC0184E090E00E94F3330895AB012E
:10237000BC018FE090E00E94E7330895AB01BC01FF
:1023800083E190E00E94E733089560E070E0CB01C4
:102390000E94BE11089560E070E0CB010E94B71169
:1023A0000E94C511089567EE7EEF90E080E00E94E4
:1023B000F33360E082E090E00E94D53360E083E098
:1023C00090E00E94D53310927D0310927C0360E070
:1023D00074E184E090E00E94F33360E086E090E0F6
:1023E0000E94D5336FEF87E090E00E94D53340E044
:1023F00050E0BA0188E090E00E94E73360E08DE0B1
:1024000090E00E94D53340E050E0BA0188E190E0CE
:102410000E94E73360E087E190E00E94D53340E01E
:1024200050E0BA018CE190E00E94E73370E060E098
:1024300080E290E00E94F33340E050E0BA0188E18E
:1024400090E00E94E7330E94CB1108950E94D311BF
:102450000895682F8EE090E00E94D53308950E9481
:10246000942B60930A0470930B0480930C04909354
:102470000D046093060470930704809308049093FE
:1024800009040895089508950E94431208950E9432
:10249000EE06089587E295E10E9487290E94421284
:1024A0000E94441208950E940C17089508950895FB
:1024B0000E9456120E94571208950E9443150E94CE
:1024C000570808950E947F2B0E94DC140E94241755
:1024D0000E9468160E945D120E9440250E942523DA
:1024E0000E9440170E9447120895AAE0B0E0EBE76F
:1024F000F2E10C940A330E948B168CEFA82E83E035
:10250000B82E750110E0F70101917F01812F0E9423
:1025100068151F5F1A3009F440C00817A1F38091B5
:102520000E0481FD0E946E150E945312C82E10E009
:10253000812F0E946815082FF50181915F0108170E
:1025400031F1D02ED826F12CEE24E3948D2D8E215E
:10255000B1F0CC20A1F0FE821F8391E0802F8E216C
:1025600009F490E098870E94882B8160782F9A87E1
:1025700089874E815F8168858A850E948308F394EC
:10258000EE0CF8E0FF12E2CFF501319700831F5FF8
:102590001A3071F60E942F1220C00813C0CF0E947B
:1025A000882B8C018091FA039091FB03081719077F
:1025B000A1F08FEF89838A831B820E94882B816020
:1025C000782F9D838C8349815A816B818D810E94F4
:1025D00083081093FB030093FA030E940C170E94D8
:1025E000AB230E940E1B0E946A082A96EAE00C9414
:1025F0002633CF93DF930E94F713EC01811520E57A
:102600009207D0F5811530E4930708F086C0803E2C
:10261000910518F58D3C910508F07DC0883A91052B
:1026200070F4853A910508F06EC08130910501F192
:102630000097F1F00497E0F4D0E0C0E019C0813CCD
:102640009105D0F7C85AD0E0CC0FDD1FC653DD4F3F
:102650000990D881C02DD4640BC08115904208F038
:10266000A8C0C11581E0D80718F4C83ED10520F7ED
:10267000CE01DF91CF910895803622E5920710F5C3
:10268000803432E5930708F052C08032924508F05A
:1026900047C0C11582E5D80708F47DC02C2F2695C8
:1026A000269540E2249F900111248C2F8370C1E075
:1026B000D0E002C0CC0FDD1F8A95E2F7C22BD32BEE
:1026C000DD68D6CF803A22E5920760F4803832E5A3
:1026D000930708F441C0CF71D0E0DC2FCC27C46F42
:1026E000D06AC6CF803C42E5940708F449C0C03E9A
:1026F00082E5D80708F0A0CFDC2FCC27CC27DF71EC
:10270000C06FD06AB5CFC55AD0E0C450DD4FC88184
:10271000D0E0D064ADCFD065ABCFDF70D06AA8CFAA
:10272000CF71D0E0DC2FCC27C16FD06AA1CF282F8A
:1027300026952695277080E2289F900111248C2FE2
:102740008370C1E0D0E002C0CC0FDD1F8A95E2F7B4
:10275000C22BD32BDC688CCF282F2695269527708B
:1027600040E2249F900111248370C1E0D0E002C0B8
:10277000CC0FDD1F8A95E2F7C22BD32BDA6878CF16
:102780008F710E949914C82FD0E0DC2FCC27CC2762
:10279000DF71D0626DCF8C2F8F710E94991435E05C
:1027A000D695C7953A95E1F7CF709C2FEC01D0698B
:1027B0005FCF8D2F8F710E94991490E0982F8827FA
:1027C00088279F719C012C2BE901E3CF462F7A309B
:1027D00030F4683020F4672F0E946807089590E075
:1027E00080E008950E94E6130E94F912089582384D
:1027F0009105B9F1B0F48133910509F47DC048F435
:102800008932910509F46DC08A32910509F47BC0C3
:1028100008958533910509F45FC08933910509F165
:102820000895833E9105D9F138F4803E910529F150
:10283000823E910579F10895863E9105D9F1873E52
:10284000910509F43EC0843E910541F52091D204E2
:1028500021FF24C08091D10484FD19C087EE90E04F
:1028600008952091D104237009F05AC02091D20418
:1028700023FF14C089E290E008952091D10420FD47
:1028800038C03091D20430FF09C024FF43C090E02B
:1028900080E008952091D10422FDF7CF0895209182
:1028A000D10422FD3AC03091D20430FD39C024FF5A
:1028B000F5CFEDCF2091D10423FFF0CF24FDE7CF5A
:1028C000CDCF2091D10423FD2EC03091D20431FF11
:1028D000EECF84EE90E008952091D10425FFDECF65
:1028E000C9CF2091D10425FD21C02091D20423FF1E
:1028F000D5CF89E390E0D2CF2091D10426FFCECF6F
:102900008AE290E008952091D10426FFC7CF81E3A9
:1029100090E0089583EE90E0089582EE90E00895AF
:1029200080EE90E0089586EE90E0089585E390E0D3
:1029300008959091D10492FF06C0282F2871283065
:10294000F9F4877F846093FF06C0282F287128310F
:10295000F1F4877E84612091D20420FF06C0382FD5
:1029600038713830D9F4877F816021FF06C0282F65
:1029700028712831D1F4877E816194FD877E089586
:10298000282F24712430F9F68B7F8860DCCF282F24
:102990002471243101F78B7E8861DDCF382F3171AE
:1029A000313019F78E7F8860E0CF282F21712131D7
:1029B00021F78E7E8861E1CF1092CD041092CE0473
:1029C0001092CF041092D0040895CF92DF92EF922C
:1029D000FF926B017C010E940C1781110EC00E94B6
:1029E000942BC61AD70AE80AF90AC092CD04D092ED
:1029F000CE04E092CF04F092D004FF90EF90DF90ED
:102A0000CF9008950F931F930E940C17882329F0ED
:102A10000E94942B1F910F9108950E94942B009176
:102A2000CD041091CE042091CF043091D004600FDA
:102A3000711F821F931FEECF0E940C17882319F07D
:102A40000E94882B08950E940215CB01089580E012
:102A500008950E94901108950E948B168FE39CE9BF
:102A60000197F1F700C000000E948B1680E00E94E1
:102A7000681580FF04C00E9429150E94EF2B08955D
:102A80000E942C1508950E949711811102C00E9486
:102A900026120E94A21180930E040E94AC11909302
:102AA000D2048093D1040E9440150E94A71190E0A7
:102AB0000E94850C80917A0390917B030E94A60C62
:102AC00008950E94EA06089508950E9464150895E5
:102AD000E82FF0E0E252FB4F80810895089580EAEC
:102AE0008A95F1F7089500C008950E946F15089522
:102AF00008950E9478150895A5E0B0E0E2E8F5E1B8
:102B00000C940E330E940C17F82E6091E804882371
:102B100009F440C085E0E82E8E010F5F1F4FF801D9
:102B20008E2D11928A95E9F7862F90E0B801825296
:102B30009B4F0E944E178823B9F08091D30490E0F8
:102B400045E050E0B80182529B4F0E94AB3321E038
:102B500020930F04892B91F4F12C0E94BB078F2D39
:102B60002596E6E00C942A3380910F048823A1F384
:102B7000F8011192EA94E9F710920F04A091D3049E
:102B8000B0E0A252BB4F85E0F80101900D928A950A
:102B9000E1F7E3CF70E062527B4F8091D30490E085
:102BA00082529B4F0E94D5170E947915D8CFF89476
:102BB000E82FE295EF70F0E031A1282F2F7081E02F
:102BC00090E001C0880F2A95EAF7982F90959323FB
:102BD00091A392A1892B82A378940895CF93DF9338
:102BE000C7E0D3E089918F3F11F00E94D71583E0B1
:102BF000CC30D807B9F7CFEFD2E089918F3F11F0F1
:102C00000E94D71583E0C730D807B9F7DF91CF917D
:102C10000895B0E0A0E0EFE0F6E10C940C33EC0195
:102C2000D62E062F10E0C801895F9C4F7C01FC0165
:102C300080818F3F09F445C0F894E82FE295EF704A
:102C4000F0E091A18F7021E030E001C0220F8A9561
:102C5000EAF7892F822B81A382A12095282322A322
:102C600078940E947315EFEFF2E047E053E031E013
:102C7000C12C21912F3F51F1A22FA295AF70B0E04E
:102C800090968C9190E02F7002C0959587952A952B
:102C9000E2F780FD1BC0832FC82A330F4E175F0752
:102CA00041F7F70180818F3F11F00E94D71561E055
:102CB000C11001C060E08D2D0E947515C00FD11F9D
:102CC000C882CDB7DEB7E8E00C94283380E0E4CFCB
:102CD000809106018091060195E0811190E090932A
:102CE000E80485E0891B8093D3040E94EE158AE0F6
:102CF000EEEDF4E0DF01982F1D929A95E9F7E4EDEF
:102D0000F4E0DF011D928A95E9F785E00E94C9167B
:102D10000E94B8070895AAE0B0E0E1E9F6E10C945A
:102D20000F338E010F5F1F4F8AE0F80111928A95D1
:102D3000E9F7F12C6F2DC8010E940916F394F5E014
:102D4000FF12F8CF4AE050E0B80184ED94E00E9411
:102D5000AB3321E0009709F420E0892B41F08AE0B1
:102D6000F801A4EDB4E001900D928A95E1F760912D
:102D7000E80470E062527B4F45E084ED94E00E94ED
:102D8000CA16182F0E947C15812B2A96E5E00C9418
:102D90002B330895CF92DF92EF92FF920F931F9300
:102DA000CF936C017B01042F222349F081E08093B3
:102DB00012040E94882B9093110480931004C091F8
:102DC0001204C1110AC0C0E08C2FCF911F910F9146
:102DD000FF90EF90DF90CF90089580911004909134
:102DE00011040E94A02B059770F310E0A801B60112
:102DF000C7010E94AB33892B41F0A801B601C7017E
:102E00000E94B83310921204DFCFC0E0FBCF83B131
:102E100086FB882780F9089580911504811107C0E9
:102E20000E945A32882351F081E08093150481E09A
:102E300090911504913009F080E0089582E080932C
:102E400015040E945532F3CF26982E988FE891E012
:102E50000197F1F700C000000E9407178093060158
:102E60008091060166E0882349F080E00E94A21C60
:102E70000E940C1781110E948417089586E0F6CFF6
:102E80000E940C17811102C00E948717089581E0EB
:102E9000909116049A3008F080E008950F931F93E4
:102EA000CF93DF93EC018B01809116048A30B8F444
:102EB000B801CE010E94D217C82F811122C0809183
:102EC00016048F3FB9F40E94882B909314048093CA
:102ED00013048C2FDF91CF911F910F910895809152
:102EE0001304909114040E94A02B843F914000F79A
:102EF000C0E0EFCF8F5F809316048A3020F7C1E0E7
:102F0000E8CF10921604E5CF0E94252808950E946C
:102F100028280895B0E0A0E0E0E9F7E10C940D3333
:102F20007901C82F880FDD0B41155105A9F0FE016D
:102F300093E0EE0FFF1F9A95E1F7E95FFE4F818165
:102F40009281895E9B4F208130E04217530708F43D
:102F50009A01A9010E94B833CE010E941129D82EEE
:102F60008823D1F001151105B9F083E0CC0FDD1FE6
:102F70008A95E1F7FE01E95FFE4F438150E00417B7
:102F8000150708F4A801C95FDE4F6C817D81695E79
:102F90007B4FC7010E94B8338D2DCDB7DEB7E7E078
:102FA0000C9429330E94FF1808950E942019089557
:102FB000A4E0B0E0EEEDF7E10C941033609137043B
:102FC000709138048091390490913A040E94AF2B9B
:102FD00011E0643671058105910518F10E94021512
:102FE0006E5F7F4F8F4F9F4F69837A838B839C8364
:102FF00010E000E030E020E044E050E0BE016F5F10
:103000007F4F82E00E948A17182F882351F00E9478
:10301000942B609337047093380480933904909311
:103020003A04812F2496E4E00C942C33B0E0A0E025
:10303000ECE1F8E10C940A337C015B016A010E9427
:10304000471701E010E0882311F00AE010E0C1E02A
:10305000D0E0B501C701F6010995811104C02196A0
:103060000C171D072CF4CDB7DEB7EAE00C9426331D
:10307000CC9F9001CD9F300D300D112490E080E069
:1030800045E34A95F1F70000019682179307C1F7CF
:10309000E0CFA9E0B0E0EFE4F8E10C941033CE010A
:1030A00001960E943F22188560913B0470913C0478
:1030B00080913D0490913E040E94AF2B64367105CF
:1030C0008105910510F41123C1F010E000E030E01B
:1030D00020E049E050E0BE016F5F7F4F83E00E9437
:1030E0008A17882369F00E94942B60933B047093A5
:1030F0003C0480933D0490933E040E943C2281E076
:103100002996E4E00C942C33A6E0B0E0EAE8F8E17C
:103110000C940A337B01C0900C03D0900D0301E0A6
:1031200010E09E012A5F3F4F50E040E070E060E019
:1031300080E00E948A17182F882309F448C056019E
:103140008FEFA81AB80A609133047091340480910B
:103150003504909136040E94AF2B643671058105C9
:10316000910568F105E010E09E012F5F3F4F50E0B0
:1031700040E070E060E081E00E948A17D82E65E0B0
:1031800070E0C5010E94412511E09E81981310E076
:103190001D2141F10E94942B6093330470933404F9
:1031A000809335049093360485E0FE013196AEE2BB
:1031B000B4E001900D928A95E1F711E013C065E04B
:1031C00070E0C5010E9441259E818913CBCF85E027
:1031D000F6013196DE01119601900D928A95E1F784
:1031E0001111E2CF85E0EEE2F4E0D70101900D92FB
:1031F0008A95E1F7812F2696EAE00C9426330F9307
:103200001F93CF93DF93EC018B0144E858E10E94B8
:103210001618811106C080E0DF91CF911F910F91A8
:10322000089548ED57E1B801CE010E941618882391
:1032300091F349E458E1B801CE010E941618ECCF91
:10324000A9E0B0E0E6E2F9E10C940C3300910C0344
:1032500010910D03C801019625E0FB01DC010190EE
:103260000D922A95E1F765E070E00E944125F80192
:1032700080836681778180859185C0902A04D09073
:103280002B04E0902C04F0902D046C157D058E0528
:103290009F0551F060932A0470932B0480932C04B3
:1032A00090932D040E94E51489E0F8013A96DE011E
:1032B000119601900D928A95E1F7F801118A88859F
:1032C000882329F060E0CE0101960E9470232996A0
:1032D000E8E00C9428330E94752D0E9462120E942F
:1032E000822D08950E94872D0E9475120E94A12DA3
:1032F00008950E94212B0E945B2D0E944A120E9479
:103300006B190E9472190E945812FBCF80914504DC
:1033100080FF0DC060912C0170E0660F771F603850
:10332000710570F56115710569F1862F089581FFAA
:1033300007C060912C0184E0689FB0011124EFCF99
:1033400060912C0182FD0AC0809144048823A9F079
:1033500020912B0160912C01821710F088E0ECCFB6
:10336000869FC001112433E0880F991F3A95E1F739
:10337000622F70E00E949532D2CF68E070E0D5CF26
:103380008FE7089581E008958091450480FF0CC087
:103390006091280170E07595679575956795611541
:1033A000710549F1862F089581FF06C060912801BB
:1033B00070E075956795F3CF6091280182FD0BC091
:1033C000909143049923A1F06091270180912801F5
:1033D000961738F0682F70E06038710500F38FE7BA
:1033E0000895899FC001112470E00E949532F4CFA6
:1033F00061E070E0D7CF81E008958D3C31F40E9408
:10340000861981958093490408958E3C19F40E9491
:103410008619F8CF8F3C31F40E94861981958093EC
:1034200048040895803D19F40E948619F8CF893D1B
:1034300029F40E94C41980934A0408958A3D21F416
:103440000E94C4198195F7CF8B3D31F40E94C419B5
:10345000819580934B0408958C3D19F40E94C41902
:10346000F8CF9FE2980F983070F4815D990B21E0BE
:1034700030E001C0220F8A95EAF780914704822B41
:103480008093470408958D3D31F480914504816017
:103490008093450408958E3D21F480914504826017
:1034A000F7CF8F3DB9F7809145048460F1CF40910B
:1034B00048048D3C59F48091490487FF0DC0109257
:1034C000490441110BC01092440408C08E3C81F4A1
:1034D0008091490418169CF3442381F080914A049A
:1034E00090914B04892B09F05AC01092430408951F
:1034F0008F3C49F447FFF0CF109248048091490473
:103500008111ECCFE0CF803D19F41416ACF3E4CF79
:1035100090914A04893D29F41916F4F610924A0450
:10352000DBCF8A3D19F497FFD7CFF8CF90914B04AA
:103530008B3D29F497FFD0CF10924B04CDCF8C3D1B
:1035400019F41916CCF3C8CF9FE2980F983090F475
:10355000815D990B21E030E0B90102C0660F771F51
:103560008A95E2F7CB018095909147048923809357
:103570004704B2CF8D3D31F4809145048E7F809316
:103580004504AACF8E3D21F4809145048D7FF7CF6D
:103590008F3D09F0A1CF809145048B7FF0CF089536
:1035A0000E94882B9C019091480480914904982B9B
:1035B00021F0309342042093410490914A04809179
:1035C0004B04982B21F03093400420933F0486E471
:1035D00094E00E94BF29089586E0E6E4F4E0DF016C
:1035E0001D928A95E9F710924404109243041092B8
:1035F00045040895FC01828181110EC083818111EF
:103600000BC08481811108C091E08581811101C0C6
:1036100090E0892F8170089581E0FCCFA6E0B0E0B2
:10362000E4E1FBE10C94113386E0E6E4F4E0DE0132
:10363000119601900D928A95E1F71092480410922C
:10364000490410924A0410924B048B819C81892B6F
:1036500089F080914104909142040E94A02BAC011A
:10366000909144049923C9F180912D018417150686
:1036700008F440C08D819E81892B91F080913F0498
:10368000909140040E94A02BAC0190914304992397
:1036900009F471C0809129018417150608F479C0D6
:1036A000BE016F5F7F4F86E494E00E94D92A8111AA
:1036B00005C086E494E00E94FA1A81110E94D01A93
:1036C00086E0FE013196A6E4B4E001900D928A9561
:1036D000E1F72696E3E00C942D3320912E018AE049
:1036E000289F900111242417350720F69F5F90939F
:1036F000440402C09F3FD1F71B81112359F00E945F
:1037000086199FEF11160CF491E0899F802D1124EA
:10371000809348041C81112359F00E9486199FEF61
:1037200011160CF491E0899F802D11248093490497
:1037300030914804332309F49DCF2091490422237A
:1037400009F498CF45EB3403C0011124992359F0B3
:103750009093480445EB240390011124332339F05E
:103760003093490487CF81E080934804F3CF81E010
:10377000809349047FCF20912A018AE0289F9001FD
:1037800011242417350708F08BCF9F5F90934304D3
:1037900002C09F3FD1F71D81112359F00E94C41927
:1037A0009FEF11160CF491E0899F802D11248093D6
:1037B0004A041E81112359F00E94C4199FEF11166B
:1037C0000CF491E0899F802D112480934B0430915B
:1037D0004A04332309F464CF20914B04222309F4D3
:1037E0005FCF45EB3403C0011124992359F0909326
:1037F0004A0445EB240390011124332339F030931C
:103800004B044ECF81E080934A04F3CF81E0809354
:103810004B0446CFEF92FF920F931F93CF93DF930A
:10382000EB01E82FD1110EC0442321F0F0E0EA555E
:10383000FC4FE4916E2F7E2F8E2FCDB7DEB7E6E0E2
:103840000C942A330D2F10E0282F30E0442329F068
:103850002A553C4FF901249130E0F6E0CF9FC0019A
:103860001124EFEFF0E0BF010E948132AB018C2FF9
:1038700090E0880F991FA5E5A49FB001A59F700D4A
:103880001124861B970B982F990F980FBF01601B6F
:10389000710B629FD001639FB00D729FB00D112418
:1038A0008B2F9D9FB0011124672F7727EF01C61B37
:1038B000D70BBE01629FE001639FD00D729FD00DB8
:1038C00011247F01E91AF108E09EB001E19E700D1C
:1038D000F09E700D1124672F7727E61BF70BE29FF0
:1038E0008001E39F100DF29F100D1124E12F722F24
:1038F0004230510599F048F44115510569F04130C5
:10390000510581F0EB2F8D2F07C04430510569F030
:1039100080F046305105B1F76E2F8FCFE22F7B2F0D
:10392000812FFACFE22F7D2FF7CFEB2F822F712F30
:10393000F3CF7B2F822FED2FEFCF41E00E940A1CA7
:1039400008950895E2E3F1E08083618308950E9481
:103950009D1C0895CF93DF93762FE901682F842F64
:103960000E94A71C798368838A83DF91CF91089591
:10397000453B08F044EB0E94AA1C08958091E9049D
:10398000982F9E7F61F4817082608093E90480911A
:10399000EC04853B18F084EB8093EC0408958635A5
:1039A000B0F381708465F1CF88E090E00E94C93364
:1039B0000895CF92DF92EF92FF926B017C010E94FB
:1039C000BE1CB701A60188E090E00E94E733FF909B
:1039D000EF90DF90CF900895E9EEF4E083E08083EC
:1039E00011828FEF828384EB83831482AAE9B4E08F
:1039F00012968C911297836012968C9360817181DC
:103A0000828193810E94D91C08958091E90480FFEE
:103A100002C08695089580E008959091ED0493305A
:103A200018F49F5F9093ED04882351F06091E904AE
:103A30007091EA048091EB049091EC040E94D91CEF
:103A4000089581E00E940D1D08959091ED04992341
:103A500019F091509093ED04882351F06091E9049E
:103A60007091EA048091EB049091EC040E94D91CBF
:103A7000089581E00E94251D089521E030E001C0F5
:103A8000220F8A95EAF790919D04922381E009F430
:103A900080E0089570E00E9414250895A5E0B0E04C
:103AA000E4E5FDE10C940633709033019091E90454
:103AB00090FF16C0C0908F04D0909004C114D10420
:103AC00009F58091320133E0839FC0011124672DF5
:103AD00082519B4F0E944A1D2596EEE00C942233A2
:103AE000809134012091350133E0839FF00111244E
:103AF000E251FB4F8217F0F61182108212828F5F23
:103B00003396F8CF90FFDDCFF12CE12C43E0642E0B
:103B10008E2D0E943D1D882309F43BC0F701EE0F56
:103B2000FF1FEC0DFD1DA590B490A114B10449F246
:103B300045E050E0B501CE0101960E949533098120
:103B40000F3F39F18A81800F9927991F8D30910598
:103B500014F08CE090E04C01880C991C880D991DA4
:103B60009C0122513B4F4901069D800111240251C5
:103B70001B4F0815190520F035E0A30EB11CD8CF56
:103B800098014D816C818B810E94B81C0D5F1F4F85
:103B9000F0CF8FEFE81AF80A23E0E216F10409F0FB
:103BA000B7CF8FCF9091E90490FF0EC09091340170
:103BB0002091350133E0939FF0011124E251FB4F36
:103BC000921718F00E944E1D0895818360834283EE
:103BD0009F5F3396F5CFA3E0B0E0E1EFFDE10C94F9
:103BE00012339091E90490FF0AC09E012F5F3F4F6E
:103BF0000E94B81C4B8169818A810E94D21D239644
:103C0000E2E00C942E33CF93DF93EC01EC81F0E0F3
:103C1000EF55FD4F4491E9EEF4E0628181810E940D
:103C2000EB1D8C818F5F8C83DF91CF910895CF93B3
:103C3000DF93EC01E9EEF4E0438162818C810E9424
:103C4000EB1D8C818F5F8C83DF91CF910895A3E072
:103C5000B0E0EDE2FEE10C9410338C0180914C0455
:103C600081110AC09E012F5F3F4F44EB6FEF0E940E
:103C7000B81C8A8180934C04F8016481613069F03A
:103C800080914C0440E0662361F040E0623011F422
:103C900040914C0480E060E004C060914C0440E03E
:103CA00080E00E94D21DF801848190E0019663E0DB
:103CB00070E00E94953284832396E4E00C942C33C8
:103CC000A3E0B0E0E6E6FEE10C940B33082FD62E1D
:103CD000F42EC22E9091E90490FF3CC02091EA049A
:103CE000281308C08091EB04861304C08091EC0473
:103CF000841729F080919C04826080939C04E92FB2
:103D0000E695AE2FB0E0A25FBC4F8C9180939A04F1
:103D10009E7F923019F59E012F5F3F4F4F2D6D2DE5
:103D2000802F0E94B81C4B8169818A810E94D21D1C
:103D30000093EA04D092EB04F092EC04CC2051F012
:103D40006091E9047091EA048091EB049091EC0495
:103D50000E94D91C2396E9E00C942733823019F491
:103D6000F090EC04E5CF8630A1F1893091F18931F2
:103D7000F9F6E9516E2F6170B62EE695F0E0EF5539
:103D8000FC4F1491E12C60913601E61618F00E9468
:103D90004E1DCECFE19EC001112470E00E94813201
:103DA000802FB11014C0860F20913401622F6E0D48
:103DB0007727771F9B01220F331F260F371F2251B2
:103DC0003B4F4F2D6D2D0E94B81CE394DCCF861B1A
:103DD000EBCF022FADCFE9EEF4E09181282F4381A4
:103DE000628189EA890F0E94601E089581E00E9425
:103DF000EB1E0895E9EEF4E09181282F4381628162
:103E000087E5890F0E94601E089581E00E94FA1ED6
:103E10000895E9EEF4E0628121E1620F08F46FEFAA
:103E2000282F438181810E94601E089581E00E94B5
:103E3000091F0895E9EEF4E0628121E1621B08F4B4
:103E400060E0282F438181810E94601E089581E0F7
:103E50000E941A1F0895E9EEF4E0438121E1420F28
:103E600008F44FEF282F628181810E94601E08951F
:103E700081E00E942B1F0895E9EEF4E0438121E1E7
:103E8000421B08F440E0282F628181810E94601E5D
:103E9000089581E00E943C1F089520E00E94601E6A
:103EA00008959091E90490FF0FC02C3068F430E041
:103EB000F901EE0FFF1FE20FF31FE251FB4F818369
:103EC000608342830E944E1D0895EF92FF921F93DC
:103ED000CF93DF93EC0110E0EE24EA94F12C609193
:103EE0003601161770F00E944E1D9A818C8190FF4A
:103EF00027C08F5F8C83DF91CF911F91FF90EF9050
:103F0000089520913401422F410F5527551FCA01B2
:103F10009A01220F331F280F391F22513B4F70E0A7
:103F2000C7010E949532962F8C814091EC046091DC
:103F3000EB04199F800D11240E94B81C1F5FCFCF86
:103F40008150D8CFB0E0A0E0E8EAFFE10C9408335C
:103F5000EC018A81BB24BA9480FD02C0BB24B394D7
:103F60008C8181110AC081E0B81222C08091360193
:103F7000815080934E0481E08C83A12C4CE0942EE0
:103F800080913601A816B8F00E944E1D80914E0413
:103F900091E0B91259C0811152C08091360181500F
:103FA00080934E041C82CDB7DEB7ECE00C94243332
:103FB00010924E04E0CF00913401CA2CD12C0C0D8C
:103FC0001D2D111DC801880F991F080F191F0251BF
:103FD0001B4FF80111821082128234E0E32EF12C83
:103FE000812C80914E04880D8D301CF1692D0E942A
:103FF0007332892F082E000C990BC816D90691F43C
:104000008091EC048E9DA0018F9D500D112455953B
:1040100047955595479598016091EB048091EA0486
:104020000E94B81C8B0CF1E0EF1AF108D1F6A394B2
:10403000A7CF87FFDFCF90913601890FDBCF81506B
:1040400080934E04BC82AFCF90E001966091360120
:1040500070E00E94953280934E048C83A4CFEF923F
:10406000FF920F931F93CF93DF93EC018C8181110B
:1040700009C081E08C8310924D0492E0909331014D
:1040800080933001809134019091350123E0829F2B
:10409000F0011124E251FB4F891758F110E003E0C1
:1040A00060913601161758F10E944E1D8091300123
:1040B00020914D04280F20934D0490913101980FC9
:1040C00090933101191654F4022E000C330B4091D9
:1040D00036014150550B2417350734F081958093F4
:1040E0003001813009F41C82CDB7DEB7E6E00C94D4
:1040F0002A331182108212828F5F3396CDCFE12E48
:10410000F12C70E0C7010E94953220913401820F9A
:10411000482F50E020914D04022E000C330BE21684
:10412000F306BCF020913101022E000C330B2E154A
:104130003F057CF0809F9001112422513B4F40911C
:10414000EC046091EB048091EA040E94B81C1F5FAC
:10415000A7CFFA01EE0FFF1FE40FF51FE251FB4F4F
:10416000118210821282F3CFB0E0A0E0EAEBF0E21D
:104170000C940833EC014C81042F10E09801D80115
:104180000E94D9329B01AC010E94EF324B015C01CD
:10419000E0E2F0E0E01BF10BA5E5B0E0AC019B0133
:1041A0000E94EF326B017C019F01DF010E94D1323E
:1041B0009B01AC010E94FA329B01AC01280D391D14
:1041C0004A1D5B1DC701B6010E94A932F22E822F43
:1041D00090E039E23F1520F143E0249F9001112443
:1041E00035952795122F109500E085E5E82EEF18FC
:1041F00080913601081718F10E944E1D9C8181E0C4
:10420000992319F0903219F48FEF80932F01809148
:104210002F01890F8C83CDB7DEB7ECE00C942433EB
:1042200025E530E0B901681B790B9B01220F331F94
:10423000260F371F37FFD4CF2F5F3F4FD1CF8E2DA3
:1042400001FD8F2D20913401622F600F7727771F9A
:104250009B01220F331F260F371F22513B4F412F47
:104260006091EB040E94B81C0F5FC2CF0F931F93A5
:10427000CF93DF93EC0110E000E0909136019017AE
:10428000110609F06CF40E944E1D8C8190E001969D
:10429000817099278C83DF91CF911F910F910895A1
:1042A00020913401A801420F511D9A01220F331FA2
:1042B000240F351F22513B4F4C816091EB048091BC
:1042C000EA0496959017110651F04CF0442349F0FA
:1042D0004091EC040E94B81C0F5F1F4FCECF4423C7
:1042E000B9F340E0F7CFB0E0A0E0E9E7F1E20C94E9
:1042F0000433FC016280448081E08483E1EAF2E0DF
:104300007490E0E2F3E0E491812C75E0972EF2E006
:10431000CF2EDD24D394AA24AA94B12C55245A94E8
:10432000E7190E2F10E080913601881638F00E94B0
:104330004E1DCDB7DEB7E0E10C942033E82CF12C14
:1043400082E0861568F09E9CF0019F9CF00D112480
:10435000EE5AFB4F8091EA0480838091EB048183C5
:10436000411023C09E9CF0019F9CF00D1124EE5A39
:10437000FB4F1382128220913401C701820F911DDD
:104380009C01220F331F280F391F22513B4F9E9C47
:10439000F0019F9CF00D1124EE5AFB4F4281618188
:1043A00080810E94B81C8394BECF9E9CE0019F9C9C
:1043B000D00D1124CE5ADB4F8B818823E9F0815038
:1043C0008B83859DC00111246C8170E00E94813235
:1043D000FB01FF27EF55FD4F8491E82FE719E59D7D
:1043E000C0011124B8010E9481328091EC04689FC1
:1043F000B00111247A83BFCF0E9485332091EC0451
:10440000269521582C9DA0012D9D500D1124452F3E
:104410005527841795070CF0AECF82E0861588F4F7
:104420000E948533B5010E94953288830E948533AE
:104430002091EB042695622F70E00E949532280FA0
:1044400029839E9CF0019F9CF00D1124EE5AFB4F96
:1044500012828091EC04893C58F088EC9E9CF0011B
:104460009F9CF00D1124EE5AFB4F8483838383CFEE
:104470008431A0F784E1F2CF10929C04089525E0E6
:10448000E9EEF4E0DC0101900D922A95E1F740910C
:104490009A0450919B0460919C0470919D04FC01CE
:1044A00045835683678370870895EAE9F4E01182B3
:1044B0008281846082830895E9EEF4E080818E7FBA
:1044C00080830E945522EAE9F4E082818160828340
:1044D0000E944E1D08950E945522809198048111DA
:1044E0000AC081E0809398048091E90481708093F0
:1044F00097040E945C220895E9EEF4E080818E7FAB
:10450000808360817181828193810E94D91C0E9485
:104510005522EAE9F4E08281816082830E944E1D87
:1045200008956091E904669570E04BE050E087E300
:1045300091E00E949E33892B19F481E080939B04C3
:104540000E941C15909392048093910480919C0486
:10455000846080939C0408959091E90490FF30C09A
:10456000917081112EC092609093E90480919C0417
:10457000816080939C04662351F06091E9047091FE
:10458000EA048091EB049091EC040E94D91C6091A4
:10459000E904669570E04BE050E087E391E00E940B
:1045A0009E33892BA9F00E94552281E080939404C8
:1045B0004091EC046091EB048091EA040E944D1F4D
:1045C00008958B3210F09465CFCF880F982BCCCF05
:1045D0000E949122EACF682F9091E904969581E09C
:1045E000890F8B3208F081E00E94AC22089581E0AF
:1045F0000E94EB220895682F9091E90496958FEF21
:10460000890F09F48AE20E94AC22089581E00E9499
:10461000FB22089561E00E94AC220895E9EEF4E0E7
:1046200080818160808386950E940A23089580910D
:10463000E90480FF03C00E947C2208950E940E239B
:10464000089560E00E94AC22089580919904811140
:1046500033C00E949711811104C00E9426120E944B
:10466000EC1C0E94D41C6093E9047093EA048093CC
:10467000EB049093EC0480919C04836080939C04F1
:104680006E7F61F40E94EC1C0E94D41C6093E904CC
:104690007093EA048093EB049093EC040E94BE1C98
:1046A0000E9455228091E90480FF03C086950E94F4
:1046B000212381E0809399040895E9EEF4E080815C
:1046C0008160808386950E9421230895109298042A
:1046D0008091970481110E945D230E949122089588
:1046E0001F93CF93DF93EC01162F8F8184FF03C0BC
:1046F000988590939D0480FF0DC0888180FF25C020
:104700008091E90481608093E9048881612F869516
:104710000E94AC228F8181FF06C0212F4B816A81CC
:1047200089810E94601E8F8182FF05C08E8188234F
:1047300079F00E9491228F8183FF03C081E08093F2
:104740009404DF91CF911F9108950E945C22E2CFE3
:104750000E945522F0CFEF92FF920F931F93CF93B9
:10476000DF9380919B04882309F463C080919A04AD
:10477000E091E904E695E81BE0939304823009F0A8
:104780006CC0F0E0E356FD4FE491CE2FD0E003E0A3
:104790001EE180919404882361F0109294040E9499
:1047A0001C15909392048093910410929604109299
:1047B00095040E941C15E0919104F09192049C01D3
:1047C0002E1B3F0B2F3F3F47A0F520915104222382
:1047D000B1F01092510420914F0430915004821B8B
:1047E000930B8F3F9F4758F4205D3A483093500415
:1047F00020934F0480919C04886080939C04E090F7
:104800009504F0909604EC0FFD1FF0939204E09352
:10481000910481E994E0F8010995809195049091C3
:104820009604892B31F4E114F10419F081E08093AE
:10483000510480918E04882359F010928E04809147
:104840009B04811105C08091E90486950E94212373
:10485000CDB7DEB7E6E00C942A33863049F4F0E0B9
:10486000E656FD4FE491CE2FD0E007E11EE191CF57
:10487000893051F4E695F0E0E956FD4FE491CE2FF2
:10488000D0E005E61FE185CF8F3051F4E695F0E0EA
:10489000EC56FD4FE491CE2FD0E002EA1FE179CF34
:1048A000853149F4F0E0EF56FD4FE491CE2FD0E092
:1048B0000FE210E26ECFC8E2D0E004EB10E28831E4
:1048C00009F467CF833239F4EFE8F2E0C591D4916F
:1048D00007E21EE15ECFC4EFD1E006E311E28432CD
:1048E00009F457CFC0EDD7E001EA1CE1853209F0A9
:1048F00050CF8E2F63E00E946732E92FF0E0E4573B
:10490000FD4FE491CE2FD0E003E711E242CFFA0150
:10491000811101C0FB0109950895CF93DF93C82F42
:10492000D62F0E94051D8C1748F00E94051D8D177B
:1049300028F40E94F722DF91CF9108958C2F0E94D6
:104940000A23F9CF1F93CF93DF93EC01FB01128170
:10495000111110C00E94A9108272FE01E052F847A6
:10496000E531F10508F05EC0E454FB4C0C94CB3209
:104970000E941723812FDF91CF911F91089546E068
:1049800053E267EF72E20E948724F4CF47EF52E2CE
:1049900066E073E2F8CF45E05FE166EF7EE1F3CFDA
:1049A00046EF5EE165E07FE1EECF47E25FE166E181
:1049B0007FE1E9CF46E15FE167E27FE1E4CF49E4EF
:1049C0005FE168E37FE1DFCF48E35FE169E47FE136
:1049D000DACF49E35DE161E27DE1D5CF41E25DE11E
:1049E00069E37DE1D0CF81E00E940A23C3CF65E077
:1049F00082E00E948D24BECF68E086E0FACF6EE0B0
:104A000089E0F7CF64E18FE0F4CF67E185E1F1CF92
:104A100088E1EACF62E289E1ECCF83E2E5CF6AE2A6
:104A200085E2E7CF11E0A6CF539A4BB1477F5BB148
:104A30005860EFB7F8949B01220F331F260F371FE2
:104A4000280F391F2817390741F4EFBF8FE594E08D
:104A50000197F1F700C000000895DC016D91CD01D0
:104A600078E05BB9000000C067FF4BB9660F00003B
:104A700000C000C000C04BB900C07A9591F7E2CFEA
:104A80000895FC01680F791F8FEF91E36E177F0780
:104A900009F408952191822728E030E087FF06C0BD
:104AA000880F892721503109C9F7F0CF880FFACF35
:104AB000CF93DF93EC01FB018281882309F4D2C0FC
:104AC0009E0130572332310508F0B2C00E94AC116C
:104AD0009093D2048093D104FE01E150F047E2327A
:104AE000F10520F4EF52FB4C0C94CB328091D104B1
:104AF00081608093D10493C08091D20488608093B8
:104B0000D2048DC08091D1048260F3CF8091D10412
:104B10008460EFCF8091D1048860EBCF8091D20484
:104B20008160EDCF8091D2048260E9CF8091D10481
:104B30008061DFCF8091D1048062DBCF8091D1048E
:104B40008064D7CF0E94320C8091D1048068D1CF8D
:104B50008091D1048C60CDCF8091D2048360CFCF7F
:104B60008091D1048E7FC5CF8091D204877FC7CF3B
:104B70008091D1048D7FBDCF8091D1048B7FB9CF3F
:104B80008091D104877FB5CF8091D2048E7FB7CF3B
:104B90008091D2048D7FB3CF8091D1048F7EA9CF35
:104BA0008091D1048F7DA5CF8091D1048F7BA1CF3F
:104BB0000E94320C8091D1048F779BCF8091D104D9
:104BC000837F97CF8091D2048C7F99CF8091D1043D
:104BD00082FB992790F921E0922790FB82F990FBC4
:104BE00083F987CF8091D204982F909591708E7F12
:104BF000892B90FB81F983CF9091D104892F8F7BF2
:104C000096FF806476CF0E94320C9091D104892F58
:104C100097FB87F980586DCF81E00E94291280911F
:104C2000D1049091D2040E94B1110E94320C80E014
:104C3000DF91CF91089580E0F0CF9091D104892F3A
:104C40008F7E94FF806155CF9091D104892F8E7F04
:104C500090FF81604ECF9091D204892F877F93FF80
:104C600088604DCF81E0E4CFB0E0A0E0EAE3F6E277
:104C70000C940D33E82FF0E0EA55FB4FD490282F29
:104C800026952695269530E0F901EA5BFA4F0491C6
:104C9000877010E0082E02C0159507950A94E2F778
:104CA00001701127F901EA5CFA4FE490F12C082E0B
:104CB00002C0F594E7940A94E2F791E0E922FF2418
:104CC000F901EA5DFA4FC491D0E002C0D595C795CD
:104CD0008A95E2F7C170DD270115110519F081EE03
:104CE0000E94C808E114F10419F086EE0E94C80879
:104CF0008D2D0E94CC09E114F10419F086EE0E947A
:104D00005A090115110519F081EE0E945A09CD2B9F
:104D100019F08CE20E94CC09CDB7DEB7E7E00C9425
:104D20002933EF92FF920F931F93CF93DF93EC0100
:104D3000162F0AE08881882309F454C0813009F0D5
:104D40004EC08981813099F47E0122E0E20EF11C8F
:104D50008A810E94CC09E7012196812F815050F36E
:104D6000EFE9FFE03197F1F700C00000F7CF8230A4
:104D700041F47E0182E0E80EF11C8A810E94C8089D
:104D8000EACF833041F47E01E2E0EE0EF11C8A812D
:104D90000E945A09E0CF843011F02196DDCF2A819C
:104DA000229690E080E0AE014F5F5F4F2053330BBF
:104DB0002A30310548F0019778F2EFE9FFE03197AA
:104DC000F1F700C00000F7CF089FB001099F700DF8
:104DD0001124C901860F971F2981EA01E4CF0E949F
:104DE0003426BACFCDB7DEB7E6E00C942A3360E0C4
:104DF0000E9491260895CF93DF93EB0186319C4763
:104E000011F50E94A9109A81992399F08A7A91E06C
:104E100009F490E090939E04811109C089E20E94F8
:104E200081100E94EA1080E0DF91CF91089585E320
:104E3000F6CF80919E04811104C089E20E948910FE
:104E4000F0CF85E3FBCF81E0EFCF0F931F93CF939C
:104E5000DF93C42FD22FFC0182818823C9F04093B5
:104E6000A1040E94882B9093A00480939F0480E269
:104E70008C0F883040F4C77081E001C0880FCA955C
:104E8000EAF70E94D509DF91CF911F910F91089504
:104E90001091A104141332C080919F049091A0043A
:104EA0000E94A02B883C910548F5C0E2CD0F1D174C
:104EB000B9F080E2810F883040F4177081E001C0C2
:104EC000880F1A95EAF70E94DC09C83048F481E09F
:104ED0009D2F977001C0880F9A95EAF70E94D50917
:104EE000802F0E94CC09C83070F6D77081E001C0D5
:104EF000880FDA95EAF70E94DC09C5CF80E28C0FB3
:104F0000883008F6C77081E001C0880FCA95EAF7BB
:104F1000F2CF0F93DB0188519C4787309105A0F5B4
:104F2000FC01ED50FB4C0C94CB3206E221EE41EE3D
:104F30006AE17CE7CD010E94252780E00F9108956A
:104F400007E225EE45EE6BE17CE7F4CF06E221EEC9
:104F500040EE68E17CE7EECF07E225EE44EE69E142
:104F60007CE7E8CF06E221EE42EE6CE17CE7E2CF9F
:104F700007E225EE46EE6DE17CE7DCCF08E221E0BA
:104F800045EE6EE17CE7D6CF12968C91882319F01E
:104F90001092A104D3CF81E0D1CF8EE1489B02C013
:104FA0008150E1F7489BFECF0895589880E28A959A
:104FB000F1F7589A0895FC013BE03A95F1F798E033
:104FC00020E080E031E040E14A95F1F7880F489B0E
:104FD00002C08160232742E04A95F1F7000040E1DA
:104FE0004A95F1F7915079F790E19A95F1F799B1D7
:104FF00032E03A95F1F7000040E14A95F1F79170FF
:1050000092272081920F90830895A1E0B0E0EBE019
:10501000F8E20C940E3319828C017C01E60EF11C2F
:105020000E151F0541F481E09981911180E02196D0
:10503000E6E00C942A330E94CD27CE0101960E940F
:10504000DB27F80181938F01EBCF509A589A08958E
:105050005098589AE89AE9E6F0E080818C7F808346
:1050600008956150770B91E001C0990F6A95EAF7B6
:1050700020E031E0911108C0222391F0589A80E29B
:105080008A95F1F758980895492F482339F0589A8E
:10509000232740E24A95F1F79695ECCF5898F9CF3F
:1050A0005898EDCFFF920F931F93CF93DF93EC01AE
:1050B0008C01060F111DC017D10729F4CDB7DEB73B
:1050C000E5E00C942B33F9900E94D52768E08F2DF2
:1050D0000E943128F0CF1F920F920FB60F92112429
:1050E0000F931F932F933F934F935F936F937F93F0
:1050F0008F939F93AF93BF93EF93FF93CF93DF93E0
:105100000F92CDB7DEB719820E94CD27CE0101964E
:105110000E94DB27082F069506950695282F2295D5
:105120002570902F9570290F922F937026952695B4
:10513000920F982797708981982B09F05CC00530F1
:1051400008F059C080E18A95F1F7589A509A82E0A8
:105150008A95F1F700C0589888E0089F80011124D3
:10516000D801A95FBE4F1696ED91FC911797309725
:10517000A9F060910C0370910D0314962D913C9150
:105180001597260F371F11968D919C911297680FD6
:10519000791F13964C9113978C910995F801E95F4B
:1051A000FE4F6381662351F020910C0330910D0373
:1051B00084819581820F931F0E9452280E94D527D7
:1051C00080E18A95F1F758985098589A80E18A952D
:1051D000F1F7F801E95FFE4F6081662351F02091FD
:1051E0000C0330910D0381819281820F931F0E94E5
:1051F00005280E94CD270F90DF91CF91FF91EF916D
:10520000BF91AF919F918F917F916F915F914F91DE
:105210003F912F911F910F910F900FBE0F901F90F4
:1052200018950F931F93CF93DF93EC0105970CF024
:105230004CC0F894509A589885E08A95F1F7000090
:105240009C2F969595708C2F8570980F892F837061
:105250009695969523E0CC0FDD1F2A95E1F7980FE0
:105260008E01092B0E94D52700C068E0802F0E9484
:10527000312880E18A95F1F75098589A489B1EC0D2
:1052800087E090E048991CC0FE01E95FFE4F638112
:105290006623F9F020910C0330910D0384819581F0
:1052A000820F931F0E940528811113C0509A589AAB
:1052B0007894DF91CF911F910F91089500C0DECFB8
:1052C000019729F4509A589A789480E0F2CF00C060
:1052D000D9CF0E94CD2780E28A95F1F75898509A4D
:1052E00080E18A95F1F7C95FDE4F6881662351F04E
:1052F00020910C0330910D0389819A81820F931FB5
:105300000E9452280E94D527789481E0D2CF9093B2
:105310003B0380933A0308959093A8048093A704D5
:1053200008950E940C17811103C08091A204089572
:10533000E091A704F091A804309729F00190F08142
:10534000E02D0995089580E00895E091A704F0917B
:10535000A804309799F020914A01222359F0209116
:10536000D10427FF07C0DC012C9111962C931197D3
:1053700026E02C930280F381E02D09950895E091B9
:10538000A704F091A804309739F022E0DC012C93B7
:105390000480F581E02D09950895A3E0B0E0E3EDE8
:1053A000F9E20C9412332091A5043091A604281739
:1053B0003907A1F09093A6048093A504E091A70477
:1053C000F091A804309751F023E029839B838A83CE
:1053D0000680F781E02DCE01019609952396E2E043
:1053E0000C942E33A3E0B0E0E8EFF9E20C94123312
:1053F0002091A3043091A40428173907A1F09093B9
:10540000A4048093A304E091A704F091A80430972A
:1054100051F024E029839B838A830680F781E02D65
:10542000CE01019609952396E2E00C942E33FC01FF
:10543000329680914A01882321F08091D1049EE127
:1054400087FF96E080E0915008F40895219122238F
:10545000D1F38F5FF8CF662301F120914A01222317
:10546000F1F02091D10427FF1AC0462F46954695AA
:1054700046954E3190F4677021E030E002C0220F73
:10548000331F6A95E2F7840F911DFC01828190E041
:105490002823392381E0232B69F480E00895FC015F
:1054A000329608962191261721F0E817F907D1F7CF
:1054B000F4CF81E008959C01FC0132969FEF80E0DB
:1054C0004191461751F09F3F19F4411101C0982FA7
:1054D0008F5F8630A9F79F3F09F40895290F311D8A
:1054E00097FD3A95F90162830895FC01329608967A
:1054F0002191261303C0DF0111971C92E817F907C9
:10550000B9F70895E62FE695E695E695EE3168F44D
:10551000E80FF92FF11D677021E030E001C0220F84
:105520006A95EAF78281822B82830895E62FE695B9
:10553000E695E695EE3170F4E80FF92FF11D6770EE
:1055400021E030E001C0220F6A95EAF720958281C0
:1055500028232283089520914A01222339F02091A3
:10556000D10427FF03C00E94822A08950E945B2A6B
:10557000089520914A01222339F02091D10427FF78
:1055800003C00E94962A08950E94752A0895FC017E
:10559000329680914A01882351F08091D10487FF8F
:1055A00006C08EE1DF011D928A95E9F7089586E035
:1055B000F9CF46E050E00E94AB3321E0892B09F49B
:1055C00020E0822F089508950E94E32A0895811112
:1055D00006C081E08093A9040E94E42A089582E035
:1055E000F9CF83E08093A9040E94E42A08950E94E1
:1055F000E72A089581E08093A9040E94E42A08958F
:105600000E94FA2A0895089508950E94042B08958F
:10561000089508950E94032B0895CF930E94082BAC
:105620000E948B160E94092BC0E08C2F0E946815E7
:10563000811105C0CF5FCA30C1F7CF91089581E0D5
:10564000FCCF85B7806885BF85B7806885BF089522
:105650001F921FB61F9211248F939F93AF93BF93F6
:105660008091AA04811113C08091120590911305B5
:10567000A0911405B09115054196A11DB11D80930F
:10568000120590931305A0931405B0931505BF91CF
:10569000AF919F918F911F901FBE1F901895809181
:1056A0001A05843031F10E9433081092AA0488E16F
:1056B00090E020E40FB6F894A895809360000FBEA8
:1056C0002093600083B7817F846083BF83B781604C
:1056D00083BF7894889583B78E7F83BF0FB6F89485
:1056E000A8958091600088618093600010926000AE
:1056F0000FBE08950E94320C0E943A08089582E07D
:1057000084BD93E095BD9AEF97BD80936E00089598
:105710002FB7F8948091120590911305A09114056C
:10572000B09115052FBF08952FB7F8946091120519
:105730007091130580911405909115052FBF089560
:105740009C014FB7F8948091120590911305A09198
:105750001405B09115054FBF821B930B0895CF928E
:10576000DF92EF92FF922FB7F894C0901205D0907D
:105770001305E0901405F09015052FBFA7019601C1
:10578000261B370B480B590BCA01B901FF90EF904C
:10579000DF90CF90089578941F921FB61F92112426
:1057A0008F939F93AF93BF938091120590911305B0
:1057B000A0911405B09115050196A11DB11D80930E
:1057C000120590931305A0931405B0931505BF918E
:1057D000AF919F918F911F901FBE1F90189587E7E3
:1057E00097E7909301088093000888E19AE00FB64C
:1057F000F894A895809360000FBE90936000FFCF4F
:1058000088E19AE00FB6F894A895809360000FBEE7
:1058100090936000FFCF8091CB0408959B01BA0163
:1058200090911A059430E9F48F708093E9009FEF0E
:105830008091E800915085FD06C085ED8A95F1F7CD
:1058400000009111F5CF8091E80085FF0AC050E07B
:1058500040E0C9010E94152E8091E8008E77809368
:10586000E800089543E050E0BC0182E00E940E2C65
:10587000089546E050E0BC0182E00E940E2C08959D
:10588000CF93DF93EC0180914A01811111C048E070
:1058900050E0BE0181E00E940E2C80E2FE01ABEAE6
:1058A000B4E001900D928A95E1F7DF91CF910895D0
:1058B0008091D10487FF05C040E282E050E0BE0144
:1058C000EACF48E081E0FACF80911905811109C043
:1058D0000E94A72F0E9404308091E2008460809390
:1058E000E20008951092190508950E94FA2A089579
:1058F0006091160581E0611101C080E00E94F12AEB
:10590000089590911A0581E0943009F080E060914B
:1059100016050E94F72A089542E061EC81E00E949A
:10592000232F42E261EC82E00E94232F90911A051E
:1059300081E0943009F080E0609116050E94E72A2A
:10594000089580911C05833009F461C030F48130E2
:10595000D1F1823009F49EC008958A3009F48AC0DA
:105960008B3009F46FC0893009F050C080911B055D
:10597000813209F04BC080911F059091200502975C
:1059800008F044C08091E800877F8093E800809110
:10599000E80082FF37C09091F3008091F2000297F7
:1059A00031F48091F100813011F0863021F4809142
:1059B000F1008093CB048091E8008B778093E8001E
:1059C0000E94572F23C080911B05813AF9F48091E2
:1059D000E800877F8093E80080911F059091200563
:1059E000892B61F460E28BEA94E070E00E94662EFD
:1059F0008091E8008B778093E800089560E090E064
:105A000080E0F3CF80911A058111C1CF0895809174
:105A10001B05813AD9F780911F0590912005892BAC
:105A2000A9F78091E800877F8093E8008091E800E3
:105A300080FFFCCF80914A018093F1008091E800C3
:105A40008E77BCCF80911B05813201F780911F05B5
:105A500090912005892BD1F68091E800877F809373
:105A6000E8000E94572F80911D0580934A010E94F3
:105A7000320C089580911B05813241F68091E80037
:105A8000877F8093E8000E94572F80911E058093A6
:105A9000CC04089580911B05813A09F0B7CF80911D
:105AA000E800877F8093E8008091E80080FFFCCFCA
:105AB0008091CC04C1CF84B7877F84BF0FB6F894A0
:105AC000A8958091600088618093600010926000CA
:105AD0000FBE80E890E00FB6F89480936100909339
