:10000000B2C200000C946223CBC20000C9C200003F
:10001000C7C20000C5C20000C3C20000C1C20000C8
:10002000BFC20000BDC200000C94A0210C94882225
:100030000C945521B5C20000B3C20000B1C200004B
:10004000AFC200000C942E1EABC20000A9C200007B
:10005000A7C200000C947C21A3C20000A1C2000032
:100060009FC200009DC200009BC2000099C2000018
:1000700097C2000095C2000093C2000091C2000028
:100080008FC200008DC200008BC2000089C2000038
:1000900087C2000085C2000083C2000081C2000048
:1000A0007FC200007DC200007BC20000000CD5FFB3
:1000B000FFFF00000000000C6AFFFFFF00000000CF
:1000C000000C0000FFFF0000000005010906A1016F
:1000D0008506050719E029E7150025019508750132
:1000E00081020507190029EF1500250195F075011A
:1000F00081020508190129059505750191029501EF
:1001000075039101C005010906A101050719E02940
:10011000E715002501950875018102950175088193
:10012000010507190029FF150026FF00950675082F
:10013000810005081901290515002501950575019E
:100140009102950175039101C009023B0002010073
:10015000A0C80904000001030101000921110100E8
:100160000122440007058103080001090401000180
:1001700003000000092111010001223B0007058254
:10018000032000011201000200000008D804DDE68F
:10019000000101020001100367007500690064009E
:1001A00065003600380000002003530061006C0039
:1001B0006900630079006C00690063002D00610034
:1001C00063006900640033000000040309040000B8
:1001D000000000000000000000000000000000001F
:1001E000000000000000000000000000000000000F
:1001F00000007E0F00D4FFFFFFC700000078000062
:100200000000000000002A2B280000000000000071
:1002100000000000000000000029000000002C1E6B
:100220003420212224342627252E362D3738271E28
:100230001F202122232425263333362E37381F044E
:1002400005060708090A0B0C0D0E0F1011121314E6
:1002500015161718191A1B1C1D2F3130232D3504A4
:1002600005060708090A0B0C0D0E0F1011121314C6
:1002700015161718191A1B1C1D2F3130354C00018B
:100280000101010101010101020202020202020256
:100290000203030303030303030404040404040428
:1002A00005050505050606060606070707070708EC
:1002B000080808090909090A0A0A0B0B0B0C0C0C9F
:1002C0000D0D0D0E0E0E0F0F0F1010111111121239
:1002D00013131414151516161717181819191A1AB6
:1002E0001B1B1C1D1D1E1E1F202021222223242417
:1002F000252626272829292A2B2C2D2D2E2F303153
:100300003232333435363738393A3B3C3D3E3F4064
:100310004142434445464748494A4C4D4E4F50514F
:100320005354555658595A5B5D5E5F616264656609
:1003300068696B6C6D6F7072737577787A7B7D7E90
:100340008082838587888A8C8E8F91939596989AE0
:100350009C9EA0A2A3A5A7A9ABADAFB1B3B5B7BAF8
:10036000BCBEC0C2C4C6C9CBCDCFD1D4D6D8DBDDCC
:10037000DFE2E4E7E9EBEEF0F3F5F8FAFDFFC000A9
:10038000B600AC00000029001E001F002000210064
:100390002200000000002B0014001A0008001500C5
:1003A000170000000000E00004001600070009002C
:1003B0000A0000000000E1001D001B0006001900FB
:1003C0000500000000002252E300E200707E2C00D5
:1003D0000000000000002300240025002600270064
:1003E0002D002E0035001C0018000C001200130018
:1003F0002F0030002A000B000D000E000F0033000C
:100400003400280031001100100036003700380099
:10041000E4005200E5002C00717E0000E60022524C
:10042000500051004F002900407E417E427E437EB5
:10043000447E000000002B004D7E4E7E4F7E507E9D
:10044000517E00000000E000597E5A7E5B7E5C7E9B
:100450005D7E00000000E100647E657E667E677E52
:10046000687E000000002252E300E20001006E7E80
:10047000000000000000457E467E477E487E497EA3
:100480004A7E4B7E3500527E537E547E557E567E8C
:10049000577E587E2A005E7E5F7E607E617E627E31
:1004A000637E28004C7E697E6A7E6B7E6C7E6D7EEC
:1004B000E0005200E5006F7E0100000001002252C2
:1004C00001000100010035003A003B003C003D0006
:1004D0003E000000000001000100010001000100D9
:1004E0000100000000000100010001000100010006
:1004F00001000000000001004C05010001000100A6
:10050000007C000000002252010001002C00707EDF
:100510000000000000003F00400041004200430096
:100520004400450029004A004E004B004D004600A3
:10053000010048004C005000510052004F0049009B
:100540004C0028000100007C0100010001000100B6
:1005500001004B000100717E2C00000001002252BE
:100560004A004E004D0011241FBECFEFDAE0DEBF7F
:10057000CDBF12E0A0E0B1E0E0EEFBE402C00590E8
:100580000D92A03EB107D9F724E0A0EEB2E001C081
:100590001D92AD37B207E1F70E94551E0C942A2533
:1005A0002FCDE0E9F2E020E030E0408151814817B2
:1005B000590751F4220F331F220F331F20573D4F8D
:1005C000F9018281938108952F5F3F4F3496243142
:1005D000310559F78FEF9FEF08959C0191509F319E
:1005E000B8F4832F817034FF0BC08295807F31FD7A
:1005F000806232FD806433FD8068FB0109950895B7
:1006000031FD826032FD846033FFF7CF8860F5CF23
:1006100080E0F3CF80932B0490932C0408959A30BC
:1006200088F5883078F528E0929FF0011124E80FD2
:10063000F11D51E081FD54E080FD550F82FD529582
:1006400083E0F695E7958A95E1F7EE0FFF1FEE0F31
:10065000FF1FE751FC4F20E030E070E04191DF01E7
:10066000CB01022E02C0969587950A94E2F78695F3
:10067000880B8427852384278E932F5F3F4F243058
:10068000310561F708959A3068F5883058F528E00B
:10069000929FF0011124E80FF11D8770982F83E0DD
:1006A000F695E7958A95E1F7EE0FFF1FEE0FFF1F16
:1006B000E751FC4F40E050E080E0219130E0092E0E
:1006C00002C0369527950A94E2F72170042E01C0E6
:1006D000220F0A94EAF7822B4F5F5F4F4430510597
:1006E00061F7089580E00895E09134049091330417
:1006F000E91302C080E008959F0157E0E59FF001F3
:100700001124EB5CFB4F5181561306C050815813E6
:1007100003C05581541305C02F5F3F4FF901E770A7
:10072000E7CF81E0089580913404209133042813A9
:1007300001C0089501968770FACF809128049091A6
:100740003204892B909129049115C9F0892B90913D
:100750003301913021F49091300497FD11C096E05F
:1007600024EE32E040E09150F90150812F5F3F4F7D
:1007700051114F5F9111F7CF411110922904089543
:100780009EE12CEE32E0EECF8095982F80912804E8
:1007900089238093280408957A30D8F46830C8F407
:1007A0008330D0F4E72FF0E09AE0899FE00DF11D4F
:1007B000112483E0EE0FFF1F8A95E1F7E60FF11D8C
:1007C000EE0FFF1FEA57FC4F85919491282F822F3F
:1007D000089520E090E0FBCF21E0FCCF803E910522
:1007E000D1F1C8F48133910509F481C048F489320C
:1007F000910509F471C08A32910509F47FC008950A
:1008000089339105E1F082389105C9F0853391056E
:1008100009F45DC00895843E9105D1F148F4823E0B
:10082000910531F1833E910541F181EE90E008950B
:10083000863E9105C1F1873E9105F1F10895209121
:100840003004237009F064C02091310423FF14C0E8
:1008500089E290E008952091300420FD45C0309158
:10086000310430FF09C024FD24C083EE90E00895D8
:100870002091300422FDF7CF08952091300422FD0D
:1008800044C03091310430FD43C024FFF5CF11C086
:100890002091310421FFF0CF8091300484FD09C004
:1008A00087EE90E008952091300423FFE5CF24FFE8
:1008B000F7CF80E090E008952091300423FD2BC015
:1008C0003091310431FFE1CF84EE90E00895209122
:1008D000300425FFD1CFBCCF2091300425FD1EC0B0
:1008E0002091310423FFC8CF89E390E0089520913F
:1008F000300426FFC1CF8AE290E0089520913004B1
:1009000026FFBACF81E390E0089582EE90E008954B
:1009100080EE90E0089586EE90E0089585E390E003
:1009200008959091300492FF10C041E0282F247167
:10093000243009F040E031E0282F2871283009F0F8
:1009400030E0431711F02CE0822793FF10C041E004
:10095000282F2471243109F040E031E0282F28713C
:10096000283109F030E0431711F02CE08227309154
:10097000310430FF10C051E0282F2171213009F0DF
:1009800050E041E0282F2871283009F040E054174A
:1009900011F029E0822731FF10C041E0282F21719A
:1009A000213109F040E031E0282F2871283109F089
:1009B00030E0431711F029E0822794FF02C083FD45
:1009C000877E08950F931F93CF93DF9307DFEC018A
:1009D000D23508F03DC0D03508F0AEC0C83ED105D4
:1009E000F0F4C03ED10560F4C53AD10578F4C430C6
:1009F000D10530F481E0219709F080E0C82FD0E0E4
:100A0000CE01DF91CF911F910F910895CE018D5CA2
:100A10009109D0654397A0F3C0E0D0E0F1CFD03486
:100A200078F4D03208F09BC0CE0191509F31A0F7EE
:100A30008D2F77DF082F8C2F90E0D0DE902B4FC0CA
:100A40008C2F90E0CBDEDF70C82FD92BD06AD8CFA7
:100A5000C03882E5D807B8F5C03682E5D80708F077
:100A600051C0C03482E5D807C8F4C03282E5D80747
:100A700008F042C08C2F8695869520E2829FC001A7
:100A80001124C37021E030E002C0220F331FCA9549
:100A9000E2F7E901C82BD92BDD68B2CF8C2F869500
:100AA0008695877020E2829FC0011124C37021E0E7
:100AB00030E002C0220F331FCA95E2F7E901C82BCC
:100AC000D92BDC689DCFC03C82E5D80750F48C2F31
:100AD0008F71C03AD24558F5982F84EF906AEC0197
:100AE0008FCFCE01805C9245809708F095CFDC2FA8
:100AF000DF71C0EFD06A84CF8C2F8F71D82FC1EFF8
:100B0000D06A7ECF8C2F86958695877020E2829F53
:100B1000C0011124C37021E030E002C0220F331F56
:100B2000CA95E2F7E901C82BD92BDA6869CFF9DE5B
:100B3000C0E0D82FD06264CF8C2F8F71F2DE93E0AB
:100B4000CC0FDD1F9A95E1F7DF70282F84FF04C0DA
:100B500090E1899F90011124C22FD06951CF8D2F30
:100B60008F71DFDE082F8C2F90E038DE902BEC01A8
:100B7000E1CFCF92DF92FF920F931F93CF93DF933A
:100B80006C0100912D0410912E0480912B04909102
:100B90002C04082B192BCFE0D0E081E090E00C2E44
:100BA00002C0880F991F0A94E2F780239123892BB2
:100BB00061F4219790F7F12C8F2DDF91CF911F9148
:100BC0000F91FF90DF90CF900895FC2EB6018C2FEF
:100BD000E3DDF8DE019769F3EFCF1F93CF93DF9347
:100BE000FC012581C081D181CE01211571F06115F3
:100BF00061F0BFDF182F682FCE0111DDBE01812FFC
:100C0000CBDDDF91CF911F9108953DDD182FF6CFF9
:100C1000CF93DF93EC01ADDFBE01BEDDD3DEDF910C
:100C2000CF910895FC012481211599F08081918153
:100C3000EFDF282F92959F70963099F060F4925FC5
:100C40009F70923030F4203FB1F038F481E0283EBC
:100C500038F080E008959A5FF3CF81E0243FC9F730
:100C6000089591E0213F09F090E081E0283E08F0EE
:100C700080E0892B089581E0089580E00895F8943C
:100C8000E82FE295EF70F0E041A18F7021E001C004
:100C9000220F8A95EAF7922F9095942391A392A11F
:100CA000822F892B82A378940895CF92DF92EF92BE
:100CB000FF921F93CF93DF93462F172FE82FF0E07B
:100CC000E258FD4F71110CC0E4918E2F7E2F6E2FD4
:100CD000DF91CF911F91FF90EF90DF90CF9008951B
:100CE000F491EF2F86E0689FE00111242FEF30E0B0
:100CF000CE01B9010E94A424DB01CA01880F991F0B
:100D000065E56A9FA0016B9F500D1124841B482F3D
:100D1000440F480FC901811B9109F89F7001F99F89
:100D2000F00C11248F2D149FB0011124672F70E057
:100D30006901C61AD70AB601F69F6001F79FD00C69
:100D40001124A330B10549F1B901641B7109AB014C
:100D5000149FB001159F700D1124672F70E0261BA2
:100D6000370BF29FA001F39F500D1124752FCC3F3C
:100D7000D34050F4A130B105A1F0129709F0A7CFEC
:100D8000EF2D852F7F2FA3CFA430B10569F01697E3
:100D900009F49DCF7F2D8D2D9ACF7D2DEF2D8F2F97
:100DA00096CF7F2FED2D93CFE52F7F2DF8CF21E02C
:100DB00001C0220F8A95EAF7822F20911F04611546
:100DC00061F0282B20931F0480911E048061809382
:100DD0001E0481E080936403089580952823F2CF58
:100DE000CF93DF93EC01682F892B09F461E06170E8
:100DF00080E0DDDFC1FB662760F9209709F460E041
:100E000081E0D5DFC2FB662760F9209709F460E036
:100E100082E0CDDFCE01DF91CF910895E1DF8093B5
:100E20002D0490932E04089521E030E002C0220F9B
:100E3000331F8A95E2F780912D0490912E04822B26
:100E4000932BECCF21E030E002C0220F331F8A95B4
:100E5000E2F72095309580912D0490912E04822305
:100E60009323DCCF90912F048095892380932F04C6
:100E7000282F277061F4891751F09091310492FF67
:100E800006C0869586958695DDDF10922F0408951D
:100E900010921D0480911E04846080931E040895A6
:100EA000539A0895FC01EE0FFF1FE80FF91FED5D47
:100EB000FC4F6183408322830895FC01AC014B5FAA
:100EC0005F4F8FEF61E39191892728E030E0982F01
:100ED000990F87FF09C0892F862721503040B9F725
:100EE000E417F50781F70895892FF7CF8091BB03A9
:100EF000811571F0E091DF03F091E003309739F054
:100F00000190F081E02D309711F00995089580E06F
:100F1000089590913301913099F0A4EEB2E0EFEF93
:100F200090E02C91821759F01196EF3F19F421119E
:100F300001C0E92F9F5F9630A1F7EF3FC1F40895FC
:100F40009091300497FFE9CFE82FE695E695E69576
:100F5000803FA8F7F0E0E651FD4F877021E001C027
:100F6000220F8A95EAF78281822B82830895FE2FD1
:100F7000FF0FFF0BEE51FD4FF8CF909133019130F1
:100F800021F49091300497FD0CC0E4EEF2E09191D1
:100F9000891302C0DF011E9292E0EA3EF907B9F719
:100FA0000895E82FE695E695E695803FC8F7F0E0CE
:100FB000E651FD4F9DEF81FD97EF80FF959582FDF6
:100FC00092958281892382830895809132010895C8
:100FD0002FB7F89480911D0390911E03A0911F03D9
:100FE000B09120032FBF08952FB7F89460911D038F
:100FF00070911E0380911F03909120032FBF0895CD
:101000008091BB03811539F0EFDF462F572FBC01CC
:10101000CB01BA010895E8DFDC01CB014091B703B1
:101020005091B8036091B9037091BA03480F591FEA
:101030006A1F7B1FEDCF8091BB03811509F0C8CFDC
:10104000DFDFCB01089587E797E78093000890934F
:10105000010888E19AE00FB6F894A89580936000A3
:101060000FBE90936000FFCF08950895FC0120917A
:101070001303309114032617370748F061157105E3
:1010800029F49091E8009E779093E8009B0190E00E
:101090002115310541F4911106C08091E80082FFCD
:1010A00032C080E0089580914E038115C1F18530F2
:1010B000C1F18091E80083FD30C08091E80082FD9D
:1010C000ECCF8091E80080FFE3CF8091F300409166
:1010D000F200582F2115310519F04830510558F00C
:1010E00091E04830510509F090E04091E8004E77DA
:1010F0004093E800CDCF81918093F10021503109D8
:101100004F5F5F4FE7CF80914E03811541F08530EF
:1011100041F08091E80083FFC0CF81E0089582E034
:10112000089583E00895982F9093E900891771F04E
:101130007091EC002091ED005091F00021FD09C06C
:101140009F5F973089F78093E9000895762F242FC9
:1011500050E03091EB003E7F3093EB003091ED009A
:101160003D7F3093ED003091EB0031603093EB0028
:101170007093EC002093ED005093F0002091EE006E
:1011800027FDDECF089580910D0387FF13C0809166
:10119000E80082FF06C08091E8008B778093E8002A
:1011A000089580914E038111F2CF089580914E03EE
:1011B0008115D9F38091E80080FFF8CF8091E80095
:1011C0008E77ECCF2091E4003091E50095E6A901FF
:1011D0002091EC00822F817020FF06C08091E800F2
:1011E00080FF06C080E008952091E80022FD1AC02B
:1011F00080914E03811589F0853089F08091EB0054
:1012000085FD0FC02091E4003091E500421753079F
:10121000F9F29150E1F684E0089582E0089583E0C8
:10122000089581E00895CF93DF93C8EDD0E08881E1
:101230008F7E8883E7EDF0E080818160808384E0A9
:1012400082BF81E080930C0388818E7F8883E2EEE9
:1012500010821092DA00A1EEB0E01C9288818F77A4
:10126000888388818068888388818F7D888319BC82
:1012700010924E0310920B0310924D0310920A032A
:10128000A0EE8C918B7F8C9388818160888342E073
:1012900060E080E048DFA1EEB0E08C918E7F8C931F
:1012A000E2EEF0E0808181608083808188608083CD
:1012B000E0EE80818E7F8083888180618883DF91EA
:1012C000CF910895E8EDF0E080818E7F80831092C9
:1012D000E2001092DA001092E100A0EEB0E08C91F2
:1012E00081608C9380818F77808319BCA7ED8C916E
:1012F0008E7F8C9380818F7E808310920C03089563
:10130000A0E0B0E0E6E8F9E00C9475247C016B0104
:101310005A0180919A030AE010E08A3010F001E04F
:1013200010E0C1E0D0E0B601C701F50109958111D7
:1013300015C021960C171D078CF0CC9F9001CD9FF6
:10134000300D300D112480E090E045E34A95F1F72F
:101350000000019682179307C1F7E5CFCDB7DEB73E
:10136000EAE00C9491243BB1377F2BB128604FB752
:10137000F89483E293E0FC010196508168E02BB978
:10138000000000C057FF3BB9550F000000C000C06F
:1013900000C03BB900C06A9591F753E087349507C8
:1013A00051F74FBF8FE594E00197F1F700C00000BF
:1013B00008950F931F93CF93DF93EB018A019091D0
:1013C0004E03943059F58093E9008FEF9091E80037
:1013D00095FD06C095ED9A95F1F700008150B1F7A3
:1013E0008091E80085FF1AC0EDDE811112C0809166
:1013F000E80085FD06C08091E8008E778093E800C4
:10140000F3CF88818093F1000150104011F02196B4
:10141000EECF8091E8008E778093E800DF91CF9146
:101420001F910F910895CF93DF93EC0148E050E0B6
:10143000BC0181E0BEDF88E0FE01A5E1B3E00190E0
:101440000D928A95E1F7DF91CF91089540E250E047
:10145000BC0182E0AECF9091310492FB222720F9AB
:10146000281771F080FB92F9909331046091300459
:101470007091310484E090E00E94162582E0F2CC65
:10148000089580913301813061F58091300487FFA8
:1014900028C053D98093EB0240E250E06FEB73E039
:1014A0008AEE92E00E94D424892BD1F080E2EAEE09
:1014B000F2E0AFEBB3E001900D928A95E1F7E09195
:1014C000DF03F091E003309759F00480F581E02DBF
:1014D000309731F086E08093EA028AEE92E0099537
:1014E00008952BD98093E20248E050E061EE73E06A
:1014F00082EE92E00E94D424892B91F388E0E2EE00
:10150000F2E0A1EEB3E001900D928A95E1F7E0914F
:10151000DF03F091E003309719F30280F381E02DAF
:101520003097F1F282EE92E0DACF811531F09091AE
:101530002804982B90932804A4CF0895811531F0A6
:1015400090913204982B909332049BCF089581158B
:1015500011F01AD996CF0895811539F080959091A0
:1015600032048923809332048CCF0895CF93C82FFF
:101570008115A1F08238A1F4B9DC81FD0FC089E3A7
:10158000C8DC7FDF8FEF97EE23E081509040204052
:10159000E1F700C0000089E3F0DC73DFCF9108952C
:1015A000833889F4A3DC80FDF9CF83E5B2DC69DF01
:1015B0008FEF91EE24E0815090402040E1F700C091
:1015C000000083E5E9CF843889F490DC82FDE6CF22
:1015D00087E49FDC56DF8FEF91EE24E0815090404E
:1015E0002040E1F700C0000087E4D6CF8450813A64
:1015F00068F580913301813021F48091300487FDBA
:101600000EC0E4EEF2E08AEE92E02081C217D1F043
:1016100031968E179F07C9F78C2F7BDCBECFEC2F3E
:10162000E695E695E695F0E0E651FD4F828190E083
:101630004C2F477021E001C0220F4A95EAF7822320
:10164000892B51F38C2F99DC1CDFE6CF8C2F805E29
:10165000883008F0A3CFC77021E001C0220FCA95DF
:10166000EAF780912804822B8093280496CFCF93A9
:10167000DF93EC01805E9109089720F06EE97AE033
:10168000209711F465E97AE0CE010E94ED028C2FDB
:101690006DDFDF91CF910895811559F0823851F4B3
:1016A00025DC81FF06C089E334DCEBDE89E365DC01
:1016B000E8CE0895833841F419DC80FFFACF83E542
:1016C00028DCDFDE83E5F3CF843841F40FDC82FFD2
:1016D000F0CF87E41EDCD5DE87E4E9CF982F945065
:1016E000913A28F3982F905E983018F7982F81E060
:1016F00091FD84E090FD880F92FD829545D8D8CF6A
:10170000CF93DF93EC01C8DFCE01805E910908978B
:1017100020F06CEA7AE0209711F467EA7AE0CE01D3
:101720000E94ED02DF91CF9108951F93CF93DF9335
:10173000182FC0E5D0E0893311F0C0E0D0E0812F50
:1017400015DF209731F4812FA7DFDF91CF911F9113
:1017500008958FE99FE00197F1F700C000002197FD
:10176000F0CFFF920F931F93CF93DF93C62FD42F09
:10177000F22E8115A1F060931A042ADC80932103D4
:101780009093220381E0C1FD84E0C0FD880FC2FD7B
:101790008295CBDECDB7DEB7E5E00C949624809140
:1017A0001A0468132DC0009121031091220310DC4C
:1017B000801B910B883C910518F51D2F105ECD17ED
:1017C00091F0C77001E0802F01C0880FCA95EAF739
:1017D000BEDE183040F48D2F877001C0000F8A954F
:1017E000EAF7802FA2DE8F2DA0DF81E0D1FD84E01B
:1017F000D0FD880FD2FD8295183060F6A8DECACFE2
:1018000081E0C1FD84E0C0FD880FC2FD8295F6CF66
:101810001092280480913301813069F48091300462
:1018200087FF09C0ECEEF2E08EE111928A95E9F7AC
:101830001092320426CEE4EEF2E086E0F6CFE8DF46
:101840008FEF94E32CE0815090402040E1F700C0FE
:10185000000088E19AE00FB6F894A89580936000A4
:101860000FBE90936000FFCFAAE2B0E0EAE3FCE095
:101870000C947C248DE093E0FC0101962091F10012
:10188000208323E085319207B9F780910E038930D8
:1018900009F457C0C8F4823009F4B2C0833009F4A7
:1018A00082C0813081F18091E80083FFE6C08091A1
:1018B0000D0390910E039A3008F0DFC0E92FF0E09D
:1018C000E45DFA4D0C94B8248A3009F489C08B3059
:1018D00051F780910D03813231F78091110390917E
:1018E0001203892B01F78091E800877F8093E8003D
:1018F0004ADC81E090910F03911101C080E0809358
:10190000330186DFD0CF80910D03813A61F680915B
:10191000E800877F8093E800809111039091120383
:10192000892B59F060E080E090E070E09FDB8091CF
:10193000E8008B778093E800B6CF68E085E193E01C
:10194000F4CF80910D03813209F0ADCF8091110366
:1019500090911203029708F0A6CF8091E800877F4C
:101960008093E8008091E80082FF18C02091F30086
:101970008091F200922F029731F48091F100813032
:1019800011F0863021F48091F10080933201809132
:10199000E8008B778093E800F6DB85CF80914E03DB
:1019A0008111E0CF80CF80910D03813A09F07BCF88
:1019B0008091110390911203892B09F074CF8091CB
:1019C000E800877F8093E8008091E80080FFFCCFEB
:1019D000809133018093F1008091E8008E77DACF17
:1019E00080910D03813209F05ECF8091E800877FFE
:1019F0008093E800C8DB809110038093310153CFBE
:101A000080910D03813A09F04ECF8091E800877FE5
:101A10008093E8008091E80080FFFCCF8091310145
:101A2000D9CF803889F0823841F5809111038F70C9
:101A3000873018F58093E9008091EB0085FB8827BB
:101A400080F91092E90006C080914D03880F9091B3
:101A50000A03892B9091E800977F9093E800809388
:101A6000F1001092F1008091E8008E7723C081117F
:101A700016C080910F03813009F18091E80083FF47
:101A80000AC08091E800877F8093E8008091EB0096
:101A900080628093EB00AA96E3E00C949824823055
:101AA00061F780910F03811579F01092E900809120
:101AB000E800877F8093E80066DBDFCF933009F092
:101AC00080E080934D03F1CF809111038F70282F18
:101AD0002150263090F68093E9002091EB0020FF02
:101AE000E4CF933031F48091EB0080628093EB007F
:101AF000DCCF9091EB0090619093EB0021E001C06E
:101B0000220F8A95EAF72093EA001092EA0080916A
:101B1000EB008860EBCF8111B0CF80910F038F77FE
:101B2000182F8091E3008078812B8093E3008091CF
:101B3000E800877F8093E80026DB8091E80080FF43
:101B4000FCCF8091E30080688093E30083E0111173
:101B500001C082E080934E0390CF8058823008F01D
:101B60008CCF20910F03309110032C3D83E0380778
:101B700089F583E08A838AE289834FB7F894DE018E
:101B8000139620E03EE051E2E32FF0E0509357003F
:101B9000849120FF03C082958F703F5F8F708A30E1
:101BA000B8F0895C8D931D922F5F243169F74FBF88
:101BB0008091E800877F8093E8006AE270E0CE01C0
:101BC000019654DA8091E8008B778093E80055CF36
:101BD000805DE8CF832F90E08330910519F160F4A8
:101BE0008130910509F46CC08230910509F045CF30
:101BF0008BE3E9E4F1E029C0209111033091120355
:101C00008132910509F453C08232910509F035CF34
:101C10002130310508F45CC009F02FCF8BE3EAECEA
:101C2000F0E013C0822F90E0213099F182309105CD
:101C3000B9F1009709F021CFEAECF1E0E4918E2FA1
:101C4000EAECF1E0009709F418CF2091E800277F33
:101C50002093E80020911303309114038217930717
:101C600008F49C0140E021153105B1F5411134C063
:101C70008091E80082FDA6CF80914E03811509F482
:101C8000A1CF853009F49ECF8091E80083FFF0CF8B
:101C900099CFE8EAF1E0E4918E2FE8EAF1E0D2CFC3
:101CA000E6E9F1E0E4918E2FE6E9F1E0CBCF2130D7
:101CB000310550F009F0E1CE89E0E4E7F1E0C5CF6D
:101CC00082E1E4E8F1E0C1CF89E0EBE5F1E0BDCFEE
:101CD00084E4E5E0F1E0B9CF80914E03811509F489
:101CE00071CF853009F46ECF8091E80083FD6ACF13
:101CF0008091E80082FDBCCF8091E80080FFB3CFE7
:101D00004091F3008091F200942F2115310519F0D4
:101D10008830910550F041E0089709F040E080914B
:101D2000E8008E778093E8009ECF44914093F100C5
:101D30003196215031090196E8CF803809F09DCEC7
:101D40008091E800877F8093E80080910B03809367
:101D5000F10089CE811191CE80910F03182F82302E
:101D600008F08BCE8091E800877F8093E800109385
:101D70000B0309DA111599F084E080934E0342E0D9
:101D800061EC81E0D0D942E261EC82E0CCD9809173
:101D90004E03843051F482E0809334016ECE809102
:101DA000E30087FDE9CF81E0E8CF81E0F5CF8F92B6
:101DB0009F92AF92BF92CF92DF92EF92FF920F93DA
:101DC00088E090E00E94F2244B015C0160932004C3
:101DD0009092210480932204B09223041092240450
:101DE00010922504109226041092270483E290E0BA
:101DF0000E94EA249401A5018092200430932104DA
:101E0000A09222045093230480932404109225046A
:101E100010922604109227040F91FF90EF90DF900C
:101E2000CF90BF90AF909F908F9008950F93CF93D6
:101E3000DF93C0E2D4E0488159816A817B8188E0E8
:101E400090E00E940E256C81262F60E070E0CB01AF
:101E5000622F83E20E94FC24DF91CF910F910895BD
:101E600085E080932004109221048FEF8093220458
:101E700084EB809323041092240480911E048360D9
:101E800080931E0480E294E0D1CF809124048330BB
:101E900018F48F5F8093240480E294E0C7CF809190
:101EA0002404811519F081508093240480E294E089
:101EB000BDCFA0E0B0E0EFE5FFE00C947624EC01AC
:101EC00098819130D0F009F03EC08981813021F4B1
:101ED0008A8123962ADCF4CF823021F48A812396EA
:101EE00045DBEECF833021F48A812396D5DBE8CF22
:101EF000843041F022968111E3CFCDB7DEB7E9E01F
:101F00000C9492248A81239620E030E09AE0482FB6
:101F10004053550B4A30510560F02115310559F3F6
:101F2000EFE9FFE03197F1F700C0000021503109DF
:101F3000F4CF929FB001939F700D11249A01260F48
:101F4000371F8991E4CF2196E92FF0E0E250FE4F50
:101F50008491B82E292F26952695269530E0F901F3
:101F6000E251FE4FE4909770F12C092E02C0F594D7
:101F7000E7940A94E2F7F901E252FE4FC490D12CA3
:101F8000092E02C0D594C7940A94E2F722533E4F1B
:101F9000F901049110E002C0159507959A95E2F7B2
:101FA000E0FE02C081EEE2DAC0FE02C086EEDEDABA
:101FB0008B2DDCDA8B2D70DBC0FE02C086EE6CDB75
:101FC000E0FE02C081EE68DB00FF7ACF8CE282CFB8
:101FD000E0917B04F0917C04E054FE47EE32F10581
:101FE00038F4EA5CFA4D0C94B82485E391E061CFB3
:101FF000089586EA91E0FBCF87E391E0F8CF89E38B
:1020000091E0F5CF89E792E0F2CF8BE391E0EFCF5B
:102010008DE391E0ECCF8FE391E0E9CF81E491E0B3
:10202000E6CF83E491E0E3CF85E491E0E0CF87E47D
:1020300091E0DDCF8FE491E0DACF81E591E0D7CF79
:1020400084E591E0D4CF87E591E0D1CF8AE591E0B6
:10205000CECF8DE591E0CBCF80E691E0C8CF83E68F
:1020600091E0C5CF8AE592E0C2CF86E691E0BFCF8E
:1020700088E691E0BCCF86E692E0B9CF8AE691E0AF
:10208000B6CF8DE691E0B3CF80E791E0B0CF83E7A4
:1020900091E0ADCF86E791E0AACF89E791E0A7CFA5
:1020A0008CE791E0A4CF80E692E0A1CF8FE791E0AA
:1020B0009ECF8AE23ACB82E891E099CF85E891E021
:1020C00096CF88E891E093CF8BE891E090CF8EE8AF
:1020D00091E08DCF81E991E08ACF84E991E087CFCB
:1020E00087E991E084CF8AE991E081CF80917904FA
:1020F00090917A04009761F08E362EE7920711F4E2
:1021000088E213CB8F369E4719F48CE991E0D1CE4B
:1021100008958091790490917A048E362EE7920783
:1021200009F086C0E0917B04F0917C04E054FE4706
:10213000ED32F10538F4EC59FA4D0C94B8248EE9DF
:1021400091E0B7CE08958AE991E0FBCF80EA91E073
:10215000F8CF82EA91E0F5CF84EA91E0F2CF88EA05
:1021600091E0EFCF80EB91E0ECCF8AEB91E0E9CF0B
:1021700084EC91E0E6CF86EC91E0E3CF88EC91E04F
:10218000E0CF82ED91E0DDCF8AED91E0DACF89E614
:1021900092E0D7CF8DED91E0D4CF80EE91E0D1CF1A
:1021A00084EE91E0CECF87EE91E0CBCF8AEE91E046
:1021B000C8CF8DEE91E0C5CF80EF91E0C2CF83EF25
:1021C00091E0BFCF86EF91E0BCCF84E092E0B9CF41
:1021D00089EF91E0B6CF8CEF91E0B3CF80E092E051
:1021E000B0CF83E092E0ADCF86E092E0AACF89E065
:1021F00092E0A7CF8CE092E0A4CF8FE092E0A1CF55
:1022000085E491E09ECF82E192E09BCF81EE91E068
:1022100098CF85E192E095CF88E192E092CF8BE173
:1022200092E08FCF8EE192E08CCF81E292E089CF75
:102230008F369E4709F086CFE0917B04F0917C04B5
:10224000E354FE47EB32F10508F07CCFEF56FA4D30
:102250000C94B82484E292E074CF86E292E071CFCD
:1022600089E292E06ECF8CE292E06BCF8FE292E057
:1022700068CF86E592E065CF82E392E062CF85E3A6
:1022800092E05FCF88E392E05CCF8BE392E059CF9E
:102290008EE392E056CF80E492E053CF83E492E065
:1022A00050CF86E492E04DCF89E492E04ACF8CE4AF
:1022B00092E047CF8FE492E044CF82E292E041CFB8
:1022C00082E592E03ECF85E592E03BCF89E592E062
:1022D00038CF8DE592E035CF8FE592E032CF82E6C0
:1022E00092E02FCF85E692E02CCF88E692E029CFCE
:1022F0008BE692E026CF8DEF91E023CF8EE692E041
:1023000020CF81E792E01DCF84E792E01ACF809141
:10231000770490917804892B61F48091760485305C
:1023200030F4833058F4813029F0823029F0109253
:10233000760408954DDEFBCFD9DEF9CFEADEF7CF84
:10234000CF92DF92EF92FF921F93CF93DF9300D053
:1023500000D0CDB7DEB7C0906D03D0906E03E09093
:102360006F03F09070030E94F407DC01CB018C191D
:102370009D09AE09BF0911E084369105A105B1059B
:1023800078F10E940008DC01CB010296A11DB11D6D
:1023900089839A83AB83BC8380912201909123012E
:1023A0008F589C4F20912101422F50E0253008F09A
:1023B00044E09E012F5F3F4FB9010E94E12482E07B
:1023C00090E00E94FF23182F811551F00E94F4071E
:1023D00060936D0370936E0380936F03909370030B
:1023E000812F0F900F900F900F90DF91CF911F9141
:1023F000FF90EF90DF90CF900895AF92BF92CF9271
:10240000DF92EF92FF921F93CF93DF9300D000D023
:1024100000D0CDB7DEB75B0180E090E00E94FF23E3
:10242000182F811509F45FC080911401482F50E0E6
:10243000811141E060911501709116016F587C4F38
:10244000CE0106960E94E124C0908C03D0908D03AB
:10245000E0908E03F0908F030E94F407DC01CB0123
:102460008C199D09AE09BF0984369105A105B105F6
:1024700038F482E793E00E945D079E81891799F105
:1024800081E090E00E94FF238115C1F180911C0141
:10249000482F50E0863008F045E060911D017091B2
:1024A0001E016F587C4FCE0101960E94E12482E705
:1024B00093E00E945D079E81891320C00E94F4076B
:1024C00060938C0370938D0380938E0390938F039E
:1024D00085E0FE013196A7E8B3E001900D928A9560
:1024E000E1F781E00CC085E0E2E7F3E0DE01119660
:1024F00001900D928A95E1F71111EACF80E095E005
:10250000E7E8F3E0D50101900D929A95E1F70F907D
:102510000F900F900F900F900F90DF91CF911F9120
:10252000FF90EF90DF90CF90BF90AF900895ACE018
:10253000B0E0EDE9F2E10C94762488E0E0E2F4E02A
:102540008E010F5F1F4FD80101900D928A95E1F720
:1025500080911C0490911D04A0911E04B0911F0451
:1025600089879A87AB87BC87B0901E04C0906903A7
:10257000D0906A03E0906B03F0906C030E94F40724
:10258000DC01CB018C199D09AE09BF09B801843665
:102590009105A105B10510F4B114F9F080912A015B
:1025A00090912B018F589C4F20912901422F50E090
:1025B0002D3008F04CE00E94E12483E090E00E947E
:1025C000FF23811569F00E94F407609369037093FB
:1025D0006A0380936B0390936C0310921E0481E056
:1025E0002C96E9E00C9492246091200466956695FF
:1025F00070E041E050E080E091E00E94C724892B28
:1026000019F481E080931D040E941B0880939003BD
:102610009093910380911E04846080931E0408951A
:10262000A5E0B0E0E6E1F3E10C947324809120048E
:1026300080FF0DC0A0904803B0904903A114B104DD
:10264000C9F40E94B3092596ECE00C948F241091F4
:10265000030180910401181768F780910101912FFF
:10266000981B20E040E060E0892F90E00E94520734
:102670001F5FEFCF8091200480FFE3CFC12CD12CCE
:1026800080911F0421E00C2C01C0220F0A94EAF76C
:102690008223C9F1F501E590F490E114F10489F287
:1026A00045E050E0B701CE0101960E94BE24898129
:1026B0008F3F49F1882E912C0A81080F1127111F95
:1026C0000D30110514F00CE010E08016910624F096
:1026D00085E0E80EF11CE4CF7C818D81853B08F01C
:1026E00084EB6B810E945506472F90910101282DA4
:1026F000291B922F282F892F90E00E9452078FEFDD
:10270000881A980AE2CF82E0A80EB11C8FEFC81A8F
:10271000D80A83E0C816D10409F0B2CF92CF8091D5
:1027200020048E7F809320040E94480780911E041D
:10273000816080931E0474CFA0E0B0E0E2EAF3E190
:102740000C947724082F162FC42FF22E809120048A
:1027500080FF38C090912104901308C0909122040A
:10276000961304C090912304941729F090911E04AD
:10277000926090931E04E82FE695E695F0E0E1580C
:10278000FD4F908190931C048C7F843081F48C2FBA
:10279000C53B08F084EBB8010E945506E62ED72E03
:1027A000C82E80912004D091030180FD1CC00093AD
:1027B000210410932204C0932304F11419F080E241
:1027C00094E034DBCDB7DEB7E8E00C94932480913D
:1027D00001019D2F981B2C2D4D2D6E2D892F90E0E2
:1027E0000E945207DF5F80910401D81780F318DF41
:1027F000DECF8091200480FF28C0837084608093A6
:10280000200480911E04816080931E04611519F0DC
:1028100080E294E00BDB609120046695669570E0A1
:1028200041E050E080E091E00E94C724892B71F0E4
:102830000E94480781E08093930320E040912304A5
:10284000609122048091210477CF0895CDDEF2CFEC
:10285000A6E1B0E0EEE2F4E10C947424FE013D96B2
:10286000DF018AE01D928A95E9F783E8C82E82E0AD
:10287000D82E7F019E2EAF2C00E912E0F601819147
:102880006F018F3F09F43DC0F894E82FE295EF7097
:10289000F0E021A18F7041E001C0440F8A95EAF772
:1028A000922F942B91A392A1842F8095892382A3A8
:1028B000789400C0E8E8F2E031E0B12C21912F3F9C
:1028C00079F0A22FA295AF70A05EB0E08C9190E05D
:1028D0002F7002C0959587952A95E2F780FF82C0F8
:1028E00080E0B82A330F0E171F0741F7F6018291D7
:1028F0008F3F11F00E943F0680EA8A95F1F7F701B9
:10290000B0828FEFE81AF80A88E8C81682E0D80685
:1029100009F0B4CF4AE050E0692D7A2D8DEA93E0BA
:102920000E94D424009749F02AE0E92DFA2DADEA5F
:10293000B3E001900D922A95E1F70091AC0310E00D
:102940000E551C4F892B09F44FC081E08093A103E1
:102950000E94E80780939F039093A0038091BB039C
:102960007E019FEFE91AF90A811509F496C0F70173
:1029700085E011928A95E9F780919A038A3008F0F0
:1029800057C04DEF51E1B701C8010E948009811580
:1029900009F471C040EA51E1B701C8010E94800901
:1029A000811509F468C047E952E1B701C8010E94E6
:1029B0008009811509F45FC010929A0380919E03EB
:1029C00090E045E050E0B7018E559C4F0E94D42422
:1029D00021E020939D03892B09F041C06696EBE02E
:1029E0000C949024832F7DCF8091A103811509F44D
:1029F000B5CFE0909F03F090A0030E94E8078E19E6
:102A00009F09059708F4AACF45E050E06DEA73E00E
:102A1000C8010E94D424892B41F085E0EDEAF3E05F
:102A2000D80101900D928A95E1F71092A10396CFFB
:102A3000C0909B03D0909C030E94E8078C199D09CD
:102A4000843F914008F09DCF80919D03811531F224
:102A5000F70185E011928A95E9F710929D03A09104
:102A60009E03B0E0AE55BC4F85E0F70101900D929A
:102A70008A95E1F7B3CF80919A038F3F39F40E9492
:102A8000E80780939B0390939C03DECF8F5F809336
:102A90009A038A3008F492CFF2CF85E0F801A2E7DA
:102AA000B3E001900D928A95E1F782E793E00E94EE
:102AB0005D0780937103A0907703B0907803C09076
:102AC0007903D0907A038091960390919703A09117
:102AD0009803B0919903A816B906CA06DB06C1F09F
:102AE000A0929603B0929703C0929803D092990354
:102AF0000E94F407A61AB70AC80AD90AC501D60166
:102B00008093B7039093B803A093B903B093BA032B
:102B10008CE0EBE7F3E0D70101900D928A95E1F7A5
:102B2000F0907C03E0907D03D0907E0300918403BD
:102B3000109185038091860310928503111509F485
:102B40004DCF14FD80931F0410FF0CC0898180FFBE
:102B50001BC09091200491609093200460E08695C2
:102B6000869547DE11FF05C020E04D2D6E2D8F2D7F
:102B7000E3DD12FF03C0011549F036DD13FF2ECF50
:102B800081E0809393032ACFCADDECCF0E944807EF
:102B9000F5CF8091200486958695815009F481E0D7
:102BA00061E027CEE0E2F4E0818121E043816281AF
:102BB000885FC2CDE0E2F4E0818121E0438162815F
:102BC0008850BACDE0E2F4E0628121E1620F08F4BE
:102BD0006FEF21E043818181AFCDE0E2F4E06281DB
:102BE00021E1621B08F460E021E043818181A4CDF2
:102BF000E0E2F4E0438121E1420F08F44FEF21E0ED
:102C00006281818199CDE0E2F4E0438121E1421BC0
:102C100008F440E021E0628181818ECDA0E0B0E047
:102C2000E4E1F6E10C9475247C01FC0184818115BA
:102C300009F46DC061E0C7010E94ED05EC01C037E9
:102C40008EE7D80709F43EC0C1378EE7D80709F4EC
:102C500063C080911304811509F4FFC0CE01805E2A
:102C60009109089780F410911204F701858181156C
:102C700009F46AC0111104C0809111040E94220756
:102C80001F5F1093120481E0809377041092780400
:102C90000E94E8078C019E0120543E47F701858180
:102CA000811509F414C1909176042E32310508F093
:102CB00090C0923009F489C008F050C091116EC0E4
:102CC00081E084C0F7018581811591F087E792E06A
:102CD000F0D881E90E94950B1092130410927604AB
:102CE0001092770410927804809111040E942207B8
:102CF00080912F04877059F0F7018581811539F093
:102D00008091310482FF03C082E00E943207CDB778
:102D1000DEB7EAE00C949124F7018581811541F337
:102D20008BE792E0C6D880E90E94950B81E0809302
:102D30001304109276041092770410927804809114
:102D400011040E941407D4CF1150109312041111D2
:102D50009ACF809111040E94140795CF933001F10E
:102D6000943081F1C0937B04D0937C0400931404CD
:102D700010931504F894109285001092840080E658
:102D800099E0909389008093880082E080936F009F
:102D900078941092770410927804AACF19D9E2CFD0
:102DA0008091160490911704209114043091150419
:102DB000AC01421B530B9A01A801481B590B241765
:102DC000350710F4A6D97CCF03D984E0809376042C
:102DD000C9CF9E012E563E472230310578F59230FC
:102DE000A1F030F4911128C082E08093760404C0F1
:102DF0009330F9F0943059F0C0937904D0937A0469
:102E00000093160410931704B5CF70D9F5CF8091B5
:102E10001404909115042091160430911704AC010C
:102E2000421B530B9A01A801481B590B2417350765
:102E300010F46FD9D9CF5AD983E0D7CF953038F471
:102E4000933008F042C09130E1F19230E1F11092FC
:102E500076041092770410927804D0902804F70139
:102E6000C580C11409F4A9C08D2D8D2B827221E07B
:102E7000811101C020E0220FB22EAC2EC5010E94AC
:102E8000D1028C010F3F100709F496C480911804F9
:102E900090911904009721F00E94D1020E94800BAA
:102EA000A0921804B09219048D2D827209F481C089
:102EB00082E20E94C403C8010E94370BD09228040A
:102EC00017CF86D8C4CF12D9C2CF23D9C0CF2033D1
:102ED000310508F0BECF80917604833009F43CC000
:102EE00078F4813069F1823009F053CF8091790410
:102EF00090917A04C817D90709F04BCFF7D829C0A9
:102F0000843009F046CF8091790490917A04C817F3
:102F1000D90709F049C08091140490911504081B49
:102F2000190B2091160430911704821B930B801704
:102F30009107C0F104311105A8F5D8D881E027C068
:102F400080917B0490917C04C817D90709F021CFA8
:102F50003FD8109276041DCF80917B0490917C0421
:102F6000C817D907B9F48091160490911704081B6B
:102F7000190B2091140430911504821B930B8017B8
:102F8000910780F00431110568F422D882E0809323
:102F90007604FFCE8091790490917A04C817D907FE
:102FA00009F0F7CEB6D8D5CF80917B0490917C0400
:102FB000F5CFC8010E94370B9BCE809118049091E9
:102FC0001904C813EFC38C2F0E94D1020E94800BFA
:102FD00010921804109219048BCE26E241EE61EE95
:102FE0008C2D0E94B10B84CE27E245EE65EEF8CF22
:102FF00026E241EE60EEF4CF27E245EE64EEF0CF3C
:1030000026E241EE62EEECCF27E245EE66EEE8CF37
:1030100028E241E0EBCF809130048160809330045E
:10302000609130047091310484E090E00E94162594
:103030000E94080C5DCE8091310488608093310439
:10304000EFCF809130048260E9CF809130048460BA
:10305000E5CF809130048860E1CF809131048160B8
:10306000EDCF809131048260E9CF8091300480619E
:10307000D5CF809130048062D1CF809130048064BC
:10308000CDCF0E94080C809130048068C7CF80911A
:1030900030048C60C3CF809131048360CFCF8091A6
:1030A00030048E7FBBCF80913104877FC7CF809162
:1030B00030048D7FB3CF809130048B7FAFCF809170
:1030C0003004877FABCF809131048E7FB7CF809162
:1030D00031048D7FB3CF809130048F7E9FCF80915C
:1030E00030048F7D9BCF809130048F7B97CF0E94DF
:1030F000080C809130048F7791CF80913004837FCA
:103100008DCF809131048C7F99CF90913004892F9D
:103110008B7F92FF8460877F92FF88607FCF809152
:103120003104982F909590FB80F990FB81F986CF20
:1031300090913004892F8F7B96FF80646FCF0E941F
:10314000080C90913004892F97FB87F9805866CF3F
:1031500061E08EE090E00E94FC2462CF60E0F9CF55
:1031600090913004892F8F7E94FF806157CF90918A
:103170003004892F8E7F90FF816050CF9091310471
:10318000892F877F93FF886059CF89E2F8C289E24F
:1031900006C38D2D8272FE01E052F847EB30F10537
:1031A00008F04BC0E454FA4D0C94B82480912004EC
:1031B00080FF10C08E7F8093200480E294E00E9404
:1031C000160F0E94480780911E04816080931E04A0
:1031D00027DA8ECD81608093200461E08695869504
:1031E00008DB86CD811521F0D4DC82CD8115E1F399
:1031F00061E081E0F5CF811521F0DCDC79CD81152E
:10320000E1F3D0DC75CD811521F0E7DC71CD8115BE
:10321000E1F3D8DC6DCD811521F0F5DC69CD8115A8
:10322000E1F3E6DC65CD811529F00E944F0F60CDFA
:103230008115D9F30E94450F5BCDCE01805E92458A
:103240008097A0F4C11024C0CF7181E090E002C04B
:10325000880F991FCA95E2F7EC01682F83E090E090
:103260000E94FC24CE010E940A0342CDC114C9F180
:10327000CB358CE7D80759F1CC358CE7D807E1F08E
:10328000CA358CE7D80709F1C1308CE7D80739F186
:10329000C3308CE7D807E9F0C115DC4711F50E946F
:1032A000080C8FEF94E32CE0815090402040E1F730
:1032B00000C000000E94230880913104002482FF96
:1032C0000394802D0E942B0A13CD81E0FBCF80E078
:1032D000F9CF6FEF7FEF80E090E00E9416250E940B
:1032E0001F0CF70100811181C801C11409F45FC0EE
:1032F0000E94B905C82F682FC8010E940F03B801AA
:103300008C2F0E94CC030E94E204D82FC92FF70112
:10331000C580B680B2948FE0B82280912F04877068
:10332000F9F00C2DC114E9F0892F807F803461F011
:103330008D2F805E8830A0F0892F807E803221F42E
:10334000D23070F0B11461F08091310482FF08C076
:1033500082E00E94320780912F04877001E0811182
:1033600000E08C2F82958F70883009F4E4C018F546
:10337000823090F1825F8F70823008F463C0011553
:1033800009F410C180912F0480FD0CC1F701158252
:103390008695869586950E941407C7013FDC80912B
:1033A0002F048695869586950E942207FBC00E9471
:1033B0004303C82FA4CF893009F44DC18A5F8F70B1
:1033C0008230E8F6D23F09F057C18C2F8F71C110BF
:1033D00050C10E941407E4C01C2F1F70C03110F0B0
:1033E0001295107FC114A9F0111559F08D2F805E30
:1033F000883010F0D11107C01D29109328040E94B5
:10340000410A8D2F3EC080913204812B809332047B
:10341000F6CF8D2F0E944C0B111509F4B0CF8D2FD4
:10342000805E883010F0D11104C0812F0E94C40347
:1034300006C01095809132048123809332040E944B
:10344000410A9DCF1C2F1F70C07FC03211F0129512
:10345000107FD13040F009F44FC0C11409F45AC0B4
:10346000B114E9F0CECF8091310482FD14C0C114B3
:1034700059F0111529F01D29109328040E94410AC2
:1034800080E00E94B60A7BCF80E00E944C0B1115B1
:1034900009F475CFCACFC114A9F0B11004C0812FAF
:1034A0000E94950A6CCF8B2D813009F068CF8091F6
:1034B0002904912F9823191709F461CF812B809348
:1034C00029045DCFB1105BCF812F0E94A70A909194
:1034D0002904812F892329F0812F809589238093C6
:1034E000290480912A04912F982309F448CF10953C
:1034F000182310932A0443CF8B2DC11421F086305A
:1035000008F03DCFCCCF853008F039CF812F0E9415
:10351000A70A35CFB114D1F3D93349F48FEF97EE21
:1035200023E0815090402040E1F700C000008D2F43
:103530000E944C0B24CF8C2F837009F046C0C11021
:103540002FC04D2F429546954770440F440F2D2FA5
:103550002F7030E0042E02C0220F331F0A94E2F7CE
:1035600080E090E0D4FF09C08FE090E002C0880FB7
:10357000991F4A95E2F780959095C695C695C370B8
:10358000C230D1F0C330A9F040912B0450912C04EB
:10359000C13069F0822B932B842395230E940A0368
:1035A0000E94760760E0C7010E94ED05B0CB242B96
:1035B000352B822B932BF2CF822B932B20912B0434
:1035C00030912C0482279327E9CFC11491F1C0FFD9
:1035D000E7CF4D2F429546954770440F440F2D2F4E
:1035E0002F7030E0042E02C0220F331F0A94E2F73E
:1035F00080E090E0D4FF09C08FE090E002C0880F27
:10360000991F4A95E2F780959095C695C695C37027
:10361000C230C1F0C33099F040912D0450912E0476
:10362000C13059F0822B932B842395230E940E07DF
:10363000B7CF823008F4B4CFCCCF242B352B822BDC
:10364000932BF4CF822B932B20912D0430912E04B9
:1036500082279327EBCFCF70C11439F08C2F0E94B3
:1036600014078D2F0E94950A9BCF8D2F0E94A70AC9
:103670008C2F0E94220794CF70F4D03FC9F0D13F25
:1036800091F0C11409F456C0B11409F450C08D2F43
:103690000E94B60A85CFD33F19F1D43F91F790919C
:1036A000310492FD2BC08C2F8F71C11411F391CE78
:1036B0008B2DC11499F0853008F072CFCF7181E065
:1036C00090E002C0880F991FCA95E2F7EC01809143
:1036D0002D0490912E048C279D27A8CF8630ECCF07
:1036E00080E090E0C11409F4A1CFCF7181E090E0B7
:1036F00002C0880F991FCA95E2F798CFC11461F0F4
:103700008C2F8F7192FF65CE982F990F990F990F7B
:10371000936090932F045DCE81E00E9432078B2D41
:10372000823008F43DCF82E00E94320739CF8C2FDF
:103730008F714FCEB11479F0D93349F48FEF97EEF2
:1037400023E0815090402040E1F700C000008D2F21
:103750000E944C0B25CF8C2F8F718BCFC6318CE7FD
:10376000D80709F016CD8D2D8A7A91E0811101C01C
:1037700090E090931B04811509F407CD85E30E9426
:1037800089070E94410AB4CAC6318CE7D80709F0FC
:1037900054CD80911B04811509F4F9CC85E30E9476
:1037A000BD07EFCFFE01E851FC47E730F10560F7B8
:1037B000E953FA4D0C94B824FE01E851FC47E73078
:1037C000F105B0F310921A04CE019057839730F6AA
:1037D00084E090E00E94F7248093300490933104B9
:1037E000FE01E150F047E232F10508F014CCE2535B
:1037F000FA4D0C94B82480917304803170F4809158
:103800007204811551F0E091340420913304309119
:103810006E0440916D042E1301C00895BF0187E02E
:10382000E89FF0011124DF01AB5CBB4F14968C9133
:103830001497811551F111968C911197831325C01E
:103840008C91841322C015968C91159781111DC0FF
:1038500012968D919D91A0916F04B09170048A1B76
:103860009B0B883C910588F4809173048F70806174
:1038700080937304E55CFB4F80818F70806180834F
:103880008DE694E0CBD90C9493036F5F7F4FFB01DF
:10389000E770C1CFADE0B0E0E0E5FCE10C9472244C
:1038A0008C0186E0F801DE01189601900D928A9550
:1038B000E1F7F801F580C4808DE6882E84E0982E2B
:1038C0007090710471101FC0C114D1F0F11409F48B
:1038D00014C1C8010E941206811509F40EC187E0C7
:1038E000F801D40101900D928A95E1F78C2D813079
:1038F00031F480916D0490916E040E9408067BDF84
:10390000FF24F39453C0E080A280B380D09072046F
:1039100080916F04909170049501281B390BD1148C
:1039200009F4B4C0283C310508F08CC0C11441F33F
:1039300090916E04C18080917304803108F055C06D
:10394000C91213C090916D049E110FC0F11047C0B1
:103950008F708061809373048DE694E05FD98091CD
:103960007304F8018683F12C21C0F11038C040E0C7
:103970006C2D8E2D0E94740340E06C2D8E2D0E94C4
:103980007403F82E8111EFCF888599850E9408066F
:10399000292F22952F70903468F49F70223090F078
:1039A0009115A1F0F8019681903180F48F2D2D961C
:1039B000EDE0B4C72A5F2F70223060F0C8012ED925
:1039C000FD2CF4CF911511F0811581F3805E8830C4
:1039D00068F3F4CF803F50F3815F8330F9CF80915B
:1039E0007304816080937304BECFC91207C09091A5
:1039F0006D049E1103C0F11409F469C0C8010E944E
:103A00001206811509F479C0F11409F476C0809189
:103A10007304803270F020916D0430916E0429831C
:103A20003A83AB82BC827D821E828F83CE01019657
:103A3000F5D887E0F801ADE6B4E001900D928A95E3
:103A4000E1F75DCF80917304803148F48DE694E016
:103A5000E5D8F40187E011928A95E9F784CFC11483
:103A600009F44ECF20916E0491812913C7CF909114
:103A70006D049E11C3CFF110C1CF8683C801CED88B
:103A8000F40187E011928A95E9F73ACF283C310595
:103A900000F7C11409F434CFF11479F190916E0458
:103AA0008181981320C080916D048E111CC080917B
:103AB000730480FD0FC0803168F08683807F803F73
:103AC00039F08681982F907F905F8F70892B868345
:103AD000C801A4D887E0F801ADE6B4E001900D92EA
:103AE0008A95E1F70DCFC8010E9412068111A1CF7E
:103AF00080917304816080937304C8018FD800CFD4
:103B0000ABE1B0E0E5E8FDE1F6C64E8B5F8B688F78
:103B1000798F8A8F192F9B8F9111109232041D8AF1
:103B200086E0FE017696DE011F9601900D928A9541
:103B3000E1F70A8D011561F00B8B1C8B61E0CE0162
:103B40000F960E94ED0561E0CE010F960E94ED05F3
:103B50000B8B1C8B87E0FE013F96DE0118960190CF
:103B60000D928A95E1F7CE01089694DE81112EC060
:103B7000209133043091340487E0AE01485F5F4FF9
:103B8000FA0147505109DA0101900D928A95E1F747
:103B90008C858115D9F0822F90E08395877090E015
:103BA000AC0134171506D9F097E0929FD00111248B
:103BB000AB5CBB4F9E012F5F3F4FF90101900D920F
:103BC0009A95E1F7409333040E9493038091340463
:103BD00090913304891310C06B96E4E0A8C60E944C
:103BE000080C1092330410923404EDE6F4E087E000
:103BF00011928A95E9F7EACF27E0829FC00111244C
:103C00008B5C9B4F47DE811539F380913404909192
:103C100035040196877080933404D8CFA6E0B0E0D5
:103C2000E3E1FEE168C60E94E8078C018091BD03D4
:103C30009091BE038017910771F019821A820E9439
:103C4000E807BC0149815A8180E090E059DF009388
:103C5000BD031093BE032696E4E069C61F920F923F
:103C60000FB60F9211242F933F934F935F936F934F
:103C70007F938F939F93AF93BF93EF93FF93E091C5
:103C80007404F09175040995FF91EF91BF91AF9184
:103C90009F918F917F916F915F914F913F912F9164
:103CA0000F900FBE0F901F901895CDB7DEB72897D5
:103CB0000FB6F894DEBF0FBECDBF85B7806885BF55
:103CC00085B7806885BF84B7877F84BF0FB6F894B7
:103CD000A8958091600088618093600010926000D8
:103CE0000FBE80E890E00FB6F89480936100909347
:103CF00061000FBE81E0809334018DE396E08093F4
:103D0000E0029093E1020E9462090E9413098091EF
:103D1000E20084608093E200789480914E038115E4
:103D200099F08091E9001091EC008F7010FB112741
:103D300017F9182B1092E9008091E80083FD0E948A
:103D4000340C1F701093E90082E084BD93E095BDB0
:103D50009AEF97BD80936E001092B7031092B8034C
:103D60001092B9031092BA038091D80080618093B9
:103D7000D8008AE18A95F1F700C08091D900182F08
:103D8000117080FD04C00E94620910924E031093CE
:103D9000BB0326982E988FE891E00197F1F700C0B9
:103DA000000083B186FB992790F99093BC03909310
:103DB000060186FDABC086E08093010186E080931A
:103DC00002018091BB03811139D480910601809159
:103DD000060190E0811101C095E09093AC0385E06D
:103DE000891B80939E0363E8E62E62E0F62E08E8C6
:103DF00012E0F70181917F018F3F11F00E943F0691
:103E00000E151F05B1F758E8E52E52E0F52E00E932
:103E100012E0F70181917F018F3F11F00E943F0670
:103E20000E151F05B1F7E2EAF3E08AE011928A95D8
:103E3000E9F7EDEAF3E08AE011928A95E9F781E08B
:103E400080931104F89487E891E18093740490932F
:103E500075041092800085E08093810010928200AA
:103E600010928500109284008FEF9FEF909389004D
:103E70008093880078940196BAD5833E9E4F29F1AD
:103E800063EE7EEF80E090E0D1D560E082E090E0EC
:103E9000B3D581E090E080932B0410922C0461E074
:103EA00083E0AAD560E074E184E090E0BFD50E9491
:103EB000300F60E070E0AB018FE090E0AFD560E0E4
:103EC00070E0AB0183E190E0A9D582E090E082D57B
:103ED0008093590384E090E08AD5809330049093D6
:103EE00031040E9428148FE39CE90197F1F700C088
:103EF00000000E9428148091A20380FF09C06FEF88
:103F00007FEF80E090E092D50E94230880E054CFBC
:103F100083E090E05FD590E00E940A0380912D0439
:103F200090912E040E94F00680914703811136C0C3
:103F300080E294E00E94D70E80911E0483608093FB
:103F40001E0480912004843008F0C1C00E94300F0C
:103F500080E294E00E94D70E80912004843008F023
:103F6000B6C0809120048370846080932004809187
:103F70002304853B18F084EB809323040E944807B8
:103F80000E9450078091200480FF05C060E0869564
:103F900086950E94F91381E0809347038091BB03CB
:103FA000811101C04ED38EE793E080934803909334
:103FB000490387E091E08093DF039093E00341E0C1
:103FC000842E912C0CEA13E080914E0320E1E22E26
:103FD00021E0F22E32E1D32E853009F4E2C00E94B6
:103FE00028149AE5A92E93E0B92E82EA93E08F83F4
:103FF0009887FC01D5019D91808124E633E02A1742
:104000003B0709F4EAC031969817A9F32090BB0347
:104010008FE4C82E83E0D82E712CEF81F885619053
:10402000EF83F887F50181915F01861509F444C09B
:104030008625382EE12CF12C55245394832D85218F
:1040400089F1462C45202114F9F0F601808190E099
:1040500094010E2C01C0220F0A94EAF78223892BC7
:1040600099F4E9827A820E94E8078B839C8381E03D
:104070008D8391E0411001C090E09E8349815A8177
:104080006B817C818D813CDD41100CC0882D0E2C14
:1040900001C0880F0A94EAF7982F9095F601808165
:1040A00089238083550C8FEFE81AF80A88E0E81618
:1040B000F10421F6F501629273948FEFC81AD80AC1
:1040C000872D8A3009F0A9CF0E94000889C080910D
:1040D0002004883008F045CF4ACF80914E038430C9
:1040E00009F433C00E94480780914C03811109C034
:1040F000F0924C0380912004817080934B030E94C6
:104100008F1310924A0388E190E020E40FB6F894F0
:10411000A895809360000FBE2093600083B7817FD5
:10412000846083BF83B7816083BF7894889583B7A9
:104130008E7F83BF0FB6F894A89580916000886148
:1041400080936000109260000FBE0E942814E2EA83
:10415000F3E0AFE4B3E080E021912D9391E02111F1
:1041600001C090E0892B0E171F07B1F78115C9F028
:1041700080914D038115A9F0E9BCD9BC09B400FEBA
:10418000FDCF8091D8008F7D8093D8008091E00092
:1041900082608093E0008091E00081FDFCCF0E946E
:1041A000080C80914E03853009F497CF0E94080CCB
:1041B0000E94760710924C0380914B03811551F0B9
:1041C0008091200481608093200460E0869586952C
:1041D0000E94F9130E94F41202CF981317CF1EDD2C
:1041E000F0901D04F11409F445C0809120048695D7
:1041F000869590911C04891B809392038091930370
:10420000811561F0109293030E941B088093900324
:104210009093910310929403109295030E941B08AF
:104220002091900330919103AC01421B530B4F3FFF
:104230005F4700F5409167034115B1F010926703A5
:104240004091650350916603841B950B8F3F9F47F8
:1042500058F4405D5A48409365035093660380913B
:104260001E04886080931E042053384F20939003CF
:104270003093910380916403811559F01092640387
:10428000F11007C08091200460E0869586950E9419
:10429000F9130E94760790916803891709F494CE68
:1042A000809368030E94F4078FCE1F921FB61F925F
:1042B00011248F939F93AF93BF9380914A038111F1
:1042C00013C080911D0390911E03A0911F03B09114
:1042D00020034196A11DB11D80931D0390931E03E1
:1042E000A0931F03B0932003BF91AF919F918F9133
:1042F0001F901FBE1F90189578941F921FB61F9293
:1043000011248F939F93AF93BF9380911D0390913E
:104310001E03A0911F03B09120030196A11DB11DA2
:1043200080931D0390931E03A0931F03B09320035B
:10433000BF91AF919F918F911F901FBE1F901895B5
:104340001F920F920FB60F9211242F933F934F930A
:104350005F936F937F938F939F93AF93BF93EF93ED
:10436000FF938091E10082FF09C08091E20082FF0B
:1043700005C08091E1008B7F8093E1008091DA009D
:1043800080FF24C08091D80080FF20C08091DA0097
:104390008E7F8093DA008091D90080FFA9C080E1F0
:1043A00089BD82E189BD09B400FEFDCF81E0809323
:1043B0004E0380910C03811109C00E9462090E9482
:1043C00013098091E20084608093E2008091E10013
:1043D00080FF1AC08091E20080FF16C08091E20049
:1043E0008E7F8093E2008091E20080618093E20002
:1043F0008091D80080628093D80019BC85E08093BA
:104400004E0383E0809334018091E10084FF2FC04C
:104410008091E20084FF2BC080E189BD82E189BDEB
:1044200009B400FEFDCF8091D8008F7D8093D80025
:104430008091E1008F7E8093E1008091E2008F7E89
:104440008093E2008091E20081608093E20080919D
:104450000B03811509F452C084E080934E038091D0
:104460004E03843009F052C082E080933401809181
:10447000E10083FF2CC08091E20083FF28C080917F
:10448000E100877F8093E10082E080934E031092E9
:104490000B038091E1008E7F8093E1008091E20028
:1044A0008E7F8093E2008091E20080618093E20041
:1044B00042E060E080E00E9493088091F000886014
:1044C0008093F00081E08093340180933301FF9169
:1044D000EF91BF91AF919F918F917F916F915F917C
:1044E0004F913F912F910F900FBE0F901F901895F5
:1044F00019BC10924E0310920C0368CF8091E30018
:1045000087FF02C083E0A9CF81E0A7CF81E0ADCFD4
:104510001F920F920FB60F9211241F932F933F9368
:104520004F935F936F937F938F939F93AF93BF93BB
:10453000CF93DF93EF93FF93E9EEF0E0808110914A
:10454000EC008F7010FB112717F9182B1082C0EFA9
:10455000D0E08881877F888378940E94340CE9EECC
:10456000F0E010828881886088831F701083FF913B
:10457000EF91DF91CF91BF91AF919F918F917F91FB
:104580006F915F914F913F912F911F910F900FBEAF
:104590000F901F9018958EE1489B02C08150E1F763
:1045A000489BFECF0895589880E28A95F1F7589A73
:1045B0000895FC018BE08A95F1F798E020E080E017
:1045C00031E040E14A95F1F7880F489B02C08160D5
:1045D000232742E04A95F1F7000040E14A95F1F7C0
:1045E000915079F790E19A95F1F799B132E03A95C7
:1045F000F1F7000030E13A95F1F7917092272081B0
:10460000920F90830895A1E0B0E0E8E0F3E271C179
:1046100019828C017C01E60EF11CBDDFCE010196F2
:10462000C8DFF80181938F01EE15FF05B1F781E036
:104630009981911180E02196E6E077C1509A589ACD
:1046400008955098589AE89AE9E6F0E080818C7FC6
:10465000808308956150770B91E001C0990F6A95AE
:10466000EAF7692F90E021E0611108C0911591F0FF
:10467000589A80E28A95F1F758980895362F382392
:1046800039F0589A922730E23A95F1F76695ECCFD7
:104690005898F9CF5898EDCFFF920F931F93CF936F
:1046A000DF93EC018C01060F111D8991F82E7BDF41
:1046B00068E08F2DCFDFC017D107B9F7CDB7DEB7D0
:1046C000E5E034C11F920F920FB60F9211240F93A1
:1046D0001F932F933F934F935F936F937F938F938A
:1046E0009F93AF93BF93EF93FF93CF93DF930F927B
:1046F000CDB7DEB719824FDFCE0101965ADF082F02
:10470000069506950695282F22952570902F957071
:10471000920F292F237096959695920F9827977050
:104720008981892B09F055C0053008F052C080E11D
:104730008A95F1F7589A509A82E08A95F1F700C06D
:10474000589888E0089F80011124D801AF5EBE4FC1
:104750001696ED91FD911897309791F06091810236
:104760007091820214962D913D91260F371F159757
:104770008D919D91680F791F4C9113978C9109959C
:10478000F801EF5EFE4F6381611549F020918102CF
:104790003091820284819581820F931F7DDF03DF38
:1047A00080E18A95F1F758985098589A80E18A9557
:1047B000F1F7F801EF5EFE4F6081611549F020913D
:1047C00081023091820281819281820F931F1BDFCF
:1047D000E2DE0F90DF91CF91FF91EF91BF91AF910A
:1047E0009F918F917F916F915F914F913F912F9109
:1047F0001F910F910F900FBE0F901F9018950F9360
:104800001F93CF93DF93EC0105970CF05EC0F894F3
:10481000509A589885E08A95F1F700009C2F96955C
:1048200095708C2F8570980F892F8370969596952B
:10483000292F93E0CC0FDD1F9A95E1F7280F822FE7
:104840008C2B082FB0DE00C068E0802F03DF80E1F2
:104850008A95F1F75098589A489B30C087E090E0CD
:1048600048992EC0FE01EF5EFE4F6381611559F03D
:10487000209181023091820284819581820F931F61
:10488000C2DE8115F9F087DE80E28A95F1F758984B
:10489000509A80E18A95F1F7CF5EDE4F688161150D
:1048A00049F0209181023091820289819A81820FA0
:1048B000931FF2DE78DE789481E008C000C0CCCF90
:1048C000019749F4509A589A789480E0DF91CF91FB
:1048D0001F910F91089500C0C3CF2F923F924F9226
:1048E0005F926F927F928F929F92AF92BF92CF9280
:1048F000DF92EF92FF920F931F93CF93DF93CDB789
:10490000DEB7CA1BDB0B0FB6F894DEBF0FBECDBF00
:1049100009942A88398848885F846E847D848C84D1
:104920009B84AA84B984C884DF80EE80FD800C81DA
:104930001B81AA81B981CE0FD11D0FB6F894DEBFBD
:104940000FBECDBFED010895AA1BBB1B51E107C0EF
:10495000AA1FBB1FA617B70710F0A61BB70B881F0F
:10496000991F5A95A9F780959095BC01CD0108959E
:10497000EE0FFF1F0590F491E02D0994FB01DC017F
:1049800002C005900D9241505040D8F70895FC01A7
:104990004150504030F001900616D1F73197CF01C9
:1049A0000895882799270895FB01DC0104C08D91A3
:1049B0000190801921F441505040C8F7881B990B91
:1049C0000895FB01DC0102C001900D92415050405E
:1049D000D8F70895F999FECF92BD81BDF89A99272D
:1049E00080B50895A6E1B0E044E050E025C0A8E11C
:1049F000B0E042E050E020C0262FF999FECF92BDF2
:104A000081BDF89A019700B4021639F01FBA20BD93
:104A10000FB6F894FA9AF99A0FBE08950396272FC5
:104A2000ECDFEADF252FE9DF242FE7CF0196272FE0
:104A3000E4DFE2CFDC01CB01FC01F999FECF06C037
:104A4000F2BDE1BDF89A319600B40D92415050404C
:104A5000B8F70895F894FFCF110D370D3D0D370DC0
:104A60003D0D8B0DAD0D3D0D9D0EAA0EF50FF90FF1
:104A7000FC0FFF0F0210051008100B100E10111084
:104A800014101710F80F1A101D10201023102610E4
:104A900029102C102F1032103510351038103B1003
:104AA0003E104110441047104A104D105010531042
:104AB000561059101A105B105E10611064106710C8
:104AC0006A106D10701073109F10A310A610A9101B
:104AD000AC10AF10B210B510B810BB10BE10C110A2
:104AE000A210C410C710CA10CD10D010D310D61009
:104AF000D910DC10DF10A910AC10E210E510E8109E
:104B0000EB10EE10F110F410F710FA10A210A21032
:104B1000FD1000110311061109110C110F111211D2
:104B20001511A910AC10AF10B210B510B810BB1011
:104B30002A11C110B810A2102D11301133113611E5
:104B400039113C113F11421145114811A9104B1167
:104B50004E115111541157115A115D116011631109
:104B600066116911A2106C116F1172117511781113
:104B70007B117E1181118411D618F218F618FB18DA
:104B8000FF18031907190B190F1913191819F8171A
:104B9000FC17ED17F4170018041808184F18B71869
:104BA0005718211825185B1829185F186B18351825
:104BB000B01839186F183D187318981841187718DD
:104BC0009F1847187D1885182D1863183118671815
:104BD0004B1881188F18A818AE181B185318BE1838
:104BE00001000C000C0C01E507130A260A340835F5
:104BF00008000000010000000000000005010000A6
:104C00000004060000000000000C0A000000000084
:104C10000000000100310033003400360037003856
:104C200000390030002D000102E12D0103E1002ECA
:104C3000006B61007461006B6F0073610072610052
:104C40007469006B75002C003B007369007465008B
:104C50006B6500736500686100746F006B69006EBE
:104C60006E006869007375006875006865006D65A1
:104C700000736F006E6500686F002F0020003F001A
:104C80007E005D00010132000102E15D0103E100EF
:104C90000102E10101320103E1000102E1010134FD
:104CA0000103E1002A0028000102E101018701035C
:104CB000E1000102E13B0103E1007861007269005B
:104CC0007879610072650070610064690067750041
:104CD000647500706900776F006E61007879750007
:104CE0006D6F00626100646F00676900706F00782B
:104CF0007500726F007869007075007A6F007065DA
:104D000000626F005F00676100646100676F007A96
:104D100061006E69007275006D61007865005B006E
:104D20007675007A69006465006765007A65006DD4
:104D300069006E6F0078796F0078747500270062E3
:104D400069007A75006275006265006E75006D75A8
:104D500000776100786F000101350001018A0000D1
:104D6000017103946697C634F4F5F6F731333235A2
:104D70002E002D022F00300031008900300032005B
:104D80003400240235002F02270226021F022F00C2
:104D900023022E00240223022502340226022502C9
:104DA0002E0233022D0287022F02300231028902C5
:104DB000300232023302340034021F0235022E0266
:00000001FF
