:100000000C9418030C945F030C945F030C945F032F
:100010000C945F030C945F030C945F030C945F03D8
:100020000C945F030C945F030C947F270C945F0384
:100030000C94E6220C945F030C945F030C945F0312
:100040000C945F030C94B1060C945F030C945F0353
:100050000C945F030C943D230C945F030C945F039A
:100060000C945F030C945F030C945F030C945F0388
:100070000C945F030C945F030C945F030C945F0378
:100080000C945F030C945F030C945F030C945F0368
:100090000C945F030C945F030C945F030C945F0358
:1000A0000C945F030C945F030C945F0329001E0003
:1000B0001F0020002100220023002400250026002C
:1000C00027002D002E002A002B0014001A00080023
:1000D000150017001C0018000C00120013002F0060
:1000E00030003100E00004001600070009000A009B
:1000F0000B000D000E000F0033003400000028003C
:10010000E10000001D001B000600190005001100A1
:100110001000360037003800E50052000251E300BD
:10012000E200000000002C002C00E0005000000065
:10013000E600025151004F002900A65DA75DA85DB1
:10014000A95DAA5DAB5DAC5DAD5DAE5DAF5DB05D63
:10015000B15D2A002B00B35DB45DB55DB65DB75DE2
:10016000B85DB95DBA5DBB5DBC5DBD5DBE5DB25DD8
:10017000E000BF5DC05DC15DC25DC35DC45DC55DC6
:10018000C65DC75DC85DC95D00002800E1000000D4
:10019000CA5DCB5DCC5DCD5DCE5DCF5DD05DD15D0B
:1001A000D25DD35DE50052000251E300E2000000A1
:1001B0000000D55DD45DE0000100000001000251A7
:1001C0000100010035003A003B003C003D003E00CC
:1001D0003F004000410042004300440045004C0005
:1001E000010001005E5D0100D05CC35C4A004E006E
:1001F0004B004D0046000100480001000100D65CA4
:10020000D15CCE5CD55CD55C5000510052004F00F3
:1002100049004C0000002800E10000004C05D45CBF
:1002200001000100CF5CD25CD35C01000100010041
:1002300001004B0002510100010000000000D75DE9
:10024000D65D01004A000000010002514E004D0041
:1002500000000000000000002A2B28000000000021
:100260000000000000000000000000290000000065
:100270002C1E3420212224342627252E362D3738D3
:10028000271E1F202122232425263333362E3738DC
:100290001F0405060708090A0B0C0D0E0F1011129A
:1002A000131415161718191A1B1C1D2F3130232D66
:1002B000350405060708090A0B0C0D0E0F10111264
:1002C000131415161718191A1B1C1D2F3130354C15
:1002D000000000000000000000000000000000001E
:1002E000000000000000000000000000000000000E
:1002F000000000007E0F00D4FFFFFFC70000007861
:1003000000047F3F1F643214643214783C1E1E14B4
:100310000A052223252628292A2C2D2F3032333571
:1003200036383A3B3D3E4042434547494A4C4E50A1
:1003300051535557595A5C5E6062646668696B6DCB
:100340006F71737577797B7D7F81838587898A8CCF
:100350008E90929496989A9C9E9FA1A3A5A7A8AAD6
:10036000ACAEAFB1B3B4B6B8B9BBBCBEBFC1C2C30B
:10037000C5C6C7C9CACBCCCDCED0D1D2D2D3D4D5A5
:10038000D6D7D7D8D9D9DADADBDBDBDCDCDCDCDCCE
:10039000DDDDDDDDDCDCDCDCDCDBDBDBDADAD9D9A6
:1003A000D8D7D7D6D5D4D3D2D2D1D0CECDCCCBCA34
:1003B000C9C7C6C5C3C2C1BFBEBCBBB9B8B6B4B35A
:1003C000B1AFAEACAAA8A7A5A3A19F9E9C9A9896F0
:1003D0009492908E8C8A89878583817F7D7B7977C3
:1003E0007573716F6D6B6968666462605E5C5A59A3
:1003F00057555351504E4C4A4947454342403E3D64
:100400003B3A3836353332302F2D2C2A29282625F1
:100410002322FFAA7F5540000101010101010101D2
:1004200001020202020202020202030303030303A7
:100430000303040404040404040505050505060675
:100440000606060707070707080808080909090933
:100450000A0A0A0B0B0B0C0C0C0D0D0D0E0E0E0FD9
:100460000F0F101011111112121313141415151669
:10047000161717181819191A1A1B1B1C1D1D1E1EDA
:100480001F2020212222232424252626272829292B
:100490002A2B2C2D2D2E2F30313232333435363756
:1004A00038393A3B3C3D3E3F404142434445464754
:1004B00048494A4C4D4E4F50515354555658595A2D
:1004C0005B5D5E5F616264656668696B6C6D6F70D1
:1004D00072737577787A7B7D7E8082838587888A40
:1004E0008C8E8F91939596989A9C9EA0A2A3A5A777
:1004F000A9ABADAFB1B3B5B7BABCBEC0C2C4C6C973
:10050000CBCDCFD1D4D6D8DBDDDFE2E4E7E9EBEE2B
:10051000F0F3F5F8FAFDFF3C0358004400360030D4
:1005200000200033002E00300020004E0049004320
:10053000004F004C00410020004F0079006100791D
:1005400000750062006900200053006800690066C1
:1005500000740000000C0358004900550044004995
:100560000000000403090409023B00020100A0FA94
:100570000904000001030101000921110100012209
:1005800040000705810308000A0904010001030077
:100590000000092111010001223B00070582032010
:1005A000000A1201000200000008447863630100A1
:1005B0000102000105010906A1018506050719E0F0
:1005C00029E7150025019508750181020507190025
:1005D00029EF1500250195F0750181020508190123
:1005E0002905950575019102950175039101C005D5
:1005F000010906A101050719E029E7150025019564
:100600000875018102950175088101050719002906
:10061000FF150026FF0095067508810005081901E1
:100620002905950575019102950175039101C00099
:1006300011241FBECFEFDAE0DEBFCDBF04B603FE4C
:1006400027C080913A0490913B04A0913C04B09162
:100650003D048730904BA740B04BD1F410923A0440
:1006600010923B0410923C0410923D0414BE84B7D7
:10067000877F84BF0FB6F894A89580916000886149
:1006800080936000109260000FBEE0E0F8E30995EF
:1006900012E0A0E0B1E0EAEDF6E502C005900D92AF
:1006A000A43FB107D9F724E0A4EFB2E001C01D9246
:1006B000AA33B207E1F70E941A180C94B92A0C94D5
:1006C00000008093020384E595E00C948B068091F2
:1006D00003030895109200031092F7021092F6029D
:1006E000089581E0809303030E946A0380910203CE
:1006F0000C94420D109203030E946A03809102033E
:100700000C94630D209103032223F9F0805E91097C
:100710000897D8F480910103FB019281992361F03D
:10072000811104C0809102030E94630D8091010336
:100730008F5F80930103089581508093010381119D
:1007400004C0809102030C94420D0895E091FE02D2
:10075000F091FF02E65AFD45EE32F10508F08FC038
:10076000E554F54D0C94142A84E291E00C94EF08C2
:1007700085EC91E0FBCF86E291E0F8CF88E291E052
:10078000F5CF8AE291E0F2CF8CE291E0EFCF8EE2FA
:1007900091E0ECCF80E391E0E9CF8DE591E0E6CF09
:1007A00082E391E0E3CF84E391E0E0CF86E391E060
:1007B000DDCF8EE391E0DACF80E491E0D7CF83E420
:1007C00091E0D4CF86E491E0D1CF89E491E0CECF1F
:1007D0008CE491E0CBCF8FE491E0C8CF82E591E04B
:1007E000C5CF8FE892E0C2CF85E591E0BFCF8FE51E
:1007F00091E0BCCF81E691E0B9CF83E691E0B6CF3E
:100800008BE992E0B3CF8DE691E0B0CF80E791E045
:10081000ADCF83E791E0AACF86E791E0A7CF89E744
:1008200091E0A4CF8CE791E0A1CF8FE791E09ECF3C
:1008300085E992E09BCF82E891E098CF85E891E04E
:1008400095CF89E891E092CF83E991E08FCF86E957
:1008500091E08CCF89E991E089CF8CE991E086CF56
:100860008FE991E083CF82EA91E080CF85EA91E041
:100870007DCF88EA91E07ACF8BEA91E077CF089537
:100880008091FC029091FD02892B21F08DEA91E08C
:100890000C94EF0808958091FC029091FD02843D34
:1008A0002DE5920709F08DC0E091FE02F091FF0264
:1008B000E65AFD45EE32F10508F0F5C0E751F54D79
:1008C0000C94142A8FEA91E00C94EF088BEA91E0E3
:1008D000FBCF81EB91E0F8CF81EC91E0F5CF83EC99
:1008E00091E0F2CF87EC91E0EFCF8FEC91E0ECCF8D
:1008F00089ED91E0E9CF87E891E0E6CF83EE91E0E2
:10090000E3CF85EE91E0E0CF8FEE91E0DDCF87EF92
:1009100091E0DACF8EE992E0D7CF8AEF91E0D4CFA1
:100920008DEF91E0D1CF81E092E0CECF84E092E0F4
:10093000CBCF87E092E0C8CF8AE092E0C5CF8DE0D0
:1009400092E0C2CF80E192E0BFCF83E691E0BCCFDE
:1009500083E192E0B9CF81E292E0B6CF86E192E006
:10096000B3CF89E192E0B0CF8DE192E0ADCF80E2EC
:1009700092E0AACF83E292E0A7CF86E292E0A4CFF2
:1009800089E292E0A1CF85E891E09ECF8CE292E0EF
:100990009BCF84E391E098CF8FE292E095CF8EEFEA
:1009A00091E092CF82E392E08FCF85E392E08CCF0B
:1009B00088E392E089CF8BE392E086CF8EE392E0EA
:1009C00083CF853D9D4509F06EC0E091FE02F09118
:1009D000FF02E65AFD45EE32F10508F064C0E95E1B
:1009E000F44D0C94142A81E492E06ECF81E592E0FC
:1009F0006BCF8BE592E068CF8EE592E065CF81E624
:100A000092E062CF84E692E05FCF8BE892E05CCF29
:100A100087E692E059CF8AE692E056CF8DE692E0E3
:100A200053CF80E792E050CF83E792E04DCF85E748
:100A300092E04ACF88E792E047CF8BE792E044CF3D
:100A40008EE792E041CF81E892E03ECF84E892E0E9
:100A50003BCF8FE392E038CF87E892E035CF8AE84A
:100A600092E032CF8EE892E02FCF82E992E02CCF55
:100A700084E992E029CF87E992E026CF8AE992E0E3
:100A800023CF8DE992E020CF80EA92E01DCF8AE16A
:100A900092E01ACF83EA92E017CF86EA92E014CF71
:100AA00089EA92E011CF08958091F6029091F702C1
:100AB000892B49F480910003823071F028F4813051
:100AC00041F01092000308958530D8F70E944B043E
:100AD000F8CF0E94A603F5CF0E944004F2CFEF9218
:100AE000FF920F931F93CF93DF938C017B0181E0E3
:100AF00090E09093F7028093F6020E941623EC0197
:100B0000F701F2809801265A3D45FF2009F48EC076
:100B1000809100032E32310508F042C08230E1F1AD
:100B2000E8F4882309F1813009F11093FF02009362
:100B3000FE02D093FB02C093FA0280E699E00E9485
:100B4000A306F12C1092F7021092F6028F2DDF917E
:100B5000CF911F910F91FF90EF900895833049F04E
:100B6000843019F70E944B0481E017C00E94A6034D
:100B7000DCCF8091F8029091F9022091FA02309135
:100B8000FB02AC01421B530BFE01E81BF90B4E1795
:100B90005F0740F30E94A60384E080930003C5CF63
:100BA0009801245D3D452230310590F5823049F1B0
:100BB00068F4882311F1813049F11093FD0200930C
:100BC000FC02D093F902C093F802B7CF833099F0BA
:100BD000843099F78091FA029091FB022091F802FB
:100BE0003091F902AC01421B530BFE01E81BF90BDB
:100BF0004E175F0748F40E944B0482E08093000385
:100C0000DCCF0E944004D9CF0E94400483E0F6CF9D
:100C1000823009F44CC028F48130E1F010920003D6
:100C200091CF8530D8F70E944B04F8CF203331059F
:100C300008F06EC080910003823089F170F4813039
:100C400009F080CF8091FE029091FF0280179107FA
:100C500009F078CF0E94A603E1CF833059F18430A8
:100C600009F070CF8091FC029091FD0280179107EE
:100C700009F049C08091FA029091FB02C81BD90B80
:100C80002091F8023091F902821B930B8C179D077B
:100C900050F2649740F60E94400481E028C08091A1
:100CA000FC029091FD028017910709F04BCF0E9442
:100CB0004004B4CF8091FE029091FF02801791070B
:100CC000C9F48091F8029091F902C81BD90B2091C8
:100CD000FA023091FB02821B930B8C179D0708F4DC
:100CE000A2CF649708F09FCF0E94A60382E0809372
:100CF000000328CF8091FC029091FD02801791079C
:100D000009F020CF90CF8091FE029091FF02F6CFA4
:100D1000FF24F39417CFF894909305038093040372
:100D20001092800085E080938100109282001092E2
:100D30008500109284008FEF9FEF9093890080933D
:100D4000880078940895F894109285001092840099
:100D5000909389008093880082E080936F0078945C
:100D600008951F920F920FB60F9211242F933F9365
:100D70004F935F936F937F938F939F93AF93BF93A3
:100D8000EF93FF93E0910403F09105030995FF9120
:100D9000EF91BF91AF919F918F917F916F915F91F3
:100DA0004F913F912F910F900FBE0F901F9018956C
:100DB000229A2A98089522982A980895CF93C82FA6
:100DC00081FF06C00E94D8068C2FCF910C94F208A8
:100DD0000E94DB06F9CF81E00C946103CF93C0E061
:100DE0002C2F40E060E080E80E94E01ACF5FCC301A
:100DF000B9F7CF910C947A030F931F93CF93DF939E
:100E0000EC018B01C63D8DE5D807A9F0C73DEDE5A6
:100E1000DE0781F10E946703882309F444C0B8010A
:100E2000CE010E948203B801CE01DF91CF911F91C4
:100E30000F910C946F05FB018281811106C080E047
:100E4000DF91CF911F910F9108958CEA92E00E945B
:100E5000EF0880EB92E00E94EF080E947A03C0E066
:100E60002C2F40E860E080E00E94E01ACF5FCC3099
:100E7000B9F7E5CFFB018281882309F384EB92E087
:100E80000E94EF0888EB92E00E94EF080E94710335
:100E9000C0E02C2F40E06EE780E00E94E01ACF5FB8
:100EA000CC30B9F7CCCF81E0CBCF81E008950C9462
:100EB000FC0608950C9459071F93CF93DF9300D03D
:100EC00000D00F92CDB7DEB749835A836B83309140
:100ED000060389819A8131111DC06623B9F022234E
:100EE000A9F00E94320E182F682F89819A810E94E2
:100EF000DE0D69817A81812F0F900F900F900F90F6
:100F00000F90DF91CF911F910C9492140E940A0EC2
:100F1000182FEFCF0E94320E69817A81EDCFFC014C
:100F2000262F408151816281738184810C945C07FA
:100F300081E00895CF93DF93EC0160E00E948F077A
:100F4000BE01DF91CF910C945A070E9497160E9420
:100F5000F7080C94BB160C94BE1680E00C94F808AD
:100F6000089508950E94870C0E94B1072FEF84E333
:100F70009CE0215080409040E1F700C000000C94BC
:100F800061230F931F93CF93DF938C0161E00E9445
:100F90008F07EC01B8010E9457078823D9F1B801E7
:100FA000CE010E941B218823A9F1B801CE010E9425
:100FB0005B1F882379F1B801CE010E948520882328
:100FC00049F1B801CE010E94641E882319F1F8018D
:100FD0008281882361F0CB35FDE5DF0721F170F4D4
:100FE000C115ECE5DE07A1F0CF3DDC45C9F0C80135
:100FF000DF91CF911F910F910C945507CC358DE562
:10100000D807A1F0CD35DD4591F70E94DF12EFCF73
:101010000E94B20780E0DF91CF911F910F91089558
:101020000E949913F7CF0E94E812E1CF0E94EB12C1
:10103000DECF0C94B0070E9477210E94F8080C9430
:101040001908DF92EF92FF920F931F93CF93DF93D4
:10105000E82FF0E0E05BFD4FD490282F26952695F1
:10106000269530E0F901E051FD4F0491877010E0C2
:10107000082E02C0159507950A94E2F70170112712
:10108000F901E052FD4FE490F12C082E02C0F594D6
:10109000E7940A94E2F791E0E922FF24F901E05392
:1010A000FD4FC491D0E002C0D595C7958A95E2F76F
:1010B000C170DD270115110519F081EE0E94430969
:1010C000E114F10419F086EE0E9443098D2D0E946F
:1010D000190AEF2819F086EE0E94B309012B19F0C6
:1010E00081EE0E94B309CD2B51F08CE2DF91CF91BC
:1010F0001F910F91FF90EF90DF900C94190ADF91F0
:10110000CF911F910F91FF90EF90DF900895EF9294
:10111000FF920F931F93CF93DF93EC01162F0AE0FA
:101120008881882309F454C0813009F04EC0898138
:10113000813099F47E0122E0E20EF11C8A810E9446
:10114000190AE7012196812F815050F3EFE9FFE062
:101150003197F1F700C00000F7CF823041F47E01F3
:1011600082E0E80EF11C8A810E944309EACF8330B5
:1011700041F47E01E2E0EE0EF11C8A810E94B30987
:10118000E0CF843011F02196DDCF2A81229690E0C5
:1011900080E0AE014F5F5F4F2053330B2A303105A3
:1011A00048F0019778F2EFE9FFE03197F1F700C0DE
:1011B0000000F7CF089FB001099F700D1124C901ED
:1011C000860F971F2981EA01E4CF0E942108BACF38
:1011D000DF91CF911F910F91FF90EF90089560E004
:1011E0000C948708089581E008950C94F3080895FD
:1011F000CF93C82F0E94DE068C2FCF910C94F50858
:10120000CF93DF93CDB7DEB72B970FB6F894DEBF41
:101210000FBECDBF4F83588769877A878B8761114F
:101220000E942D121E821D8285E0FE013796DE018E
:10123000119601900D928A95E1F78C819D81892B01
:1012400089F449815A816B817C818D819E810E94C4
:101250004E112B960FB6F894DEBF0FBECDBFDF91B7
:10126000CF91089589819A8189238F3F51F3CE01CF
:1012700001960E9498078111E4CFEBCFFC01808199
:1012800091810C94740ECF93C82F882309F469C000
:101290008238C1F40E94772181FD63C089E30E94F6
:1012A000E8110E945D122FEF81EE94E02150804002
:1012B0009040E1F700C0000089E30E94EF11CF9158
:1012C0000C945D128338A1F40E94772180FD49C0FF
:1012D00083E50E94E8110E945D122FEF81EE94E0F9
:1012E000215080409040E1F700C0000083E5E5CF49
:1012F0008438A1F40E94772182FD33C087E40E94E4
:10130000E8110E945D122FEF81EE94E021508040A1
:101310009040E1F700C0000087E4CFCF8CEF8C0F46
:10132000813A90F46C2F80910201909103010E9408
:10133000DD21882329F08C2F0E94EF110E945D127D
:101340008C2F0E94E811BBCF80E28C0F883048F4CC
:10135000C77081E001C0880FCA95EAF70E94101299
:10136000AECFCF910895882309F44BC0823871F431
:101370000E94772181FF45C089E30E94E8110E9405
:101380005D1289E30E94EF110C945D12833859F4C9
:101390000E94772180FF35C083E50E94E8110E94FA
:1013A0005D1283E5EFCF843859F40E94772182FFE4
:1013B00028C087E40E94E8110E945D1287E4E2CF12
:1013C0009CEF980F913AF0F290E2980F983050F419
:1013D000877091E001C0990F8A95EAF7892F0E94E2
:1013E0001612D2CF9BE5980F933020F490E080E066
:1013F0000C949D21885A873120F490E080E00C9471
:10140000B32108951F93CF93DF93182FEB010E9410
:101410004309209731F4812FDF91CF911F910C94D4
:10142000B3098FE99FE00197F1F700C00000219711
:10143000F0CF70E060E0893311F460E570E00C9467
:10144000020A882321F00E9410120C945D12089564
:10145000882321F00E9416120C945D120895BF9209
:10146000CF92DF92EF92FF920F931F93CF93DF9370
:101470006C01D62FC72FFC011281F580F2949FE0FA
:10148000F9220E940612E82E8823B9F0E12E1123DA
:10149000A1F08C2F807F803421F080E28D0F883086
:1014A000B0F08091EB0382FD12C082E00E94AE1288
:1014B0000E94061291E0E82EE926BC2EB2948FE03D
:1014C000B822EB2DF0E0EB5BF44D0C94142AE12CE8
:1014D000F4CF0C2F0F70C07F11F00295007F112305
:1014E00099F0002359F080E28D0F883010F0D1116F
:1014F00007C0802F0E9410120E945D128D2F41C0E4
:10150000802F0E942012F8CF8D2F0E94B309002354
:1015100009F43FC080E28D0F883010F0D11104C073
:10152000802F0E94161203C0802F0E9426120E9454
:101530005D122FC00C2F0F70C07FC03211F00295CA
:10154000007FDD2381F0D13009F469C0112309F453
:1015500073C0FF2009F469C0F601858180FFCECFFA
:101560008F70858362C08091EB0382FF38C01123A6
:1015700059F0002329F0802F0E9410120E945D1262
:1015800080E00E94430905C080E00E94B309011178
:10159000C7CFEB2DE850FF0B349720F40E94772142
:1015A0000E94F808EE2009F45BC10E94021280FD3F
:1015B00057C1F60112820E94FC110E94420DC60121
:1015C0000E94510C0E94FC11DF91CF911F910F914D
:1015D000FF90EF90DF90CF90BF900C94630D11239C
:1015E00089F0F11006C00E944012802B0E94210A4F
:1015F000D0CFF1E0FF12F7CF0E944012802B0E9463
:101600004612C7CFF11006C00E945312802F0E94CD
:10161000280ABFCF21E0F21609F4BBCFF5CF112382
:1016200031F035E03F1508F4B4CF802FDFCF84E0F0
:101630008F1508F4AECFEACFFF2041F3D93349F438
:10164000FFEF27EE33E0F15020403040E1F700C0DB
:1016500000008D2F0E94B3099CCF8C2F837009F05E
:1016600041C0111196CF4D2F429546954770440FBA
:10167000440F0D2F0F7010E030E020E0042E04C066
:10168000000F111F221F331F0A94D2F760E070E091
:10169000CB01D4FF0FC06FE070E080E090E004C0A9
:1016A000660F771F881F991F4A95D2F7609570952E
:1016B00080959095C695C695C370602B712B822B33
:1016C000932BC23049F058F4C13019F00E94F40C49
:1016D00060CF0E94E20C5DCF0E94060D5ACF0E949F
:1016E000E00C57CF8695112311F08C2F8170882341
:1016F00009F44FCF4D2F429546954770440F440F44
:101700000D2F0F7010E030E020E0042E04C0000F19
:10171000111F221F331F0A94D2F760E070E0CB0143
:10172000D4FF0FC06FE070E080E090E004C0660F6F
:10173000771F881F991F4A95D2F7609570958095FD
:101740009095C695C695C370602B712B822B932BF9
:10175000C23049F058F4C13019F00E94B90D19CFC8
:101760000E94A70D16CF0E94CB0D13CF0E941C0D17
:1017700010CFCF70112329F08C2F0E94420D8D2F96
:1017800035CF8D2F0E94280A8C2F0E94630D01CF28
:10179000D23F51F160F4D03FB9F0D13F81F0112335
:1017A00009F449C0F110AACE8C2F8F7121C0D33F0C
:1017B00011F1D43FA1F78091EB0382FF26C08C2F5B
:1017C0008F71112311F314C0112349F084E08F1598
:1017D00008F4DFCE8C2F8F710E94860DDACE95E053
:1017E0009F1508F4D6CEF6CF8C2F8F711111CDCF67
:1017F0000E94420DCECE112329F08C2F8F710E94B2
:101800002D0DC7CE0E94280DC4CE112349F0CF71F3
:101810008C2F0E94420D63E08C2F0E949312B9CE50
:1018200081E00E94AE12E1E0EF1508F0B2CE82E056
:101830000E94AE12AECEF11001CF8C2F8F71A5CFCA
:101840004C2F4F706D2FC6010E948E140E94A20E65
:10185000A0CE4C2F4F706D2FC6010E94911499CECF
:10186000DF91CF911F910F91FF90EF90DF90CF907C
:10187000BF9008950F931F93CF93DF93EC0168817E
:1018800079818A810E947E0E8C010E94DD0D0E946A
:10189000DF0CB801CE01DF91CF911F910F910C9415
:1018A0002F0ACF93DF93EC018B819C81892B29F048
:1018B0008881998189238F3F59F4DF91CF910895D1
:1018C000CE010E943A0CCE01DF91CF910C949A0781
:1018D000CE010E94C1078111F3CF0E940612882316
:1018E00061F38A81882349F38091EB0382FDE5CF80
:1018F00082E0DF91CF910C94AE120E942D120E94D3
:101900003D120C945D120E94F6110C947D0C0E9405
:101910001D120C94830CE92FE295EF70E250EE302B
:1019200070F4F0E0EB5AF44D0C94142A803F19F057
:1019300020F4883E20F481E00895843FE1F380E0C4
:101940000895883EC0F3813FD1F7F5CF93FB8827F8
:1019500080F90895FC01808191810E94740E0C949D
:101960008B0CCF93DF9300D000D00F92CDB7DEB7B2
:101970000F900F900F900F900F90DF91CF910895DF
:10198000CF93DF9300D000D000D0CDB7DEB726963E
:101990000FB6F894DEBF0FBECDBFDF91CF91089593
:1019A00008950C94D00C0E94D10C6093380370936E
:1019B000390380933A0390933B030C947D0C089574
:1019C0000C94D30C0F931F9300913803109139039B
:1019D00020913A0330913B03602B712B822B932B88
:1019E0001F910F910C94D30C0F931F930091380308
:1019F0001091390320913A0330913B036023712306
:101A0000822393231F910F910C94D30C0F931F9358
:101A1000009138031091390320913A0330913B0330
:101A200060277127822793271F910F910C94D30C65
:101A30000C94D00C0C94180D0E941A0D6093340372
:101A40007093350380933603909337030C947D0C89
:101A500060E070E0CB010C941C0D0F931F9341E0EC
:101A600050E060E070E08A019B0104C0000F111F8C
:101A7000221F331F8A95D2F7C901B8011F910F9118
:101A80000C941C0D0F931F9341E050E060E070E058
:101A900004C0440F551F661F771F8A95D2F78091A7
:101AA000340390913503A0913603B09137038A0136
:101AB0009B01082B192B2A2B3B2BC901B8011F9125
:101AC0000F910C941C0D0F931F9341E050E060E0C8
:101AD00070E004C0440F551F661F771F8A95D2F728
:101AE000CB01BA0160957095809590950091340373
:101AF0001091350320913603309137036023712311
:101B0000822393231F910F910C941C0D0F931F930D
:101B100041E050E060E070E004C0440F551F661FD4
:101B2000771F8A95D2F78091340390913503A09165
:101B30003603B09137038A019B01082719272A270A
:101B40003B27C901B8011F910F910C941C0D0F93F5
:101B50001F93009134031091350320913603309187
:101B60003703602B712B822B932B1F910F910C94B9
:101B70001C0D0F931F930091340310913503209196
:101B800036033091370360237123822393231F91FF
:101B90000F910C941C0D0F931F930091340310911F
:101BA0003503209136033091370360277127822750
:101BB00093271F910F910C941C0D08952EE0929F76
:101BC000800D1124982F977041E001C0440F9A9521
:101BD000EAF786958695869595E0899FF001112410
:101BE000E95FFC4F90E080E070E05191DF011197D8
:101BF0009B01082E02C0369527950A94E2F72170C2
:101C000021952527242325272C930196853091059E
:101C100061F708952EE0929F800D1124982F977000
:101C200086958695869525E0829FF0011124E95FCF
:101C3000FC4F50E040E080E0219130E0092E02C0EE
:101C4000369527950A94E2F721703327042E01C0B8
:101C5000220F0A94EAF7822B4F5F5F4F4530510500
:101C600059F70895BF92CF92DF92EF92FF920F93B0
:101C70001F93CF93DF938C01C0903403D090350332
:101C8000E0903603F0903703809138039091390348
:101C9000A0913A03B0913B03C82AD92AEA2AFB2A29
:101CA000CFE1D0E0BC2ED701C6010C2E04C0B69502
:101CB000A795979587950A94D2F780FD0EC0219736
:101CC00088F7B12C8B2DDF91CF911F910F91FF9051
:101CD000EF90DF90CF90BF900895B8018C2F0E94B5
:101CE0009F15019761F3EECFCF93DF93EC010E9434
:101CF000320EBE01DF91CF910C949F151F93CF93AD
:101D0000DF93EB0190910603992331F0CB01DF9132
:101D1000CF911F910C94740E882379F0CB010E940F
:101D2000320E182F682FCE010E94DE0DBE01812FCA
:101D3000DF91CF911F910C949F15CB010E940A0E49
:101D4000182FF4CFEF92FF920F931F93CF93DF934F
:101D50008C01892B81F0F12CEE24E394E80121968B
:101D6000F8018491843770F4843008F05FC08130CA
:101D7000B1F08230A1F1DF91CF911F910F91FF90CF
:101D8000EF900895853709F44CC008F43DC09CE7F6
:101D9000980F903780F78F770E94B30949C00E5F84
:101DA0001F4FFE01849190E2980F983060F4877085
:101DB000FE2D01C0FF0F8A95EAF78F2F0E94301287
:101DC0000E945D1202C00E9443098F2D815030F2A3
:101DD000EFE9FFE03197F1F700C00000F7CF0E5FA9
:101DE0001F4FFE01849190E2980F983050F4877055
:101DF000FE2D01C0FF0F8A95EAF78F2F0E94361241
:101E0000DFCF0E94B309E1CF0E5F1F4FFE01C491E7
:101E1000C150D8F28FE99FE00197F1F700C00000B0
:101E2000F7CF0E5F1F4FFE01F490CFCF0E94430902
:101E30008E01CBCF1F93CF93DF93C0913C0316E06D
:101E400080913D038C1304C0DF91CF911F910895C1
:101E5000D0E01C9FF0011D9FF00D1124E25CFC4FAF
:101E60004081518162817381848195810E94C00C7F
:101E70002196C770E5CF40916E0350916F0360913A
:101E800070037091710380917203909173030C94AD
:101E9000C00CFF920F931F93CF93DF938091730336
:101EA000807FD1F4809170038823B1F080913C034E
:101EB00010913D0360916E0370916F03A0917103C7
:101EC000B0917203062F0723C0910001D091010148
:101ED00096E0F92E181306C0DF91CF911F910F9154
:101EE000FF90089590E0109711F00F3F19F40196BC
:101EF0008770F0CFF89E9001F99E300D1124F90102
:101F0000E25CFC4F41814713F2CF40814613EFCF93
:101F100042814111ECCF438154814A1B5B0B4C172A
:101F20005D0728F7809173038F708061809373033E
:101F3000F901ED5BFC4F80818F70806180838EE6BC
:101F400093E00E94510CDF91CF911F910F91FF9070
:101F50000C941A0FAF92BF92CF92DF92EF92FF9242
:101F60000F931F93CF93DF93CDB7DEB761970FB673
:101F7000F894DEBF0FBECDBF8C0185E0F801DE0115
:101F80001D9601900D928A95E1F7F801E2808EE6A8
:101F9000C82E83E0D82E6091710370917203611591
:101FA000710509F45FC190916E0320916F03892F31
:101FB00082238F3F09F456C140815181A380B480B0
:101FC000F0907003F501E61BF70BBF01E0910001F3
:101FD000F0910101FF2009F4F6C080917303382FBE
:101FE000307F6E177F0708F0AFC0311179C0FE2C2B
:101FF000251323C0941321C0E1101FC08F7080618E
:10200000809373030E943B0FC6010E94510C809184
:102010007303F80185838F2D61960FB6F894DEBFA8
:102020000FBECDBFDF91CF911F910F91FF90EF9029
:10203000DF90CF90BF90AF900895AB2829F0842F08
:1020400085238F3F09F027C180E0F82FF170DF2E44
:1020500080FF3CC080913C0320913D0336E0821319
:1020600015C04D875E878D859E850E94740E292F31
:1020700022952F702230F0F0243018F59F70F1F087
:10208000F8019581907FD1F4D12C1EC090E0389F4B
:10209000F001399FF00D1124E25CFC4F6181651362
:1020A00006C06081641303C062816E110FC0019687
:1020B0008770D5CF9F7011F0882331F3805E883010
:1020C00018F3C8010E94510CFD2CA5CFEE2009F495
:1020D000A2CF80917303816080937303F12C9BCF17
:1020E000251306C0941304C0F801EE2009F487C03C
:1020F000C8010E94AA0C882319F1EE2009F18091F1
:102100007303803270F020916E0330916F03388733
:102110002F831986BB86AA868C87CE0107960E94DC
:10212000510C86E0F801AEE6B3E001900D928A957D
:10213000E1F70E94490F0E943B0FFF24F3946BCFFD
:10214000C8010E94510CF9CF311113C07A2DB98A00
:10215000A88A6E2D89890E94B10C8EE693E00E94B8
:10216000510C86E0F60111928A95E9F70E943B0F27
:10217000B5CF25130FC094130DC0E1100BC0F801AB
:102180008583C8010E94510C86E0F60111928A9560
:10219000E9F741CFC8010E94AA0C882389F2EE20FA
:1021A00079F280917303803208F4BBCF20916E03E3
:1021B00030916F033A8329831B82BD82AC828E8368
:1021C000CE010196ACCF6E177F0708F03EC0FE2C03
:1021D000EE2009F4B5CF25132AC0941328C08091AE
:1021E000730380FD1BC0982F907FC1F0F801858399
:1021F000903F31F0982F907F905F8F70892B85836F
:10220000C8010E94510C86E0F801AEE6B3E00190EF
:102210000D928A95E1F70E943B0FFDCE86E0F80112
:10222000AEE6B3E001900D928A95E1F7F4CEC801D5
:102230000E94AA0C811175CF8091730381608093F5
:102240007303C8010E94510CE6CE7A2DB98AA88A80
:102250006E2D89890E94B10C86E0F60111928A9553
:10226000E9F7D9CFEE2009F46BCFC8010E94AA0C80
:10227000F82E882309F464CF86E0F801AEE6B3E0D7
:1022800001900D928A95E1F78EE693E00E943E0957
:102290000E94490FC0CF81E08E25D7CE1F93CF93E8
:1022A000DF93CDB7DEB72C970FB6F894DEBF0FBE25
:1022B000CDBF4F83588769877A878B879C87CE01EC
:1022C00007960E94AA0F882369F08A859B85892B2F
:1022D00039F04F815885842F85238F3F09F071C0D5
:1022E00016E05FC086E0FE013796DE011196019090
:1022F0000D928A95E1F78A859B85892B89F38F81D9
:10230000988589238F3F61F320913D0330E0C90117
:1023100001968770992740913C034817190671F47C
:102320000E94870C10923D0310923C0386E0EEE67B
:10233000F3E0DF011D928A95E9F7D2CF96E0929FF4
:10234000D001939FB00D1124A25CBC4FFE013196C9
:1023500001900D929A95E1F780933D030E941A0F28
:10236000BFCF819FC0011124825C9C4F0E94AA0FA5
:102370008823E9F0E0913C031E9FF0011124E25C08
:10238000FC4F4081518162817381848195810E94DB
:10239000C00C80913C0390E0019687709927809350
:1023A0003C0380913C0390913D038913DACF2C9636
:1023B0000FB6F894DEBF0FBECDBFDF91CF911F9156
:1023C000089569857A858B859C850E94C00C88CF8D
:1023D000682F80910201909103010C945D22682F77
:1023E00080910201909103010C9468228091020176
:1023F000909103010C9473228091740385958595C7
:102400008595089580917403877008959091740361
:10241000977081E009F480E0089580919803089511
:1024200090919803892B80939803089580959091BB
:102430009803982390939803089510929803089511
:1024400090919703892B809397030895809590919D
:1024500097039823909397030895109297030895F4
:1024600090919603892B809396030895809590917F
:1024700096039823909396030895109296030895D7
:1024800080917503089508950C9443129091EB0385
:1024900092FD08C090917503981721F08093750301
:1024A0000C944412089580917503882329F01092AA
:1024B000750380E00C9444120895E0910201F091BC
:1024C0000301809198038083E0910201F091030160
:1024D000808190919703892B8083E0910201F09194
:1024E0000301808190919603892B808390917503DD
:1024F000992381F0E0910201F09103018081892B01
:10250000808380910201909103010E94C921811171
:102510000E94531280910201909103010C94832137
:1025200008950C9490129091EB0392FD10C098E0E6
:10253000899F90011124622B609374030E94420DC5
:10254000809174038595859585950C9491120C94D2
:10255000420D1092740380E00C94911290917403D8
:102560008095892380937403282F277091F4282F56
:10257000082E000C330B9217130659F09091EB03C1
:1025800092FD07C08595859585950E94630D0C94F5
:10259000A91208959091EB0392FB222720F92817A6
:1025A00069F080FB92F99093EB038091EA0390919C
:1025B000EB030E94151382E00C94AE1208958091F3
:1025C000EB0382FB882780F991E089270C94CA12DB
:1025D00081E00C94CA1280E00C94CA126FEF7FEF76
:1025E00090E080E00C94A32A90E080E00E947F2A93
:1025F00021E0893E9E4F09F020E0822F089582E07D
:1026000090E00C94712A83E090E00C94712ACF93AF
:1026100084E090E00E94712AC82F82E290E00E943C
:10262000712A982F8C2FCF910895CF93C92F682F9F
:1026300084E090E00E94852A6C2F82E290E0CF91A6
:102640000C94852AAB01BC018FE090E00C94972A92
:10265000AB01BC0183E190E00C94972A60E070E04C
:10266000CB010C94281360E070E0CB010E94221390
:102670000C942E1369EE7EEF90E080E00E94A32A76
:1026800060E082E090E00E94852A60E083E090E0D4
:102690000E94852A109238031092390310923A034F
:1026A00010923B0360E084E090E00E94852A60E0A5
:1026B00082E290E00E94852A60E085E090E00E943E
:1026C000852A60E086E090E00E94852A6FEF87E02F
:1026D00090E00E94852A40E050E0BA0188E090E056
:1026E0000E94972A60E08DE090E00E94852A40E0F9
:1026F00050E0BA0188E190E00E94972A60E087E10B
:1027000090E00E94852A40E050E0BA018CE190E020
:102710000E94972A70E060E080E290E00E94A32A85
:1027200040E050E0BA0188E190E00E94972A0C94C2
:1027300033130C943A13682F8EE090E00C94852AA2
:102740000E9422236093A8037093A9038093AA0395
:102750009093AB036093A4037093A5038093A603A7
:102760009093A703089585B7806885BF85B7806873
:1027700085BF0895089508950C94BA130C94EE063D
:102780000E94B3138DE796E10E946D210E94BB1356
:102790000C94BC1381E008950C94CA130895089515
:1027A0000E94CE130C94CF130E940D230E94741725
:1027B0000E94831D0C94BE138F929F92AF92BF9282
:1027C000CF92DF92EF92FF920F931F93CF93DF93FD
:1027D000CDB7DEB72A970FB6F894DEBF0FBECDBFD8
:1027E0000E94891781110E94A0135AE9852E53E097
:1027F000952E10E000E0A02E802F0E94C0166C01E4
:10280000F401E190F1904F01E816F90609F45CC07B
:102810008091AC0381FD0E94C916C7018C259D25BE
:10282000B12CEE24E394F12C9C012E213F21232B8B
:1028300009F444C00E94CC138823A9F0BE82AF8261
:10284000CE20DF2081E0CD2809F480E088870E9437
:1028500016238160782F9A8789874E815F816885EA
:102860008A850E940009000F111FF801E656FC4FEF
:1028700080819181E826F926F182E0820E94B61DCE
:102880000E947721909199038917A9F10E947721DD
:10289000809399032A960FB6F894DEBF0FBECDBF82
:1028A000DF91CF911F910F91FF90EF90DF90CF902C
:1028B000BF90AF909F908F900C94F808B394EE0C5B
:1028C000FF1CFEE0BF12B0CF0F5F1F4F0530110598
:1028D00009F091CF8FEF89838A831B820E94162390
:1028E0008160782F9D838C8349815A816B818D8192
:1028F0000E940009C3CF2A960FB6F894DEBF0FBE20
:10290000CDBFDF91CF911F910F91FF90EF90DF909E
:10291000CF90BF90AF909F908F90089590E080E00F
:1029200008950895972F70E02EE0929F600D711D1D
:102930001124FB0196E4899FE00DF11D1124EE0F97
:10294000FF1FE455FF4F859194910895FC01EE0F10
:10295000FF1FE050FD4F859194910895CF93DF9331
:102960000E94A315EC01811521E59207D0F5811590
:1029700030E5930708F096C081159042F8F4C11530
:1029800081E0D807B8F4C03ED10588F4C03CD10539
:1029900008F07BC0C130D10569F0209759F0CE0115
:1029A0000497813A910530F0D0E0C0E003C0C83E02
:1029B000D105D0F7CE01DF91CF910895C11590E4F4
:1029C000D90708F06CC0CE019F70C11520E3D20773
:1029D00008F45EC0CE019927D3FF5EC0EC01D86C2D
:1029E000E9CF811535E5930700F5811544E5940796
:1029F00008F08DC0C11583E5D80708F074C0C11573
:102A000092E5D90708F46AC0CE018370992721E0C6
:102A100030E002C0220F331F8A95E2F7C695C695B3
:102A200080E2C89FE001112455C0811529E5920775
:102A3000A0F4811538E5930708F06EC0811546E5CE
:102A4000940708F0B1CF0E943A16C82FD0E0DC2FCF
:102A5000CC27CC27DF71D062ADCFC1158AE5D8076E
:102A600008F45FC0CE0190568115904208F09CCFCB
:102A70008D2F8F710E943A1690E0982F8827882713
:102A80009F719C012C2BE901E6CFCE01805C91095E
:102A90000E94A614EC018ECFEC01D06C8BCFDF70BE
:102AA000D06A88CFE4E096958795EA95E1F7837040
:102AB0002C2F26952695237040E2249F9001112407
:102AC000382B8C2F8370C1E0D0E002C0CC0FDD1F0B
:102AD0008A95E2F7C22BD32BDC686CCFDC2FCC2796
:102AE000C16FD06A67CFCE018370992721E030E0B3
:102AF00002C0220F331F8A95E2F7C695C69590E271
:102B0000C99FE0011124C22BD32BDA6853CFD82FF1
:102B1000CC27C46FD06A4ECFD82FCC27C06FD06AD5
:102B200049CF8C2F8F700E943A1634E0D695C79506
:102B30003A95E1F7CF709C2FEC01D0693BCF0E9412
:102B400092140C94AE1482389105B1F1B0F4813333
:102B5000910509F475C048F48932910509F469C0FA
:102B60008A32910509F473C008958533910509F4FB
:102B700059C08933910501F10895833E9105A9F16A
:102B800038F4803E9105F9F0823E910549F10895AF
:102B9000863E9105A9F1873E9105C9F1843E9105D4
:102BA00019F52091EB0321FF1FC08091EA0384FDFA
:102BB00014C087EE90E008952091EA032370A1F0FD
:102BC00080EE90E008952091EA0320FD47C0309107
:102BD000EB0330FF09C024FF44C090E080E004C054
:102BE0002091EA0322FDF7CF08952091EA0322FD08
:102BF0003BC03091EB0330FDE3CF24FFF5CFEDCFA9
:102C00002091EA0323FFF0CF24FDE7CFD2CF20911C
:102C1000EA0323FD2CC03091EB0331FFEECF84EEAD
:102C200090E008952091EA0325FFDECF89E290E04D
:102C300008952091EA0325FFD7CF85E390E008951A
:102C40002091EA0326FFD0CF8AE290E008952091F8
:102C5000EA0326FFC9CF81E390E0089589E390E07D
:102C6000089583EE90E0089582EE90E0089586EE58
:102C700090E008959091EA0392FF06C0282F2871F2
:102C80002830F9F4877F846093FF06C0282F2871CD
:102C90002831F1F4877E84612091EB0320FF06C088
:102CA000382F38713830D9F4877F816021FF06C012
:102CB000282F28712831D1F4877E816194FD877E89
:102CC0000895282F24712430F9F68B7F8860DCCF9B
:102CD000282F2471243101F78B7E8861DDCF382FB6
:102CE0003171313019F78E7F8860E0CF282F217144
:102CF000213121F78E7E8861E1CF80E008950C9428
:102D0000EE120E9489178FE39CE90197F1F700C04A
:102D100000000E94891780E00E94C01680FF04C056
:102D20000E947F160C94612308950C9481160E94D2
:102D3000F412811102C00E9499130E94FF12809325
:102D4000AC030E9407139093EB038093EA030E9465
:102D500095160E940313682F70E090E080E00E94B7
:102D6000E00C6091340370913503809136039091AB
:102D700037030C941A0D0C94EB0608950C94BD16B1
:102D8000E82FF0E0EE0FFF1FEA50FC4F80819181A9
:102D90000895089580EA8A95F1F7089500C008958E
:102DA0000C94CA16F894E82FE295EF70F0E031A188
:102DB000282F2F7081E090E001C0880F2A95EAF754
:102DC000982F9095932391A392A1892B82A3789415
:102DD0000895CF93DF93CAECD2E089918F3F11F031
:102DE0000E94D21682E0CF3CD807B9F7CCEBD2E0F4
:102DF00089918F3F11F00E94D21682E0CA3CD80719
:102E0000B9F7DF91CF910895AF92BF92DF92EF9221
:102E1000FF920F931F93CF93DF938C01D62EC62F73
:102E2000D0E0CE0186539D4F7C01FC0120812F3FD5
:102E300009F44DC0F894E22FE295EF70F0E031A173
:102E40002F7081E090E001C0880F2A95EAF7932F58
:102E5000982B91A392A18095892382A378940E94B4
:102E6000CE16ECEBF2E04AEC52E021E030E0B12C7F
:102E7000A12C61916F3FA9F1A62FA295AF70B0E090
:102E800090968C9190E06F7002C0959587956A95A9
:102E9000E2F780FD26C0C901A82AB92A220F331FF4
:102EA0004E175F0731F7F70180818F3F11F00E94C5
:102EB000D21661E0A114B10409F460E08D2D0E94E6
:102EC000D016CC0FDD1FC00FD11FB982A882DF91B1
:102ED000CF911F910F91FF90EF90DF90BF90AF9037
:102EE000089590E080E0D8CF0E94E9168AE0E6EFEE
:102EF000F3E0DF01982F1D929A95E9F7ECEEF3E0ED
:102F0000DF011D928A95E9F785E00E94D4170C94A1
:102F1000A507FF920F931F93CF93DF93CDB7DEB733
:102F20002A970FB6F894DEBF0FBECDBF8E010F5F9C
:102F30001F4F8AE0F80111928A95E9F7F12C6F2D65
:102F4000C8010E940417F394F5E0FF12F8CF4AE09D
:102F500050E0B8018CEE93E00E94642AFF24F394C1
:102F6000009709F4F12C892B41F08AE0F801ACEECE
:102F7000B3E001900D928A95E1F72F2D45E066EFC1
:102F800073E08CEE93E00E94D5170E94AB078F2D63
:102F90002A960FB6F894DEBF0FBECDBFDF91CF915A
:102FA0001F910F91FF9008950895FF920F931F9323
:102FB000CF93DF93F82E092F162FD72FC42F22235C
:102FC00049F081E08093AF030E9416239093AE03F3
:102FD0008093AD038091AF038823A1F08091AD036E
:102FE0009091AE030E942E23059760F0EF2DF02FF5
:102FF000A12FBD2F90E080E0D0E08C179D0744F01A
:103000001092AF03DF91CF911F910F91FF90089520
:10301000219131912D933D930196EFCF0E94D624BB
:103020000E94D4130C94E2240E94E6240E94DC1334
:103030000C9400250E949F220E94BD240E94C01370
:103040000E940E180E9414180E94D013FBCFEF921A
:10305000FF920F931F93CF93DF93EB01E82FD111D2
:1030600010C0442321F0F0E0E95EFB4FE4916E2FA5
:103070007E2F8E2FDF91CF911F910F91FF90EF90B8
:1030800008950D2F10E0282F30E0442329F0295E09
:103090003B4FF901249130E0F6E0CF9FC0011124AD
:1030A000EFEFF0E0BF010E94CA29AB018C2F90E046
:1030B000880F991FA5E5A49FB001A59F700D11244D
:1030C000861B970B982F990F980FBF01601B710BF0
:1030D000629FD001639FB00D729FB00D11248B2FA2
:1030E0009D9FB0011124672F7727EF01C61BD70BD7
:1030F000BE01629FE001639FD00D729FD00D11242D
:103100007F01E91AF108E09EB001E19E700DF09E8A
:10311000700D1124672F7727E61BF70BE29F8001C4
:10312000E39F100DF29F100D1124E12F722F4230FA
:10313000510599F048F44115510569F041305105A8
:1031400081F0EB2F8D2F07C04430510569F080F0DE
:1031500046305105B1F76E2F8DCFE22F7B2F812F97
:10316000FACFE22F7D2FF7CFEB2F822F712FF3CFE6
:103170007B2F822FED2FEFCF41E00C94271808957D
:103180000C94BC18CF93DF93762FE901682F842F1E
:103190000E94C018798368838A83DF91CF91089554
:1031A00080910004982F9E7F29F481708260809323
:1031B000000408958A34E8F381708864F8CF88E0C9
:1031C00090E00C94792ACF92DF92EF92FF926B01FC
:1031D0007C010E94D018B701A60188E090E0FF9022
:1031E000EF90DF90CF900C94972AE0E0F4E083E03A
:1031F000808311828FEF8283838314826081718147
:10320000828193810C94E3188091000480FF02C0B6
:103210008695089580E0089590910404933018F401
:103220009F5F90930404882351F060910004709193
:10323000010480910204909103040C94E318089512
:1032400081E00C940C1990910404992319F0915089
:1032500090930404882351F060910004709101045C
:1032600080910204909103040C94E318089581E086
:103270000C94231970E00C942F1F60910801809129
:10328000000480FF0AC08091070123E0829FC001F3
:1032900011248B5F9B4F0C943A19809109019091F6
:1032A0000A0123E0829FF0011124EB5FFB4F891795
:1032B00050F71182108212828F5F3396F8CF90916F
:1032C000000490FF14C09091090120910A0133E09D
:1032D000939FF0011124EB5FFB4F921710F00C94B9
:1032E0003D198183608342839F5F3396F6CF0895B3
:1032F000CF93DF9300D00F92CDB7DEB7909100044B
:1033000090FF0AC09E012F5F3F4F0E94C2184B8161
:1033100069818A810E945F190F900F900F90DF9151
:10332000CF910895CF93DF93EC01EC81F0E0EE5E56
:10333000FC4F4491E0E0F4E0628181810E947819C1
:103340008C818F5F8C83DF91CF910895CF93DF9332
:10335000EC01E0E0F4E0438162818C810E94781905
:103360008C818F5F8C83DF91CF9108950F931F9392
:10337000CF93DF9300D00F92CDB7DEB78C01809151
:10338000B00381110AC09E012F5F3F4F4FEF6FEFD7
:103390000E94C2188A818093B003F8016481613071
:1033A00069F08091B00340E0662361F040E0623054
:1033B00011F44091B00380E060E004C06091B0037C
:1033C00040E080E00E945F19F801848190E001965E
:1033D00063E070E00E94DE2984830F900F900F90CD
:1033E000DF91CF911F910F910895AF92BF92CF922D
:1033F000DF92EF92FF920F931F93CF93DF9300D052
:103400000F92CDB7DEB7182FF62E042FE22E909133
:10341000000490FF29C0E92FE695AE2FB0E0A1533C
:10342000BD4F8C918093BA039E7F923059F59E01D7
:103430002F5F3F4F812F0E94C2184B8169818A8183
:103440000E945F1910930104F09202040093030498
:10345000EE2051F06091000470910104809102040B
:10346000909103040E94E3180F900F900F90DF914A
:10347000CF911F910F91FF90EF90DF90CF90BF9071
:10348000AF900895823019F400910304DBCF8630A9
:1034900019F410910104D6CF8930D9F3893191F60E
:1034A000E9518E2F8170D82EE695F0E0EE5EFB4F4D
:1034B000A590B490C12CBB2460910B01C61618F0E6
:1034C0000E943D19BFCF2C2D30E0A29EC001A39ECB
:1034D000900DB29E900D112470E00E94CA29812F98
:1034E000D11013C0860F40910901420F532F511D77
:1034F0009A01220F331F240F351F2B5F3B4F402FA4
:103500006F2D0E94C218C394D7CF861BECCFE0E08A
:10351000F4E09181282F438162818AE0890F0C9425
:10352000F51981E00C94871AE0E0F4E09181282FEE
:103530004381628186EF890F0C94F51981E00C9428
:10354000941AE0E0F4E0628121E1620F08F46FEF89
:10355000282F438181810C94F51981E00C94A11AE4
:10356000E0E0F4E0628121E1621B08F460E0282FD2
:10357000438181810C94F51981E00C94B01AE0E04C
:10358000F4E0438121E1420F08F44FEF282F6281DC
:1035900081810C94F51981E00C94BF1AE0E0F4E00D
:1035A000438121E1421B08F440E0282F62818181A0
:1035B0000C94F51981E00C94CE1A20E00C94F519C6
:1035C0009091000490FF0FC02C3068F430E0F901B6
:1035D000EE0FFF1FE20FF31FEB5FFB4F8183608352
:1035E00042830C943D190895EF92FF921F93CF935D
:1035F000DF93EC0110E0EE24EA94F12C60910B01D2
:10360000161770F00E943D199A818C8190FF27C097
:103610008F5F8C83DF91CF911F91FF90EF90089582
:1036200020910901422F410F5527551FCA019A01C8
:10363000220F331F280F391F2B5F3B4F70E0C7014C
:103640000E94DE29962F8C81409103046091020430
:10365000199F800D11240E94C2181F5FCFCF815087
:10366000D8CFAF92BF92CF92DF92EF92FF920F939B
:103670001F93CF93DF93FC0182810FEF80FF01E066
:1036800010E04CE0A42E80910B011817C8F00E94A6
:103690003D198091B203013009F055C0811102C07B
:1036A00080910B0181508093B203DF91CF911F91E4
:1036B0000F91FF90EF90DF90CF90BF90AF90089563
:1036C000C0910901C12ED12CCC0DDD2DD11DCE0113
:1036D000880F991FC80FD91FCB5FDB4F1982188243
:1036E0001A8234E0E32EF12CB12C8091B2038B0DC1
:1036F0008D301CF16A2D0E94BC29892F082E000CE8
:10370000990BC816D90691F4809103048E9DA001EF
:103710008F9D500D112455954795559547959E01C0
:1037200060910204809101040E94C218B00EF1E081
:10373000EF1AF108D1F61F5FA6CF87FFDFCF909178
:103740000B01890FDBCF90E0019660910B0170E0D7
:103750000E94DE29A8CF0F931F93CF93DF93809110
:10376000090190910A0123E0829FF0011124EB5F8F
:10377000FB4F891740F1C0E0D3E060910B01C61701
:1037800040F10E943D19209105018091B103820F03
:103790008093B10390910601920F90930601191640
:1037A00054F4082E000C990B40910B014150550B1D
:1037B000841795071CF0219520930501DF91CF9187
:1037C0001F910F9108951182108212828F5F33969C
:1037D000D0CF0C2F10E070E0C8010E94DE292091AC
:1037E0000901820F482F50E02091B103022E000CF6
:1037F000330B02171307BCF020910601022E000CB8
:10380000330B201731077CF08D9F900111242B5F23
:103810003B4F4091030460910204809101040E9497
:10382000C218CF5FAACFFA01EE0FFF1FE40FF51FFA
:10383000EB5FFB4F118210821282F3CF8F929F9227
:10384000AF92BF92CF92DF92EF92FF920F931F93AE
:10385000CF93DF93EC014C81042F10E09801D80145
:103860000E94222A9B01AC010E94382A4B015C0174
:10387000E0E2F0E0E01BF10BA5E5B0E0AC019B015C
:103880000E94382A6B017C019F01DF010E941A2AE5
:103890009B01AC010E94432A9B01AC01280D391DFC
:1038A0004A1D5B1DC701B6010E94F229F22E822F2C
:1038B00090E039E23F1560F143E0249F900111242C
:1038C00035952795122F109500E085E5E82EEF1825
:1038D00080910B01081758F10E943D199C8181E0ED
:1038E000992319F0903219F48FEF8093040180919D
:1038F0000401890F8C83DF91CF911F910F91FF906D
:10390000EF90DF90CF90BF90AF909F908F900895F1
:1039100025E530E0B901681B790B9B01220F331FAD
:10392000260F371F37FFCCCF2F5F3F4FC9CF8E2DCC
:1039300001FD8F2D20910901622F600F7727771FDE
:103940009B01220F331F260F371F2B5F3B4F412F49
:10395000609102040E94C2180F5FBACF0F931F93A9
:10396000CF93DF93EC0110E000E090910B019017F2
:10397000110609F06CF40E943D198C8190E00196CB
:10398000817099278C83DF91CF911F910F910895BA
:1039900020910901A801420F511D9A01220F331FE6
:1039A000240F351F2B5F3B4F4C81609102048091A7
:1039B000010496959017110651F04CF0442349F0FC
:1039C000409103040E94C2180F5F1F4FCECF4423C3
:1039D000B9F340E0F7CFE0E0F4E080818E7F8083B0
:1039E00060817181828193810E94E3181092BB03F0
:1039F0002FEF80E792E0215080409040E1F700C037
:103A000000000C943D1960910004669570E04BE055
:103A100050E08CE091E00E94572A892B19F481E054
:103A20008093BB030E9416239093B4038093B30347
:103A300008959091000490FF35C09170811128C0C5
:103A4000926090930004662351F06091000470919D
:103A5000010480910204909103040E94E318609194
:103A60000004669570E04BE050E08CE091E00E942D
:103A7000572A892BA1F01092BB0381E08093B603F3
:103A80004091030460910204809101040C94DD1ABA
:103A9000853210F09864D5CF880F982BD2CF0E9432
:103AA000031DEBCF0895682F90910004969581E057
:103AB000890F853208F081E00C94191D81E00C9487
:103AC000531D682F9091000496958FEF890F09F48C
:103AD00084E20C94191D81E00C94611D61E00C944A
:103AE000191DE0E0F4E080818160808386950C946C
:103AF0006E1D8091000480FD0C94EB1C0C94711DD4
:103B000060E00C94191D8091B90381112EC00E94B0
:103B1000F412811104C00E9499130E94F5180E94AA
:103B2000DF18609300047093010480930204909363
:103B300003046E7F61F40E94F5180E94DF18609301
:103B400000047093010480930204909303040E9484
:103B5000D0181092BB038091000480FF03C08695AB
:103B60000E94801D81E08093B90308950F931F93F5
:103B7000CF93DF938091BB03882309F486C08091A3
:103B8000BA03E0910004E695E81BE093B5038230A8
:103B900091F5F0E0E25FFC4FE491CE2FD0E002E936
:103BA00019E18091B603882361F01092B6030E9458
:103BB00016239093B4038093B3031092B80310922A
:103BC000B7030E941623E091B303F091B4038E1B58
:103BD0009F0B8F3F9F4708F058C0EC0FFD1FF093DD
:103BE000B403E093B30383EB93E0F801DF91CF914B
:103BF0001F910F910994863049F4F0E0E55FFC4F86
:103C0000E491CE2FD0E006EA19E1CBCF893051F410
:103C1000E695F0E0E85FFC4FE491CE2FD0E004EFB2
:103C20001AE1BFCF8F3051F4E695F0E0EB5FFC4F27
:103C3000E491CE2FD0E001E31BE1B3CF853149F40D
:103C4000F0E0EE5FFC4FE491CE2FD0E00BEA1BE1F9
:103C5000A8CFC8E2D0E00EE11CE1883109F4A1CF81
:103C6000833239F4E0E0F3E0C591D49106EB19E139
:103C700098CFC4EFD1E00EEA1CE1843209F491CF71
:103C8000C0EDD7E00FEB18E18CCFDF91CF911F9102
:103C90000F910895FA01811101C0FB010994CF939E
:103CA000DF93C82FD62F0E9404198C1740F00E9472
:103CB00004198D1720F4DF91CF910C945E1D8C2F89
:103CC000DF91CF910C946E1D1F93CF93DF93EC0186
:103CD000FB011281112309F4C0C00E940D128272EF
:103CE000CD3CFCE5DF0709F49CC008F044C0C73CAC
:103CF000ECE5DE0709F481C0F0F4C43C9CE5D9078B
:103D000009F471C048F4C33CDC4509F469C0812F53
:103D1000DF91CF911F910895C53C9CE5D90709F427
:103D200067C04EE95AE161E97AE1C63CDC4579F7C2
:103D30000E944A1E53C0CA3CFCE5DF0709F467C075
:103D400068F4C83CECE5DE0709F45CC04DEA5AE1D2
:103D50006CEB7AE1C93CDC4559F3D9CFCB3C9CE50F
:103D6000D90709F459C047E359E160E279E1CC3C55
:103D7000DC45F1F2CCCFC23DFCE5DF0709F462C0BF
:103D800098F4CF3C9CE5D90709F454C008F44EC020
:103D9000C03DFCE5DF0709F452C0C13DDC4509F038
:103DA000B6CF6EE089E048C0C53D9CE5D90709F46F
:103DB0004FC058F4C33DFCE5DF0709F446C0C43DDD
:103DC000DC4509F0A4CF88E132C0C63D9CE5D907A7
:103DD00009F441C0CE35DD4509F099CF10E097CF09
:103DE0000E94791DFBCF4BE65DE16EE57DE1A0CF42
:103DF0004EE55DE16BE67DE19BCF41E95AE16EE97D
:103E00007AE196CF4CEB5AE16DEA7AE191CF4AED37
:103E10005AE16BEC7AE18CCF4BEC5AE16AED7AE136
:103E200087CF40E259E167E379E182CF81E00E94E8
:103E30006E1DD4CF65E082E00E944F1ECFCF68E0B8
:103E400086E0FACF64E18FE0F7CF67E185E1F4CF58
:103E500062E289E1F1CF83E2EACF11E058CF869A9E
:103E600041B34F7B51B35064EFB7F8949B01220FDD
:103E7000331F260F371F280F391F2817390741F422
:103E8000EFBF8FE594E00197F1F700C000000895BF
:103E9000DC016D91CD0178E051BB000000C067FFEF
:103EA00041BB660F000000C000C000C041BB00C0A5
:103EB0007A9591F7E2CFCF93DF93EC01FB018281FA
:103EC000882309F420C1C430FDE5DF07C8F5CB3FE6
:103ED0009CE5D90730F49E0122503C452431310540
:103EE00098F50E9407139093EB038093EA03C03187
:103EF000FCE5DF0709F4E0C008F061C0C8309CE5CC
:103F0000D90709F4CBC088F5C430FCE5DF0709F414
:103F1000B3C0E8F4C2309CE5D90709F4A7C080918A
:103F2000EA038260C330DC4509F4A3C08091EA0350
:103F30009091EB030E9415130E94870C80E004C04F
:103F4000C236EDE5DE0769F2DF91CF9108958091E9
:103F5000EA038061C630FCE5DF0709F48AC008F493
:103F60008FC08091EA03806284C08091EA038D7FD4
:103F7000CC309CE5D90709F47CC070F48091EA0349
:103F80008C60CA30FCE5DF0709F473C008F48AC00E
:103F90008091EA038E7F6DC08091EA03877FCE30E7
:103FA0009CE5D90709F465C08091EA038B7FCF3087
:103FB000DC4508F45EC08091EA038F7E5AC0CD3F95
:103FC000FCE5DF0709F474C040F5C4319CE5D9076E
:103FD00009F48AC058F4C231FCE5DF0709F474C063
:103FE00008F46EC08091EA03837F43C0CB3F9CE519
:103FF000D90709F449C008F04DC0C531DC4509F0C6
:1040000095CF8091EA0382FB992790F921E09227CE
:1040100090FB82F990FB83F92CC0C1308DE5D80765
:1040200009F458C088F48091EB038360CF3FECE53E
:10403000DE0769F18091EB038D7FC115DD4538F115
:104040008091EB038C7F23C0C3308DE5D80709F442
:1040500058C008F452C0C236DD4509F067CF9091D0
:10406000EA03892F8F7E94FF806103C08091EA0369
:1040700081608093EA035ACF8091EA038460F9CF8C
:104080008091EA038860F5CF8091EB038160809393
:10409000EB034CCF8091EB038260F9CF8091EA0370
:1040A0008064E7CF0E94870C8091EA038068E1CFAB
:1040B0008091EB038E7FEBCF8091EA038F7DD9CF88
:1040C0008091EA038F7BD5CF0E94870C8091EA0311
:1040D0008F77CFCF8091EB03982F909591708E7F43
:1040E000892B90FB81F9D3CF0E94870C9091EA0332
:1040F000892F97FB87F98058BCCF81E00E949B13E2
:1041000015CF80E0FBCF81E01FCFCF93DF93EB0192
:1041100086319C4511F50E940D129A81992399F0E0
:104120008A7A91E009F490E09093BC03811109C070
:1041300089E20E94E8110E945D1280E0DF91CF9138
:10414000089585E3F6CF8091BC03811104C089E214
:104150000E94EF11F0CF85E3FBCF81E0EFCF0F930B
:104160001F93CF93DF93C42FD22FFC01828188232A
:10417000C9F04093BF030E9416239093BE0380931F
:10418000BD0380E28C0F883008F050C0C77081E01A
:1041900001C0880FCA95EAF7DF91CF911F910F9167
:1041A0000C94210A1091BF03141335C08091BD03F4
:1041B0009091BE030E942E23883C910560F5C0E2D9
:1041C000CD0F1D17B9F080E2810F883040F41770D1
:1041D00081E001C0880F1A95EAF70E94280AC830CA
:1041E00048F481E09D2F977001C0880F9A95EAF7F7
:1041F0000E94210A802F0E94190AC830B8F4D77093
:1042000081E001C0880FDA95EAF7DF91CF911F9125
:104210000F910C94280A80E28C0F883038F4C77014
:1042200081E001C0880FCA95EAF7EFCFDF91CF9107
:104230001F910F9108950F939C01CB01243F4CE5F2
:10424000340759F1A8F4293DFCE53F0701F12A3D67
:104250004CE53407D1F1283D3C4591F406E221EECE
:1042600041EE68ED7CE50E94AF2080E00F9108955B
:10427000263FFCE53F07E9F0B0F0273F3C45F9F069
:10428000FC018281882339F11092BF03EFCF07E24E
:1042900025EE45EE69ED7CE5E6CF06E221EE40EE47
:1042A00064EF7CE5E0CF07E225EE44EE65EF7CE5C8
:1042B000DACF06E221EE42EE66EF7CE5D4CF07E2EC
:1042C00025EE46EE67EF7CE5CECF08E221E045EE35
:1042D0006AED7CE5C8CF81E0C9CF9093F502809369
:1042E000F40208959093C5038093C4030895E09168
:1042F000C403F091C503309721F00190F081E02DC7
:10430000099480E00895E091C403F091C5033097CB
:1043100099F020912301222359F02091EA0327FFED
:1043200007C0DC012C9111962C93119726E02C9359
:104330000280F381E02D099408952091C203309109
:10434000C3032817390771F09093C3038093C20306
:10435000E091C403F091C503309721F00680F78106
:10436000E02D099408952091C0033091C1032817CE
:10437000390771F09093C1038093C003E091C403A7
:10438000F091C503309721F00084F185E02D099468
:104390000895FC01329680912301882321F08091B9
:1043A000EA039EE187FF96E080E0915008F40895CB
:1043B00021912223D1F38F5FF8CF662301F1209161
:1043C00023012223F1F02091EA0327FF1AC0462F90
:1043D0004695469546954E3190F4677021E030E061
:1043E00002C0220F331F6A95E2F7840F911DFC0172
:1043F000828190E02823392381E0232B69F480E037
:104400000895FC01329608962191261721F0E817AD
:10441000F907D1F7F4CF81E008959C01FC013296B1
:104420009FEF80E04191461751F09F3F19F44111F1
:1044300001C0982F8F5F8630A9F79F3F09F4089538
:10444000290F311D97FD3A95F90162830895FC010A
:10445000329608962191261303C0DF0111971C9212
:10446000E817F907B9F70895E62FE695E695E6957A
:10447000EE3168F4E80FF92FF11D677021E030E0AC
:1044800001C0220F6A95EAF78281822B8283089508
:10449000E62FE695E695E695EE3170F4E80FF92FF4
:1044A000F11D677021E030E001C0220F6A95EAF744
:1044B000209582812823228308952091230122239D
:1044C00029F02091EA0327FD0C9434220C940D224C
:1044D00020912301222329F02091EA0327FD0C9447
:1044E00048220C942722FC013296809123018823D4
:1044F00051F08091EA0387FF06C08EE1DF011D9233
:104500008A95E9F7089586E0F9CF08950C948522FD
:10451000811105C081E08093C6030C94862282E05D
:10452000FACF83E08093C6030C9486220C948822F1
:1045300081E08093C6030C9486220C9498220895FF
:1045400080913104843031F10E94AD071092C7038D
:1045500088E190E020E40FB6F894A895809360007D
:104560000FBE2093600083B7817F846083BF83B7D1
:10457000816083BF7894889583B78E7F83BF0FB6A1
:10458000F894A895809160008861809360001092F3
:1045900060000FBE089508950895CF930E94CB2226
:1045A0000E9489170E94CC22C0E08C2F0E94C01666
:1045B000892B31F4CF5FC530C1F780E0CF910895EA
:1045C00081E0FCCF0E94870C0C941B081F921FB641
:1045D0001F9211248F939F93AF93BF938091C70332
:1045E000811113C08091290490912A04A0912B0479
:1045F000B0912C044196A11DB11D80932904909384
:104600002A04A0932B04B0932C04BF91AF919F91E7
:104610008F911F901FBE1F90189582E084BD93E07C
:1046200095BD9AEF97BD80936E0008952FB7F894CB
:104630008091290490912A04A0912B04B0912C041C
:104640002FBF08952FB7F8946091290470912A0420
:1046500080912B0490912C042FBF08959C014FB79B
:10466000F8948091290490912A04A0912B04B09190
:104670002C044FBF821B930B089578941F921FB692
:104680001F9211248F939F93AF93BF93809129041E
:1046900090912A04A0912B04B0912C040196A11DA5
:1046A000B11D8093290490932A04A0932B04B09306
:1046B0002C04BF91AF919F918F911F901FBE1F90AF
:1046C000189581E08093E00080E28093D8001092FA
:1046D000C9008FE19EE40197F1F700C0000087E078
:1046E00090EBDC0180933A0490933B04A0933C044C
:1046F000B0933D0488E19CE00FB6F894A8958093B0
:1047000060000FBE90936000FFCF8091E803089592
:1047100008950895CF93DF93EC01809123018823BE
:10472000B1F18091EA0387FF32C060E282E08093BA
:10473000E9008FEF9091E800815095FD06C095ED5E
:104740009A95F1F700008111F5CF8091E80085FF7F
:104750001BC08091230170E050E040E0811104C053
:1047600050E040E068E070E0CE010E947225809148
:10477000E8008E778093E80080E2FE01A8ECB3E0C9
:1047800001900D928A95E1F7DF91CF91089568E04D
:1047900081E0CDCF0895089580913004811109C042
:1047A0000E9404270E9461278091E2008460809328
:1047B000E20008951092300408950C9498226091BC
:1047C0002D0481E0611101C080E00C949122909150
:1047D000310481E0943009F080E060912D040C9464
:1047E000962242E061EC81E00E94802642E261EC88
:1047F00082E00E9480269091310481E0943009F09B
:1048000080E060912D040C948822809133048330E1
:1048100009F460C030F48130C9F1823009F49CC0E1
:1048200008958A3009F488C08B3009F46EC089304D
:1048300009F04FC080913204813209F04AC0809162
:10484000360490913704029708F043C08091E80045
:10485000877F8093E8008091E80082FF36C09091C6
:10486000F3008091F200029731F48091F1008130E1
:1048700011F0863021F48091F1008093E80380915B
:10488000E8008B778093E8000C94B4268091320482
:10489000813AF9F48091E800877F8093E800809165
:1048A000360490913704892B61F460E288EC93E040
:1048B00070E00E94C3258091E8008B778093E80028
:1048C000089560E090E080E0F3CF809131048111A1
:1048D000C2CF089580913204813AD9F7809136048D
:1048E00090913704892BA9F78091E800877F809306
:1048F000E8008091E80080FFFCCF80912301809345
:10490000F1008091E8008E77BDCF80913204813232
:1049100001F78091360490913704892BD1F680916C
:10492000E800877F8093E8000E94B42680913404D9
:10493000809323010C94870C80913204813249F6D4
:104940008091E800877F8093E8000E94B4268091E0
:1049500035048093E903089580913204813A09F087
:10496000B8CF8091E800877F8093E8008091E800CD
:1049700080FFFCCF8091E903C2CF84B7877F84BFDB
:104980000FB6F894A89580916000886180936000CC
:10499000109260000FBE80E890E00FB6F89480930C
:1049A0006100909361000FBE0C949D220E94042729
:1049B0000E946127E2EEF0E0808184608083789439
:1049C0000C94A12987E191E00C947221809131042B
:1049D0008530A9F480913104853011F00C94E222E5
:1049E0000E94A02280912F048823A1F30E94CD224F
:1049F000882381F30E945C250E94870CEBCF0895E9
:104A00000C94A1290C940425292F33272330310538
:104A100019F168F42130310509F444C02230310520
:104A200009F445C090E080E030E020E025C021326C
:104A3000310549F122323105A9F780E490E02FEEEB
:104A400035E061157105C1F08BE390E024EB35E0B2
:104A50006130710589F0E6CF99278130910581F0A9
:104A6000009729F00297F1F6E7E1F5E002C0E3E6EE
:104A7000F5E0849190E09F01FA013183208308954D
:104A8000E5E5F5E0F6CF89E090E029E735E061154E
:104A9000710591F389E090E022E935E0613071051C
:104AA00059F3C0CF82E190E022EA35E0E5CF8BE315
:104AB00090E027E635E0E0CF80E189BD82E189BD65
:104AC00009B400FEFDCF8091D8008F7D8093D8007F
:104AD0008091E00082608093E0008091E00081FDA1
:104AE000FCCF0895AF92BF92CF92DF92FF920F93C7
:104AF0001F93CF93DF936C01EB018A010E94D326B1
:104B0000F82E811125C00115110539F0F8018081B9
:104B10009181C81BD90BC80ED91EB12CA12C20978E
:104B2000B9F08091E80085FD24C08091E8008E777F
:104B30008093E8000E94A12901151105A1F0F80158
:104B400080819181A80EB91EB182A08285E0F82EE5
:104B50008F2DDF91CF911F910F91FF90DF90CF901C
:104B6000BF90AF9008950E94D3268823C1F2F82EFB
:104B7000EFCFF60181916F018093F1002197FFEF54
:104B8000AF1ABF0ACCCFFC01809138049091390450
:104B900086179707A0F06115710529F49091E80038
:104BA0009E779093E80090E06115710551F49111A2
:104BB00008C08091E80082FF34C080E00895BC0105
:104BC000F2CF809131048823C1F18530C1F1809109
:104BD000E80083FD30C08091E80082FDEACF80913B
:104BE000E80080FFE1CF8091F3002091F200382FA0
:104BF0006115710519F02830310558F091E0283021
:104C0000310509F090E02091E8002E772093E8002C
:104C1000CBCF81918093F100615071092F5F3F4F9D
:104C2000E7CF80913104882341F0853041F08091B5
:104C3000E80083FFBECF81E0089582E0089583E01D
:104C40000895FC01809138049091390486179707E4
:104C5000A0F06115710529F48091E8008E778093AA
:104C6000E80090E06115710551F4911108C0809140
:104C7000E80082FF35C080E00895BC01F2CF80914A
:104C800031048823C9F18530C9F18091E80083FDA2
:104C900031C08091E80082FDEACF8091E80080FF7A
:104CA000E1CF8091F3002091F200382F611571055A
:104CB00019F02830310558F091E02830310509F01D
:104CC00090E08091E8008E778093E800CBCF8491CC
:104CD0008093F1003196615071092F5F3F4FE6CF0D
:104CE00080913104882341F0853041F08091E800C3
:104CF00083FFBDCF81E0089582E0089583E00895A9
:104D0000982F973028F08F708093E90081E0089504
:104D10009093E900242F762F50E0981731F070918E
:104D2000EC002091ED005091F00021FD02C09F5F4A
:104D3000E8CF3091EB003E7F3093EB003091ED00F7
:104D40003D7F3093ED003091EB0031603093EB000C
:104D50007093EC002093ED005093F0002091EE0052
:104D600027FDE5CF80E008958091320487FF13C0CE
:104D70008091E80082FF06C08091E8008B778093E5
:104D8000E80004C0809131048111F2CF0895809130
:104D900031048823D9F38091E80080FFF8CF809117
:104DA000E8008E77ECCF2091E4003091E50095E6A5
:104DB000A9012091EC00822F817020FF06C0809114
:104DC000E80080FF06C080E008952091E80022FD01
:104DD0001AC080913104882389F0853089F0809150
:104DE000EB0085FD0FC02091E4003091E5004217F3
:104DF0005307F9F29150E1F684E0089582E00895B6
:104E000083E0089581E008950E9472270E947A2726
:104E1000E0EEF0E0808181608083E8EDF0E0808169
:104E20008F77808319BCA7EDB0E08C918E7F8C9337
:104E300080818F7E80831092300408950F931F939A
:104E4000CF93DF930E9472270E947A27C8EDD0E0AB
:104E500088818F77888388818068888388818F7D27
:104E6000888319BC1092310410922D0410922F04E3
:104E700010922E0400EE10E0F80180818B7F808379
:104E800088818160888342E060E080E00E94802623
:104E9000E1EEF0E080818E7F8083E2EEF0E08081C1
:104EA00081608083808188608083F80180818E7F2B
:104EB0008083888180618883DF91CF911F910F91DA
:104EC0000895E8EDF0E080818F7E8083E7EDF0E0EB
:104ED00080818160808384E082BF81E080933004A0
:104EE0000C941E27E8EDF0E080818E7F8083109285
:104EF000E20008951092DA001092E10008951F92E6
:104F00000F920FB60F9211242F933F934F935F93FD
:104F10006F937F938F939F93AF93BF93EF93FF9381
:104F20008091E10082FF0BC08091E20082FF07C008
:104F30008091E1008B7F8093E1000E94A029809105
:104F4000DA0080FF19C08091D80080FF15C08091E1
:104F5000DA008E7F8093DA008091D90080FF91C0C3
:104F600080E189BD82E189BD09B400FEFDCF81E009
:104F7000809331040E94CC238091E10080FF19C00E
:104F80008091E20080FF15C08091E2008E7F8093C7
:104F9000E2008091E20080618093E2008091D8007D
:104FA00080628093D80019BC85E0809331040E9410
:104FB000DF238091E10084FF2BC08091E20084FF19
:104FC00027C080E189BD82E189BD89B5982F9170A4
:104FD00080FFFBCF8091D8008F7D8093D800809197
:104FE000E1008F7E8093E1008091E2008F7E8093CC
:104FF000E2008091E20081608093E20080912D04C4
:10500000882309F444C084E0809331040E94E7239C
:105010008091E10083FF24C08091E20083FF20C0E3
:105020008091E100877F8093E10082E080933104EA
:1050300010922D048091E1008E7F8093E100809199
:10504000E2008E7F8093E2008091E2008061809395
:10505000E20042E060E080E00E9480260E94DD23C2
:10506000FF91EF91BF91AF919F918F917F916F9140
:105070005F914F913F912F910F900FBE0F901F9016
:10508000189519BC109231040E94DA2375CF8091D3
:10509000E30087FD93E090933104B8CF1F93CF9343
:1050A000DF93CDB7DEB7AA970FB6F894DEBF0FBE79
:1050B000CDBF82E394E02091F100FC012193CF0168
:1050C000F4E08A339F07B9F70E9405248091E80035
:1050D00083FF1EC180913204909133049A3008F00E
:1050E00017C1E92FF0E0ED59F44D0C94142A8038E3
:1050F00099F0823809F00CC1809136048F708730A6
:1051000008F006C18093E9008091EB0085FB8827B9
:1051100080F91092E90006C080912E0490912F042E
:10512000911182609091E800977F9093E8008093BE
:10513000F1001092F1008091E8008E77E5C088239D
:1051400009F4D3C0823009F0E3C0809134048111A6
:10515000D6C0809136048F702FEF280F263008F0CC
:10516000D7C08093E9002091EB0020FFC8C09330A6
:1051700031F48091EB0080628093EB00C0C090918D
:10518000EB0090619093EB0021E030E001C0220F32
:105190008A95EAF72093EA001092EA008091EB00EA
:1051A0008860EACF8111B4C0109134041F778091D8
:1051B000E3008078812B8093E3008091E800877F73
:1051C0008093E8000E94B4268091E80080FFFCCF25
:1051D0008091E30080688093E30082E0111183E016
:1051E0008093310495C08058823008F091C080913E
:1051F0003404909135048C3D23E09207A1F583E0BF
:105200008A838AE289834FB7F894DE01139620E0FF
:105210003EE051E2E32FF0E050935700E49120FF8D
:1052200003C0E295EF703F5FEF708E2F90E0EA30A1
:10523000C0F0C7968D939D932F5F243159F74FBFD0
:105240008091E800877F8093E8006AE270E0CE01F9
:1052500001960E94C3258091E8008B778093E80037
:1052600057C0C096E7CF6091360470913704AE0105
:105270004F5F5F4F0E940225BC01892B09F448C093
:105280009091E800977F9093E80089819A810E942D
:105290002126E1CF8038E1F58091E800877F809377
:1052A000E80080912D048093F10045CF811130C03A
:1052B00090913404923060F58091E800877F80936C
:1052C000E80090932D040E94B42680912D04882339
:1052D00011F084E005C08091E30087FDFACF81E002
:1052E000809331040E94F12313C0809134048130F3
:1052F00079F481E0933009F080E080932F041092DC
:10530000E9008091E800877F8093E8000E94B4263E
:105310008091E80083FF0AC08091E800877F809336
:10532000E8008091EB0080628093EB00AA960FB6B4
:10533000F894DEBF0FBECDBFDF91CF911F910895CE
:105340000895CF93809131048823A1F0C091E900A2
:10535000CF709091EC00892F817090FD80E8C82B70
:105360001092E9008091E80083FD0E944E28CF70E2
:10537000C093E900CF91089587FB082E062687FD8C
:10538000819567FD61950E944B2A0EF4919507FC6B
:1053900081950895AA1BBB1B51E107C0AA1FBB1F23
:1053A000A617B70710F0A61BB70B881F991F5A95B1
:1053B000A9F780959095BC01CD01089597FB072E24
:1053C00016F4009407D077FD09D00E94CA2907FC83
:1053D00005D03EF4909581959F4F08957095619505
:1053E0007F4F0895A1E21A2EAA1BBB1BFD010DC021
:1053F000AA1FBB1FEE1FFF1FA217B307E407F50785
:1054000020F0A21BB30BE40BF50B661F771F881F60
:10541000991F1A9469F760957095809590959B01F6
:10542000AC01BD01CF010895EE0FFF1F0590F4916F
:10543000E02D09940E94222A332312F48A1B9B0B2D
:105440000C94332AA29FB001B39FC001A39F700D9B
:10545000811D1124911DB29F700D811D1124911D7C
:1054600008950E94222AB7FF0895821B930B089586
:105470000E94222AA59F900DB49F900DA49F800D9D
:10548000911D11240895B7FF0C94382A0E94382AE0
:10549000821B930B0895991B79E004C0991F9617FE
:1054A00008F0961B881F7A95C9F780950895FC012E
:1054B0004150504030F001900616D1F73197CF019E
:1054C0000895882799270895FB01DC0104C08D9178
:1054D0000190801921F441505040C8F7881B990B66
:1054E0000895F999FECF92BD81BDF89A992780B5AC
:1054F0000895A6E1B0E044E050E00C94AB2AA8E1A6
:10550000B0E042E050E00C94AB2A262FF999FECF90
:1055100092BD81BDF89A019700B4021639F01FBA06
:1055200020BD0FB6F894FA9AF99A0FBE0895039623
:10553000272F0E94862A0E94852A252F0E94862ACC
:10554000242F0C94862A0196272F0E94862A0C94D9
:10555000852ADC01CB01FC01F999FECF06C0F2BD22
:10556000E1BDF89A319600B40D9241505040B8F721
:105570000895F894FFCFB403B803BB03BE03C1037F
:10558000C403C703CA03CD03D003D303D603FD036B
:10559000D903DC03DF03E203E503E803EB03EE03D7
:1055A000F103F403F703FA030004030406040904F7
:1055B0000C040F041204150418041B041E04210417
:1055C000240427042A042D04300433043604390447
:1055D0003C046204660469046C046F04720475047C
:1055E00078047B047E0481048404A50487048A046F
:1055F0008D0490049304960499049C049F04A204CF
:105600006C046F04A804AB04AE04B104B404B70482
:10561000BA04BD04C0045305C304C604C904CC04C1
:10562000CF04D204D504D804DB04DE046204F304FE
:10563000F60469046C046F047204750478047B0436
:105640007E0481048404A5045305F904FC04FF04CA
:105650000205050508050B050E05110514056C046A
:1056600017051A051D0520052305260529052C0506
:105670002F0532053505530538053B053E05410527
:10568000440547054A054D055005690A690A9A0A05
:105690009A0AC90AC90AC90AC90A2D0BB90BC80B4B
:1056A000C80B200CC90AC90A290C960C960C9F0C31
:1056B0009F0CA10C9F0C9F0C9F0C960C960CA60C9B
:1056C0009F0C9F0CA60C77289F2888299F28882943
:0A56D000D228F32888294A29562918
:1056DA00C8007603010102000C000C0C01191A1B08
:1056EA001C1D1E1F20212285238A23CA238823CB1F
:1056FA002389230131003300340035003600370096
:10570A00380030002D000102E12D0103E1002E00D6
:10571A006B61007461006B6F0073610072610074E9
:10572A0069006B7500010139010136010139002C4C
:10573A00003B000101390101870101390073690049
:10574A007465006B6500736500686100746F006BB7
:10575A0069006E6E0001012A000101390101370159
:10576A000139006869007375006875006865006D25
:10577A006500736F006E6500686F002F0020003FA0
:10578A00000101390102E101012E0103E1010139A0
:10579A00005D00010132000102E15D0103E1000147
:1057AA0002E10101320103E1000102E101013401D8
:1057BA0003E10028000102E10101870103E1000180
:1057CA0002E13B0103E100786100726900787961C6
:1057DA000072650070610064690067750064750095
:1057EA00706900776F006E6100787975006D6F00DF
:1057FA00626100646F00676900706F0078750072FB
:10580A006F007869007075007A6F00706500626FCA
:10581A00000101390102E10101380103E101013905
:10582A000001013901013801013900676100646131
:10583A0000676F007A61006E69007275006D610021
:10584A007865005B007675007A69006465006765B3
:10585A00007A65006D69006E6F0078796F00787460
:10586A00750027006269007A75006275006265003A
:10587A006E75006D7500776100786F0001018B000D
:10588A000101910001018A0001019000F0F1C6674F
:10589A0066369431373534979633909192939500C2
:1058AA0001020202020606060909090909090F0F7F
:1058BA000F0F0F0F15151518191919191919191983
:0458CA001919232461
:00000001FF
